:100000000C9496340C94C7340C94C7340C94C734B5
:100010000C94C7340C94C7340C94C7340C94C73474
:100020000C94C7340C94C7340C94C7340C94C73464
:100030000C94B8570C94C7340C9448E70C9492E491
:100040000C94C7340C942EED0C94C7340C94C73424
:100050000C94C7340C94C7340C94C7340C9465507A
:100060000C94C7340C9446420C94C7340C94C73497
:100070000C94C7340C9478600C94C7340C94C73437
:100080000C9496E90C94C7340C94C7340C94C73480
:100090000C9402420C94C7340C94C7340C94C734AB
:1000A0000C94C7340C94C7340C9411E20C94C734EC
:1000B0000C94C7340C94F3E10C94C7340C94C734FB
:1000C0000C94C7340C94C7340C94C7340C94B3E12B
:1000D0000C94C7340C94C7340C94C7340C94C734B4
:1000E0000C94C734084AD73B3BCE016E84BCBFFD9D
:1000F000C12F3D6C74319ABD56833DDA3D00C77FF8
:1001000011BED9E4BB4C3E916BAAAABE0000008090
:100110003F05A84CCDB2D44EB93836A9020C50B91F
:10012000918688083CA6AAAA2ABE000000803F0744
:10013000634236B79BD8A71A39685618AEBAAB5582
:100140008C1D3CB7CC5763BD6DEDFD753EF6177247
:1001500031BF000000803F08000000BE9224491219
:100160003EABAAAA2ABECDCCCC4C3E00000080BE3D
:10017000ABAAAAAA3E00000000BF000000803F001A
:1001800000000000084178D3BB4387D1133D190E0E
:100190003CC3BD4282AD2B3E68EC8276BED98FE176
:1001A000A93E4C80EFFFBE01C4FF7F3F000000006E
:1001B00000000C94F1D50C9427950C941A930C9490
:1001C000DFD50C94139A0C94579C0C940B930C94BD
:1001D000C6AE0C94F4D50C94FFA80C94DCD50C940A
:1001E00011A90C943BD50C9404D60C94E8D50C942E
:1001F000CBAE0C94E7DE0C94189A0C943AAF0C94A6
:1002000057A90C94C1A30C9484500C94DF9A0C94BD
:10021000ABD50C94469E0C94B4BF0C940C990C94E2
:10022000B8A90C94F9500C9408B60C94E2D50D942E
:1002300093790C94649A0C94A6B50C947ED50C9486
:100240004CA90C9432A00C9415D30D94BD730C944E
:100250000BB60D94AF790C940E9A0C94C6C20C9404
:1002600003A30C94B6D90C949E500C9436950C9420
:100270002A930C94BCC50C94DCC20C94BEAE0C94B6
:1002800034C30C94AED50C944E930C9403DA0C94B6
:100290002E930C94AFB50C9426E40C9460A80D94A6
:1002A0004D790C94E9AE0C9458AF0C9481960C9453
:1002B000E69A0C94B7500C9444AF0C94D6980C94D6
:1002C0006BA90C946AD40C946BC40C9401A60C9486
:1002D000309A0C948BC50C94B2C50C941D9A0C9456
:1002E00098AB0C94E3AC0C9465960C9419D30C94D5
:1002F00068E40C940DAF0D94C4790C940CD60C9456
:10030000CF940C94DFAE0C94E0940C9480B20C94D7
:1003100045930C941CD60C94C1950C94909C0C9411
:1003200016D00C9423B60C9434D60C94E3E30C94BE
:10033000A9500C9486AB0D9485170C94169D0C94C3
:1003400048D50C9405930C9400C60C94C1BD0C9434
:100350000BA90C9459C50C9427C50C94ABD20C94E2
:10036000A3C50C943CD60C9459B40D94D8400C946D
:100370009F950C94D5AE0D943E730C941AB60C94C4
:100380007DAB0C9414D60C94EED50C9497960C94EB
:10039000BFD10C9412A80C94DAC50C943C930C9425
:1003A00059E40C942CD60C94A79F0C9444D60C942E
:1003B0004EAF0C9447530C94ABB30C9403AF0C9416
:1003C00026AF0C944E500C9430AF0C94EBD50C949B
:1003D00082B90D94AE0F0C9416D50C948FAB0C947F
:1003E000F9AE0C94D0E30C94EBD90C941FB20C949E
:1003F00091A80C94D6500C9417930D94BF790C943B
:1004000024930C944D950D947C110C949E960C9411
:10041000D4950C9438A20C9479A70C942B9F0C942F
:10042000BA960C9442950C9454D20C9452D10C94DC
:1004300011B60C94FFA90C9495AC0C94279A0C94CB
:10044000C3D10C940CA70C94A79E0C9408A80C94F0
:1004500028D90C94EE9E0C9457930C94FED40D94D2
:100460007E130C94CD500C941BBA0C9461950D9492
:10047000B6730C944A930C9446BA0C9417AF0C9430
:10048000EC9A0D9457730C94C1B50C9451C50C940F
:1004900047C50C9468B90C940F930C9440A90C9424
:1004A000A5D90C9432930C9494B90C9413930C9496
:1004B0006B950C94F1AE0C943DA80C9440930D9464
:1004C000B2790D94B9730C9405A90C94F0C50C94F1
:1004D00045D50C9457950C942EA90C94229A0C9403
:1004E00081E40C9456A20C94FFB50C940B510C941F
:1004F00052930C94B8C50C94AA950C9473D30C9495
:10050000BDA90C949D990C9462A40C948B950C94A9
:100510008E9F0C94D5940C94259F0C94B3420C940C
:100520000EB60C944CD60C94E0950C94D19A0C9485
:10053000779E0D94B6790C9468A90C94BA980C9493
:1005400038930C94E4940C941CD00D9499730C94EF
:10055000FCD50C9495950C9475950C94E5D50C945C
:10056000F1950C942C9A0C9420930C9424D60C9412
:10057000D89A0C9446930C942C520C943ED50C941F
:10058000A8D50C9481950C94CA9A0C941B950C9444
:1005900066A90C942C980C94099A0C94BCA36E61D7
:1005A0006E00696E660000407A10F35A00A0724E29
:1005B00018090010A5D4E80000E87648170000E408
:1005C0000B54020000CA9A3B000000E1F505000050
:1005D00080969800000040420F000000A0860100B5
:1005E0000000102700000000E80300000000640085
:1005F000000000000A0000000000010000000000F0
:100600002C76D888DC674F0823DFC1DFAE59E1B113
:10061000B796E5E3E453C63AE651997696E8E6C222
:100620008426EB898C9B62ED407C6FFCEFBC9C9F29
:1006300040F2BAA56FA5F490055A2AF75C936B6C4B
:10064000F9676DC11BFCE0E40D47FEF520E6B5003F
:10065000D0ED902E0300943577050080841E0800AD
:1006600000204E0A000000C80C333333330F986E5D
:1006700012831141EF8D2114893BE65516CFFEE61A
:10068000DB18D1844B381BF77C1D901DA4BBE424E0
:10069000203284725E228100C9F124ECA1E53D275D
:1006A0002200656E717565696E67202200446F6E69
:1006B00065207072696E74696E672066696C65008A
:1006C0004E6F204C696E65204E756D6265722077A5
:1006D00069746820636865636B73756D2C204C6169
:1006E0007374204C696E653A20004E6F2043686534
:1006F000636B73756D2077697468206C696E652013
:100700006E756D6265722C204C617374204C696E3D
:10071000653A2000636865636B73756D206D69735E
:100720006D617463682C204C617374204C696E6534
:100730003A20004C696E65204E756D6265722069C5
:1007400073206E6F74204C617374204C696E652049
:100750004E756D6265722B312C204C617374204C88
:10076000696E653A2000257520627974657320777B
:1007700072697474656E20746F2025532061742033
:1007800061646472657373203078253038780A00AC
:10079000442564202D20526561642F577269746569
:1007A0002025530A0020436F756E7420583A2000AC
:1007B00045303A25642052504D2050524E313A2552
:1007C000642052504D204530403A25752050524EFD
:1007D00031403A25750A00526573656E64002553F1
:1007E0003A20256C640A25530A002F2F616374692F
:1007F0006F6E3A6E6F74696669636174696F6E20BB
:1008000025530A0046696C616D656E742072756EC1
:100810006F75742064657465637465642100646930
:100820007361626C656400656E61626C656400454D
:100830004550524F4D005352414D00442D31202D13
:1008400020456E646C657373206C6F6F700A004195
:1008500063746976652045787472756465723A20B0
:100860003000496E76616C696420657874727564D5
:100870006572004D3232302053256400534420709D
:1008800072696E74696E67206279746520002575DF
:1008900000556E6B6E6F776E20636F6D6D616E6469
:1008A0003A2022004D32303020496E76616C696406
:1008B00020657874727564657220007A5F6D617866
:1008C0003A20007A5F6D696E3A2000795F6D696E3B
:1008D0003A2000545249474745524544006F7065DD
:1008E0006E00785F6D696E3A20005265706F7274A9
:1008F000696E6720656E6473746F702073746174C1
:100900007573004D3131322063616C6C65642E204B
:10091000456D657267656E63792053746F702E0044
:100920002F2F616374696F6E3A75766C6F5F7265B5
:10093000636F766572795F72656164790025533AF9
:10094000256C7520636D0A25533A256C75206D69F9
:100950006E0A0053494C454E54004E4F524D414C87
:10096000002553204D4F44453A2050657263656E13
:100970007420646F6E653A20256868643B2070724D
:10098000696E742074696D652072656D61696E6948
:100990006E6720696E206D696E733A2025643B2076
:1009A0004368616E676520696E206D696E733A20D9
:1009B00025640A005072696E7465725374617465BF
:1009C0003A2025640A00456E642066696C65206CD7
:1009D00069737400426567696E2066696C65206C96
:1009E00069737400556E6B6E6F776E20256320639C
:1009F0006F64653A2025730A000A50494E4441202D
:100A000074656D70657261747572653A20252E315A
:100A100066205A20736869667420286D6D293A2013
:100A2000252E3366000A537465703A2025642F36EC
:100A30000A000A537465703A2025642F3620287303
:100A40006B6970706564290A50494E444120746591
:100A50006D70657261747572653A202564205A2044
:100A6000736869667420286D6D293A300A000A5A45
:100A700045524F3A20252E33660A00737461727412
:100A80002074656D70657261747572653A20252EEB
:100A900031660A0025642020252E32660025532069
:100AA000583A20252E356620593A20252E356620C5
:100AB0005A3A20252E35660A00536C6565702E2E35
:100AC0002E0045303A25642052504D0A50524E3087
:100AD0003A25642052504D0A000020455350002012
:100AE0004E535000204F464600204F4E0050563087
:100AF0003100205B4D505D2000256920686F7572C4
:100B000073202569206D696E7574657300525820D5
:100B100074696D656F7574004D333130004D31313E
:100B200032004D3131300046756C6C2052582042F5
:100B300075666665720053657474696E67732053D9
:100B4000746F7265640053746F72656420736574AA
:100B500074696E6773207265747269657665640086
:100B600048617264636F6465642044656661756C96
:100B7000742053657474696E6773204C6F6164658B
:100B80006400563200000000C8420000C842000065
:100B9000C8430000054300004843000048430000EC
:100BA00040410000F042E8030000E8030000C800F4
:100BB00000008813000000409C4400409C4400005A
:100BC000000000000000204E000000002041000056
:100BD0002041CDCCCC3E0000904000000000000041
:100BE000000000000000CDCCCC3E3D0A8141FF0852
:100BF000433EB099AB438F42FC42E65A343F4C62CD
:100C0000B0450000000000404000003442000000F9
:100C1000000000000000000041000000E03F000074
:100C20002C4300002C43000040410000F042C00370
:100C30000000C0030000C80000008813000010106E
:100C4000101000409C440000803F0000003F191439
:100C500000000020307800203078006572726F72DA
:100C60003A2000443233202D20656D657267656E31
:100C700063792073657269616C2064756D700043DF
:100C80007573746F6D004E796C6F6E5041005361D7
:100C900074696E20200054657874757200536D6F0E
:100CA0006F746800312E3000312E3500554E4B4E9A
:100CB0004F574E004C413130433A204C696E6561CC
:100CC0007220416476616E6365206D6F64653A20C1
:100CD000004C413130433A2041646A757374656455
:100CE00020452D4A65726B3A20003E0FA8AF0048A0
:100CF0000069960000DF6025555887680427F2E0F8
:100D0000005E3403CC1960F33C0EF88F00DB080260
:100D10009492003E1C079A8700E524008528527EA5
:100D200006001BE4007E781270787061F812788FEC
:100D30008841784270787061782570787061F850D9
:100D4000788F88D1F02527078761F025278F884184
:100D50002C0D27AA50D1BC0707871161BE788F8858
:100D60001141785270787061F852788F8841201262
:100D700078887063205278887063485278888743F7
:100D8000031117997064181278F870654412F8F816
:100D9000F045184278F87065182578F87065185293
:100DA00078F87065185078F870650C078F872365A0
:100DB000A20F8F8F114500120622706900120722C0
:100DC00027490025062270690025072227490012BD
:100DD0000622276C026236A2706C40456C44704C4F
:100DE00003622222706C43888888F04C7812BC8899
:100DF000806E7852BC88806E38127888706F781256
:100E00007888874F38427888706F38257888706F77
:100E10003A0079AC786F3D079AAC786F7850788853
:100E200087EF39497888706F0852BC888072985271
:100E3000F88F985220127870F073481278638753B5
:100E400020527870F0734852786387531007870FE9
:100E5000247312786387245360699A988BE2230481
:100E6000E4443074104E444324747C1288896075C5
:100E70003C5088887055782528896075794908899B
:100E800060753C12887070790C1288522259441295
:100E9000F124F07A4452F124F07A8C52F0368F5AD1
:100EA0004420F124F07A00401454CDCCCC3D0AD734
:100EB000233C17B7D13877CC2B329595E6241FB158
:100EC0004F0A000020410000C84200401C4620BCE0
:100ED000BE4CCA1B0E5AAEC59D744E414E494E467D
:100EE00000007A430000524300005243000000001B
:100EF000000080C09A99193E00000000000080C0E8
:100F00009A99193E20503A002042403A0020403A37
:100F100000202F002054303A00202F0020423A00B9
:100F2000202F00543A002553457863657373697622
:100F30006520626564206C6576656C696E67206308
:100F40006F7272656374696F6E3A202569206D69EE
:100F500063726F6E730A00536F6D652070726F62FB
:100F60006C656D20656E636F756E74657265642C5B
:100F7000205A2D6C6576656C696E6720656E666FAC
:100F800072636564202E2E2E004D657368206265A5
:100F900064206C6576656C696E67206661696C6556
:100FA000642E205072696E742063616E63656C6597
:100FB000642E0048656174696E67206469736162BC
:100FC0006C65642062792073616665747920746948
:100FD0006D65722E00472D636F646520736C6963C5
:100FE000656420666F72206120646966666572655B
:100FF0006E74206C6576656C2E20506C656173652F
:101000002072652D736C69636520746865206D6F4F
:1010100064656C20616761696E2E00472D636F64A3
:101020006520736C6963656420666F72206120645B
:101030006966666572656E74206C6576656C2E00F7
:10104000472D636F646520736C6963656420666F08
:10105000722061206E65776572206669726D7761B6
:1010600072652E20506C65617365207570646174C3
:101070006520746865206669726D776172652E00FF
:10108000472D636F646520736C6963656420666FC8
:10109000722061206E65776572206669726D776176
:1010A00072652E00472D636F646520736C696365FC
:1010B0006420666F72206120646966666572656E81
:1010C00074207072696E74657220747970652E2058
:1010D000506C656173652072652D736C6963652062
:1010E000746865206D6F64656C20616761696E2E40
:1010F00000472D636F646520736C696365642066C7
:101100006F72206120646966666572656E74207016
:1011100072696E74657220747970652E0050726504
:10112000737320746865206B6E6F6220746F20701B
:10113000726568656174206E6F7A7A6C6520616E85
:101140006420636F6E74696E75652E00506C656106
:10115000736520707265737320746865206B6E6FA1
:101160006220746F20756E6C6F61642066696C61BB
:101170006D656E7400616E642070726573732074A7
:101180006865206B6E6F6200496E736572742066CD
:10119000696C616D656E7400436F6C6F72206E6F69
:1011A0007420636F72726563740046696C616D656B
:1011B0006E74206E6F74206C6F61646564004368A8
:1011C000616E67656420636F72726563746C790029
:1011D0004C6F6164696E6720636F6C6F7200436867
:1011E000616E676520737563636573732100506C6E
:1011F00065617365206F70656E2069646C6572202F
:10120000616E642072656D6F76652066696C616DD4
:10121000656E74206D616E75616C6C792E0057611E
:10122000732066696C616D656E7420756E6C6F619C
:1012300064207375636365737366756C3F00506CEF
:101240006561736520757067726164652E004E6517
:1012500077206669726D7761726520766572736951
:101260006F6E20617661696C61626C653A005761EE
:101270006974696E6720666F722050494E44412040
:1012800070726F626520636F6F6C696E6700506C7F
:10129000656173652077616974004E6F206D6F76AC
:1012A000652E005761697420666F722075736572D0
:1012B0002E2E2E00537461626C6520616D6269652B
:1012C0006E742074656D706572617475726520321C
:1012D000312D323643206973206E65656465642064
:1012E00061207269676964207374616E6420697338
:1012F0002072657175697265642E00506C6561734A
:10130000652072756E2058595A2063616C6962724B
:101310006174696F6E2066697273742E0042656431
:10132000206C6576656C696E67206661696C6564C2
:101330002E20546F6F206D7563682076617269612D
:1013400074696F6E2066726F6D20656570726F6D67
:10135000206D65736800426564206C6576656C6914
:101360006E67206661696C65642E2053656E736FCD
:10137000722074726967676572656420746F6F208C
:10138000736F6F6E002020004D6561737572656428
:1013900020706F696E74733A005A207365617263CE
:1013A00068206865696768743A20352E3066004E9B
:1013B000756D20582C593A20372C37004D657368CD
:1013C00020626564206C6576656C696E67206E6F5F
:1013D00074206163746976652E0020453A00205AB6
:1013E0003A0020593A0020453A00205A3A00205944
:1013F0003A00583A00202D3E200053706F6F6C4A1F
:101400006F696E3A20002C2000496E616374697622
:101410006974792053687574646F776E004B494C1A
:101420004C45442E005072696E7465722068616C80
:101430007465642E206B696C6C28292063616C6C68
:10144000656421005A206C6976652061646A757351
:1014500074206F7574206F662072616E67652E2030
:1014600053657474696E6720746F20302E20436C4E
:1014700069636B20746F20636F6E74696E75652E7F
:10148000005A206C6976652061646A757374206FF8
:101490007574206F662072616E67652E20536574C7
:1014A00074696E6720746F20300020453A30204206
:1014B0003A00543A00627573793A20706175736529
:1014C0006420666F7220696E70757400627573793E
:1014D0003A2070617573656420666F72207573655C
:1014E0007200627573793A2070726F636573736905
:1014F0006E670073657269616C2064756D702000A1
:10150000496E76616C6964205420636F64652E00B7
:101510004475706C696361746520542D636F6465F4
:101520002069676E6F7265642E00416476616E6338
:1015300065204B3D004B206F7574206F6620616CF9
:101540006C6F7765642072616E676521004D4B3268
:101550002E35004D4B322E354D4D5532001A4FFA77
:10156000002533642F2533640025336400200A20CE
:101570000A200A20002553537461746973746963E7
:10158000733A0A255320204D37382053256C752097
:1015900054256C750A002553417263205365747499
:1015A000696E67733A20503A4D6178206C656E67BA
:1015B0007468286D6D2920533A4D696E206C656EF4
:1015C00067746820286D6D29204E3A436F727265EA
:1015D0006374696F6E7320523A4D696E207365674C
:1015E0006D656E747320463A5365676D656E7473EE
:1015F0002F7365632E0A255320204D32313420503D
:10160000252E32662053252E3266204E2564205228
:101610002564204625640A00255346696C616D6582
:101620006E742073657474696E67733A20446973CD
:1016300061626C65640A00255346696C616D656E74
:10164000742073657474696E67733A0A2553202099
:10165000204D3230302044252E32660A0025535268
:101660006574726163743A20533D4C656E677468AB
:1016700020286D6D2920463A537065656420286DD9
:101680006D2F6D29205A3A205A4C69667420286DB6
:101690006D290A25532020204D3230372053252E26
:1016A00032662046252E3266205A252E32660A25BD
:1016B000535265636F7665723A20533D4578747274
:1016C00061206C656E67746820286D6D2920463A2C
:1016D000537065656420286D6D2F6D290A25532090
:1016E00020204D3230382053252E32662046252EBC
:1016F00032660A25534175746F2D526574726163A9
:10170000743A20533D3020746F2064697361626CB9
:10171000652C203120746F20696E7465727072655B
:101720007420657874727564652D6F6E6C79206DA8
:101730006F76657320617320726574726163747370
:10174000206F72207265636F7665726965730A2512
:10175000532020204D323039205325640A00255370
:1017600050494420686561746265642073657474CF
:10177000696E67733A0A25532020204D3330342098
:1017800050252E32662049252E32662044252E32E1
:10179000660A0025535049442073657474696E6766
:1017A000733A0A25532020204D3330312050252E06
:1017B00032662049252E32662044252E32660A00E4
:1017C000255353746570732070657220756E69744B
:1017D0003A0A255320204D39322058252E326620D2
:1017E00059252E3266205A252E32662045252E3266
:1017F000660A25534D6178696D756D20666565646F
:10180000726174657320286D6D2F73293A0A255310
:1018100020204D3230332058252E32662059252E77
:101820003266205A252E32662045252E32660A253C
:10183000534D6178696D756D20616363656C657288
:101840006174696F6E20286D6D2F7332293A0A25F5
:101850005320204D3230312058256C752059256C8D
:1018600075205A256C752045256C750A25534163F2
:1018700063656C65726174696F6E3A20503D707279
:10188000696E742C20523D726574726163742C20F1
:10189000543D74726176656C0A255320204D3230B8
:1018A000342050252E32662052252E3266205425B3
:1018B0002E32660A2553416476616E636564207634
:1018C00061726961626C65733A20533D4D696E20A7
:1018D000666565647261746520286D6D2F73292CAF
:1018E00020543D4D696E2074726176656C2066658A
:1018F00065647261746520286D6D2F73292C2042F8
:101900003D6D696E696D756D207365676D656E748B
:101910002074696D6520287573292C20583D6D61F0
:1019200078696D756D205859206A65726B20286D35
:101930006D2F73292C20205A3D6D6178696D756D6E
:10194000205A206A65726B20286D6D2F73292C2018
:1019500020453D6D6178696D756D2045206A657221
:101960006B20286D6D2F73290A255320204D3230AE
:10197000352053252E32662054252E3266204225EE
:101980006C752058252E32662059252E3266205A35
:10199000252E32662045252E32660A2553486F6D66
:1019A00065206F666673657420286D6D293A0A2577
:1019B0005320204D3230362058252E3266205925AE
:1019C0002E3266205A252E32660A004361703A256F
:1019D000533A25630A0050525553415F4D4D5532DD
:1019E00000455854454E4445445F4D323000415502
:1019F000544F5245504F52545F504F534954494FE2
:101A00004E004155544F5245504F52545F46414E3F
:101A100053004155544F5245504F52545F54454D19
:101A200050000044656C6574696F6E206661696C76
:101A300065642C2046696C653A200046696C652017
:101A400064656C657465643A004E6F74205344207D
:101A50007072696E74696E67005072696E7420737B
:101A600061766564005344207072696E7420706101
:101A700075736564002533642F2533640066760032
:101A80007468780050524E0022283229006E6F2070
:101A900076616C696420636F6D6D616E64007A6558
:101AA000726F72697A656400666163746F7279201F
:101AB000726573746F72656400696E6465782C205A
:101AC00074656D702C2075737465702C20756D00B5
:101AD00050494E44412063616C2073746174757386
:101AE0003A2000503A005761697420666F722050A6
:101AF000494E4441207461726765742074656D704D
:101B0000657261747572653A0020410020500020B2
:101B10004200204C00205200205A00204E4F5420FA
:101B2000494E495449414C495A45440053686565FA
:101B3000742000205A2056414C5545204F555420C2
:101B40004F462052414E474500496E76616C6964AC
:101B50002073686565742049442E20416C6C6F7752
:101B600065643A20302E2E004155544F004C414EB2
:101B7000472053454C20464F524345440020643A89
:101B80000020693A0020703A0020643A0020693A47
:101B90000020703A00256925250A00256925250AB7
:101BA0000022283129002F2F00002045585452557B
:101BB0004445525F434F554E543A3100204D414306
:101BC00048494E455F545950453A00312E30002067
:101BD0006261736564206F6E204D61726C696E2066
:101BE0004649524D574152455F55524C3A687474BC
:101BF00070733A2F2F6769746875622E636F6D2F4B
:101C0000707275736133642F50727573612D4669FC
:101C1000726D776172652050524F544F434F4C5F45
:101C200056455253494F4E3A0066336530646664F8
:101C30003438005F0038323834002B004649524DAA
:101C4000574152455F4E414D453A50727573612D73
:101C50004669726D7761726520004D3131332053D2
:101C6000006F6B20006E2F61003F546F73686962D4
:101C70006120466C61736841697220476574495000
:101C8000206661696C65640A00000125301D0CFF47
:101C900024311C0BFF232F1B0A17FF0406222B1ACB
:101CA00003363535382569206D696E2C202569206D
:101CB00073656300496E76616C6964204D20636FC3
:101CC00064653A2025730A0050494E4441207072E1
:101CD0006F62652063616C6962726174696F6E2006
:101CE0007374617274004E6F2050494E44412074E9
:101CF0006865726D6973746F7200736574006E6FDE
:101D00007A7A6C65004D424C004652004C7A004C89
:101D1000616E6700315F37356D6D5F4D4B32352D2C
:101D200052414D426F3133612D45334476366675ED
:101D30006C6C0052657600332E31342E312D3832E2
:101D400038340046697200534E20696E76616C69C2
:101D50006400534E005245534554004D4D55524575
:101D6000530075766C6F0046414E0046414E504917
:101D70004E545354005052555341004D313034535A
:101D800030004731583130593138304634303030F6
:101D90000047315A31304631333030004D31343024
:101DA0005330004731452D302E30373546323130F3
:101DB00030004D32303453313030300047315A35F5
:101DC0004637323030004731452D312E35463231DD
:101DD000303000473930004D313037002F2F6163EC
:101DE00074696F6E3A706175736564002F2F61635B
:101DF00074696F6E3A70617573650044756D70201B
:101E0000746F2073657269616C0068656C702E7008
:101E10007275736133642E636F6D00666F72756DDA
:101E20002E707275736133642E636F6D00707275FE
:101E3000736133642E636F6D004D3730310025536D
:101E40003A0A2531382E32666D200A25533A0A2582
:101E500031306C646820253032646D202530326466
:101E6000730025533A0A2531382E32666D200A2533
:101E7000533A0A2531306C6464202530326468207E
:101E8000253032646D0025362E32666D6D00255387
:101E90000A25530A25533A0A25533A0025332E3290
:101EA000668100252D31342E3134533A0A25530AE8
:101EB000252D31342E3134533A25332E3266810AA2
:101EC000252D31342E3134533A25332E326681009C
:101ED0002020300020203100423A20253364202089
:101EE00020202058643A2536640A533A202533646A
:101EF000202020202059643A2536640046494E446B
:101F0000410050494E44410057697A61726420652E
:101F10006E642073746174653A2025640A005370FE
:101F20006F6F6C4A6F696E004669726D776172659A
:101F300000537570657250494E44410048426564D3
:101F4000206F6E206C6F616400466C61736841693C
:101F500072004572723A484F54454E442046414EF5
:101F6000204552524F52002F2F616374696F6E3AB1
:101F7000726573756D6564002F2F616374696F6E90
:101F80003A726573756D65002F2F616374696F6EAA
:101F90003A7265616479002F2F616374696F6E3ADC
:101FA0006E6F745F7265616479002F2F616374696D
:101FB0006F6E3A63616E63656C004D3834004F4B51
:101FC000004C434420737461747573206368616EC0
:101FD00067656400534420636172642072656C65B8
:101FE00061736564002F2F616374696F6E3A737457
:101FF00061727400473931004D3730320047323852
:102000002057004D3530300042616420696E7465A0
:102010007272757074005761746368646F672074BE
:10202000696D656F757400537461746963206D65C3
:102030006D6F7279206861730A6265656E206F76D4
:1020400065727772697474656E004649524D5741E6
:102050005245204352415348210A4372617368201C
:10206000726561736F6E3A0A002020506C616E6E6B
:10207000657242756666657242797465733A2000CE
:102080002046726565204D656D6F72793A2000209B
:102090007C20417574686F723A2000204C61737423
:1020A00020557064617465643A200020536F667433
:1020B000776172652052657365740020576174639F
:1020C00068646F67205265736574002042726F7791
:1020D0006E206F75742052657365740020457874A6
:1020E00065726E616C20526573657400506F776520
:1020F000725570006572726F722077726974696EC2
:102100006720746F2066696C6500446F6E6520738C
:102110006176696E672066696C652E006F6B00469C
:10212000696C616D656E740047315A302E3200471C
:1021300031583230322E3545384631343030004750
:1021400031592D3246313030300047315832343039
:1021500045323546323230300047315A302E334620
:10216000313030300047315835354538463230301F
:102170003000473158354532394631383030004724
:1021800031583535453239463130373300473932E9
:10219000453000473238004D313039004D3139304B
:1021A00000252D31352E313553252D35640A252D49
:1021B00031352E313553252D35640A00546F746145
:1021C0006C004C617374207072696E74004D4D55D3
:1021D00020706F776572206661696C73004D4D5594
:1021E000206C6F6164206661696C73004D4D5520F1
:1021F0006661696C73004D6174657269616C20631E
:1022000068616E67657300546F74616C2066616904
:102210006C757265730046696C2E2072756E6F75F1
:102220007473004C617374207072696E74206661FF
:10223000696C757265730054656D70657261747553
:102240007265730053656E736F7220696E666F00FE
:10225000457874727564657220696E666F005859AE
:102260005A2063616C2E2064657461696C73005040
:1022700072696E74657220495020416464723A003C
:10228000756E6B6E6F776E004D4D5520636F6E6E81
:10229000656374656400446174653A00746F207509
:1022A0006E6C6F61642066696C616D656E7400743C
:1022B0006F206C6F61642066696C616D656E74007F
:1022C000507265737320746865206B6E6F62005086
:1022D000726568656174696E6720746F20637574D8
:1022E0000050726568656174696E6720746F20655F
:1022F0006A6563740050726568656174696E672011
:10230000746F20756E6C6F616400507265686561F2
:1023100074696E6720746F206C6F616400436F6F27
:102320006C646F776E00456A6563740046696C6122
:102330006D656E7420657874727564696E672026A9
:10234000207769746820636F727265637420636FAD
:102350006C6F723F004175746F6C6F6164696E677A
:102360002066696C616D656E7420697320616374A9
:102370006976652C206A757374207072657373209A
:10238000746865206B6E6F6220616E6420696E7385
:102390006572742066696C616D656E742E2E2E00F8
:1023A0005072696E742074696D650046696C616D68
:1023B000656E74207573656400546F74616C207071
:1023C00072696E742074696D6500546F74616C205D
:1023D00066696C616D656E740050726568656174E4
:1023E00020746865206E6F7A7A6C652100455252C0
:1023F0004F523A005269676874004C656674005920
:102400002064697374616E63652066726F6D206D00
:10241000696E0053657665726520736B657700534E
:102420006C6967687420736B6577004D65617375BF
:1024300072656420736B6577005B303B305D2070A4
:102440006F696E74206F66667365740041646A75A7
:102450007374696E67205A005265617220736964F3
:1024600065205BE46D5D0046726F6E742073696475
:10247000655BE46D5D00526967687420736964652B
:102480005BE46D5D004C6566742073696465205B78
:10249000E46D5D005365742074656D7065726174E0
:1024A0007572653A00417265206C65667420616ED4
:1024B00064207269676874205A2D63617272696161
:1024C00067657320616C6C2075703F0043616C69B7
:1024D00062726174696E672058595A2E20526F7467
:1024E00061746520746865206B6E6F6220746F2064
:1024F0006D6F766520746865205A20636172726919
:1025000061676520757020746F2074686520656E42
:10251000642073746F70706572732E20436C6963EE
:102520006B207768656E20646F6E652E0043616C6A
:102530006962726174696E67205A2E20526F7461ED
:10254000746520746865206B6E6F6220746F206DF7
:102550006F766520746865205A20636172726961C4
:10256000676520757020746F2074686520656E64DF
:102570002073746F70706572732E20436C69636B87
:10258000207768656E20646F6E652E0050494E445A
:10259000412063616C6962726174696F6E2066616B
:1025A000696C65640050494E44412063616C696206
:1025B000726174696F6E2069732066696E697368F1
:1025C000656420616E64206163746976652E2049BC
:1025D000742063616E2062652064697361626C655A
:1025E0006420696E206D656E752053657474696E24
:1025F00067732D3E50494E44412063616C2E004567
:1026000078747275646572004D6F7665205A004D5E
:102610006F76652059004D6F7665205800536865C8
:10262000657420252E37730A5A206F6666736574A9
:102630003A20252B312E33666D6D0A2563436F6E6C
:1026400074696E75650A2563526573657400506C14
:1026500065617365206C6F61642066696C616D658E
:102660006E742066697273742E0052756E6E696E98
:10267000672057697A6172642077696C6C206465A1
:102680006C6574652063757272656E742063616C2D
:102690006962726174696F6E20726573756C7473B0
:1026A00020616E642073746172742066726F6D2095
:1026B00074686520626567696E6E696E672E00508A
:1026C000726568656174696E67206E6F7A7A6C6591
:1026D0002E20506C6561736520776169742E0050FF
:1026E0006C6561736520696E736572742066696CD0
:1026F000616D656E7420696E746F20746865206505
:10270000787472756465722C207468656E207072BE
:1027100065737320746865206B6E6F6220746F2020
:102720006C6F61642069742E00506C656173652064
:10273000696E736572742066696C616D656E742074
:10274000696E746F20746865206669727374207492
:10275000756265206F6620746865204D4D552C208C
:102760007468656E20707265737320746865206B81
:102770006E6F6220746F206C6F61642069742E002C
:102780005A2063616C6962726174696F6E20726550
:10279000636F6D6D656E6465642E2052756E206981
:1027A00074206E6F773F00546865207072696E7494
:1027B00065722077696C6C2073746172742070721A
:1027C000696E74696E672061207A69672D7A616726
:1027D000206C696E652E20526F7461746520746878
:1027E00065206B6E6F6220756E74696C20796F75F1
:1027F00020726561636820746865206F7074696D0C
:10280000616C206865696768742E20436865636B36
:102810002074686520706963747572657320696ED1
:10282000207468652068616E64626F6F6B20284356
:10283000616C6962726174696F6E20636861707443
:102840006572292E0053656C6563742074656D7024
:1028500065726174757265207768696368206D615F
:10286000746368657320796F7572206D6174657229
:1028700069616C2E0053656C656374206120666924
:102880006C616D656E7420666F7220746865204699
:1028900069727374204C617965722043616C69625E
:1028A000726174696F6E20616E642073656C65631C
:1028B0007420697420696E20746865206F6E2D73B2
:1028C000637265656E206D656E752E004E6F7720A4
:1028D000492077696C6C2063616C69627261746510
:1028E0002064697374616E636520626574776565E1
:1028F0006E20746970206F6620746865206E6F7A30
:102900007A6C6520616E642068656174626564201C
:10291000737572666163652E00506C656173652026
:10292000636865636B206F75722068616E64626FA7
:102930006F6B20616E642066697820746865207012
:10294000726F626C656D2E205468656E20726573BF
:10295000756D65207468652057697A6172642062BC
:1029600079207265626F6F74696E67207468652084
:102970007072696E7465722E00416C6C20697320F0
:10298000646F6E652E204861707079207072696E78
:1029900074696E672100596F752063616E20616CE8
:1029A0007761797320726573756D65207468652031
:1029B00057697A6172642066726F6D2043616C6939
:1029C00062726174696F6E202D3E2057697A617260
:1029D000642E00496620796F7520686176652061F4
:1029E00064646974696F6E616C20737465656C20D2
:1029F0007368656574732C2063616C6962726174BD
:102A000065207468656972207072657365747320DF
:102A1000696E2053657474696E6773202D20485762
:102A2000205365747570202D20537465656C207378
:102A300068656574732E00506C6561736520636C06
:102A400065616E206865617462656420616E6420F2
:102A50007468656E20707265737320746865206B8E
:102A60006E6F622E00446F20796F752077616E74EF
:102A700020746F20726570656174206C61737420BE
:102A80007374657020746F20726561646A75737405
:102A90002064697374616E6365206265747765652F
:102AA0006E206E6F7A7A6C6520616E642068656155
:102AB000746265643F0053656C656374206E6F7A61
:102AC0007A6C6520707265686561742074656D70DC
:102AD00065726174757265207768696368206D61DD
:102AE000746368657320796F7572206D61746572A7
:102AF00069616C2E0049732066696C616D656E7446
:102B0000206C6F616465643F004E6F7720492077C9
:102B1000696C6C2070726568656174206E6F7A7A7A
:102B20006C6520666F7220504C412E0049207769F9
:102B30006C6C2072756E207A2063616C69627261C0
:102B400074696F6E206E6F772E004E6F77207265FE
:102B50006D6F76652074686520746573742070727B
:102B6000696E742066726F6D20737465656C207376
:102B7000686565742E00506C656173652072656DC3
:102B80006F7665207368697070696E672068656C20
:102B9000706572732066697273742E0049207769BC
:102BA0006C6C2072756E2078797A2063616C696232
:102BB000726174696F6E206E6F772E204974207772
:102BC000696C6C2074616B6520757020746F2032A5
:102BD00034206D696E732E0046697273742C20491F
:102BE0002077696C6C2072756E207468652073653F
:102BF0006C667465737420746F20636865636B2002
:102C00006D6F737420636F6D6D6F6E20617373658C
:102C10006D626C792070726F626C656D732E004806
:102C2000692C204920616D20796F7572204F72697F
:102C300067696E616C205072757361206933207012
:102C400072696E7465722E20576F756C6420796F8F
:102C500075206C696B65206D6520746F20677569E0
:102C6000646520796F75207468726F756768207469
:102C700068652073657475702070726F6365737317
:102C80003F0048692C204920616D20796F757220C2
:102C90004F726967696E616C20507275736120694B
:102CA00033207072696E7465722E20492077696CCA
:102CB0006C20677569646520796F75207468726F20
:102CC00075676820612073686F727420736574750E
:102CD000702070726F636573732C20696E20776843
:102CE00069636820746865205A2D6178697320775C
:102CF000696C6C2062652063616C696272617465E5
:102D0000642E205468656E2C20796F752077696C6D
:102D10006C20626520726561647920746F20707226
:102D2000696E742E005061757365004653204163CF
:102D300074696F6E00462E206A616D20646574654B
:102D4000637400462E206175746F6C6F6164004679
:102D50002E2072756E6F7574004375747465720001
:102D60004175746F20706F776572004869676820DD
:102D7000706F776572004D6F64650046616E2073F9
:102D800070656564004265640046616E7320636827
:102D900065636B004D6F64656C004E6F7A7A6C658D
:102DA00000506C6561736520756E6C6F6164207492
:102DB00068652066696C616D656E74206669727302
:102DC000742C207468656E2072657065617420745F
:102DD00068697320616374696F6E2E004368656370
:102DE0006B73004E6F7A7A6C6520642E00416C70B4
:102DF00068616265740054696D6500536F72740098
:102E00004E6F726D616C0053442063617264004EBA
:102E10006F7A7A6C65206368616E67650048572039
:102E20005365747570004C6F6164696E67205465FA
:102E300073740044697361626C65207374657070AB
:102E4000657273004D6F7665206178697300546513
:102E50006D70657261747572650050494E44412011
:102E600063616C2E0052657365742058595A206353
:102E7000616C6962722E0053686F7720656E642002
:102E800073746F7073005049442063616C6962729F
:102E90006174696F6E00426564206C6576656C20B4
:102EA000636F7272656374004D6573682042656478
:102EB000204C6576656C696E670043616C6962726F
:102EC000617465205A0043616C69627261746520A7
:102ED00058595A0053656C66746573740057697A63
:102EE000617264004C6F616420416C6C00506C65D1
:102EF0006173652070756C6C206F75742066696CE9
:102F0000616D656E7420696D6D6564696174656C71
:102F1000790052657365740052656E616D65004697
:102F200069727374206C617965722063616C2E0024
:102F300053656C65637400537465656C20736865D4
:102F400065747300537570706F7274004661696CBC
:102F5000207374617473204D4D55004661696C2077
:102F60007374617473005374617469737469637307
:102F70000043616C6962726174696F6E00417574BF
:102F80006F4C6F61642066696C616D656E74004C96
:102F90006F61642066696C616D656E7400556E6C5E
:102FA0006F61642066696C616D656E74004C6F6161
:102FB0006420746F206E6F7A7A6C65005072656C55
:102FC0006F616420746F204D4D55004E6F20534447
:102FD0002063617264005072696E742066726F6D56
:102FE00020534400526573756D65207072696E746C
:102FF000005061757365207072696E74005365745A
:1030000020526561647900536574206E6F7420529C
:103010006561647900507265686561740054756E0D
:1030200065004C6976652061646A757374205A0086
:1030300052657072696E7400496E666F20736372B8
:1030400065656E004173736973740053696C656ED6
:1030500074004F6E6365004C6F756400536F756E3E
:10306000640046696C2E2073656E736F720043684E
:10307000616E67652066696C616D656E7400466C93
:103080006F77005370656564004E2F41004D616796
:103090006E65747320636F6D702E005A2D70726FA1
:1030A0006265206E722E004D6573680053657474FE
:1030B000696E677300596573004E6F0053746F70CB
:1030C000207072696E7400436865636B696E672077
:1030D00066696C650046696C6520696E636F6D702A
:1030E0006C6574652E008452656672657368004D68
:1030F00061696E0057616974696E6720666F72203E
:103100006E6F7A7A6C6520616E64206265642063FC
:103110006F6F6C696E670053656C667465737420BD
:103120004F4B0053656C66746573742073746172E1
:103130007400537761707065640046726F6E742F0F
:103140006C6566742066616E730041786973004136
:10315000786973206C656E677468004C6F6F736577
:103160002070756C6C657900456E6473746F7020A7
:103170006E6F742068697400456E6473746F7000BC
:103180004D6F746F7200456E6473746F7073005787
:103190006972696E67206572726F72004265642F92
:1031A000486561746572004E6F7420636F6E6E6562
:1031B00063746564004865617465722F5468657254
:1031C0006D6973746F7200506C656173652063681C
:1031D00065636B3A0053656C667465737420657241
:1031E000726F72210046696C616D656E7420736543
:1031F0006E736F72005072696E742066616E3A0071
:10320000486F74656E642066616E3A0043616C6954
:1032100062726174696E6720686F6D650053656CDA
:103220006674657374206661696C656400416C6CDA
:1032300020636F727265637400436865636B696EC7
:10324000672073656E736F727300436865636B69A3
:103250006E6720686F74656E6400436865636B69B0
:103260006E672062656400436865636B696E672002
:103270005A206178697300436865636B696E6720E3
:1032800059206178697300436865636B696E6720D4
:1032900058206178697300436865636B696E6720C5
:1032A000656E6473746F707300436172642072653D
:1032B0006D6F766564004261636B0053747269637D
:1032C00074005761726E004E6F6E6500486F7465D2
:1032D0006E64206174203238304321204E6F7A7A38
:1032E0006C65206368616E67656420616E6420743C
:1032F00069676874656E656420746F2073706563B8
:10330000733F00466F722061204E6F7A7A6C6520A1
:103310006368616E676520706C65617365207265B6
:1033200061640A70727573612E696F2F6E6F7A7A9D
:103330006C652D6D6B3373005049442063616C2EB6
:103340002066696E69736865640050494420636152
:103350006C2E005072696E74207061757365640024
:103360005072696E742061626F72746564004361AB
:103370006E63656C00436F6E742E004E6F7A7A6CCC
:1033800065206469616D657465722064696666654F
:1033900072732066726F6D2074686520472D636FAD
:1033A00064652E20506C6561736520636865636B8E
:1033B000207468652076616C756520696E20736580
:1033C0007474696E67732E004E6F7A7A6C65206430
:1033D00069616D65746572206469666665727320E3
:1033E00066726F6D2074686520472D636F64652E6B
:1033F000005468657265206973206E6F2066696C81
:10340000616D656E74206C6F616465642E00546834
:10341000657265206973207374696C6C2061206E1D
:1034200065656420746F206D616B65205A2063614F
:103430006C6962726174696F6E2E20506C65617385
:103440006520666F6C6C6F7720746865206D616EA7
:1034500075616C2C206368617074657220466972B6
:1034600073742073746570732C2073656374696F53
:103470006E2043616C6962726174696F6E20666C64
:103480006F772E005072696E7465722068617320C8
:103490006E6F74206265656E2063616C6962726133
:1034A000746564207965742E20506C6561736520A5
:1034B000666F6C6C6F7720746865206D616E7561E6
:1034C0006C2C206368617074657220466972737435
:1034D0002073746570732C2073656374696F6E203C
:1034E00043616C6962726174696F6E20666C6F779C
:1034F0002E0053656C66746573742077696C6C205C
:1035000062652072756E20746F2063616C696272EF
:103510006174652061636375726174652073656EA3
:10352000736F726C657373207265686F6D696E6717
:103530002E004F6C642073657474696E6773206627
:103540006F756E642E2044656661756C74205049F9
:10355000442C20457374657073206574632E207746
:10356000696C6C206265207365742E005761726E01
:10357000696E673A20626F7468207072696E746554
:1035800072207479706520616E64206D6F74686557
:1035900072626F6172642074797065206368616E15
:1035A0006765642E005761726E696E673A207072AB
:1035B000696E7465722074797065206368616E67E6
:1035C00065642E005761726E696E673A206D6F7484
:1035D000686572626F6172642074797065206368D7
:1035E000616E6765642E0054657374696E6720664A
:1035F000696C616D656E7400536865657400536530
:103600006C6563742066696C616D656E743A002543
:10361000530A20252D31362E313653252D33640A99
:1036200020252D31362E313653252D336400255378
:103630000A20252D31362E313653252D33640A20AC
:10364000252D31362E313653252D33640A20252D74
:1036500031362E313653252D33640025530A20256B
:103660002D31362E313653252D33640A25530A2049
:10367000252D31362E313653252D33640A00202571
:103680007325336481200A0025752E25752E257536
:103690002E25750020002000466C61736841697218
:1036A00020495020416464723A004D4D552020203D
:1036B00020202020204E2F410025642E25642E2519
:1036C00064002046573A00323032352D30382D31E3
:1036D0003900453344763666756C6C0052414D4274
:1036E0006F31336100315F37356D6D5F4D4B323572
:1036F0000020486173683A66336530646664343824
:1037000000205265706F3A73686976616D6D656807
:1037100074613232300020332E31342E312D383264
:103720003834004669726D776172653A003E004632
:103730004C4558202D20203234302F353000464C57
:103740004558202D20203234300050502020202D8C
:1037500020203235342F3130300050502020202DA1
:1037600020203235340048495053202D2020323259
:10377000302F3130300048495053202D2020323234
:10378000300041425320202D20203235352F31305A
:10379000300041425320202D202032353500504149
:1037A0002020202D20203237352F39300050412065
:1037B00020202D20203237350050564220202D2049
:1037C000203231352F37350050564220202D202011
:1037D0003231350050432020202D20203237352F24
:1037E0003130350050432020202D20203237350045
:1037F00041534120202D20203236302F31303500EA
:1038000041534120202D2020323630005045542095
:10381000202D20203233302F3835005045542020C1
:103820002D202032333000504C4120202D202032DA
:1038300031352F363000504C4120202D20203231A0
:1038400035006E6F7A7A6C65202D20203235302F4E
:1038500030006661726D2020202D20203235302FFF
:10386000383000252D31322E313253252B382E3170
:10387000660045787472756465723A002563253177
:10388000372E32666D6D00583A00593A005A3A00A8
:103890002563252D31332E313353252B352E3366B9
:1038A000002533750050494E44412063616C6962C4
:1038B000726174696F6E206661696C65642E204365
:1038C0006F6E74696E7565207769746820707265B3
:1038D0007373696E6720746865206B6E6F622E006B
:1038E00050494E44412063616C6962726174696F32
:1038F0006E20646F6E652E20436F6E74696E756501
:103900002077697468207072657373696E672074BC
:103910006865206B6E6F622E005A30005A31005974
:103920003000593100583000583100456E64207322
:10393000746F7073206469616700473830004D34DC
:1039400035004D3435205A00473736004D37303179
:103950002050300057697A61726420737461746515
:103960003A2025640A004578706572696D656E7449
:10397000616C00302E383000302E363000302E345E
:103980003000302E32350044697361626C65206608
:1039900061726D206D6F6465005265736574204DB2
:1039A0004D55004D4D55004D3434004739390044D4
:1039B000697361626C65206661726D206D6F64650C
:1039C0003F00473238205859004D20383400852EAA
:1039D0002E002533642F30002533642F30006C63B4
:1039E000645F73656C66636865636B5F6178697358
:1039F0002025642C2025640A00486F74656E6400DD
:103A0000426564005A00590058002D2D2D2D2D2D92
:103A10002D2D2D2D2D2D2D2D2D2D2D2D2D2D0053DD
:103A20007570657250494E44413A00D31DD71DA3AD
:103A30001D9C1D911D821DF81F7B1DBA1F4731590A
:103A4000252E346645252E34660047315A252E3200
:103A50006600473158353059313535008D21D31D39
:103A6000B461C61DBC1DB21D473158252E346645B4
:103A7000252E34660047314631303830007F2172C0
:103A800021652159218D214A213F212F21282154AF
:103A900025640047315A302E34004731592D3346C2
:103AA0003130303000D71D9C21972193218D214D3D
:103AB0003834205859004D313039205332383000D5
:103AC00047312058313235205A323030204631309B
:103AD000303000496E76616C69642050494420633F
:103AE000616C2E20726573756C74732E204E6F742A
:103AF0002073746F72656420746F20454550524F77
:103B00004D2E004D3330312050252E326620492570
:103B10002E32662044252E3266004D333033204548
:103B2000302053253375005243004445560042452A
:103B3000544100414C50484100000021002400271E
:103B4000002A002D003000330001010000040107AD
:103B5000010A0100002200250028002B002E003160
:103B600000340002010000050108010B01000020E3
:103B7000002300260029002C002F00320000010045
:103B800000030106010901050505050705080808E8
:103B900008020202020A0A080804040404010101DE
:103BA00001010101010303030303030303040707E6
:103BB000070C0C0C0C0C0C0C0C0202020206060684
:103BC00006060606060B0B0B0B0B0B0B0B07070A67
:103BD0000A0A0A0A0A050505040404080801021075
:103BE0002020080810204010204080020102010817
:103BF00004020101020408102040808040201008C7
:103C0000040201800402018040201008040201081F
:103C1000040201010204081020408001020408107F
:103C200020408010080408801020400440801020AC
:103C300040048000000A0B02090C0D0E0807030463
:103C40000100000000000000000000000000000073
:103C50000000000000000000000000000000001252
:103C60001110000000000000000000000000000033
:103C70000000000000000000000000000000000044
:103C8000000000000000000000332E31342E31000F
:103C90000A204F726967696E616C2050727573619A
:103CA0002069330A20202050727573612052657399
:103CB00065617263680A2532302E323053005370CA
:103CC0006F6F6C4A6F696E20697320006164635F77
:103CD000696E697400200A200A200A2000416C6C79
:103CE0002044617461005365727669636520707267
:103CF0006570005368697070696E672070726570D6
:103D00000053746174697374696373004C616E6706
:103D1000756167650045524153494E4720616C6C9F
:103D2000206461746100466163746F72792052454A
:103D300053455400505255534133444657000300F5
:103D40000E00010040000300020000000400736840
:103D50006976616D6D65687461323230003230327F
:103D6000352D30382D31392030323A35323A35312F
:103D70000020332E31342E312D383238345F663303
:103D800065306466643438007374617274004D3257
:103D90003900252D392E39535B00200A200A2000D6
:103DA00000004842000058419A998D4133335340F6
:103DB0004D4D55323A00556E657870656374656493
:103DC000206572726F72206F636375727265642E04
:103DD000004D3630302046696C616D656E7420434D
:103DE00068616E67652E204C6F61642061206E658E
:103DF000772066696C616D656E74206F7220656AEC
:103E000065637420746865206F6C64206F6E652E26
:103E10000052656D6F76652074686520656A65631C
:103E20007465642066696C616D656E742066726F7E
:103E30006D207468652066726F6E74206F662074E2
:103E40006865204D4D552E0046696C616D656E7438
:103E500020646574656374656420756E657870654B
:103E6000637465646C792E20456E73757265206E7F
:103E70006F2066696C616D656E74206973206C6F6C
:103E8000616465642E20436865636B2074686520F7
:103E900073656E736F727320616E642077697269E7
:103EA0006E672E00496E7465726E616C2072756E5D
:103EB00074696D65206572726F722E20547279205C
:103EC000726573657474696E6720746865204D4D02
:103ED00055206F72207570646174696E6720746814
:103EE00065206669726D776172652E004D4D5520B3
:103EF00046572076657273696F6E20697320696E0C
:103F0000636F6D70617469626C6520776974682095
:103F10007072696E7465722046572E5570646174B4
:103F20006520746F2076657273696F6E20332E3052
:103F30002E332E004D4D55204669726D77617265A6
:103F400020696E7465726E616C206572726F722C7E
:103F500020706C6561736520726573657420746888
:103F600065204D4D552E00526571756573746564FD
:103F70002066696C616D656E7420746F6F6C20696A
:103F800073206E6F7420617661696C61626C65206C
:103F90006F6E2074686973206861726477617265FE
:103FA0002E20436865636B2074686520472D636F1E
:103FB000646520666F7220746F6F6C20696E646533
:103FC00078206F7574206F662072616E6765202897
:103FD00054302D5434292E0043616E6E6F7420705E
:103FE0006572666F726D2074686520616374696FB5
:103FF0006E2C2066696C616D656E7420697320613A
:104000006C7265616479206C6F616465642E205503
:104010006E6C6F61642069742066697273742E001F
:104020004D4D55206E6F7420726573706F6E6469AC
:104030006E6720636F72726563746C792E204368BB
:1040400065636B2074686520776972696E672061AB
:104050006E6420636F6E6E6563746F72732E004DB5
:104060004D55206E6F7420726573706F6E64696E4B
:10407000672E20436865636B2074686520776972DA
:10408000696E6720616E6420636F6E6E6563746F26
:1040900072732E004D6F72652064657461696C7374
:1040A000206F6E6C696E652E005468652049646CE3
:1040B00065722063616E6E6F7420686F6D6520702D
:1040C000726F7065726C792E20436865636B206631
:1040D0006F7220616E797468696E6720626C6F63BD
:1040E0006B696E6720697473206D6F76656D656EA0
:1040F000742E0043616E2774206D6F7665205365C2
:104100006C6563746F72206F722049646C65722EE7
:10411000005468652053656C6563746F7220636139
:104120006E6E6F7420686F6D652070726F7065724F
:104130006C792E20436865636B20666F7220616E18
:10414000797468696E6720626C6F636B696E672053
:10415000697473206D6F76656D656E742E004C6F9B
:104160006164696E6720746F206578747275646528
:1041700072206661696C65642E20496E7370656398
:1041800074207468652066696C616D656E74207456
:1041900069702073686170652E20526566696E656E
:1041A000207468652073656E736F722063616C693B
:1041B00062726174696F6E2C206966206E65656439
:1041C00065642E0053656C6563746F722063616E65
:1041D0002774206D6F76652064756520746F2046A6
:1041E000494E444120646574656374696E6720615B
:1041F0002066696C616D656E742E204D616B652063
:1042000073757265206E6F2066696C616D656E7482
:1042100020697320696E2053656C6563746F72202A
:10422000616E642046494E444120776F726B732063
:1042300070726F7065726C792E0046696C616D6585
:104240006E742073656E736F722074726967676530
:1042500072656420746F6F206561726C7920776875
:10426000696C65206C6F6164696E6720746F20658E
:10427000787472756465722E20436865636B207470
:10428000686572652069736E277420616E79746841
:10429000696E6720737475636B20696E2050544695
:1042A0004520747562652E20436865636B207468D1
:1042B00061742073656E736F722072656164732020
:1042C00070726F7065726C792E0050756C6C6579C8
:1042D000206D6F746F72207374616C6C65642E2036
:1042E000456E73757265207468652070756C6C65B9
:1042F000792063616E206D6F766520616E64206346
:104300006865636B2074686520776972696E672ED3
:104310000046696C616D656E742073656E736F72B3
:10432000206469646E277420737769746368206FF2
:104330006666207768696C6520756E6C6F6164696C
:104340006E672066696C616D656E742E20456E73B4
:104350007572652066696C616D656E742063616E4F
:10436000206D6F766520616E6420746865207365CA
:104370006E736F7220776F726B732E0046696C617B
:104380006D656E742073656E736F72206469646E00
:1043900027742074726967676572207768696C6535
:1043A000206C6F6164696E67207468652066696C53
:1043B000616D656E742E20456E737572652074682C
:1043C000652073656E736F722069732063616C6919
:1043D00062726174656420616E6420746865206631
:1043E000696C616D656E74207265616368656420D7
:1043F00069742E0046494E4441206469646E2774F6
:1044000020737769746368206F6666207768696CCB
:104410006520756E6C6F6164696E672066696C619A
:104420006D656E742E2054727920756E6C6F6164A8
:10443000696E67206D616E75616C6C792E20456EBA
:10444000737572652066696C616D656E7420636159
:104450006E206D6F766520616E642046494E444142
:1044600020776F726B732E0046494E444120646979
:10447000646E277420747269676765722077686953
:104480006C65206C6F6164696E6720746865206676
:10449000696C616D656E742E20456E737572652052
:1044A0007468652066696C616D656E742063616E09
:1044B000206D6F766520616E642046494E44412030
:1044C000776F726B732E0044697361626C65005381
:1044D000746F70004C6F616400556E6C6F616400A6
:1044E00052657365744D4D55005265747279004282
:1044F0006564206C6576656C696E67206661696CC1
:1045000065642E2053656E736F72206469646E2734
:104510007420747269676765722E204465627269DF
:1045200073206F6E206E6F7A7A6C653F20576169D9
:1045300074696E6720666F722072657365742E00F1
:1045400053656E736974697669747900446F6E653A
:1045500000526573756D696E67207072696E7400C4
:1045600050494E44412048656174696E670043615B
:104570006C6962726174696F6E20646F6E6500436E
:10458000616C6962726174696E67205A0042656489
:1045900020646F6E65004265642048656174696ED1
:1045A000670048656174696E6720646F6E652E00F0
:1045B00048656174696E67004D494E54454D502001
:1045C000424544206669786564004D494E54454D26
:1045D0005020484F54454E44206669786564002554
:1045E0002E313053200025346400457872656D65A6
:1045F000207370616E206F6620746865205A207683
:10460000616C756573210025642F3900312F3900E5
:10461000880020746F6F206C6F6E672065787472ED
:104620007573696F6E2070726576656E746564006F
:1046300020636F6C6420657874727573696F6E2087
:1046400070726576656E746564004D6F7665206185
:10465000626F72746564004572723A5052494E54EA
:104660002046414E204552524F5200256325336467
:104670002F256481005A25362E32662563005A2084
:1046800020202D2D2D2000862533642525002D2D5D
:104690002D252500253364252500205344002020A6
:1046A000200020484F002046524D2000872D2D3AF3
:1046B0002D2D202000872533756820256325630074
:1046C00087253032753A2530327525632563004DD4
:1046D0004D55323A002533640018010419020A6866
:1046E00044F4437C431143CA423A42C4415E4111FF
:1046F00041F340A940F34094409440944094409446
:104700004094409440944094409440944094409409
:1047100040944094409440944094409440944094F9
:104720004094405F402040D83F673F343FEC3EA478
:104730003E483E113ED13DB63D010101010101015E
:1047400002710171013232320303030303030303D5
:1047500003030303030303030303039393243803B3
:104760009303010256036500660067006800690054
:104770006A006B006C00730074007D007E00C9004D
:10478000D300DD00CA00D400DE002D013701410155
:104790002E01380142012F013901430130013A0154
:1047A000440131013B014501320191019201F501C2
:1047B000F601F701F801F901FA01FB01FC0184039C
:1047C000E9444C45E044D944D44426231D30CF4429
:1047D000C744252E3230530A70727573612E696F8B
:1047E0002F3034256875007B5B4552523A00332EDA
:1047F00031342E31005D5B4657523A005D5B5449BF
:104800004D3A005D5B464E4D3A005D5B46454D3A84
:10481000005D5B5043443A005B5446553A005B50A0
:10482000524E3A005B50464E3A305D005B4449417F
:104830003A005D5B4154423A005D5B4154303A00BE
:104840005D5B5354423A005B5354303A007B5B50FB
:10485000524E3A355D007B5B50524E3A305D007BE4
:104860005B50524E3A395D007B5B50524E3A385D98
:10487000007B5B5245533A305D5B46494C3A007BC6
:104880005B5245533A315D5B46494C3A000000218A
:1048900010422063308440A550C660E7700881292B
:1048A000914AA16BB18CC1ADD1CEE1EFF1311210C3
:1048B0000273325222B5529442F772D6623993187B
:1048C000837BB35AA3BDD39CC3FFF3DEE3622443CF
:1048D0003420040114E664C774A44485546AA54BCB
:1048E000B528850995EEE5CFF5ACC58DD553367263
:1048F0002611163006D776F6669556B4465BB77A1B
:10490000A719973887DFF7FEE79DD7BCC7C448E5EE
:10491000588668A7784008611802282338CCC9ED6A
:10492000D98EE9AFF9488969990AA92BB9F55AD402
:104930004AB77A966A711A500A333A122AFDDBDCBA
:10494000CBBFFB9EEB799B588B3BBB1AABA66C870E
:104950007CE44CC55C222C033C600C411CAEED8F0A
:10496000FDECCDCDDD2AAD0BBD688D499D977EB6A2
:104970006ED55EF44E133E322E511E700E9FFFBE5A
:10498000EFDDDFFCCF1BBF3AAF599F788F8891A92D
:1049900081CAB1EBA10CD12DC14EF16FE18010A104
:1049A00000C230E3200450254046706760B9839808
:1049B00093FBA3DAB33DC31CD37FE35EF3B1029054
:1049C00012F322D2323542145277625672EAB5CBD4
:1049D000A5A89589856EF54FE52CD50DC5E234C3A4
:1049E00024A01481046674476424540544DBA7FAA8
:1049F000B79987B8975FE77EF71DC73CD7D326F2F4
:104A0000369106B01657667676154634564CD96DF3
:104A1000C90EF92FE9C899E9898AB9ABA944586543
:104A20004806782768C018E1088238A3287DCB5C47
:104A3000DB3FEB1EFBF98BD89BBBAB9ABB754A5493
:104A40005A376A167AF10AD01AB32A923A2EFD0F13
:104A5000ED6CDD4DCDAABD8BADE89DC98D267C07E3
:104A60006C645C454CA23C832CE01CC10C1FEF3EE7
:104A7000FF5DCF7CDF9BAFBABFD98FF89F176E3633
:104A80007E554E745E932EB23ED10EF01E7C3C3E9F
:104A90003F2F2A225C0024F4D43050C38E20C2A2BF
:104AA0004017828B7011127A910D816CD90AA8611E
:104AB000E108C7586607615143061E4B5D05C145B5
:104AC000A7041A411104093D980371393103403696
:104AD000DB0265339102D4305402802E1D02632C18
:104AE000EE01752AC501B028A001102781018F258C
:104AF00064012B244B01E0223401AC211F018D20E5
:104B00000D01801FFC00841EED00971DDF00B81C06
:104B1000D200E61BC600201BBC00641AB200B2190A
:104B2000A8000A19A0006A189900D117910040172F
:104B30008B00B516840031167E00B31579003A1546
:104B40007300C7146F0058146A00EE1366008813D0
:104B5000630025135E00C7125B006C12570015122C
:104B60005400C111510070114F0021114B00D6109B
:104B700049008D1047004610440002104200C00F4B
:104B80004000800F3E00420F3C00060F3B00CB0E62
:104B90003800930E37005C0E3500270E3400F30DFD
:104BA0003200C10D3100900D3000600D2E00320D2D
:104BB0002D00050D2C00D90C2B00AE0C2900850C06
:104BC00029005C0C2700350C27000E0C2600E80B92
:104BD0002400C40B2400A00B23007D0B23005A0BE0
:104BE0002100390B2100180B2000F80A1F00D90AF8
:104BF0001E00BB0A1E009D0A1D00800A1D00630ADC
:104C00001C00470A1B002C0A1B00110A1A00F70996
:104C10001A00DD091900C4091900AB09190092092D
:104C200017007B091800630917004C0916003609A4
:104C30001600200916000A091500F5081500E008FD
:104C40001400CC081400B8081400A408140090083C
:104C500013007D0812006B08130058081200460864
:104C60001200340811002308110012081100010875
:104C70001100F0071000E0071000D0071000C00777
:104C80001000B0070F00A107100091070E00830766
:104C90000F0074070F0065070E0057070E00490745
:104CA0000E003B070D002E070E0020070D00130716
:104CB0000D0006070D00F9060C00ED060D00E006DC
:104CC0000C00D4060C00C8060C00BC060C00B00694
:104CD0000C00A4060B0099060C008D060B00820642
:104CE0000B0077060B006C060B0061060A005706E6
:104CF0000B004C060A0042060A0038060A002E067F
:104D00000A0024060A001A060A001006090007060F
:104D10000A00FD050900F4050900EB050900E2059C
:104D20000900D9050900D0050900C7050900BE051D
:104D30000900B5050800AD050800A50509009C059A
:104D40000800940508008C050800840508007C050F
:104D50000800740508006C050700650508005D057E
:104D60000700560508004E050700470507004005E7
:104D7000080038050700310507002A05070023054C
:104D800007001C050600160507000F0507000805AB
:104D9000060002050700FB040600F5040700EE0408
:104DA0000600E8040600E2040700DB040600D50460
:104DB0000600CF040600C9040600C3040600BD04B3
:104DC0000600B7040600B1040500AC040600A60402
:104DD0000600A00405009B0406009504050090044D
:104DE00006008A04050085040500800406007A0494
:104DF000050075040500700405006B0405006604D9
:104E00000500610405005C04050057040500520418
:104E100005004D04050048040500430405003E0458
:104E200004003A04050035040500300404002C0495
:104E3000050027040400230405001E0404001A04CE
:104E4000040016040500110404000D040400090404
:104E500005000404040000040400FC030400F8033B
:104E60000400F4030400F0030400EC030400E8036E
:104E70000400E4030400E0030400DC030400D8039E
:104E80000400D4030400D0030400CC030400C803CE
:104E90000300C503030024F404D9201BC40C5C0EDA
:104EA0009804C4095F0265077101F405F900FB0469
:104EB000B30048048700C103690058035500030389
:104EC0004500BE023A008402310053022A00290242
:104ED000250004022000E4011C00C8011900AF01F4
:104EE0001700980114008401130071011000610182
:104EF000100051010E0043010D0036010B002B0183
:104F00000B0020010B00150109000C010900030131
:104F10000800FB000800F3000800EB000700E400B5
:104F20000600DE000600D8000600D2000600CC0015
:104F30000500C7000500C2000500BD000400B9005F
:104F40000400B5000400B1000400AD000400A90095
:104F50000400A5000300A20003009F0004009B00C2
:104F600003009800030095000200930003009000E6
:104F700003008D0002008B00030088000200860001
:104F8000020084000300810002007F0002007D0017
:104F900002007B0002007900020077000100760029
:104FA00002007400020072000100710002006F0034
:104FB00002006D0001006C0002006A00010069003F
:104FC0000200670001006600010065000100640046
:104FD00002006200010061000100600001005F004A
:104FE00002005D0001005C0001005B0001005A004E
:104FF000010059000100580001005700010056004F
:10500000010055000100540001005300000053004E
:1050100001005200010051000100500001004F004A
:1050200001004E0000004E0001004D0001004C0048
:1050300001004B0000004B0001004A000100490044
:105040000100480000004800010047000100460040
:10505000000046000100450000004500010044003A
:105060000100430000004300010042000000420034
:1050700001004100000041000100400001003F002C
:1050800000003F0001003E0000003E0001003D0026
:1050900000003D0001003C0000003C0000003C001E
:1050A00001003B0000003B0001003A0000003A0014
:1050B000010039000000390001003800000038000C
:1050C0000000380001003700000037000100360002
:1050D00000003600000036000100350000003500F9
:1050E00000003500010034000000340000003400EE
:1050F00001003300000033000000330001003200E3
:1051000000003200000032000100310000003100D8
:1051100000003100010030000000300000003000CD
:1051200001002F0000002F0000002F0000002F00C2
:1051300001002E0000002E0000002E0001002D00B6
:1051400000002D0000002D0000002D0001002C00AB
:1051500000002C0000002C0000002C0001002B009F
:1051600000002B0000002B0000002B0001002A0093
:1051700000002A0000002A0000002A000100290087
:10518000000029000000290000002900000029007B
:10519000010028000000280000002800000028006E
:1051A0000000280001002700000027000000270061
:1051B0000000270000002700010026000000260054
:1051C0000000260000002600000026000100250047
:1051D000000025000000250000002500000025003B
:1051E000000025000100240000002400000024002D
:1051F0000000240000002400010023000000230020
:105200000000230000002300000023000000230012
:105210000000230001002200000022000000220004
:1052200000002200000022000000220001002100F6
:1052300000002100000021000000210000002100EA
:1052400000002100000021000100200000002000DB
:1052500000002000000020000000200000002000CE
:10526000000020000000200001001F0000001F00BF
:1052700000001F0000001F0000001F0000001F00B2
:1052800000001F0001001E0000001E0000001E00A4
:1052900000001E00000045303A20005A3A20005914
:1052A0003A2000583A20004D53312C4D53322050B3
:1052B000696E7300504944204175746F74756E6552
:1052C0002066696E69736865642120507574207466
:1052D0006865206C617374204B702C204B692061D1
:1052E0006E64204B6420636F6E7374616E74732000
:1052F00066726F6D2061626F766520696E746F20D3
:10530000436F6E66696775726174696F6E2E6800AF
:10531000504944204175746F74756E6520666169EB
:105320006C6564212074696D656F75740020403A66
:1053300000543A00423A00504944204175746F7459
:10534000756E65206661696C6564212054656D70B9
:105350006572617475726520746F6F206869676823
:1053600000204B643A2000204B693A2000204B700B
:105370003A200020436C61737369632050494420D4
:10538000002054753A2000204B753A2000206D61B2
:10539000783A2000206D696E3A200020643A20009F
:1053A00020626961733A2000504944204175746F4E
:1053B00074756E65207374617274005049442041A5
:1053C00075746F74756E65206661696C65642E20F6
:1053D000426164206578747275646572206E756DC3
:1053E0006265722E00486F74656E642066616E207F
:1053F0007370656564206973206C6F7765722074C3
:1054000068616E20657870656374656400507269C8
:105410006E742066616E2073706565642069732008
:105420006C6F776572207468616E20657870656353
:10543000746564004D494E54454D5020424544002A
:105440004D494E54454D50004D415854454D500026
:105450004D415854454D50204245440070012C01A7
:1054600090012701B0012201C0011D01F0011801C6
:105470001002130130020E016002090190020401C2
:10548000C002FF000003FA004003F5008003F000B3
:10549000D003EB002004E6007004E100E004DC002F
:1054A0004005D700C005D2004006CD00D006C80098
:1054B0008007C3003008BE00F008B900C009B4007E
:1054C000B00AAF00B00BAA00D00CA500000EA000DF
:1054D000500F9B00C01096005012910000148C00D9
:1054E000C0158700B0178200B0197D00D01B78006E
:1054F000001E730040206E0090226900F0246400BA
:1055000040275F0090295A00E02B5500102E5000D4
:1055100020304B0010324600E033410090353C0013
:105520001037370070383200A0392D00B03A28000B
:10553000A03B2300603C1E00103D1900903D14006C
:10554000103E0F00703E0A00C03E0500003F000004
:1055500020484F54454E4420544845524D414C201C
:1055600052554E4157415900204845415442454407
:1055700020544845524D414C2052554E41574159B7
:1055800000544845524D414C2052554E41574159C7
:105590000042454420544845524D414C2052554EFE
:1055A000415741590020544845524D414C205255D5
:1055B0004E415741592028505245484541542048B2
:1055C0004F54454E44290020544845524D414C20EB
:1055D00052554E4157415920285052454845415453
:1055E00020484541544245442900505245484541D0
:1055F00054204552524F5200424544205052454893
:10560000454154204552524F5200207472696767D9
:1056100065726564210048656174657273207377F3
:10562000697463686564206F66662E20003A200006
:105630004572723A200000FF0102010002FFFFFEE6
:105640000001FE01FF00506C656173652072657397
:10565000746172740055534152543220727820465E
:10566000756C6C212121003A2000252D31322E311C
:105670003253252D642F36002533642F252D3364B6
:1056800000203A200025335300252D3773001000E9
:10569000C90210012C014001220170011801B00162
:1056A0000E01F00104015002FA00B002F0003003D4
:1056B000E600D003DC009004D2007005C800A0060C
:1056C000BE000008B400B009AA00D00BA000600E14
:1056D000960060118C000015820020197800C01D12
:1056E0006E00A0226400B0275A00902C50000031B8
:1056F0004600E0343C0010383200903A2800603C0C
:105700001E00A03D1400803E0A00203F00005859B2
:105710005A2063616C6962726174696F6E20616C9A
:105720006C2072696768742E20536B6577207769E7
:105730006C6C20626520636F7272656374656420AF
:105740006175746F6D61746963616C6C792E00585A
:10575000595A2063616C6962726174696F6E20616D
:105760006C6C2072696768742E20582F59206178FC
:1057700065732061726520736C696768746C792049
:10578000736B657765642E20476F6F64206A6F6264
:10579000210058595A2063616C6962726174696FA3
:1057A0006E206F6B2E20582F592061786573206111
:1057B00072652070657270656E646963756C617284
:1057C0002E20436F6E67726174756C6174696F6EC1
:1057D00073210046656564696E6720746F204653C7
:1057E000656E736F72004D6F76696E672073656CBE
:1057F0006563746F7200486F6D696E6700526574FF
:10580000726163742066726F6D2046494E44410098
:10581000456A656374696E672066696C616D656E63
:1058200074005061726B696E672073656C65637498
:105830006F720052657475726E696E672073656C65
:105840006563746F7200506572666F726D696E6722
:10585000206375740050757368696E672066696CA3
:10586000616D656E7400507265706172696E67205B
:10587000626C6164650053656C656374696E672072
:1058800066696C2E20736C6F7400556E6C6F61646A
:10589000696E672066696C616D656E740045525271
:1058A00020544D43206661696C6564004552522066
:1058B00048656C702066696C616D656E7400455258
:1058C0005220496E7465726E616C004552522057C9
:1058D00061697420666F7220557365720046696E47
:1058E000697368696E67206D6F76656D656E747338
:1058F0000041766F6964696E67206772696E640043
:1059000046656564696E6720746F206E6F7A7A6C85
:10591000650046656564696E6720746F20657874FC
:1059200072756465720046656564696E6720746FA0
:105930002046494E444100556E6C6F6164696E6744
:1059400020746F2070756C6C657900556E6C6F619A
:1059500064696E6720746F2046494E444100446973
:1059600073656E676167696E672069646C65720054
:10597000456E676167696E672069646C6572004F88
:105980004B00554E4B4E4F574E204552524F5200F2
:1059900046494C414D454E54204348414E474500F1
:1059A00046494C414D454E5420454A454354454493
:1059B00000554E4C4F4144204D414E55414C4C59A1
:1059C0000046572052554E54494D45204552524F9E
:1059D00052004D4D552046572055504441544520C6
:1059E0004E45454445440051554555452046554C86
:1059F0004C00494E56414C494420544F4F4C0046B0
:105A0000494C2E20414C5245414459204C4F414471
:105A1000454400434F4D4D554E49434154494F4E27
:105A2000204552524F52004D4D55204E4F5420525A
:105A30004553504F4E44494E47004D4D55204D4320
:105A400055204552524F52004D4D552053454C461E
:105A500054455354204641494C454400544D43203D
:105A60004452495645522053484F525445440054DD
:105A70004D4320554E444552564F4C5441474520C6
:105A800045525200544D43204452495645522052EB
:105A90004553455400544D432044524956455220E5
:105AA0004552524F5200544D43204F56455248459F
:105AB0004154204552524F52005741524E494E4791
:105AC00020544D4320544F4F20484F540049444CDC
:105AD00045522043414E4E4F54204D4F56450049AC
