:100000000C94463A0C94773A0C94773A0C94773ADD
:100010000C94773A0D94C3670C94773A0C94773A22
:100020000C94806B0C94773A0C94773A0C94773A52
:100030000C9407570C94773A0D94DD2A0D946E2496
:100040000C94773A0D94DF310C94773A0C94773A0C
:100050000C94773A0C94773A0C94773A0C94B46AEF
:100060000C94773A0C9484530C94773A0C94773A26
:100070000C94773A0C947F8C0C94773A0C94773AE2
:100080000C94773A0C94773A0C94773A0C94773A2C
:100090000C9440530C94773A0C94773A0C94773A3A
:1000A0000C94773A0C94773A0D94601C0C94773A40
:1000B0000C94773A0D94421C0C94773A0D942730A7
:1000C0000C94773A0C94773A0C94773A0D94021C7E
:1000D0000C94773A0C94773A0C94773A0C94773ADC
:1000E0000C94773A084AD73B3BCE016E84BCBFFDE7
:1000F000C12F3D6C74319ABD56833DDA3D00C77FF8
:1001000011BED9E4BB4C3E916BAAAABE0000008090
:100110003F05A84CCDB2D44EB93836A9020C50B91F
:10012000918688083CA6AAAA2ABE000000803F0744
:10013000634236B79BD8A71A39685618AEBAAB5582
:100140008C1D3CB7CC5763BD6DEDFD753EF6177247
:1001500031BF000000803F08000000BE9224491219
:100160003EABAAAA2ABECDCCCC4C3E00000080BE3D
:10017000ABAAAAAA3E00000000BF000000803F001A
:1001800000000000084178D3BB4387D1133D190E0E
:100190003CC3BD4282AD2B3E68EC8276BED98FE176
:1001A000A93E4C80EFFFBE01C4FF7F3F000000006E
:1001B00000000C94AEFB0C94E1CA0C942FDD0C945F
:1001C000486B0D94713E0D9475210C94F3C70C94FB
:1001D000E9DB0C94D8D00D94721A0C940AC80C94D4
:1001E00007DD0D94B0170C949DCB0C941EDD0C9480
:1001F000A4F50D9446230C9481FB0D947F0B0C9475
:10020000D0FB0D94250A0C940ADB0C9410E60C9498
:10021000A4CB0C940EC80C94A1D40C94C5E50C94FA
:10022000E6FB0C9433FB0C94B3E50D94E5AD0C9414
:100230001CC80C9418C80C9400C80C9448CE0C949C
:10024000EBC70C94CAC90C947DEA0C9435DB0D9471
:10025000593E0C944ADF0D9480AD0D94613E0D948F
:10026000290A0C945CCE0C9416EF0D9469170C942B
:1002700010CA0C9423CA0D9430A70D94413E0D94DE
:1002800029150C94E8E50C94DDDB0C9445FB0C94EB
:100290001C6B0D94793E0C94ADCA0C9400DB0C944D
:1002A000BCC90C94A8FB0C94BFCA0C946FCA0C94E4
:1002B000EFDB0D94D8A60C94E5C70D94B41B0C94F9
:1002C00013DD0D94BDB30C94FAC70C94DF6E0D943E
:1002D000F3A60C9499FB0D944BA70D9414170D9451
:1002E00038270C942EC80C9444CA0D944E100D94CB
:1002F00042A70C94E6DB0C9466CE0D94493E0D9417
:10030000FA3D0C94C3C90C94FD6C0C9432C80C9447
:1003100077FB0C94B2FB0C94F2EF0C94FCE50C947C
:1003200012CD0C94F4530D9467AD0D94BA0A0C944D
:10033000E0D00C945BCA0C945E680C948DE50D942F
:1003400074190C9457CE0C9482E00C9479CA0C94D6
:10035000F8DB0D9439A70C945BFA0C9443EF0D94E1
:10036000DCB30C9452CE0D94F2140C94F5DC0C9486
:1003700099CA0C947CDD0D94E2AD0C94456A0C9402
:10038000DEEA0D94DE230D9435150D94CA140C94F9
:10039000ABD60D94150F0C94DBD50C94E3DB0D94C8
:1003A000270D0D94504A0C94C8C80C9409F10C9474
:1003B00025C80D94F7230D948D3D0C9443CD0C94DA
:1003C0002DDD0D949A3D0C94D9E50C94C3DD0C946D
:1003D000ABE50C94C5D20D94D03D0D94EEB30D94C5
:1003E0002E3E0C9465CA0C94ECDB0D94A30F0C9478
:1003F000CACA0C9424F90D94ED160C94FBDC0C94F1
:10040000C0CB0C94ED6A0C9464ED0D94FD3D0D94FD
:1004100065080C94E0DB0D94893E0D9446150C9410
:10042000A1E50C94B1F30C94EFC70D9430160C9425
:1004300087DC0C9483CA0D94E0B30C946FCE0C94BB
:1004400079CD0C9453DF0C94066B0D9452150C94DB
:1004500041D20D94813E0C9404CA0C941AE60D947A
:10046000CF230D94913E0C94F4CA0D94313E0C941C
:1004700088E50C94D1C90C94DFCE0D94920F0C94A6
:1004800035CA0C9401DD0C9407CC0C945AEE0D94F3
:100490007B0B0C9499DB0C94CFE50C9497E50D94B1
:1004A000E9B30D94683D0C9404C80C9437C80D94BE
:1004B000110B0C9438D20D949C230D94B5140C940C
:1004C000BBE50D946E160D9483150D94B8090C942C
:1004D00061CE0D9457190D94DFAD0D94513E0C94DF
:1004E000B6F80C94CCF80C94E9C80C9458D70C943A
:1004F0004DCE0C9412C80C94A9DB0C9480E50D949D
:100500003CA70D942B1B0C948FCA0C94F86A0C9486
:1005100009EC0C9496CC0D9478190D94903D0C94A4
:100520002AC80C946BCE0C94D8C90C94DADB0C94CA
:10053000C6EE0D94217B0D9459230C9420C80C9485
:10054000D36A0C94A3CE0D942D0C0C9426C80D9454
:10055000D9B30D9477B30D94E1A60C94F6FB0D94EA
:10056000503D0C9499690C9445CF0C94256B0C94D8
:100570008DD60D94B6160C94EFC80D9454A70C9418
:10058000F2E50C9410D20C94B7EC0D9466100C9418
:100590000DFB0C94F7C70C9481DD0D94C30F0D94E3
:1005A0006B080C945A6B0D94973D0C94A3CA0D9450
:1005B000003E0C94D0FA0C943DFB0C9452D00C9459
:1005C0005CDF0C9441DF0C9406E60D94693E0D94BB
:1005D000C2AD0D94393E0C9450CA0D943FA76E6184
:1005E0006E00696E660000407A10F35A00A0724EE9
:1005F00018090010A5D4E80000E87648170000E4C8
:100600000B54020000CA9A3B000000E1F50500000F
:1006100080969800000040420F000000A086010074
:100620000000102700000000E80300000000640044
:10063000000000000A0000000000010000000000AF
:100640002C76D888DC674F0823DFC1DFAE59E1B1D3
:10065000B796E5E3E453C63AE651997696E8E6C2E2
:100660008426EB898C9B62ED407C6FFCEFBC9C9FE9
:1006700040F2BAA56FA5F490055A2AF75C936B6C0B
:10068000F9676DC11BFCE0E40D47FEF520E6B500FF
:10069000D0ED902E0300943577050080841E08006D
:1006A00000204E0A000000C80C333333330F986E1D
:1006B00012831141EF8D2114893BE65516CFFEE6DA
:1006C000DB18D1844B381BF77C1D901DA4BBE424A0
:1006D000203284725E228100C9F124ECA1E53D271D
:1006E000556E6578706563746564206572726F72AB
:1006F000206F636375727265642E004D3630302052
:1007000046696C616D656E74204368616E67652E25
:10071000204C6F61642061206E65772066696C6192
:100720006D656E74206F7220656A656374207468ED
:1007300065206F6C64206F6E652E0052656D6F765C
:10074000652074686520656A656374656420666900
:100750006C616D656E742066726F6D2074686520C3
:1007600066726F6E74206F6620746865204D4D55FB
:100770002E0046696C616D656E74206465746563F6
:1007800074656420756E65787065637465646C79F2
:100790002E20456E73757265206E6F2066696C61E0
:1007A0006D656E74206973206C6F616465642E20C2
:1007B000436865636B207468652073656E736F7240
:1007C0007320616E6420776972696E672E00496ECE
:1007D0007465726E616C2072756E74696D652065EA
:1007E00072726F722E205472792072657365747400
:1007F000696E6720746865204D4D55206F722075B5
:1008000070646174696E6720746865206669726DD2
:10081000776172652E004D4D5520465720766572E2
:1008200073696F6E20697320696E636F6D70617498
:1008300069626C652077697468207072696E74658E
:10084000722046572E55706461746520746F20764F
:10085000657273696F6E20332E302E332E004D4D2E
:1008600055204669726D7761726520696E74657294
:100870006E616C206572726F722C20706C65617392
:100880006520726573657420746865204D4D552E22
:10089000005265717565737465642066696C616D7D
:1008A000656E7420746F6F6C206973206E6F742096
:1008B000617661696C61626C65206F6E2074686935
:1008C000732068617264776172652E204368656386
:1008D0006B2074686520472D636F646520666F72B6
:1008E00020746F6F6C20696E646578206F7574205A
:1008F0006F662072616E6765202854302D5434294C
:100900002E0043616E6E6F7420706572666F726D3B
:100910002074686520616374696F6E2C2066696C51
:10092000616D656E7420697320616C7265616479B4
:10093000206C6F616465642E20556E6C6F6164205D
:1009400069742066697273742E004D4D55206E6F68
:100950007420726573706F6E64696E6720636F7266
:10096000726563746C792E20436865636B207468CC
:100970006520776972696E6720616E6420636F6EAF
:100980006E6563746F72732E004D4D55206E6F74DB
:1009900020726573706F6E64696E672E20436865A0
:1009A000636B2074686520776972696E6720616E79
:1009B0006420636F6E6E6563746F72732E004D6F8B
:1009C00072652064657461696C73206F6E6C696E0A
:1009D000652E005468652049646C65722063616E01
:1009E0006E6F7420686F6D652070726F7065726CC9
:1009F000792E20436865636B20666F7220616E7983
:100A00007468696E6720626C6F636B696E672069DA
:100A10007473206D6F76656D656E742E0043616E24
:100A20002774206D6F76652053656C6563746F72F3
:100A3000206F722049646C65722E005468652053E3
:100A4000656C6563746F722063616E6E6F7420688D
:100A50006F6D652070726F7065726C792E204368BF
:100A600065636B20666F7220616E797468696E676A
:100A700020626C6F636B696E6720697473206D6FA1
:100A800076656D656E742E004C6F6164696E6720CB
:100A9000746F206578747275646572206661696C24
:100AA00065642E20496E73706563742074686520D8
:100AB00066696C616D656E7420746970207368611D
:100AC00070652E20526566696E65207468652073B6
:100AD000656E736F722063616C6962726174696FB5
:100AE0006E2C206966206E65656465642E00536512
:100AF0006C6563746F722063616E2774206D6F760E
:100B0000652064756520746F2046494E4441206419
:100B10006574656374696E6720612066696C616DD8
:100B2000656E742E204D616B652073757265206E45
:100B30006F2066696C616D656E7420697320696EE3
:100B40002053656C6563746F7220616E6420464942
:100B50004E444120776F726B732070726F706572B4
:100B60006C792E0046696C616D656E742073656EDC
:100B7000736F722074726967676572656420746F41
:100B80006F206561726C79207768696C65206C6F85
:100B90006164696E6720746F20657874727564652E
:100BA000722E20436865636B2074686572652069E6
:100BB000736E277420616E797468696E6720737430
:100BC00075636B20696E20505446452074756265CC
:100BD0002E20436865636B20746861742073656EB2
:100BE000736F722072656164732070726F706572CA
:100BF0006C792E0050756C6C6579206D6F746F7216
:100C0000207374616C6C65642E20456E737572651B
:100C1000207468652070756C6C65792063616E2046
:100C20006D6F766520616E6420636865636B207408
:100C3000686520776972696E672E0046696C616D20
:100C4000656E742073656E736F72206469646E27BD
:100C50007420737769746368206F666620776869AB
:100C60006C6520756E6C6F6164696E672066696C77
:100C7000616D656E742E20456E73757265206669B0
:100C80006C616D656E742063616E206D6F7665209A
:100C9000616E64207468652073656E736F7220776F
:100CA0006F726B732E0046696C616D656E74207394
:100CB000656E736F72206469646E27742074726944
:100CC00067676572207768696C65206C6F6164691D
:100CD0006E67207468652066696C616D656E742E40
:100CE00020456E73757265207468652073656E7338
:100CF0006F722069732063616C69627261746564EC
:100D000020616E64207468652066696C616D656E33
:100D10007420726561636865642069742E004649B9
:100D20004E4441206469646E27742073776974634C
:100D300068206F6666207768696C6520756E6C6FD9
:100D40006164696E672066696C616D656E742E20E2
:100D500054727920756E6C6F6164696E67206D6185
:100D60006E75616C6C792E20456E737572652066A8
:100D7000696C616D656E742063616E206D6F766560
:100D800020616E642046494E444120776F726B7338
:100D90002E0046494E4441206469646E27742074D5
:100DA000726967676572207768696C65206C6F612E
:100DB00064696E67207468652066696C616D656E34
:100DC000742E20456E73757265207468652066699F
:100DD0006C616D656E742063616E206D6F76652049
:100DE000616E642046494E444120776F726B732ECA
:100DF0000044697361626C650053746F70004C6FDE
:100E0000616400556E6C6F61640052657365744D6A
:100E10004D550052657472790043726173682064A5
:100E2000657465637465642E00536F6D6520707220
:100E30006F626C656D20656E636F756E746572654B
:100E4000642C205A2D6C6576656C696E6720656E22
:100E5000666F72636564202E2E2E004D65736820C8
:100E6000626564206C6576656C696E672066616991
:100E70006C65642E205072696E742063616E6365C8
:100E80006C65642E0048656174696E6720646973DF
:100E900061626C6564206279207361666574792093
:100EA00074696D65722E0053544F505045442E00A6
:100EB00050415553454420544845524D414C2045DE
:100EC00052524F5200472D636F646520736C696303
:100ED000656420666F72206120646966666572656C
:100EE0006E74206C6576656C2E20506C6561736540
:100EF0002072652D736C69636520746865206D6F61
:100F000064656C20616761696E2E00472D636F64B4
:100F10006520736C6963656420666F72206120646C
:100F20006966666572656E74206C6576656C2E0008
:100F3000472D636F646520736C6963656420666F19
:100F4000722061206E65776572206669726D7761C7
:100F500072652E20506C65617365207570646174D4
:100F60006520746865206669726D776172652E0010
:100F7000472D636F646520736C6963656420666FD9
:100F8000722061206E65776572206669726D776187
:100F900072652E00472D636F646520736C6963650D
:100FA0006420666F72206120646966666572656E92
:100FB00074207072696E74657220747970652E2069
:100FC000506C656173652072652D736C6963652073
:100FD000746865206D6F64656C20616761696E2E51
:100FE00000472D636F646520736C696365642066D8
:100FF0006F72206120646966666572656E74207028
:1010000072696E74657220747970652E0050726515
:10101000737320746865206B6E6F6220746F20702C
:10102000726568656174206E6F7A7A6C6520616E96
:101030006420636F6E74696E75652E00506C656117
:10104000736520707265737320746865206B6E6FB2
:101050006220746F20756E6C6F61642066696C61CC
:101060006D656E7400616E642070726573732074B8
:101070006865206B6E6F6200496E736572742066DE
:10108000696C616D656E7400436F6C6F72206E6F7A
:101090007420636F72726563740046696C616D657C
:1010A0006E74206E6F74206C6F61646564004368B9
:1010B000616E67656420636F72726563746C79003A
:1010C0004C6F6164696E6720636F6C6F7200436878
:1010D000616E676520737563636573732100506C7F
:1010E00065617365206F70656E2069646C65722040
:1010F000616E642072656D6F76652066696C616DE6
:10110000656E74206D616E75616C6C792E0057612F
:10111000732066696C616D656E7420756E6C6F61AD
:1011200064207375636365737366756C3F00506C00
:101130006561736520757067726164652E004E6528
:1011400077206669726D7761726520766572736962
:101150006F6E20617661696C61626C653A005761FF
:101160006974696E6720666F722050494E44412051
:1011700070726F626520636F6F6C696E6700506C90
:10118000656173652077616974004E6F206D6F76BD
:10119000652E005761697420666F722075736572E1
:1011A0002E2E2E00537461626C6520616D6269653C
:1011B0006E742074656D706572617475726520322D
:1011C000312D323643206973206E65656465642075
:1011D00061207269676964207374616E6420697349
:1011E0002072657175697265642E00506C6561735B
:1011F000652072756E2058595A2063616C6962725D
:101200006174696F6E2066697273742E0042656442
:10121000206C6576656C696E67206661696C6564D3
:101220002E2053656E736F72206469646E2774207C
:10123000747269676765722E2044656272697320F3
:101240006F6E206E6F7A7A6C653F205761697469A2
:101250006E6720666F722072657365742E00536529
:101260006E736974697669747900446F6E650022E3
:1012700000656E717565696E67202200446F6E654A
:10128000207072696E74696E672066696C65004EC5
:101290006F204C696E65204E756D626572207769AE
:1012A000746820636865636B73756D2C204C617383
:1012B00074204C696E653A20004E6F204368656368
:1012C0006B73756D2077697468206C696E65206E2C
:1012D000756D6265722C204C617374204C696E656B
:1012E0003A2000636865636B73756D206D69736D7B
:1012F000617463682C204C617374204C696E653A8C
:1013000020004C696E65204E756D626572206973B0
:10131000206E6F74204C617374204C696E65204E92
:10132000756D6265722B312C204C617374204C6991
:101330006E653A2000256C7520627974657320779C
:1013400072697474656E20746F2025532061742057
:10135000616464726573732030782530346C780A68
:1013600000442564202D20526561642F57726974F2
:10137000652025530A0020436F756E7420583A206B
:101380000045303A25642052504D2050524E313A9B
:1013900025642052504D204530403A25752050524A
:1013A0004E31403A25750A00526573656E6400251A
:1013B000533A20256C640A25530A002F2F61637469
:1013C000696F6E3A6E6F74696669636174696F6E96
:1013D0002025530A0046696C616D656E7420727534
:1013E0006E6F757420646574656374656421005064
:1013F00072696E7465722073746F707065642064B6
:10140000756520746F206572726F72732E2053752C
:10141000706572766973696F6E2072657175697235
:1014200065642E0064756D7020636C65617265641F
:101430000A006E6F2064756D7020617661696C6161
:10144000626C650A00443231202D2072656164208F
:1014500063726173682064756D700A006E6F20643A
:10146000756D7020617661696C61626C650A0064FB
:10147000756D7020636F6D706C6574656420696E46
:1014800020256C756D730A0058464C415348004541
:101490004550524F4D005352414D00442D31202DA7
:1014A00020456E646C657373206C6F6F700A004129
:1014B00063746976652045787472756465723A2044
:1014C0003000496E76616C69642065787472756469
:1014D000657200746D63323133305F7072696E749F
:1014E0005F63757272656E747328290A0948095220
:1014F0000A580925640925640A59092564092564DF
:101500000A5A0925640925640A45092564092564E0
:101510000A005344207072696E74696E67206279A4
:1015200074652000257500556E6B6E6F776E2063B5
:101530006F6D6D616E643A2022004D32303020496B
:101540006E76616C6964206578747275646572206A
:10155000007A5F6D61783A20007A5F6D696E3A209B
:1015600000795F6D61783A2000795F6D696E3A208D
:1015700000785F6D61783A200054524947474552E0
:101580004544006F70656E00785F6D696E3A2000AB
:101590005265706F7274696E6720656E6473746FE4
:1015A0007020737461747573004D31313220636142
:1015B0006C6C65642E20456D657267656E6379207D
:1015C00053746F702E002F2F616374696F6E3A75BC
:1015D000766C6F5F7265636F766572795F72656155
:1015E0006479002F2F616374696F6E3A75766C6F42
:1015F0005F6175746F5F7265636F766572795F7234
:10160000656164790025533A256C7520636D0A2560
:10161000533A256C75206D696E0A0053494C454E4E
:1016200054004E4F524D414C002553204D4F4445E0
:101630003A2050657263656E7420646F6E653A205F
:10164000256868643B207072696E742074696D65EA
:101650002072656D61696E696E6720696E206D69C3
:101660006E733A2025643B204368616E676520698C
:101670006E206D696E733A2025640A005072696E9F
:1016800074657253746174653A2025640A00456E6E
:10169000642066696C65206C6973740042656769D3
:1016A0006E2066696C65206C69737400556E6B6E94
:1016B0006F776E20256320636F64653A2025730A77
:1016C000000A50494E44412074656D706572617422
:1016D0007572653A20252E3166205A207368696636
:1016E0007420286D6D293A20252E3366000A537424
:1016F00065703A2025642F360A000A537465703AE3
:101700002025642F362028736B6970706564290A60
:1017100050494E44412074656D70657261747572F4
:10172000653A202564205A20736869667420286D04
:101730006D293A300A000A5A45524F3A20252E3375
:10174000660A0073746172742074656D70657261ED
:10175000747572653A20252E31660A0025642020B2
:10176000252E326600255320583A20252E35662036
:10177000593A20252E3566205A3A20252E35660AFC
:1017800000536C6565702E2E2E0045303A2564207E
:1017900052504D0A50524E303A25642052504D0A54
:1017A00000312F39008800002045535000204E534F
:1017B0005000204F464600204F4E0050563031001A
:1017C000205B4D505D2000256920686F7572732085
:1017D0002569206D696E75746573005258207469AF
:1017E0006D656F7574004D333130004D313132000D
:1017F0004D3131300046756C6C2052582042756670
:101800006665720053657474696E67732053746FF4
:1018100072656400544D3A2073746F72656420637E
:10182000616C6962726174696F6E20696E76616C59
:1018300069642C20726573657474696E67005374F3
:101840006F7265642073657474696E677320726566
:10185000747269657665640048617264636F64657B
:10186000642044656661756C742053657474696E98
:101870006773204C6F61646564005632000000009D
:10188000C8420000C8420000C84300008C4300006A
:10189000484300004843000040410000F042E80394
:1018A0000000E8030000C8000000881300000040AA
:1018B0009C4400409C440000000000000000204EBA
:1018C00000000000204100002041CDCCCC3E0000B3
:1018D0009040000000000000000000000000CDCC9F
:1018E000CC3E3D0A8141FF08433EB099AB438F4255
:1018F000FC42E65A343F4C62B04500000000004014
:101900004000003442000000000000000000000021
:1019100041000000E03F0000C8420000C842000053
:1019200040410000F042C0030000C0030000C800B6
:101930000000881300001010102000409C4400009C
:10194000803F0000003F1914000000437573746F5E
:101950006D004E796C6F6E504100536174696E205A
:10196000200054657874757200536D6F6F74680051
:10197000486F74656E642066616E2073706565647F
:10198000206973206C6F776572207468616E2065C2
:1019900078706563746564005072696E7420666166
:1019A0006E207370656564206973206C6F77657253
:1019B000207468616E2065787065637465640031B9
:1019C0002E3000312E3500554E4B4E4F574E004CA9
:1019D000413130433A204C696E6561722041647632
:1019E000616E6365206D6F64653A20004C41313053
:1019F000433A2041646A757374656420452D4A65D5
:101A0000726B3A20003E0FA8AF00480069960000B4
:101A1000DF6025555887680427F2E0005E3403CC68
:101A20001960F33C0EF88F00DB08029492003E1C14
:101A3000079A8700E524008528527E06001BE400F3
:101A40007E781270787061F812788F8841784270D1
:101A5000787061782570787061F850788F88D1F04F
:101A60002527078761F025278F88412C0D27AA504D
:101A7000D1BC0707871161BE788F881141785270F9
:101A8000787061F852788F884120127888706320CE
:101A90005278887063485278888743031117997089
:101AA00064181278F870654412F8F8F04518427816
:101AB000F87065182578F87065185278F870651810
:101AC0005078F870650C078F872365A20F8F8F11F0
:101AD00045001206227069001207222749002506D8
:101AE00022706900250722274900120622276C026E
:101AF0006236A2706C40456C44704C0362222270C6
:101B00006C43888888F04C7812BC88806E7852BC10
:101B100088806E38127888706F78127888874F388E
:101B2000427888706F38257888706F3A0079AC7881
:101B30006F3D079AAC786F7850788887EF3949788D
:101B400088706F0852BC8880729852F88F98522023
:101B5000127870F07348127863875320527870F0CF
:101B6000734852786387531007870F247312786382
:101B700087245360699A988BE22304E444307410FC
:101B80004E444324747C12888960753C5088887068
:101B9000557825288960757949088960753C1288CF
:101BA0007070790C12885222594412F124F07A4450
:101BB00052F124F07A8C52F0368F5A4420F124F0FE
:101BC0007A00401454CDCCCC3D0AD7233C17B7D172
:101BD0003877CC2B329595E6241FB14F0A000020B0
:101BE000410000C84200401C4620BCBE4CCA1B0E2F
:101BF0005AAEC59D744E414E494E46627573793A50
:101C00002070617573656420666F7220696E7075EF
:101C10007400627573793A2070617573656420662B
:101C20006F72207573657200627573793A207072F5
:101C30006F63657373696E670000007F43008054B3
:101C4000430000524300000000000080C09A991930
:101C50003E00000000000080C09A99193E0000A0DC
:101C6000400000A0400000004025336420737465EC
:101C7000703D253264206D73636E743D2534640AB3
:101C80000000007F43008058439AD95143FFFFFF73
:101C900020413A0020503A002042403A0020403A89
:101CA00000202F002054303A00202F0020423A001C
:101CB000202F00543A002553457863657373697685
:101CC0006520626564206C6576656C696E6720636B
:101CD0006F7272656374696F6E3A202569206D6951
:101CE00063726F6E730A00426564206C6576656C82
:101CF000696E67206661696C65642E20546F6F2081
:101D00006D75636820766172696174696F6E2066B3
:101D1000726F6D20656570726F6D206D6573680000
:101D2000426564206C6576656C696E6720666169E2
:101D30006C65642E2053656E736F722074726967D0
:101D4000676572656420746F6F20736F6F6E00201B
:101D500020004D6561737572656420706F696E74E3
:101D6000733A005A20736561726368206865696719
:101D700068743A20352E3066004E756D20582C5907
:101D80003A20372C37004D65736820626564206CFB
:101D90006576656C696E67206E6F74206163746927
:101DA00076652E0020453A00205A3A0020593A0024
:101DB00020453A00205A3A0020593A00583A00206B
:101DC0002D3E200053706F6F6C4A6F696E3A200091
:101DD0002C2000496E6163746976697479205368B8
:101DE0007574646F776E004B494C4C45442E00501F
:101DF00072696E7465722068616C7465642E206B04
:101E0000696C6C28292063616C6C656421005A2020
:101E10006C6976652061646A757374206F757420CF
:101E20006F662072616E67652E2053657474696EEB
:101E30006720746F20302E20436C69636B20746FB1
:101E400020636F6E74696E75652E005A206C69761A
:101E5000652061646A757374206F7574206F6620E5
:101E600072616E67652E2053657474696E672074A5
:101E70006F20300020453A3020423A00543A004763
:101E800031205A252D2E33662046252D2E3366000F
:101E9000496E76616C6964205420636F64652E001E
:101EA0004475706C696361746520542D636F64655B
:101EB0002069676E6F7265642E00416476616E639F
:101EC00065204B3D004B206F7574206F6620616C60
:101ED0006C6F7765642072616E676521004D4B33CE
:101EE000004D4B334D4D5533005C762C012533644A
:101EF0002F2533640025336400200A200A200A209D
:101F0000002553537461746973746963733A0A25C5
:101F10005320204D37382053256C752054256C757F
:101F20000A0025534172632053657474696E6773A8
:101F30003A20503A4D6178206C656E677468286D60
:101F40006D2920533A4D696E206C656E6774682068
:101F5000286D6D29204E3A436F7272656374696F04
:101F60006E7320523A4D696E207365676D656E74AD
:101F70007320463A5365676D656E74732F7365639E
:101F80002E0A255320204D3231342050252E326622
:101F90002053252E3266204E25642052256420468B
:101FA00025640A00255346696C616D656E74207363
:101FB000657474696E67733A2044697361626C6515
:101FC000640A00255346696C616D656E7420736503
:101FD0007474696E67733A0A25532020204D32309D
:101FE000302044252E32660A0025535265747261F2
:101FF00063743A20533D4C656E67746820286D6D9C
:102000002920463A537065656420286D6D2F6D292F
:10201000205A3A205A4C69667420286D6D290A2589
:10202000532020204D3230372053252E3266204653
:10203000252E3266205A252E32660A2553526563B4
:102040006F7665723A20533D4578747261206C65F5
:102050006E67746820286D6D2920463A5370656557
:102060006420286D6D2F6D290A25532020204D32C4
:1020700030382053252E32662046252E32660A251A
:10208000534175746F2D526574726163743A2053B5
:102090003D3020746F2064697361626C652C20315F
:1020A00020746F20696E7465727072657420657833
:1020B00074727564652D6F6E6C79206D6F766573C3
:1020C000206173207265747261637473206F722073
:1020D0007265636F7665726965730A2553202020E7
:1020E0004D323039205325640A002553504944208D
:1020F000686561746265642073657474696E677382
:102100003A0A25532020204D3330342050252E32DA
:10211000662049252E32662044252E32660A002587
:10212000535049442073657474696E67733A0A2585
:10213000532020204D3330312050252E3266204947
:10214000252E32662044252E32660A00255353740C
:102150006570732070657220756E69743A0A255334
:1021600020204D39322058252E32662059252E3216
:1021700066205A252E32662045252E32660A2553C2
:102180005553746570207265736F6C7574696F6EEA
:102190003A200A2553204D333530205825642059E4
:1021A0002564205A2564204525640A25534D61780D
:1021B000696D756D20666565647261746573202D47
:1021C000206E6F726D616C20286D6D2F73293A0A35
:1021D000255320204D3230332058252E3266205989
:1021E000252E3266205A252E32662045252E32664F
:1021F0000A25534D6178696D756D20666565647259
:1022000061746573202D20737465616C7468202877
:102210006D6D2F73293A0A255320204D323033201B
:1022200058252E32662059252E3266205A252E3208
:10223000662045252E32660A25534D6178696D75F5
:102240006D20616363656C65726174696F6E202DCA
:10225000206E6F726D616C20286D6D2F7332293A7C
:102260000A255320204D3230312058256C752059D5
:10227000256C75205A256C752045256C750A2553EB
:102280004D6178696D756D20616363656C65726120
:1022900074696F6E202D20737465616C74682028DA
:1022A0006D6D2F7332293A0A255320204D3230317B
:1022B0002058256C752059256C75205A256C752081
:1022C00045256C750A2553416363656C65726174BD
:1022D000696F6E3A20503D7072696E742C20523DC9
:1022E000726574726163742C20543D7472617665FA
:1022F0006C0A255320204D3230342050252E326672
:102300002052252E32662054252E32660A2553414E
:102310006476616E636564207661726961626C6582
:10232000733A20533D4D696E206665656472617431
:102330006520286D6D2F73292C20543D4D696E202A
:1023400074726176656C206665656472617465207F
:10235000286D6D2F73292C20423D6D696E696D7556
:102360006D207365676D656E742074696D652028D6
:102370007573292C20583D6D6178696D756D2058F5
:1023800059206A65726B20286D6D2F73292C2020CF
:102390005A3D6D6178696D756D205A206A65726B62
:1023A00020286D6D2F73292C2020453D6D617869A3
:1023B0006D756D2045206A65726B20286D6D2F73D9
:1023C000290A255320204D3230352053252E3266E0
:1023D0002054252E32662042256C752058252E3239
:1023E000662059252E3266205A252E326620452534
:1023F0002E32660A2553486F6D65206F66667365D9
:102400007420286D6D293A0A255320204D3230362C
:102410002058252E32662059252E3266205A252E28
:1024200032660A00544D3A20525B25755D20657373
:1024300074696D6174652E00544D3A202553205205
:102440002025644300544D3A2025532043206573D2
:10245000742E00544D3A20636F6F6C20646F776E5A
:10246000203C25644300726566696E6500696E698B
:102470007469616C00544D3A2063616C6962722E1C
:10248000206661696C65642100544D3A2063616C7B
:102490006962726174696F6E207374617274005442
:1024A0004D3A2043616C2E204E4F542049444C45F8
:1024B000004361703A25533A25630A005052555340
:1024C000415F4D4D553200455854454E4445445F9B
:1024D0004D3230004155544F5245504F52545F5089
:1024E0004F534954494F4E004155544F5245504F58
:1024F00052545F46414E53004155544F5245504F40
:1025000052545F54454D50000044656C6574696FCA
:102510006E206661696C65642C2046696C653A20A2
:102520000046696C652064656C657465643A004EAC
:102530006F74205344207072696E74696E67005026
:1025400072696E7420736176656400534420707202
:10255000696E7420706175736564002533642F257E
:102560003364004F4B004241440052414D426F20C2
:1025700046414E20006676007468780050524E0046
:1025800043524153485F43414E43454C00435241FF
:1025900053485F5245434F564552004352415348BA
:1025A0005F5245434F564552002228322900255399
:1025B0003A2025530A002C204D3930372045206918
:1025C000676E6F726564006E6F2076616C6964205F
:1025D000636F6D6D616E64007A65726F72697A65A2
:1025E0006400666163746F727920726573746F72D0
:1025F000656400696E6465782C2074656D702C20AC
:1026000075737465702C20756D0050494E444120DF
:1026100063616C207374617475733A2000503A00E2
:102620005761697420666F722050494E444120748E
:1026300061726765742074656D706572617475721E
:10264000653A00204100205000204200204C00202C
:102650005200205A00204E4F5420494E49544941BF
:102660004C495A45440053686565742000205A203F
:1026700056414C5545204F5554204F462052414E0F
:10268000474500496E76616C6964207368656574BE
:102690002049442E20416C6C6F7765643A20302EBF
:1026A0002E004155544F004C414E472053454C207D
:1026B000464F52434544004D323536204225642072
:1026C00044256420532564205425750A0020643A6B
:1026D0000020693A0020703A0020643A0020693AEC
:1026E0000020703A00256925250A00256925250A5C
:1026F0000022283129002F2F000020455854525520
:102700004445525F434F554E543A3100204D4143AA
:1027100048494E455F545950453A00312E3000200B
:102720006261736564206F6E204D61726C696E200A
:102730004649524D574152455F55524C3A68747460
:1027400070733A2F2F6769746875622E636F6D2FEF
:10275000707275736133642F50727573612D4669A1
:10276000726D776172652050524F544F434F4C5FEA
:1027700056455253494F4E3A00663365306466649D
:102780003438005F0038323834002B004649524D4F
:10279000574152455F4E414D453A50727573612D18
:1027A0004669726D7761726520004D313133205377
:1027B000006F6B20006E2F61003F546F7368696279
:1027C0006120466C617368416972204765744950A5
:1027D000206661696C65640A00000125311D0C40AA
:1027E00024301C0B45232F1B0A17FF0406222B1A2B
:1027F00003363735382569206D696E2C2025692010
:1028000073656300496E76616C6964204D20636F67
:1028100064653A2025730A0050494E444120707285
:102820006F62652063616C6962726174696F6E20AA
:102830007374617274004E6F2050494E444120748D
:102840006865726D6973746F7200736574006E6F82
:102850007A7A6C65004D424C004652004C7A004C2E
:10286000616E6700315F37356D6D5F4D4B332D45C0
:10287000494E53795F3130612D4533447636667564
:102880006C6C0052657600332E31342E312D383287
:1028900038340046697200534E20696E76616C6967
:1028A0006400534E005245534554004D4D5552451A
:1028B000530075766C6F0046414E0046414E5049BC
:1028C0004E545354005052555341005345545F43A6
:1028D000484F505F005345545F535445505F005379
:1028E00045545F574156455F00544D435F00435286
:1028F0004153485F43414E43454C00435241534886
:102900005F5245434F5645520043524153485F443E
:10291000455445435445440043524153485F0025C4
:102920002E313053200025346400457872656D6582
:10293000207370616E206F6620746865205A20765F
:10294000616C756573210025642F39004D4D55323A
:102950003A002533640018010419020A920D1E0D75
:10296000A60C3B0CF40B640BEE0A880A3B0A1D0A0A
:10297000D3091D0ABE09BE09BE09BE09BE09BE09AA
:10298000BE09BE09BE09BE09BE09BE09BE09BE090F
:10299000BE09BE09BE09BE09BE09BE09BE09BE09FF
:1029A00089094A09020991085E081608CE077207CC
:1029B0003B07FB06E0060101010101010102710173
:1029C00071013232320303030303030303030303DE
:1029D00003030303030303039393243803930301C3
:1029E000025603650066006700680069006A006BB4
:1029F000006C00730074007D007E00C900D300DD10
:102A000000CA00D400DE002D01370141012E01383B
:102A10000142012F013901430130013A01440131E2
:102A2000013B014501320191019201F501F601F7E7
:102A300001F801F901FA01FB01FC018403130E6A9C
:102A4000120A0E030EFE0D5D4D2A3CF90DF10D2507
:102A50002E3230530A70727573612E696F2F3034C5
:102A60002568750020557067726164696E6720780B
:102A7000666C6173680A20446F206E6F742064690D
:102A800073636F6E6E656374210077323578323010
:102A9000636C5F63666D0A00773235783230636C41
:102AA0005F656E7465720A0073746172740A004D1A
:102AB0003130345330004731583130593138304695
:102AC000343030300047315A313046313330300005
:102AD0004D3134305330004731452D302E303735AD
:102AE0004632313030004D323034533130303000E6
:102AF00047315A354637323030004731452D312E77
:102B000035463231303000473930004D31303700F2
:102B100025533A0A2531382E32666D200A25533A5C
:102B20000A2531306C646820253032646D202530F0
:102B30003264730025533A0A2531382E32666D20EF
:102B40000A25533A0A2531306C64642025303264FA
:102B50006820253032646D0025362E32666D6D009A
:102B600025530A25530A25533A0A25533A0025339B
:102B70002E32668100252D31342E3134533A0A2508
:102B8000530A252D31342E3134533A25332E3266F3
:102B9000810A252D31342E3134533A25332E3266B5
:102BA00081002020300020203100423A202533646B
:102BB000202020202058643A2536640A533A2025E4
:102BC0003364202020202059643A25366400464989
:102BD0004E44410050494E44410057697A61726445
:102BE00020656E642073746174653A2025640A0060
:102BF00053706F6F6C4A6F696E004669726D7761D2
:102C000072650048426564206F6E206C6F616400DD
:102C1000466C61736841697200546865726D616CDD
:102C2000204D6F64656C2063616C2E004572723AB2
:102C30005052494E542046414E204552524F520068
:102C40004572723A484F54454E442046414E204505
:102C500052524F52002F2F616374696F6E3A726542
:102C600073756D6564002F2F616374696F6E3A72BE
:102C70006573756D65002F2F616374696F6E3A72AD
:102C800065616479002F2F616374696F6E3A6E6FAE
:102C9000745F7265616479002F2F616374696F6E70
:102CA0003A63616E63656C004D3834004178697336
:102CB000206C656E67746820646966666572656E0F
:102CC00063653A252E33660A004D6561737572653A
:102CD000642061786973206C656E6774683A252E8C
:102CE00033660A004F4B004C434420737461747583
:102CF00073206368616E676564005344206361728A
:102D0000642072656C65617365640046616B652063
:102D100073657269616C206E756D62657200452D18
:102D2000636F6F6C206D6F6465002F2F6163746932
:102D30006F6E3A737461727400473931004D3730E9
:102D400032004D3833004732382057004D3530308F
:102D50000045787465726E616C2053504920666C32
:102D60006173680A58464C415348206973206E6F5E
:102D700074207265732D0A706F6E64696E672E2001
:102D80004C616E67756167650A7377697463682063
:102D9000756E617661696C61626C652E0058464C97
:102DA000415348206E6F7420726573706F6E646952
:102DB0006E672E00465720637261736820646574E5
:102DC00065637465642120596F752063616E2063AB
:102DD0006F6E74696E7565207072696E74696E6766
:102DE0002E2044656275672064617461206176619C
:102DF000696C61626C6520666F7220616E616C79CE
:102E00007369732E20436F6E7461637420737570E1
:102E1000706F727420746F207375626D69742064B2
:102E2000657461696C732E002F2F616374696F6E16
:102E30003A64756D705F617661696C61626C6500A2
:102E400043726173684465746563742044495341F7
:102E5000424C454400437261736844657465637411
:102E600020454E41424C454421002020506C616E6B
:102E70006E657242756666657242797465733A2052
:102E8000002046726565204D656D6F72793A2000AD
:102E9000207C20417574686F723A2000204C617369
:102EA0007420557064617465643A200020536F6625
:102EB0007477617265205265736574002057617480
:102EC0006368646F67205265736574002042726F97
:102ED000776E206F75742052657365740020457895
:102EE0007465726E616C20526573657400506F7703
:102EF00065725570006572726F72207772697469BD
:102F00006E6720746F2066696C6500446F6E652083
:102F1000736176696E672066696C652E006F6B0061
:102F200046696C616D656E740047315A302E32000F
:102F30004731583230322E35453846313430300042
:102F40004731592D32463130303000473158323414
:102F50003045323546323230300047315A302E3328
:102F600046313030300047315835354538463230FB
:102F7000303000473158354532394631383030002D
:102F800047315835354532394631303733004739C6
:102F900032453000473238004D313039004D31393B
:102FA00030005072696E742074696D650046696CFA
:102FB000616D656E74207573656400546F74616C27
:102FC000207072696E742074696D6500546F74614D
:102FD0006C2066696C616D656E7400507265686521
:102FE000617420746865206E6F7A7A6C6521004583
:102FF00052524F523A005269676874004C656674C9
:1030000000592064697374616E63652066726F6D28
:10301000206D696E0053657665726520736B657708
:1030200000536C6967687420736B6577004D656148
:10303000737572656420736B6577005B303B305D40
:1030400020706F696E74206F6666736574004164EA
:103050006A757374696E67205A00526561722073D5
:10306000696465205BE46D5D0046726F6E74207369
:103070006964655BE46D5D0052696768742073691B
:1030800064655BE46D5D004C65667420736964651E
:10309000205BE46D5D005365742074656D7065722E
:1030A00061747572653A0050494E44412063616C09
:1030B0006962726174696F6E206661696C65640033
:1030C00050494E44412063616C6962726174696F5A
:1030D0006E2069732066696E697368656420616E2D
:1030E00064206163746976652E2049742063616E83
:1030F0002062652064697361626C656420696E207A
:103100006D656E752053657474696E67732D3E50DE
:10311000494E44412063616C2E0045787472756499
:103120006572004D6F7665205A004D6F76652059A7
:10313000004D6F76652058004372617368206465A6
:1031400074656374696F6E2063616E0A62652074D2
:1031500075726E6564206F6E206F6E6C7920696E7B
:103160000A4E6F726D616C206D6F6465005741523D
:103170004E494E473A0A437261736820646574652C
:103180006374696F6E0A64697361626C6564206957
:103190006E0A537465616C7468206D6F6465004DD0
:1031A0006F6465206368616E676520696E20707268
:1031B0006F67726573732E2E2E00536865657420D9
:1031C000252E37730A5A206F66667365743A202578
:1031D0002B312E33666D6D0A2563436F6E74696EF5
:1031E00075650A2563526573657400506C6561737B
:1031F00065206C6F61642066696C616D656E74201A
:1032000066697273742E0052756E6E696E67205710
:10321000697A6172642077696C6C2064656C65748E
:10322000652063757272656E742063616C69627289
:103230006174696F6E20726573756C747320616E52
:10324000642073746172742066726F6D2074686597
:1032500020626567696E6E696E672E0050726568E0
:10326000656174696E67206E6F7A7A6C652E205086
:103270006C6561736520776169742E00506C6561BF
:10328000736520696E736572742066696C616D6523
:103290006E7420696E746F2074686520657874722E
:1032A000756465722C207468656E20707265737326
:1032B00020746865206B6E6F6220746F206C6F6184
:1032C000642069742E00506C6561736520696E73AB
:1032D0006572742066696C616D656E7420696E74C8
:1032E0006F207468652066697273742074756265F6
:1032F000206F6620746865204D4D552C20746865DC
:103300006E20707265737320746865206B6E6F62D7
:1033100020746F206C6F61642069742E005A2063E2
:10332000616C6962726174696F6E207265636F6D42
:103330006D656E6465642E2052756E206974206E12
:103340006F773F00546865207072696E74657220F3
:1033500077696C6C207374617274207072696E741A
:10336000696E672061207A69672D7A6167206C69D0
:103370006E652E20526F7461746520746865206BD1
:103380006E6F6220756E74696C20796F752072653E
:1033900061636820746865206F7074696D616C206A
:1033A0006865696768742E20436865636B2074687C
:1033B0006520706963747572657320696E20746826
:1033C000652068616E64626F6F6B202843616C6971
:1033D00062726174696F6E206368617074657229CE
:1033E0002E0053656C6563742074656D7065726141
:1033F00074757265207768696368206D61746368AD
:10340000657320796F7572206D6174657269616C86
:103410002E0053656C65637420612066696C616D74
:10342000656E7420666F72207468652046697273D9
:1034300074204C617965722043616C6962726174B9
:10344000696F6E20616E642073656C6563742069BA
:103450007420696E20746865206F6E2D73637265C9
:10346000656E206D656E752E004E6F772049207752
:10347000696C6C2063616C69627261746520646957
:103480007374616E6365206265747765656E207420
:103490006970206F6620746865206E6F7A7A6C653B
:1034A00020616E6420686561746265642073757262
:1034B000666163652E00506C6561736520636865A5
:1034C000636B206F75722068616E64626F6F6B2032
:1034D000616E6420666978207468652070726F621E
:1034E0006C656D2E205468656E20726573756D6510
:1034F000207468652057697A61726420627920724D
:1035000065626F6F74696E67207468652070726998
:103510006E7465722E00416C6C20697320646F6E4E
:10352000652E204861707079207072696E74696EC2
:10353000672100596F752063616E20616C77617936
:103540007320726573756D65207468652057697A9C
:103550006172642066726F6D2043616C6962726192
:1035600074696F6E202D3E2057697A6172642E0057
:10357000496620796F7520686176652061646469A9
:1035800074696F6E616C20737465656C2073686517
:103590006574732C2063616C696272617465207458
:1035A00068656972207072657365747320696E2036
:1035B00053657474696E6773202D204857205365D6
:1035C000747570202D20537465656C207368656573
:1035D00074732E00506C6561736520636C65616E59
:1035E000206865617462656420616E64207468653A
:1035F0006E20707265737320746865206B6E6F62E5
:103600002E00446F20796F752077616E7420746F7F
:1036100020726570656174206C61737420737465C9
:103620007020746F20726561646A757374206469B8
:103630007374616E6365206265747765656E206E74
:103640006F7A7A6C6520616E64206865617462656A
:10365000643F0053656C656374206E6F7A7A6C65A5
:1036600020707265686561742074656D7065726143
:1036700074757265207768696368206D617463682A
:10368000657320796F7572206D6174657269616C04
:103690002E0049732066696C616D656E74206C6FD5
:1036A000616465643F00546865726D616C206D6F84
:1036B00064656C2063616C2E2074616B657320619E
:1036C0007070726F782E203132206D696E732E20EB
:1036D0005365650A70727573612E696F2F746D2D55
:1036E00063616C004E6F7720492077696C6C2070A5
:1036F000726568656174206E6F7A7A6C6520666F9A
:103700007220504C412E00492077696C6C207275F4
:103710006E207A2063616C6962726174696F6E20D9
:103720006E6F772E004E6F772072656D6F76652015
:103730007468652074657374207072696E74206695
:10374000726F6D20737465656C2073686565742E87
:1037500000506C656173652072656D6F76652073CE
:1037600068697070696E672068656C706572732037
:1037700066697273742E00492077696C6C207275CB
:103780006E2078797A2063616C6962726174696F06
:103790006E206E6F772E2049742077696C6C2074D0
:1037A000616B6520757020746F203234206D696EF6
:1037B000732E0046697273742C20492077696C6CF3
:1037C0002072756E207468652073656C667465730D
:1037D0007420746F20636865636B206D6F73742051
:1037E000636F6D6D6F6E20617373656D626C7920B0
:1037F00070726F626C656D732E0048692C204920D1
:10380000616D20796F7572204F726967696E616CA6
:10381000205072757361206933207072696E74650F
:10382000722E20576F756C6420796F75206C696BF0
:1038300065206D6520746F20677569646520796FF8
:1038400075207468726F7567682074686520736589
:103850007475702070726F636573733F0048692CD4
:10386000204920616D20796F7572204F72696769F8
:103870006E616C20507275736120693320707269BB
:103880006E7465722E20492077696C6C20677569AB
:10389000646520796F75207468726F756768206140
:1038A0002073686F72742073657475702070726F06
:1038B000636573732C20696E207768696368207470
:1038C0006865205A2D617869732077696C6C206275
:1038D000652063616C696272617465642E2054684E
:1038E000656E2C20796F752077696C6C206265207D
:1038F000726561647920746F207072696E742E0035
:10390000452D636F7272656374005A2D636F727216
:1039100065637400592D636F727265637400582D6E
:10392000636F72726563740050617573650046530E
:1039300020416374696F6E00462E206A616D2064B9
:10394000657465637400462E206175746F6C6F61D9
:103950006400462E2072756E6F7574004D4D5520B3
:103960004D6F6465004375747465720046616E2026
:103970007370656564004265640046616E73206320
:103980006865636B004D6F64656C004E6F7A7A6C8E
:103990006500506C6561736520756E6C6F616420A5
:1039A0007468652066696C616D656E742066697205
:1039B00073742C207468656E207265706561742064
:1039C0007468697320616374696F6E2E0043686563
:1039D000636B73004E6F7A7A6C6520642E00416CC5
:1039E0007068616265740054696D6500536F72742C
:1039F00000534420636172640052506920706F72FA
:103A000074004C696E2E20636F7272656374696F07
:103A10006E004E6F7A7A6C65206368616E67650030
:103A20004857205365747570004C6F6164696E6708
:103A300020546573740044697361626C652073740B
:103A4000657070657273004D6F766520617869737B
:103A50000054656D70657261747572650050494EF1
:103A600044412063616C2E0052657365742058597F
:103A70005A2063616C6962722E0050494420636170
:103A80006C6962726174696F6E00426564206C6576
:103A900076656C20636F7272656374004D65736840
:103AA00020426564204C6576656C696E67004361F1
:103AB0006C696272617465205A0043616C6962725C
:103AC0006174652058595A0053656C667465737447
:103AD0000042656C7420746573740057697A617272
:103AE00064004C6F616420416C6C00506C656173C4
:103AF000652070756C6C206F75742066696C616DE3
:103B0000656E7420696D6D6564696174656C7900BA
:103B100052657365740052656E616D650046697229
:103B20007374206C617965722063616C2E0053653B
:103B30006C65637400537465656C207368656574A7
:103B40007300537570706F7274004661696C2073F6
:103B500074617473204D4D55004661696C20737417
:103B6000617473005374617469737469637300439F
:103B7000616C6962726174696F6E004175746F4C3B
:103B80006F61642066696C616D656E74004C6F6175
:103B9000642066696C616D656E7400556E6C6F6152
:103BA000642066696C616D656E74004C6F616420A1
:103BB000746F206E6F7A7A6C65005072656C6F61FD
:103BC0006420746F204D4D55004E6F205344206388
:103BD000617264005072696E742066726F6D20535A
:103BE0004400436C65617220544D206572726F729F
:103BF00000526573756D65207072696E7400506156
:103C0000757365207072696E740053657420526517
:103C100061647900536574206E6F7420526561642D
:103C20007900507265686561740054756E65004C6A
:103C30006976652061646A757374205A00526570F4
:103C400072696E7400496E666F2073637265656E8B
:103C5000004272696768746E6573730041737369BB
:103C600073740053696C656E74004F6E6365004C2D
:103C70006F756400536F756E640046696C2E207317
:103C8000656E736F72004368616E67652066696C6C
:103C9000616D656E7400466C6F7700537065656486
:103CA000004E2F41004D61676E65747320636F6D28
:103CB000702E005A2D70726F6265206E722E004D4C
:103CC0006573680044696D004272696768740041F9
:103CD00075746F0054696D656F7574004C65766519
:103CE0006C2044696D6D6564004C6576656C20429E
:103CF00072696768740053657474696E67730059FC
:103D00006573004E6F0053746F70207072696E742B
:103D100000436865636B696E672066696C65004681
:103D2000696C6520696E636F6D706C6574652E00DB
:103D30008452656672657368004D61696E005761F3
:103D40006974696E6720666F72206E6F7A7A6C652F
:103D500020616E642062656420636F6F6C696E67BA
:103D60000053656C6674657374204F4B0053656C2B
:103D70006674657374207374617274005072696E36
:103D8000742066616E3A00486F74656E64206661E7
:103D90006E3A0043616C6962726174696E67206893
:103DA0006F6D6500416C6C20636F727265637400A7
:103DB000436865636B696E672073656E736F7273BA
:103DC00000436865636B696E6720686F74656E6435
:103DD00000436865636B696E6720626564004368D1
:103DE00065636B696E67205A206178697300436868
:103DF00065636B696E672059206178697300436859
:103E000065636B696E672058206178697300436849
:103E100065636B696E6720656E6473746F707300A1
:103E2000436172642072656D6F7665640042616300
:103E30006B00537465616C74680043726173682031
:103E40006465742E004E6F726D616C004D6F646519
:103E500000537472696374005761726E004E6F6E26
:103E60006500486F74656E64206174203238304399
:103E700021204E6F7A7A6C65206368616E67656495
:103E800020616E64207469676874656E656420746F
:103E90006F2073706563733F00466F722061204E20
:103EA0006F7A7A6C65206368616E676520706C65F7
:103EB00061736520726561640A70727573612E6941
:103EC0006F2F6E6F7A7A6C652D6D6B33730050496E
:103ED000442063616C2E2066696E697368656400B6
:103EE0005049442063616C2E005072696E742070DA
:103EF0006175736564005072696E742061626F72DF
:103F00007465640043616E63656C00436F6E742E6C
:103F1000004E6F7A7A6C65206469616D65746572B4
:103F200020646966666572732066726F6D207468BE
:103F30006520472D636F64652E20506C6561736545
:103F400020636865636B207468652076616C7565B5
:103F500020696E2073657474696E67732E004E6FEE
:103F60007A7A6C65206469616D6574657220646934
:103F700066666572732066726F6D2074686520478F
:103F80002D636F64652E0054686572652069732027
:103F90006E6F2066696C616D656E74206C6F616414
:103FA00065642E004D4B33206669726D77617265D2
:103FB000206465746563746564206F6E204D4B33B7
:103FC00053207072696E74657200426C61636B6F2E
:103FD0007574206F636375727265642E2052656319
:103FE0006F766572207072696E743F0054686572F6
:103FF0006D616C206D6F64656C206E6F7420636101
:104000006C69627261746564207965742E0054680D
:10401000657265206973207374696C6C2061206E11
:1040200065656420746F206D616B65205A20636143
:104030006C6962726174696F6E2E20506C65617379
:104040006520666F6C6C6F7720746865206D616E9B
:1040500075616C2C206368617074657220466972AA
:1040600073742073746570732C2073656374696F47
:104070006E2043616C6962726174696F6E20666C58
:104080006F772E005072696E7465722068617320BC
:104090006E6F74206265656E2063616C6962726127
:1040A000746564207965742E20506C656173652099
:1040B000666F6C6C6F7720746865206D616E7561DA
:1040C0006C2C206368617074657220466972737429
:1040D0002073746570732C2073656374696F6E2030
:1040E00043616C6962726174696F6E20666C6F7790
:1040F0002E0053656C66746573742077696C6C2050
:1041000062652072756E20746F2063616C696272E3
:104110006174652061636375726174652073656E97
:10412000736F726C657373207265686F6D696E670B
:104130002E004F6C642073657474696E677320661B
:104140006F756E642E2044656661756C74205049ED
:10415000442C20457374657073206574632E20773A
:10416000696C6C206265207365742E005761726EF5
:10417000696E673A20626F7468207072696E746548
:1041800072207479706520616E64206D6F7468654B
:1041900072626F6172642074797065206368616E09
:1041A0006765642E005761726E696E673A2070729F
:1041B000696E7465722074797065206368616E67DA
:1041C00065642E005761726E696E673A206D6F7478
:1041D000686572626F6172642074797065206368CB
:1041E000616E6765642E0054657374696E6720663E
:1041F000696C616D656E7400536865657400536524
:104200006C6563742066696C616D656E743A002537
:104210002D31322E313253252B382E316600457820
:104220007472756465723A0025632531372E3266E3
:104230006D6D00583A00593A005A3A002563252D11
:1042400031332E313353252B352E3366002533750C
:104250000050494E44412063616C69627261746927
:104260006F6E206661696C65642E20436F6E7469A1
:104270006E75652077697468207072657373696EF6
:104280006720746865206B6E6F622E0050494E4443
:10429000412063616C6962726174696F6E20646F42
:1042A0006E652E20436F6E74696E75652077697434
:1042B00068207072657373696E6720746865206B1F
:1042C0006E6F622E00473830004D3435004D343566
:1042D000205A00473736004D3730312050300057D4
:1042E000697A6172642073746174653A2025640A86
:1042F000004578706572696D656E74616C00302E72
:10430000383000302E363000302E343000302E322F
:10431000350044697361626C65206661726D206D61
:104320006F6465005265736574204D4D55004D4DA9
:1043300055004D3434004739390044697361626C6B
:1043400065206661726D206D6F64653F004732388D
:10435000205859004D20383400852E2E00593A201F
:104360002575202D3E202E2E2E00583A2025752012
:104370002D3E202E2E2E002533642F300025336451
:104380002F300025632041584953205347313D25A4
:10439000640A00486F74656E6400426564005A00E8
:1043A000590058002D2D2D2D2D2D2D2D2D2D2D2D40
:1043B0002D2D2D2D2D2D2D2D00435A5058496E7623
:1043C000616C696453657269616C4E72004D39317C
:1043D00034004D39313500072B0B2BD72AD02AC595
:1043E0002AB62A3D2DAF2AA82C473159252E3466EE
:1043F00045252E34660047315A252E326600473156
:1044000058353059313535008E2F072B422DFA2A79
:10441000F02AE62A473158252E346645252E346683
:10442000004731463130383000802F732F662F5AC5
:104430002F8E2F4B2F402F302F292F5425640047CC
:10444000315A302E34004731592D33463130303017
:10445000000B2B9D2F982F942F8E2F4D38342058E2
:1044600059004D313039205332383000473120580F
:10447000313235205A323030204631303030004D24
:104480003331302041204631004731205831323518
:104490002059313035205A312046383030300049EB
:1044A0006E76616C6964205049442063616C2E20F3
:1044B000726573756C74732E204E6F742073746FF5
:1044C00072656420746F20454550524F4D2E004D4B
:1044D0003330312050252E32662049252E32662079
:1044E00044252E3266004D3330332045302053258D
:1044F0003375005243004445560042455441004143
:104500004C5048410000002100240027002A002DC3
:10451000003000330001010000040107010A01001E
:10452000002200250028002B002E0031003400025C
:10453000010000050108010B0100002000230026F6
:104540000029002C002F00320000010000030106AA
:10455000010901050505050705080808080202020A
:10456000020A0A080804040404010101010101010E
:10457000010303030303030303040707070C0C0CE5
:104580000C0C0C0C0C0202020206060606060606BD
:10459000060B0B0B0B0B0B0B0B07070A0A0A0A0A7D
:1045A0000A05050504040408080102102020080873
:1045B0001020401020408002010201080402010185
:1045C000020408102040808040201008040201806E
:1045D00004020180402010080402010804020101C5
:1045E00002040810204080010204081020408010BE
:1045F00008040880102040044080102040048000FF
:10460000000A0B02090C0D0E08070304010000004C
:10461000000000000000000000000000000000009A
:104620000000000000000000000000121110000057
:10463000000000000000000000000000000000007A
:10464000000000000000000000000000000000006A
:104650000000000000332E31342E31000A204F724A
:104660006967696E616C2050727573612069330AE5
:1046700020202050727573612052657365617263EA
:10468000680A2532302E32305300435A5058003BCE
:10469000530053706F6F6C4A6F696E20697320000E
:1046A0006164635F696E697400200A200A200A2031
:1046B00000416C6C204461746100536572766963DB
:1046C000652070726570005368697070696E67204C
:1046D00070726570005374617469737469637300F8
:1046E0004C616E67756167650045524153494E479D
:1046F00020616C6C206461746100466163746F7248
:104700007920524553455400505255534133444645
:104710005700494E54340003000E000100400003CE
:104720000002000000040073686976616D6D6568C1
:10473000746132323000323032352D30382D31391B
:104740002030323A35323A35310020332E31342E92
:10475000312D383238345F663365306466643438FE
:1047600000737461727400534E20757064617465D7
:10477000206661696C656400534E207570646174D5
:10478000656400435A50580043524153485F4445C2
:1047900054454354454458590043524153485F449B
:1047A00045544543544544590043524153485F449E
:1047B0004554454354454458004D323900252D3960
:1047C0002E39535B00544D20657374696D617469B3
:1047D0006F6E20646964206E6F7420636F6E7665FF
:1047E00072676500544D20697465723A25752076AC
:1047F0003A252E326620653A252E33660A00200AB5
:10480000200A200000004842000058419A998D413A
:10481000333353404D4D55323A004D494E54454D7A
:104820005020424544206669786564004D494E54E5
:10483000454D5020484F54454E4420666978656484
:104840000020746F6F206C6F6E67206578747275CE
:1048500073696F6E2070726576656E746564002092
:10486000636F6C6420657874727573696F6E207005
:10487000726576656E746564004D6F766520616261
:104880006F7274656400504F5745522050414E4935
:10489000432044455445435445440055564C4F200D
:1048A0002D20656E642025640A0055564C4F5F54D8
:1048B000494E59202D20656E642025640A00776FCB
:1048C000726C6420636F6F7264696E617465733AB1
:1048D0002028252E33662C20252E33662C20252ECD
:1048E0003366290A004D3232302053256400446F6C
:1048F0006E652072656164696E6720454550524F50
:104900004D0A0054656D7065726174757265205250
:104910006573746F7265640A0047312045252D2E3A
:10492000336620463237303000544D4320445249DC
:10493000564552204F56455254454D5000486F6CD5
:10494000642063757272656E74207472756E636133
:1049500074656420746F2052756E20637572726581
:104960006E740025632533642F256481005A253633
:104970002E32662563005A2020202D2D2D20008602
:104980002533642525002D2D2D252500253364256F
:104990002500205344002020200020484F002046BE
:1049A000524D2000872D2D3A2D2D202000872533B4
:1049B000756820256325630087253032753A2530D8
:1049C000327525632563002F2F616374696F6E3A1A
:1049D000706175736564002F2F616374696F6E3A3F
:1049E00070617573650044756D70206D656D6F72D3
:1049F000790068656C702E707275736133642E6314
:104A00006F6D00666F72756D2E70727573613364B1
:104A10002E636F6D00707275736133642E636F6DFA
:104A2000004D373031007265636F7665725F6D617E
:104A30006368696E655F73746174655F61667465F0
:104A4000725F706F7765725F70616E69632C206949
:104A50006E697469616C200050525553412075761F
:104A60006C6F004734205330004D313130204E25DB
:104A70006C75004D32362053256C75004D31303643
:104A80002053257500473120462564004D383200FB
:104A90004739322045252D2E3366004D32303420E3
:104AA00050252D2E31662052252D2E31662054257D
:104AB0002D2E3166004731205A252D2E33660050A9
:104AC00052555341204D424C205631004731205819
:104AD000252D2E33662059252D2E33662046333062
:104AE0003030002C20666565646D756C7469706C7F
:104AF000793A0046656564726174653A0047312011
:104B000045352046313230004D313039205325644F
:104B1000004D31343020532564004D313034205362
:104B200025640047323820582059004731205A2543
:104B30002E33662046383030005265636F766572DA
:104B4000696E67207072696E7400544845524D4119
:104B50004C20414E4F4D414C5900526573756D6963
:104B60006E67207072696E740050494E444120484F
:104B7000656174696E670043616C69627261746932
:104B80006F6E20646F6E650043616C696272617460
:104B9000696E67205A0042656420646F6E6500424A
:104BA00065642048656174696E6700486561746971
:104BB0006E6720646F6E652E0048656174696E676C
:104BC000004D4D5520706F776572206661696C737A
:104BD000004D4D55206C6F6164206661696C7300F7
:104BE0004D4D55206661696C73004D617465726945
:104BF000616C206368616E67657300546F74616CEB
:104C0000206661696C757265730043726173680038
:104C100046696C2E2072756E6F75747300506F77D5
:104C20006572206661696C75726573004C6173749E
:104C3000207072696E74206661696C7572657300AC
:104C4000546F74616C004C617374207072696E747F
:104C500000416D6269656E7400566F6C74616765C2
:104C6000730054656D70657261747572657300428E
:104C7000656C74207374617475730053656E736F23
:104C80007220696E666F0045787472756465722073
:104C9000696E666F0058595A2063616C2E206465F6
:104CA0007461696C73005072696E7465722049504A
:104CB00020416464723A00756E6B6E6F776E004DC2
:104CC0004D5520636F6E6E65637465640044617456
:104CD000653A00746F20756E6C6F61642066696C54
:104CE000616D656E7400746F206C6F61642066691D
:104CF0006C616D656E7400507265737320746865C5
:104D0000206B6E6F620050726568656174696E67D2
:104D100020746F20637574005072656865617469F2
:104D20006E6720746F20656A6563740050726568F1
:104D3000656174696E6720746F20756E6C6F616455
:104D40000050726568656174696E6720746F206CCD
:104D50006F616400436F6F6C646F776E00456A65C6
:104D600063740046696C616D656E74206578747259
:104D70007564696E672026207769746820636F7296
:104D80007265637420636F6C6F723F004175746F5E
:104D90006C6F6164696E672066696C616D656E74C5
:104DA000206973206163746976652C206A75737459
:104DB00020707265737320746865206B6E6F62205B
:104DC000616E6420696E736572742066696C616DD2
:104DD000656E742E2E2E007B5B4552523A00332EA8
:104DE00031342E31005D5B4657523A005D5B5449C9
:104DF0004D3A005D5B464E4D3A005D5B46454D3A8F
:104E0000005D5B5043443A005B5446553A005B50AA
:104E1000524E3A005B50464E3A305D005B44494189
:104E20003A005D5B4154423A005D5B4154303A00C8
:104E30005D5B5354423A005B5354303A007B5B5005
:104E4000524E3A355D007B5B50524E3A305D007BEE
:104E50005B50524E3A395D007B5B50524E3A385DA2
:104E6000007B5B5245533A305D5B46494C3A007BD0
:104E70005B5245533A315D5B46494C3A0000002194
:104E800010422063308440A550C660E77008812935
:104E9000914AA16BB18CC1ADD1CEE1EFF1311210CD
:104EA0000273325222B5529442F772D66239931885
:104EB000837BB35AA3BDD39CC3FFF3DEE3622443D9
:104EC0003420040114E664C774A44485546AA54BD5
:104ED000B528850995EEE5CFF5ACC58DD55336726D
:104EE0002611163006D776F6669556B4465BB77A25
:104EF000A719973887DFF7FEE79DD7BCC7C448E5F9
:104F0000588668A7784008611802282338CCC9ED74
:104F1000D98EE9AFF9488969990AA92BB9F55AD40C
:104F20004AB77A966A711A500A333A122AFDDBDCC4
:104F3000CBBFFB9EEB799B588B3BBB1AABA66C8718
:104F40007CE44CC55C222C033C600C411CAEED8F14
:104F5000FDECCDCDDD2AAD0BBD688D499D977EB6AC
:104F60006ED55EF44E133E322E511E700E9FFFBE64
:104F7000EFDDDFFCCF1BBF3AAF599F788F8891A937
:104F800081CAB1EBA10CD12DC14EF16FE18010A10E
:104F900000C230E3200450254046706760B9839812
:104FA00093FBA3DAB33DC31CD37FE35EF3B102905E
:104FB00012F322D2323542145277625672EAB5CBDE
:104FC000A5A89589856EF54FE52CD50DC5E234C3AE
:104FD00024A01481046674476424540544DBA7FAB2
:104FE000B79987B8975FE77EF71DC73CD7D326F2FE
:104FF000369106B01657667676154634564CD96DFE
:10500000C90EF92FE9C899E9898AB9ABA94458654D
:105010004806782768C018E1088238A3287DCB5C51
:10502000DB3FEB1EFBF98BD89BBBAB9ABB754A549D
:105030005A376A167AF10AD01AB32A923A2EFD0F1D
:10504000ED6CDD4DCDAABD8BADE89DC98D267C07ED
:105050006C645C454CA23C832CE01CC10C1FEF3EF1
:10506000FF5DCF7CDF9BAFBABFD98FF89F176E363D
:105070007E554E745E932EB23ED10EF01E7C3C3EA9
:105080003F2F2A225C0024F4D43050C38E20C2A2C9
:105090004017828B7011127A910D816CD90AA86128
:1050A000E108C7586607615143061E4B5D05C145BF
:1050B000A7041A411104093D9803713931034036A0
:1050C000DB0265339102D4305402802E1D02632C22
:1050D000EE01752AC501B028A001102781018F2596
:1050E00064012B244B01E0223401AC211F018D20EF
:1050F0000D01801FFC00841EED00971DDF00B81C11
:10510000D200E61BC600201BBC00641AB200B21914
:10511000A8000A19A0006A189900D1179100401739
:105120008B00B516840031167E00B31579003A1550
:105130007300C7146F0058146A00EE1366008813DA
:10514000630025135E00C7125B006C125700151236
:105150005400C111510070114F0021114B00D610A5
:1051600049008D1047004610440002104200C00F55
:105170004000800F3E00420F3C00060F3B00CB0E6C
:105180003800930E37005C0E3500270E3400F30D07
:105190003200C10D3100900D3000600D2E00320D37
:1051A0002D00050D2C00D90C2B00AE0C2900850C10
:1051B00029005C0C2700350C27000E0C2600E80B9C
:1051C0002400C40B2400A00B23007D0B23005A0BEA
:1051D0002100390B2100180B2000F80A1F00D90A02
:1051E0001E00BB0A1E009D0A1D00800A1D00630AE6
:1051F0001C00470A1B002C0A1B00110A1A00F709A1
:105200001A00DD091900C4091900AB091900920937
:1052100017007B091800630917004C0916003609AE
:105220001600200916000A091500F5081500E00807
:105230001400CC081400B8081400A4081400900846
:1052400013007D0812006B0813005808120046086E
:10525000120034081100230811001208110001087F
:105260001100F0071000E0071000D0071000C00781
:105270001000B0070F00A107100091070E00830770
:105280000F0074070F0065070E0057070E0049074F
:105290000E003B070D002E070E0020070D00130720
:1052A0000D0006070D00F9060C00ED060D00E006E6
:1052B0000C00D4060C00C8060C00BC060C00B0069E
:1052C0000C00A4060B0099060C008D060B0082064C
:1052D0000B0077060B006C060B0061060A005706F0
:1052E0000B004C060A0042060A0038060A002E0689
:1052F0000A0024060A001A060A001006090007061A
:105300000A00FD050900F4050900EB050900E205A6
:105310000900D9050900D0050900C7050900BE0527
:105320000900B5050800AD050800A50509009C05A4
:105330000800940508008C050800840508007C0519
:105340000800740508006C050700650508005D0588
:105350000700560508004E050700470507004005F1
:10536000080038050700310507002A050700230556
:1053700007001C050600160507000F0507000805B5
:10538000060002050700FB040600F5040700EE0412
:105390000600E8040600E2040700DB040600D5046A
:1053A0000600CF040600C9040600C3040600BD04BD
:1053B0000600B7040600B1040500AC040600A6040C
:1053C0000600A00405009B04060095040500900457
:1053D00006008A04050085040500800406007A049E
:1053E000050075040500700405006B0405006604E3
:1053F0000500610405005C04050057040500520423
:1054000005004D04050048040500430405003E0462
:1054100004003A04050035040500300404002C049F
:10542000050027040400230405001E0404001A04D8
:10543000040016040500110404000D04040009040E
:1054400005000404040000040400FC030400F80345
:105450000400F4030400F0030400EC030400E80378
:105460000400E4030400E0030400DC030400D803A8
:105470000400D4030400D0030400CC030400C803D8
:105480000300C503030024F404D9201BC40C5C0EE4
:105490009804C4095F0265077101F405F900FB0473
:1054A000B30048048700C103690058035500030393
:1054B0004500BE023A008402310053022A0029024C
:1054C000250004022000E4011C00C8011900AF01FE
:1054D000170098011400840113007101100061018C
:1054E000100051010E0043010D0036010B002B018D
:1054F0000B0020010B00150109000C01090003013C
:105500000800FB000800F3000800EB000700E400BF
:105510000600DE000600D8000600D2000600CC001F
:105520000500C7000500C2000500BD000400B90069
:105530000400B5000400B1000400AD000400A9009F
:105540000400A5000300A20003009F0004009B00CC
:1055500003009800030095000200930003009000F0
:1055600003008D0002008B0003008800020086000B
:10557000020084000300810002007F0002007D0021
:1055800002007B0002007900020077000100760033
:1055900002007400020072000100710002006F003E
:1055A00002006D0001006C0002006A000100690049
:1055B0000200670001006600010065000100640050
:1055C00002006200010061000100600001005F0054
:1055D00002005D0001005C0001005B0001005A0058
:1055E0000100590001005800010057000100560059
:1055F0000100550001005400010053000000530059
:1056000001005200010051000100500001004F0054
:1056100001004E0000004E0001004D0001004C0052
:1056200001004B0000004B0001004A00010049004E
:10563000010048000000480001004700010046004A
:105640000000460001004500000045000100440044
:10565000010043000000430001004200000042003E
:1056600001004100000041000100400001003F0036
:1056700000003F0001003E0000003E0001003D0030
:1056800000003D0001003C0000003C0000003C0028
:1056900001003B0000003B0001003A0000003A001E
:1056A0000100390000003900010038000000380016
:1056B000000038000100370000003700010036000C
:1056C0000000360000003600010035000000350003
:1056D00000003500010034000000340000003400F8
:1056E00001003300000033000000330001003200ED
:1056F00000003200000032000100310000003100E3
:1057000000003100010030000000300000003000D7
:1057100001002F0000002F0000002F0000002F00CC
:1057200001002E0000002E0000002E0001002D00C0
:1057300000002D0000002D0000002D0001002C00B5
:1057400000002C0000002C0000002C0001002B00A9
:1057500000002B0000002B0000002B0001002A009D
:1057600000002A0000002A0000002A000100290091
:105770000000290000002900000029000000290085
:105780000100280000002800000028000000280078
:10579000000028000100270000002700000027006B
:1057A000000027000000270001002600000026005E
:1057B0000000260000002600000026000100250051
:1057C0000000250000002500000025000000250045
:1057D0000000250001002400000024000000240037
:1057E000000024000000240001002300000023002A
:1057F000000023000000230000002300000023001D
:10580000000023000100220000002200000022000E
:105810000000220000002200000022000100210000
:1058200000002100000021000000210000002100F4
:1058300000002100000021000100200000002000E5
:1058400000002000000020000000200000002000D8
:10585000000020000000200001001F0000001F00C9
:1058600000001F0000001F0000001F0000001F00BC
:1058700000001F0001001E0000001E0000001E00AE
:1058800000001E000000504944204175746F74757B
:105890006E652066696E6973686564212050757451
:1058A00020746865206C617374204B702C204B69E8
:1058B00020616E64204B6420636F6E7374616E743C
:1058C000732066726F6D2061626F766520696E74F9
:1058D0006F20436F6E66696775726174696F6E2EB3
:1058E0006800504944204175746F74756E65206678
:1058F00061696C6564212074696D656F7574002041
:10590000403A00543A00423A0050494420417574EC
:105910006F74756E65206661696C656421205465DD
:105920006D706572617475726520746F6F2068693F
:10593000676800204B643A2000204B693A20002021
:105940004B703A200020436C6173736963205049A7
:105950004420002054753A2000204B753A20002046
:105960006D61783A2000206D696E3A200020643A1B
:10597000200020626961733A20005049442041753B
:10598000746F74756E65207374617274005049444D
:10599000204175746F74756E65206661696C65640D
:1059A0002E20426164206578747275646572206E81
:1059B000756D6265722E00544D4C2025642025645F
:1059C00020257820256C7820256C780A004D494EDA
:1059D00054454D50004D494E54454D50204245448C
:1059E000004D494E54454D5020414D42004D4158C7
:1059F00054454D50004D415854454D50204245446A
:105A0000004D415854454D5020414D4200544D3AAF
:105A1000206572726F7220636C65617265640054F8
:105A20004D3A206572726F72207472696767657291
:105A300065642100544D3A206572726F72207C2596
:105A4000667C3E25660A0070012C0190012701B09A
:105A5000012201C0011D01F00118011002130130E3
:105A6000020E016002090190020401C002FF000061
:105A700003FA004003F5008003F000D003EB0020A0
:105A800004E6007004E100E004DC004005D700C03B
:105A900005D2004006CD00D006C8008007C3003004
:105AA00008BE00F008B900C009B400B00AAF00B0E9
:105AB0000BAA00D00CA500000EA000500F9B00C048
:105AC0001096005012910000148C00C0158700B091
:105AD000178200B0197D00D01B7800001E730040B3
