:100000000C943D560C946E560C946E560C946E5691
:100010000C946E560D9478600C946E560C946E563B
:100020000C9474740C946E560C946E560C946E561C
:100030000C94FA660C946E560D94E1330D946E2D6B
:100040000C946E560D9469440C946E560C946E5636
:100050000C946E560C946E560C946E560C94A873B9
:100060000C946E560D94A2D60C946E560C946E564B
:100070000C946E560C94CD8C0C946E560C946E565B
:100080000C946E560C946E560C946E560C946E56E0
:100090000D945ED60C946E560C946E560C946E565F
:1000A0000C946E560C946E560D9488230C946E56D8
:1000B0000C946E560D946A230C946E560D942B3945
:1000C0000C946E560C946E560C946E560D942A2316
:1000D0000C946E560C946E560C946E560C946E5690
:1000E0000C946E56000000000000000000000000AC
:1000F0000000000000000000000000000000000000
:100100005F5345435F4C414E470000000000000034
:1001100000000000000000000000000000000000DF
:1001200000000000000000000000000000000000CF
:1001300000000000000000000000000000000000BF
:1001400000000000000000000000000000000000AF
:103600000000437261736820646574656374656467
:103610002E000100536F6D652070726F626C656DD6
:1036200020656E636F756E74657265642C205A2D0B
:103630006C6576656C696E6720656E666F72636532
:1036400064202E2E2E0002004D6573682062656492
:10365000206C6576656C696E67206661696C65646F
:103660002E205072696E742063616E63656C6564B0
:103670002E00030048656174696E67206469736198
:10368000626C656420627920736166657479207468
:10369000696D65722E00040053544F505045442EFE
:1036A00000050050415553454420544845524D4172
:1036B0004C204552524F52000600472D636F6465FF
:1036C00020736C6963656420666F72206120646991
:1036D00066666572656E74206C6576656C2E000793
:1036E00000472D636F646520736C696365642066B1
:1036F0006F72206120646966666572656E74206C05
:103700006576656C2E20506C656173652072652D41
:10371000736C69636520746865206D6F64656C20E7
:10372000616761696E2E000800472D636F64652034
:10373000736C6963656420666F722061206E6577C3
:103740006572206669726D776172652E00090047A7
:103750002D636F646520736C6963656420666F72A6
:103760002061206E65776572206669726D7761727F
:10377000652E20506C656173652075706461746599
:1037800020746865206669726D776172652E000A23
:1037900000472D636F646520736C69636564206600
:1037A0006F72206120646966666572656E74207050
:1037B00072696E74657220747970652E000B004713
:1037C0002D636F646520736C6963656420666F7236
:1037D000206120646966666572656E742070726926
:1037E0006E74657220747970652E20506C656173FB
:1037F000652072652D736C69636520746865206D42
:103800006F64656C20616761696E2E000C005072F8
:1038100065737320746865206B6E6F6220746F200F
:1038200070726568656174206E6F7A7A6C6520616C
:103830006E6420636F6E74696E75652E000D0050A6
:103840006C656173652070726573732074686520A0
:103850006B6E6F6220746F20756E6C6F6164206692
:10386000696C616D656E74000E00616E642070722B
:1038700065737320746865206B6E6F62000F00497A
:103880006E736572742066696C616D656E7400108C
:1038900000436F6C6F72206E6F7420636F7272657D
:1038A000637400110046696C616D656E74206E6F03
:1038B00074206C6F616465640012004368616E6718
:1038C000656420636F72726563746C790013004CD9
:1038D0006F6164696E6720636F6C6F7200140043E0
:1038E00068616E6765207375636365737321001586
:1038F00000506C65617365206F70656E2069646C43
:10390000657220616E642072656D6F7665206669F0
:103910006C616D656E74206D616E75616C6C792E75
:103920000016005761732066696C616D656E7420C6
:10393000756E6C6F61642073756363657373667510
:103940006C3F001700506C6561736520757067727D
:103950006164652E0018004E6577206669726D7788
:103960006172652076657273696F6E206176616938
:103970006C61626C653A00190057616974696E6721
:1039800020666F722050494E44412070726F62650C
:1039900020636F6F6C696E67001A00506C6561730D
:1039A000652077616974001B004E6F206D6F76652E
:1039B0002E001C005761697420666F722075736554
:1039C000722E2E2E001D00537461626C6520616D95
:1039D0006269656E742074656D706572617475726C
:1039E000652032312D323643206973206E6565645F
:1039F00065642061207269676964207374616E6414
:103A00002069732072657175697265642E001E00ED
:103A1000506C656173652072756E2058595A206329
:103A2000616C6962726174696F6E20666972737429
:103A30002E001F0045787472756465720020004D79
:103A40006F7665205A0021004D6F7665205900225F
:103A5000004D6F7665205800230043726173682023
:103A6000646574656374696F6E2063616E0A626574
:103A7000207475726E6564206F6E206F6E6C792095
:103A8000696E0A4E6F726D616C206D6F6465002403
:103A9000005741524E494E473A0A437261736820BB
:103AA000646574656374696F6E0A64697361626CDE
:103AB000656420696E0A537465616C7468206D6F6B
:103AC00064650025004D6F6465206368616E6765FD
:103AD00020696E2070726F67726573732E2E2E00D0
:103AE0002600436F70792073656C6563746564208C
:103AF0006C616E67756167653F002700436F6D6D90
:103B0000756E697479206D6164650028005368657D
:103B1000657420252E37730A5A206F6666736574A4
:103B20003A20252B312E33666D6D0A2563436F6E67
:103B300074696E75650A25635265736574002900A2
:103B4000506C65617365206C6F61642066696C619F
:103B50006D656E742066697273742E002A00536559
:103B60006C6563742066696C616D656E743A002BD8
:103B70000043616E63656C002C0052756E6E696E59
:103B8000672057697A6172642077696C6C2064657C
:103B90006C6574652063757272656E742063616C08
:103BA0006962726174696F6E20726573756C74738B
:103BB00020616E642073746172742066726F6D2070
:103BC00074686520626567696E6E696E672E002D88
:103BD0000050726568656174696E67206E6F7A7AED
:103BE0006C652E20506C6561736520776169742E59
:103BF000002E00506C6561736520696E7365727488
:103C00002066696C616D656E7420696E746F2074D6
:103C100068652065787472756465722C20746865B7
:103C20006E20707265737320746865206B6E6F62AE
:103C300020746F206C6F61642069742E002F005017
:103C40006C6561736520696E736572742066696C5A
:103C5000616D656E7420696E746F2074686520668E
:103C6000697273742074756265206F66207468656C
:103C7000204D4D552C207468656E207072657373ED
:103C800020746865206B6E6F6220746F206C6F61AA
:103C9000642069742E003000546865207072696E6B
:103CA0007465722077696C6C207374617274207013
:103CB00072696E74696E672061207A69672D7A6116
:103CC00067206C696E652E20526F74617465207474
:103CD0006865206B6E6F6220756E74696C20796FF9
:103CE0007520726561636820746865206F707469FF
:103CF0006D616C206865696768742E204368656330
:103D00006B207468652070696374757265732069CF
:103D10006E207468652068616E64626F6F6B202826
:103D200043616C6962726174696F6E20636861706F
:103D3000746572292E00310053656C6563742074BC
:103D4000656D706572617475726520776869636806
:103D5000206D61746368657320796F7572206D6181
:103D600074657269616C2E00320053656C65637412
:103D700020612066696C616D656E7420666F7220CB
:103D8000746865204669727374204C61796572208D
:103D900043616C6962726174696F6E20616E642048
:103DA00073656C65637420697420696E207468653E
:103DB000206F6E2D73637265656E206D656E752E56
:103DC0000033004E6F7720492077696C6C20636167
:103DD0006C6962726174652064697374616E636595
:103DE000206265747765656E20746970206F662047
:103DF000746865206E6F7A7A6C6520616E642068E5
:103E000065617462656420737572666163652E0016
:103E100034005A2063616C6962726174696F6E204C
:103E20007265636F6D6D656E6465642E2052756E8C
:103E3000206974206E6F773F003500506C656173A8
:103E4000652072656D6F766520737465656C20738F
:103E5000686565742066726F6D206865617462655F
:103E6000642E003600497320737465656C20736896
:103E7000656574206F6E20686561746265643F00DB
:103E80003700506C6561736520636865636B206FF4
:103E900075722068616E64626F6F6B20616E642062
:103EA000666978207468652070726F626C656D2E2B
:103EB000205468656E20726573756D652074686541
:103EC0002057697A617264206279207265626F6F2F
:103ED00074696E6720746865207072696E746572AB
:103EE0002E003800416C6C20697320646F6E652E63
:103EF000204861707079207072696E74696E6721F4
:103F0000003900596F752063616E20616C776179AB
:103F10007320726573756D65207468652057697AC2
:103F20006172642066726F6D2043616C69627261B8
:103F300074696F6E202D3E2057697A6172642E007D
:103F40003A00496620796F75206861766520616462
:103F5000646974696F6E616C20737465656C20733D
:103F600068656574732C2063616C69627261746545
:103F70002074686569722070726573657473206956
:103F80006E2053657474696E6773202D2048572026
:103F90005365747570202D20537465656C207368AB
:103FA000656574732E003B00506C6561736520631A
:103FB0006C65616E206865617462656420616E6421
:103FC000207468656E207072657373207468652054
:103FD0006B6E6F622E003C00446F20796F75207706
:103FE000616E7420746F20726570656174206C61FD
:103FF0007374207374657020746F20726561646AD5
:104000007573742064697374616E6365206265748E
:104010007765656E206E6F7A7A6C6520616E6420BC
:10402000686561746265643F003D0053656C65635B
:1040300074206E6F7A7A6C65207072656865617441
:104040002074656D7065726174757265207768693A
:104050006368206D61746368657320796F75722081
:104060006D6174657269616C2E003E004973206653
:10407000696C616D656E74206C6F616465643F008E
:104080003F00546865726D616C206D6F64656C20D3
:1040900063616C2E2074616B657320617070726F48
:1040A000782E203132206D696E732E205365650A9B
:1040B00070727573612E696F2F746D2D63616C0062
:1040C00040004E6F7720492077696C6C20707265D4
:1040D00068656174206E6F7A7A6C6520666F7220F5
:1040E000504C412E004100492077696C6C2072755C
:1040F0006E207A2063616C6962726174696F6E20F0
:104100006E6F772E0042004E6F772072656D6F766E
:1041100065207468652074657374207072696E74AC
:104120002066726F6D20737465656C2073686565B9
:10413000742E004300506C656173652072656D6F6D
:104140007665207368697070696E672068656C7049
:104150006572732066697273742E0044004920777B
:10416000696C6C2072756E2078797A2063616C6955
:1041700062726174696F6E206E6F772E20497420B1
:1041800077696C6C2074616B6520757020746F208A
:104190003234206D696E732E004500466972737467
:1041A0002C20492077696C6C2072756E20746865CC
:1041B0002073656C667465737420746F2063686522
:1041C000636B206D6F737420636F6D6D6F6E206114
:1041D0007373656D626C792070726F626C656D735C
:1041E0002E00460048692C204920616D20796F75AA
:1041F00072204F726967696E616C205072757361CD
:10420000206933207072696E7465722E20576F7545
:104210006C6420796F75206C696B65206D65207406
:104220006F20677569646520796F75207468726F97
:104230007567682074686520736574757020707286
:104240006F636573733F00470048692C2049206104
:104250006D20796F7572204F726967696E616C208D
:104260005072757361206933207072696E74657263
:104270002E20492077696C6C206775696465207908
:104280006F75207468726F75676820612073686F3E
:1042900072742073657475702070726F63657373C8
:1042A0002C20696E20776869636820746865205ADD
:1042B0002D617869732077696C6C20626520636179
:1042C0006C696272617465642E205468656E2C207E
:1042D000796F752077696C6C206265207265616406
:1042E0007920746F207072696E742E004800452D1D
:1042F000636F72726563740049005A2D636F727246
:10430000656374004A00592D636F727265637400AF
:104310004B00582D636F7272656374004C005061DE
:10432000757365004D00465320416374696F6E00DC
:104330004E00436F6E742E004F00462E206A616D52
:1043400020646574656374005000462E20617574A6
:104350006F6C6F6164005100462E2072756E6F7530
:10436000740052004D4D55204D6F6465005300435D
:104370007574746572005400537465616C746800E0
:1043800055004372617368206465742E00560046C0
:10439000616E207370656564005700426564005863
:1043A0000046616E7320636865636B0059004D6F52
:1043B00064656C005A004E6F7A7A6C65005B005041
:1043C0006C6561736520756E6C6F616420746865DF
:1043D0002066696C616D656E742066697273742CF9
:1043E000207468656E2072657065617420746869F8
:1043F0007320616374696F6E2E005C0043686563AF
:104400006B73005D004E6F7A7A6C65206368616E35
:104410006765005E00416C706861626574005F00F2
:10442000536F727400600054696D650061004E6FD7
:10443000726D616C006200534420636172640063BA
:104440000053656C656374206C616E6775616765A8
:1044500000640052506920706F72740065004C69EE
:104460006E2E20636F7272656374696F6E006600F2
:1044700048572053657475700067004C6F6164691C
:104480006E67205465737400680044697361626CE0
:10449000652073746570706572730069004D6F7686
:1044A000652061786973006A0054656D706572619A
:1044B00074757265006B0050494E44412063616C15
:1044C0002E006C0052657365742058595A20636140
:1044D0006C6962722E006D005049442063616C6902
:1044E00062726174696F6E006E00426564206C6573
:1044F00076656C20636F7272656374006F004D6542
:10450000736820426564204C6576656C696E67004F
:10451000700043616C696272617465205A007100B9
:1045200043616C6962726174652058595A00720067
:1045300053656C667465737400730042656C742017
:104540007465737400740057697A61726400750051
:1045500054657374696E672066696C616D656E740D
:104560000076004C6F616420416C6C007700506CE9
:10457000656173652070756C6C206F757420666959
:104580006C616D656E7420696D6D656469617465DB
:104590006C79007800526573657400790052656E1D
:1045A000616D65007A004669727374206C6179658B
:1045B000722063616C2E007B0053656C6563740030
:1045C0007C00537465656C20736865657473007D49
:1045D00000537570706F7274007E004661696C20C4
:1045E0007374617473204D4D55007F004661696C92
:1045F0002073746174730080005374617469737400
:1046000069637300810043616C6962726174696FF0
:104610006E0082004175746F4C6F61642066696C36
:10462000616D656E740083004C6F61642066696C17
:10463000616D656E74008400556E6C6F61642066F8
:10464000696C616D656E740085004C6F61642074E7
:104650006F206E6F7A7A6C650086005072656C6FA1
:10466000616420746F204D4D550087004E6F7A7A3B
:104670006C6520642E0088004E6F205344206361D7
:1046800072640089005072696E742066726F6D20CA
:104690005344008A00436C65617220544D2065725A
:1046A000726F72008B00526573756D652070726950
:1046B0006E74008C005061757365207072696E7441
:1046C000008D00536574205265616479008E00533B
:1046D0006574206E6F74205265616479008F00509C
:1046E00072656865617400900054756E6500910094
:1046F0004C6976652061646A757374205A00920073
:1047000052657072696E74009300496E666F207313
:10471000637265656E0094004272696768746E65C5
:104720007373009500417373697374009600536945
:104730006C656E740097004F6E6365009800536F50
:10474000756E640099004C6F7564009A0046696C40
:104750002E2073656E736F72009B004368616E67F5
:10476000652066696C616D656E74009C00466C6FB7
:1047700077009D005370656564009E004D61676E13
:1047800065747320636F6D702E009F004E2F410083
:10479000A0005A2D70726F6265206E722E00A1000B
:1047A0004D65736800A20054696D656F757400A350
:1047B000004D6F646500A4004175746F00A500444E
:1047C000696D00A60042726967687400A7004C65B5
:1047D00076656C2044696D6D656400A8004C657653
:1047E000656C2042726967687400A900536574742F
:1047F000696E677300AA0059657300AB004E6F00C5
:10480000AC0053746F70207072696E7400AD004319
:104810006865636B696E672066696C6500AE00460B
:10482000696C6520696E636F6D706C6574652E00D0
:10483000AF00845265667265736800B0004D6169AF
:104840006E00B10057616974696E6720666F7220EF
:104850006E6F7A7A6C6520616E6420626564206395
:104860006F6F6C696E6700B20053656C6674657338
:1048700074204F4B00B30053656C667465737420ED
:10488000737461727400B4005072696E7420666152
:104890006E3A00B500486F74656E642066616E3ACA
:1048A00000B60043616C6962726174696E6720686A
:1048B0006F6D6500B700416C6C20636F7272656349
:1048C0007400B800436865636B696E672073656E3A
:1048D000736F727300B900436865636B696E67201C
:1048E000686F74656E6400BA00436865636B696ED7
:1048F000672062656400BB00436865636B696E672F
:10490000205A206178697300BC00436865636B6955
:104910006E672059206178697300BD004368656344
:104920006B696E672058206178697300BE00436828
:1049300065636B696E6720656E6473746F70730076
:10494000BF00436172642072656D6F76656400C05C
:10495000004261636B00C10053747269637400C2EA
:10496000005761726E00C3004E6F6E6500C4004E4A
:104970006F7A7A6C65206368616E6765643F00C515
:10498000004E6F7A7A6C6520697320686F742120FD
:104990005761697420666F7220636F6F6C646F7704
:1049A0006E2E00C6005049442063616C2E2066695B
:1049B0006E697368656400C7005049442063616C88
:1049C0002E00C8005072696E742070617573656442
:1049D00000C9005072696E742061626F7274656400
:1049E00000CA004E6F7A7A6C65206469616D6574E7
:1049F000657220646966666572732066726F6D20E9
:104A000074686520472D636F64652E00CB004E6F80
:104A10007A7A6C65206469616D6574657220646979
:104A200066666572732066726F6D207468652047D4
:104A30002D636F64652E20506C656173652063681B
:104A400065636B207468652076616C756520696E9E
:104A50002073657474696E67732E00CC00546865AA
:104A60007265206973206E6F2066696C616D656E7A
:104A700074206C6F616465642E00CD004D4B332053
:104A80006669726D776172652064657465637465CB
:104A900064206F6E204D4B3353207072696E7465C5
:104AA0007200CE00426C61636B6F7574206F63633C
:104AB00075727265642E205265636F766572207020
:104AC00072696E743F00CF00546865726D616C202E
:104AD0006D6F64656C206E6F742063616C696272C7
:104AE00061746564207965742E00D0005468657225
:104AF00065206973207374696C6C2061206E656534
:104B00006420746F206D616B65205A2063616C694D
:104B100062726174696F6E2E20506C6561736520DE
:104B2000666F6C6C6F7720746865206D616E75615F
:104B30006C2C2063686170746572204669727374AE
:104B40002073746570732C2073656374696F6E20B5
:104B500043616C6962726174696F6E20666C6F7715
:104B60002E00D1005072696E7465722068617320E6
:104B70006E6F74206265656E2063616C696272613C
:104B8000746564207965742E20506C6561736520AE
:104B9000666F6C6C6F7720746865206D616E7561EF
:104BA0006C2C20636861707465722046697273743E
:104BB0002073746570732C2073656374696F6E2045
:104BC00043616C6962726174696F6E20666C6F77A5
:104BD0002E00D20053656C66746573742077696C1F
:104BE0006C2062652072756E20746F2063616C6941
:104BF00062726174652061636375726174652073AC
:104C0000656E736F726C657373207265686F6D6922
:104C10006E672E00D3004F6C642073657474696EE8
:104C2000677320666F756E642E2044656661756CCF
:104C300074205049442C204573746570732065744A
:104C4000632E2077696C6C206265207365742E007A
:104C5000D4005761726E696E673A20626F74682083
:104C60007072696E746572207479706520616E640B
:104C7000206D6F74686572626F6172642074797000
:104C800065206368616E6765642E00D500576172A8
:104C90006E696E673A207072696E746572207479FD
:104CA0007065206368616E6765642E00D600576189
:104CB000726E696E673A206D6F74686572626F61BB
:104CC00072642074797065206368616E6765642E14
:104CD00000D700536865657400D8005265636F762D
:104CE0006572696E67207072696E7400D9005448ED
:104CF00045524D414C20414E4F4D414C5900DA0038
:104D0000526573756D696E67207072696E7400DB31
:104D10000050494E44412048656174696E6700DC6B
:104D20000043616C6962726174696F6E20646F6EBA
:104D30006500DD0043616C6962726174696E6720B1
:104D40005A00DE0042656420646F6E6500DF004239
:104D500065642048656174696E6700E000486561BC
:104D600074696E6720646F6E652E00E100486561AE
:104D700074696E6700E2004D4D55206661696C7381
:104D800000E3004D4D55206C6F6164206661696CD5
:104D90007300E4004D4D5520706F77657220666199
:104DA000696C7300E5004D6174657269616C206324
:104DB00068616E67657300E600546F74616C20660D
:104DC00061696C7572657300E7004C6173742070E3
:104DD00072696E74206661696C7572657300E800B3
:104DE000506F776572206661696C7572657300E952
:104DF0000046696C2E2072756E6F75747300EA0040
:104E0000437261736800EB00546F74616C00EC00D6
:104E10004C617374207072696E7400ED00416D62B4
:104E200069656E7400EE00566F6C7461676573009F
:104E3000EF0054656D70657261747572657300F092
:104E40000042656C742073746174757300F10053D3
:104E5000656E736F7220696E666F00F2004578743C
:104E6000727564657220696E666F00F30058595A56
:104E70002063616C2E2064657461696C7300F400BA
:104E80005072696E74657220495020416464723AB0
:104E900000F500756E6B6E6F776E00F6004D4D5528
:104EA00020636F6E6E656374656400F7004461741F
:104EB000653A00F800746F20756E6C6F616420664F
:104EC000696C616D656E7400F900746F206C6F61C0
:104ED000642066696C616D656E7400FA00507265DD
:104EE000737320746865206B6E6F6200FB005072F4
:104EF0006568656174696E6720746F2063757400FE
:104F0000FC0050726568656174696E6720746F207B
:104F1000656A65637400FD00507265686561746957
:104F20006E6720746F20756E6C6F616400FE0050B8
:104F3000726568656174696E6720746F206C6F615B
:104F40006400FF00436F6F6C646F776E0000014672
:104F5000696C616D656E7420657874727564696ED4
:104F6000672026207769746820636F7272656374A6
:104F700020636F6C6F723F000101456A65637400C6
:104F800002014175746F6C6F6164696E67206669B8
:104F90006C616D656E7420697320616374697665F8
:104FA0002C206A7573742070726573732074686541
:104FB000206B6E6F6220616E6420696E736572741F
:104FC0002066696C616D656E742E2E2E000301548F
:104FD0006F74616C2066696C616D656E74000401AC
:104FE000546F74616C207072696E742074696D65A1
:104FF00000050146696C616D656E742075736564AA
:105000000006015072696E742074696D65000701B5
:105010005072656865617420746865206E6F7A7A75
:105020006C65210008014552524F523A000901595E
:105030002064697374616E63652066726F6D206DA4
:10504000696E000A014C656674000B01526967685D
:1050500074000C014D6561737572656420736B6536
:1050600077000D01536C6967687420736B65770076
:105070000E0153657665726520736B6577000F01CD
:105080005B303B305D20706F696E74206F666673B5
:10509000657400100141646A757374696E67205A03
:1050A000001101526561722073696465205BE46DD3
:1050B0005D00120146726F6E7420736964655BE473
:1050C0006D5D001301526967687420736964655BE4
:1050D000E46D5D0014014C6566742073696465209D
:1050E0005BE46D5D0015015365742074656D70653A
:1050F0007261747572653A00160150494E44412040
:1051000063616C6962726174696F6E206661696C5B
:10511000656400170150494E44412063616C696227
:10512000726174696F6E2069732066696E69736855
:10513000656420616E64206163746976652E204920
:10514000742063616E2062652064697361626C65BE
:105150006420696E206D656E752053657474696E88
:1051600067732D3E50494E44412063616C2E0018F8
:105170000146656564696E6720746F204653656EED
:10518000736F720019014D6F76696E672073656CDD
:105190006563746F72001A01486F6D696E67001B5A
:1051A00001526574726163742066726F6D204649A6
:1051B0004E4441001C01456A656374696E67206650
:1051C000696C616D656E74001D015061726B696E72
:1051D000672073656C6563746F72001E015265749D
:1051E00075726E696E672073656C6563746F7200AB
:1051F0001F01506572666F726D696E67206375740A
:1052000000200150757368696E672066696C616D76
:10521000656E74002101507265706172696E67205D
:10522000626C61646500220153656C656374696E2C
:10523000672066696C2E20736C6F74002301556EB5
:105240006C6F6164696E672066696C616D656E7410
:1052500000240145525220544D43206661696C651B
:10526000640025014552522048656C702066696CC7
:10527000616D656E7400260145525220496E746559
:10528000726E616C0027014552522057616974208B
:10529000666F72205573657200280146696E6973E6
:1052A00068696E67206D6F76656D656E7473002931
:1052B0000141766F6964696E67206772696E640088
:1052C0002A0146656564696E6720746F206E6F7A87
:1052D0007A6C65002B0146656564696E6720746FA2
:1052E000206578747275646572002C01466565648A
:1052F000696E6720746F2046494E4441002D015568
:105300006E6C6F6164696E6720746F2070756C6C71
:105310006579002E01556E6C6F6164696E6720744B
:105320006F2046494E4441002F01446973656E6702
:105330006167696E672069646C6572003001456E53
:10534000676167696E672069646C65720031014F3F
:105350004B003201554E4B4E4F574E204552524F47
:105360005200330146494C414D454E54204348417B
:105370004E474500340146494C414D454E54204569
:105380004A4543544544003501554E4C4F41442055
:105390004D414E55414C4C5900360146572052550F
:1053A0004E54494D45204552524F520037014D4D04
:1053B0005520465720555044415445204E454544BC
:1053C000454400380151554555452046554C4C0043
:1053D0003901494E56414C494420544F4F4C003AF4
:1053E0000146494C2E20414C5245414459204C4FD6
:1053F00041444544003B01434F4D4D554E494341C7
:1054000054494F4E204552524F52003C014D4D558C
:10541000204E4F5420524553504F4E44494E470062
:105420003D014D4D55204D4355204552524F5200A0
:105430003E014D4D552053454C465445535420464E
:1054400041494C4544003F01544D43204452495684
:1054500045522053484F52544544004001544D4357
:1054600020554E444552564F4C54414745204552D5
:1054700052004101544D4320445249564552205256
:1054800045534554004201544D432044524956452A
:1054900052204552524F52004301544D43204F5623
:1054A000455248454154204552524F5200440157FD
:1054B00041524E494E4720544D4320544F4F2048AF
:1054C0004F5400450149444C45522043414E4E4FF4
:1054D00054204D4F564500460149444C4552204307
:1054E000414E4E4F5420484F4D4500470153454CC7
:1054F0004543544F522043414E4E4F54204D4F563A
:105500004500480153454C4543544F522043414EBA
:105510004E4F5420484F4D450049014C4F414420C7
:10552000544F20455854522E204641494C45440082
:105530004A01494E53504543542046494E44410088
:105540004B014653454E534F5220544F4F20454137
:10555000524C59004C0150554C4C45592043414E3A
:105560004E4F54204D4F5645004D014653454E5326
:105570004F522046494C2E20535455434B004E0168
:105580004653454E534F52204449444E54205452A2
:105590004947472E004F0146494E44412046494C59
:1055A000414D2E20535455434B00500146494E4423
:1055B00041204449444E54205452494747455200E3
:1055C00051014E6F74207370696E6E696E67005280
:1055D000015370696E6E696E6700530146616E20FB
:1055E0007465737400540153656C6674657374203C
:1055F0006661696C656400550146696C616D656E34
:10560000742073656E736F7200560153776170700A
:10561000656400570146726F6E742F6C6566742066
:1056200066616E73005801417869730059014178D1
:105630006973206C656E677468005A014C6F6F73F4
:10564000652070756C6C6579005B014C6566742033
:10565000686F74656E642066616E3F005C0146721F
:105660006F6E74207072696E742066616E3F005DAB
:1056700001456E6473746F70206E6F742068697476
:10568000005E01456E6473746F70005F014D6F744E
:105690006F72006001456E6473746F707300610116
:1056A000576972696E67206572726F72006201429B
:1056B00065642F4865617465720063014E6F7420E4
:1056C000636F6E6E65637465640064014865617440
:1056D00065722F546865726D6973746F720065012D
:1056E000506C6561736520636865636B3A006601A1
:1056F00053656C6674657374206572726F722100F5
:10570000670158595A2063616C6962726174696FEC
:105710006E20616C6C2072696768742E20536B6513
:10572000772077696C6C20626520636F72726563A5
:10573000746564206175746F6D61746963616C6C0C
:10574000792E00680158595A2063616C6962726150
:1057500074696F6E20616C6C2072696768742E20AA
:10576000582F5920617865732061726520736C69C8
:105770006768746C7920736B657765642E20476F5A
:105780006F64206A6F622100690158595A20636171
:105790006C6962726174696F6E206F6B2E20582F76
:1057A000592061786573206172652070657270653B
:1057B0006E646963756C61722E20436F6E677261EF
:1057C00074756C6174696F6E7321006A0158595A5F
:1057D0002063616C6962726174696F6E20636F6DC2
:1057E00070726F6D697365642E20526967687420EA
:1057F00066726F6E742063616C6962726174696F46
:105800006E20706F696E74206E6F742072656163B4
:105810006861626C652E006B0158595A2063616C97
:105820006962726174696F6E20636F6D70726F6D03
:10583000697365642E2046726F6E742063616C69B3
:1058400062726174696F6E20706F696E7473206E1E
:105850006F7420726561636861626C652E006C0113
:1058600058595A2063616C6962726174696F6E2065
:105870006661696C65642E2052696768742066727F
:105880006F6E742063616C6962726174696F6E20FF
:10589000706F696E74206E6F7420726561636861E9
:1058A000626C652E006D0158595A2063616C696203
:1058B000726174696F6E206661696C65642E204642
:1058C000726F6E742063616C6962726174696F6E6D
:1058D00020706F696E7473206E6F742072656163DF
:1058E0006861626C652E006E0158595A2063616CC4
:1058F0006962726174696F6E206661696C65642E9D
:1059000020506C6561736520636F6E73756C7420D5
:10591000746865206D616E75616C2E006F01585959
:105920005A2063616C6962726174696F6E2066618E
:10593000696C65642E204265642063616C696272E3
:105940006174696F6E20706F696E74207761732067
:105950006E6F7420666F756E642E007001506C65FA
:1059600061736520706C61636520737465656C207C
:105970007368656574206F6E206865617462656424
:105980002E00710144697374616E636520626574F1
:105990007765656E20746970206F66207468652075
:1059A0006E6F7A7A6C6520616E642074686520621F
:1059B0006564207375726661636520686173206E2B
:1059C0006F74206265656E20736574207965742E2E
:1059D00020506C6561736520666F6C6C6F77207406
:1059E0006865206D616E75616C2C206368617074F0
:1059F00065722046697273742073746570732C200D
:105A000073656374696F6E204669727374206C618C
:105A10007965722063616C6962726174696F6E2E60
:105A2000007201506C616365206120736865657464
:105A3000206F6620706170657220756E64657220DB
:105A4000746865206E6F7A7A6C6520647572696E11
:105A500067207468652063616C6962726174696F44
:105A60006E206F66206669727374203420706F69CF
:105A70006E74732E20496620746865206E6F7A7A82
:105A80006C65206361746368657320746865207059
:105A9000617065722C20706F776572206F6666206A
:105AA000746865207072696E74657220696D6D65C9
:105AB00064696174656C792E00730153656172636A
:105AC00068696E67206265642063616C69627261F7
:105AD00074696F6E20706F696E740074014D65613A
:105AE000737572696E67207265666572656E63654F
:105AF00020686569676874206F662063616C6962FD
:105B0000726174696F6E20706F696E7400750150F8
:105B10006C6561736520636C65616E2074686520D7
:105B20006E6F7A7A6C6520666F722063616C696251
:105B3000726174696F6E2E20436C69636B207768A5
:105B4000656E20646F6E652E0076014175746F205E
:105B5000686F6D650077014375742066696C616DCF
:105B6000656E74007801456A6563742066726F6DB6
:105B7000204D4D550079014C6F6164696E67206658
:105B8000696C616D656E74007A014D4D55205265EA
:105B90007472793A20526573746F72696E672074FB
:105BA000656D70657261747572652E2E2E007B01B5
:105BB000536F7274696E672066696C6573007C014F
:105BC000536F6D652066696C65732077696C6C2016
:105BD0006E6F7420626520736F727465642E204D41
:105BE00061782E204E6F2E206F662066696C65737B
:105BF00020696E203120666F6C64657220666F725A
:105C000020736F7274696E67206973203130302E93
:105C1000007D014F6666007E014F6E007F01556E6C
:105C20006578706563746564206572726F72206F49
:105C3000636375727265642E0080014D36303020CA
:105C400046696C616D656E74204368616E67652E90
:105C5000204C6F61642061206E65772066696C61FD
:105C60006D656E74206F7220656A65637420746858
:105C700065206F6C64206F6E652E00810152656D2A
:105C80006F76652074686520656A65637465642055
:105C900066696C616D656E742066726F6D207468E4
:105CA000652066726F6E74206F6620746865204D83
:105CB0004D552E00820146696C616D656E742064DD
:105CC0006574656374656420756E6578706563746A
:105CD00065646C792E20456E73757265206E6F2039
:105CE00066696C616D656E74206973206C6F6164A8
:105CF00065642E20436865636B2074686520736556
:105D00006E736F727320616E6420776972696E675B
:105D10002E008301496E7465726E616C2072756E1F
:105D200074696D65206572726F722E2054727920CD
:105D3000726573657474696E6720746865204D4D73
:105D400055206F72207570646174696E6720746885
:105D500065206669726D776172652E0084014D4D14
:105D6000552046572076657273696F6E20697320DF
:105D7000696E636F6D70617469626C6520776974B8
:105D800068207072696E7465722046572E55706473
:105D900061746520746F2076657273696F6E20334D
:105DA0002E302E332E0085014D4D55204669726DE3
:105DB0007761726520696E7465726E616C206572C0
:105DC000726F722C20706C656173652072657365EB
:105DD0007420746865204D4D552E00860152657102
:105DE0007565737465642066696C616D656E742099
:105DF000746F6F6C206973206E6F742061766169B7
:105E00006C61626C65206F6E2074686973206861D4
:105E10007264776172652E20436865636B207468D5
:105E20006520472D636F646520666F7220746F6F05
:105E30006C20696E646578206F7574206F662072BF
:105E4000616E6765202854302D5434292E00870157
:105E500043616E6E6F7420706572666F726D207430
:105E6000686520616374696F6E2C2066696C616D72
:105E7000656E7420697320616C7265616479206C51
:105E80006F616465642E20556E6C6F616420697467
:105E90002066697273742E0088014D4D55206E6F17
:105EA0007420726573706F6E64696E6720636F72C1
:105EB000726563746C792E20436865636B20746827
:105EC0006520776972696E6720616E6420636F6E0A
:105ED0006E6563746F72732E0089014D4D55206E8F
:105EE0006F7420726573706F6E64696E672E2043E5
:105EF0006865636B2074686520776972696E6720D6
:105F0000616E6420636F6E6E6563746F72732E00D2
:105F10008A014D6F72652064657461696C73206FCE
:105F20006E6C696E652E008B015468652049646C47
:105F300065722063616E6E6F7420686F6D6520708E
:105F4000726F7065726C792E20436865636B206692
:105F50006F7220616E797468696E6720626C6F631E
:105F60006B696E6720697473206D6F76656D656E01
:105F7000742E008C0143616E2774206D6F7665204E
:105F800053656C6563746F72206F722049646C6531
:105F9000722E008D015468652053656C6563746FC3
:105FA000722063616E6E6F7420686F6D6520707211
:105FB0006F7065726C792E20436865636B20666F25
:105FC0007220616E797468696E6720626C6F636BB2
:105FD000696E6720697473206D6F76656D656E7488
:105FE0002E008E014C6F6164696E6720746F2065AE
:105FF00078747275646572206661696C65642E20C0
:10600000496E7370656374207468652066696C619D
:106010006D656E74207469702073686170652E20E0
:10602000526566696E65207468652073656E736F6E
:10603000722063616C6962726174696F6E2C206991
:1060400066206E65656465642E008F0153656C651E
:1060500063746F722063616E2774206D6F766520A4
:1060600064756520746F2046494E44412064657410
:10607000656374696E6720612066696C616D656E29
:10608000742E204D616B652073757265206E6F20D4
:1060900066696C616D656E7420697320696E20534A
:1060A000656C6563746F7220616E642046494E446E
:1060B0004120776F726B732070726F7065726C79AC
:1060C0002E00900146696C616D656E742073656E7B
:1060D000736F722074726967676572656420746F8C
:1060E0006F206561726C79207768696C65206C6FD0
:1060F0006164696E6720746F206578747275646579
:10610000722E20436865636B207468657265206930
:10611000736E277420616E797468696E672073747A
:1061200075636B20696E2050544645207475626516
:106130002E20436865636B20746861742073656EFC
:10614000736F722072656164732070726F70657214
:106150006C792E00910150756C6C6579206D6F74AF
:106160006F72207374616C6C65642E20456E73755C
:106170007265207468652070756C6C657920636148
:106180006E206D6F766520616E6420636865636B59
:106190002074686520776972696E672E00920146E7
:1061A000696C616D656E742073656E736F722064C7
:1061B00069646E277420737769746368206F6666FC
:1061C000207768696C6520756E6C6F6164696E67B5
:1061D0002066696C616D656E742E20456E737572F4
:1061E000652066696C616D656E742063616E206DFB
:1061F0006F766520616E64207468652073656E73C8
:106200006F7220776F726B732E00930146696C6119
:106210006D656E742073656E736F72206469646E51
:1062200027742074726967676572207768696C6586
:10623000206C6F6164696E67207468652066696CA4
:10624000616D656E742E20456E737572652074687D
:10625000652073656E736F722069732063616C696A
:1062600062726174656420616E6420746865206682
:10627000696C616D656E7420726561636865642028
:1062800069742E00940146494E4441206469646E4D
:10629000277420737769746368206F666620776857
:1062A000696C6520756E6C6F6164696E67206669E4
:1062B0006C616D656E742E2054727920756E6C6FF2
:1062C0006164696E67206D616E75616C6C792E20FA
:1062D000456E737572652066696C616D656E7420BC
:1062E00063616E206D6F766520616E642046494E55
:1062F000444120776F726B732E00950146494E44DE
:1063000041206469646E27742074726967676572DE
:10631000207768696C65206C6F6164696E672074B2
:1063200068652066696C616D656E742E20456E73BC
:10633000757265207468652066696C616D656E7440
:106340002063616E206D6F766520616E6420464922
:106350004E444120776F726B732E0096014469732F
:1063600061626C6500970153746F700098014C6F07
:106370006164009901556E6C6F6164009A01526509
:106380007365744D4D55009B015265747279009C84
:1063900001426564206C6576656C696E6720666194
:1063A000696C65642E2053656E736F722064696436
:1063B0006E277420747269676765722E2044656267
:1063C000726973206F6E206E6F7A7A6C653F20570A
:1063D000616974696E6720666F7220726573657497
:1063E0002E009D0153656E73697469766974790036
:1063F0009E01446F6E6500656E717565696E6720FC
:106400002200446F6E65207072696E74696E672039
:1064100066696C65004E6F204C696E65204E756D27
:10642000626572207769746820636865636B737551
:106430006D2C204C617374204C696E653A20004EBF
:106440006F20436865636B73756D2077697468208E
:106450006C696E65206E756D6265722C204C61737F
:1064600074204C696E653A2000636865636B7375D0
:106470006D206D69736D617463682C204C61737459
:10648000204C696E653A20004C696E65204E756D32
:10649000626572206973206E6F74204C6173742082
:1064A0004C696E65204E756D6265722B312C204CE7
:1064B000617374204C696E653A2000256C7520620A
:1064C00079746573207772697474656E20746F20B7
:1064D0002553206174206164647265737320307881
:1064E0002530346C780A00442564202D20526561E3
:1064F000642F57726974652025530A003F3F00528C
:106500006F6D616E61004872766174736B69004DE6
:10651000616779617200536C6F76656E63696E6155
:10652000004E6F72736B005376656E736B61004E35
:10653000656465726C616E647300506F6C736B6937
:10654000004974616C69616E6F004672616E6361CF
:10655000697300457370616E6F6C00446575747388
:1065600063680043657374696E6100456E676C69AA
:1065700073680020436F756E7420583A20004530D0
:106580003A25642052504D2050524E313A25642015
:1065900052504D204530403A25752050524E3140E2
:1065A0003A25750A00526573656E640025533A20DA
:1065B000256C640A25530A002F2F616374696F6E7E
:1065C0003A6E6F74696669636174696F6E202553F2
:1065D0000A0046696C616D656E742072756E6F7528
:1065E0007420646574656374656421005072696E1B
:1065F0007465722073746F707065642064756520B3
:10660000746F206572726F72732E2053757065728D
:10661000766973696F6E2072657175697265642E33
:106620000064756D7020636C65617265640A006E4C
:106630006F2064756D7020617661696C61626C6554
:106640000A00443231202D2072656164206372613A
:1066500073682064756D700A006E6F2064756D70CC
:1066600020617661696C61626C650A0064756D70A9
:1066700020636F6D706C6574656420696E20256C95
:10668000756D730A0058464C4153480045455052B9
:106690004F4D005352414D00442D31202D20456E69
:1066A000646C657373206C6F6F700A00416374696A
:1066B00076652045787472756465723A20300049B9
:1066C0006E76616C696420657874727564657200B9
:1066D000746D63323133305F7072696E745F6375ED
:1066E0007272656E747328290A094809520A58099A
:1066F00025640925640A590925640925640A5A098B
:1067000025640925640A450925640925640A00539E
:1067100044207072696E74696E67206279746520B6
:1067200000556E6B6E6F776E20636F6D6D616E647A
:106730003A2022004D32303020496E76616C696417
:1067400020657874727564657220007A5F6D617877
:106750003A20007A5F6D696E3A2000795F6D61784A
:106760003A2000795F6D696E3A2000785F6D61783C
:106770003A2000545249474745524544006F7065DE
:106780006E00785F6D696E3A20005265706F7274AA
:10679000696E6720656E6473746F702073746174C2
:1067A0007573004D3131322063616C6C65642E204D
:1067B000456D657267656E63792053746F702E0046
:1067C0002F2F616374696F6E3A75766C6F5F7265B7
:1067D000636F766572795F7265616479002F2F61EE
:1067E0006374696F6E3A75766C6F5F6175746F5F15
:1067F0007265636F766572795F7265616479002591
:10680000533A256C7520636D0A25533A256C752023
:106810006D696E0A0053494C454E54004E4F524D1F
:10682000414C002553204D4F44453A20506572633A
:10683000656E7420646F6E653A20256868643B203D
:106840007072696E742074696D652072656D61691E
:106850006E696E6720696E206D696E733A202564DB
:106860003B204368616E676520696E206D696E73B9
:106870003A2025640A005072696E7465725374611F
:1068800074653A2025640A00456E642066696C656B
:10689000206C69737400426567696E2066696C6577
:1068A000206C69737400556E6B6E6F776E20256374
:1068B00020636F64653A2025730A000A50494E44EC
:1068C000412074656D70657261747572653A20253A
:1068D0002E3166205A20736869667420286D6D29F0
:1068E0003A20252E3366000A537465703A202564D9
:1068F0002F360A000A537465703A2025642F36201B
:1069000028736B6970706564290A50494E444120B0
:1069100074656D70657261747572653A20256420C6
:106920005A20736869667420286D6D293A300A0010
:106930000A5A45524F3A20252E33660A0073746175
:1069400072742074656D70657261747572653A2039
:10695000252E31660A0025642020252E326600256A
:106960005320583A20252E356620593A20252E35B9
:1069700066205A3A20252E35660A00536C656570EC
:106980002E2E2E0045303A25642052504D0A50528A
:106990004E303A25642052504D0A00473930004DA0
:1069A00031303700423A20253364202020202058FF
:1069B000643A2536640A533A202533642020202087
:1069C0002059643A2536640046494E4441005049F6
:1069D0004E44410057697A61726420656E64207389
:1069E000746174653A2025640A0053706F6F6C4AB5
:1069F0006F696E004669726D776172650048426525
:106A000064206F6E206C6F616400466C6173684136
:106A1000697200546865726D616C204D6F64656CBD
:106A20002063616C2E004572723A5052494E5420D8
:106A300046414E204552524F52004572723A484FDD
:106A400054454E442046414E204552524F52002F4D
:106A50002F616374696F6E3A726573756D6564005A
:106A60002F2F616374696F6E3A726573756D65007F
:106A70002F2F616374696F6E3A7265616479002FBC
:106A80002F616374696F6E3A6E6F745F72656164D3
:106A900079002F2F616374696F6E3A63616E63656D
:106AA0006C004D38340041786973206C656E6774F2
:106AB0006820646966666572656E63653A252E3383
:106AC000660A004D6561737572656420617869734B
:106AD000206C656E6774683A252E33660A004F4B4A
:106AE000004C434420737461747573206368616E55
:106AF00067656400534420636172642072656C654D
:106B0000617365640046616B652073657269616CD1
:106B1000206E756D62657200452D636F6F6C206D20
:106B20006F6465002F2F616374696F6E3A737461CF
:106B3000727400473931004D373032004D38330020
:106B40004732382057004D35303000457874657233
:106B50006E616C2053504920666C6173680A584618
:106B60004C415348206973206E6F74207265732DF9
:106B70000A706F6E64696E672E204C616E67756176
:106B800067650A73776974636820756E61766169F9
:106B90006C61626C652E0058464C415348206E6F04
:106BA0007420726573706F6E64696E672E0046574D
:106BB0002063726173682064657465637465642121
:106BC00020596F752063616E20636F6E74696E75F6
:106BD00065207072696E74696E672E2044656275F7
:106BE00067206461746120617661696C61626C65C3
:106BF00020666F7220616E616C797369732E204319
:106C00006F6E7461637420737570706F727420742A
:106C10006F207375626D69742064657461696C734B
:106C20002E002F2F616374696F6E3A64756D705F0B
:106C3000617661696C61626C65004372617368447E
:106C400065746563742044495341424C4544004394
:106C50007261736844657465637420454E41424CAB
:106C6000454421002020506C616E6E65724275664D
:106C700066657242797465733A20002046726565D4
:106C8000204D656D6F72793A2000207C204175742B
:106C9000686F723A2000204C6173742055706461F3
:106CA0007465643A200020536F66747761726520C2
:106CB000526573657400205761746368646F672060
:106CC0005265736574002042726F776E206F757421
:106CD000205265736574002045787465726E616C2E
:106CE00020526573657400506F776572557000654A
:106CF00072726F722077726974696E6720746F2088
:106D000066696C6500446F6E6520736176696E67B5
:106D10002066696C652E006F6B0046696C616D655D
:106D20006E7400504F5745522050414E4943204405
:106D3000455445435445440055564C4F202D20653D
:106D40006E642025640A0055564C4F5F54494E59D5
:106D5000202D20656E642025640A00776F726C64B4
:106D600020636F6F7264696E617465733A202825C1
:106D70002E33662C20252E33662C20252E336629B3
:106D80000A004D3232302053256400446F6E652076
:106D900072656164696E6720454550524F4D0A0027
:106DA00054656D7065726174757265205265737497
:106DB0006F7265640A0047312045252D2E33662009
:106DC000463237303000544D4320445249564552E4
:106DD000204F56455254454D5000486F6C64206317
:106DE000757272656E74207472756E636174656419
:106DF00020746F2052756E2063757272656E740018
:106E000025632533642F256481005A25362E32668A
:106E10002563005A2020202D2D2D20008625336447
:106E20002525002D2D2D2525002533642525002021
:106E30005344002020200020484F008725337568E8
:106E400020256325630087253032753A2530327559
:106E500025632563002F2F616374696F6E3A70613B
:106E600075736564002F2F616374696F6E3A70618A
:106E70007573650044756D70206D656D6F72790076
:106E800068656C702E707275736133642E636F6DFC
:106E900000666F72756D2E707275736133642E6348
:106EA0006F6D00707275736133642E636F6D004D8A
:106EB0003730310025533A0A2531382E32666D209D
:106EC0000A25533A0A2531306C6464202530326437
:106ED0006820253032646D0025533A0A2531382E5A
:106EE00032666D200A25533A0A2531306C646820D9
:106EF000253032646D2025303264730025362E3201
:106F0000666D6D0025530A25530A25533A0A255309
:106F10003A0025332E32668100252D31342E31344E
:106F2000533A0A25530A252D31342E3134533A254C
:106F3000332E3266810A252D31342E3134533A25D1
:106F4000332E3266810020203000202031004D6534
:106F500061737572656420736B6577733A2025667B
:106F60002025660A0046697474696E672066616947
:106F70006C6564203D3E2063616C69627261746976
:106F80006F6E206661696C65642E0A0043616C69EE
:106F900062726174696F6E20737563636573732EBB
:106FA0000A00416C6C20342063616C696272617408
:106FB000696F6E20706F696E747320666F756E6492
:106FC0002E0A00312F3400312F3400312F39005078
:106FD00072757361206933204D4B332D52204F4B16
:106FE0002E0053442063617264206F6B006F7065E4
:106FF0006E526F6F74206661696C656400766F6CA9
:10700000756D652E696E6974206661696C656400D2
:10701000534420696E6974206661696C006F706505
:107020006E206661696C65642C2046696C653A2047
:107030000043616E6E6F7420656E746572207375A7
:10704000626469723A20004D363030004D323400AF
:107050004D323320257300312F3900880020746FA2
:107060006F206C6F6E6720657874727573696F6ED0
:107070002070726576656E7465640020636F6C6461
:1070800020657874727573696F6E207072657665AD
:107090006E746564004D6F76652061626F72746511
:1070A0006400084AD73B3BCE016E84BCBFFDC12FB4
:1070B0003D6C74319ABD56833DDA3D00C77F11BEE9
:1070C000D9E4BB4C3E916BAAAABE000000803F05EC
:1070D000A84CCDB2D44EB93836A9020C50B991861D
:1070E00088083CA6AAAA2ABE000000803F07634287
:1070F00036B79BD8A71A39685618AEBAAB558C1D4F
:107100003CB7CC5763BD6DEDFD753EF6177231BFD0
:10711000000000803F08000000BE922449123EABF0
:10712000AAAA2ABECDCCCC4C3E00000080BEABAAA1
:10713000AAAA3E00000000BF000000803F0000003F
:107140000000084178D3BB4387D1133D190E3CC3DF
:10715000BD4282AD2B3E68EC8276BED98FE1A93E5E
:107160004C80EFFFBE01C4FF7F3F00000000000025
:107170000C9490EF0C9428FB0C9477EA0D94CE08B5
:107180000D94681D0C9459E20C94B2E00D94D72232
:107190000C9481CF0C94A4EA0C943C740C94FCF0F5
:1071A0000C94E7E00C949FD20C94F3D00D942CA790
:1071B0000C94D1F50D94930A0C94BCD50D94CA1976
:1071C0000C94CCEA0C940EF10C949AD10C94AEEA87
:1071D0000C9453FB0C94B5E30D943B2C0C94197454
:1071E0000C94E6CD0D9444510C9471FA0D9440AD7D
:1071F0000C9479700C9471DA0C94B4CE0C94DECDAE
:107200000D9475A00D94970A0D944E170D94551971
:107210000C94E0D00D942D520C94A9D40D94785276
:107220000C94FACD0C9421FA0C9473DC0C948CD44D
:107230000C94B9CD0D9478A00C9445E20C94AECE8C
:107240000C942FEF0C94E7FA0C94ECE20C94D8CD4C
:107250000D94972C0C94B8EA0C94D4CD0C94B4E211
:107260000C94A2D00D945F1D0D940B180D942FA7B4
:107270000D94E03F0C9449EA0C94F3FA0C949AEACA
:107280000C943AEA0C948BEA0C94BFE10C94A5D4CC
:107290000C94E2CD0D94A1210D94D4080C94E975C1
:1072A0000C945DEA0C94C2EA0C949BD40D940CA04F
:1072B0000D9466170C94B3F80C94CBCD0D94311A41
:1072C0000C946ED00D94C7510C9493D10C94B0E1F2
:1072D0000C9487D40C9451DA0D9455110C940CD85D
:1072E0000C940DFB0C940BE40D94CA2C0C942BD530
:1072F0000C9459F50D94F3510D9432A70D94A20CF2
:107300000C9473E20C9464E20D940B1B0D94A41581
:107310000C94C5F00C944FD00D940FAD0D94280B28
:107320000C94AAE10D947BA00C94E7D40C9453EA3E
:107330000C94A7E10C9434D50D94D7180D945C519E
:107340000C94ADFA0C9410740D946B170D942EAD33
:107350000D9468520D9470520C9435DB0C9421D02E
:107360000C94FECD0D9480520C9488CF0D945A1736
:107370000D9460520C9478D00D944E220C94C9D088
:107380000D945A100C9482D00D9430520C9414E049
:107390000D94F00F0D94CDA60D94A8150C941AE041
:1073A0000C94EC730C94BFCD0D9438520D947F0B5C
:1073B0000C941EFB0D94B9170D94C4D40D944D1D5F
:1073C0000C948FCF0C947FD90D944E2C0D942619CC
:1073D0000C94E9CF0D942BAD0C94C7CD0C94D2E452
:1073E0000C94ACD00C94A3FA0C948ED00D94921FF4
:1073F0000D9438300D9486160D948B510C9452F1E7
:107400000C94BED00D9496A00C9432EA0D94260AEA
:107410000C9491D40C94FBF80D9427520D94D20D3A
:107420000C94ADE10D94F9510C9436FB0C944DF095
:107430000D942A520C9415D00D943D110C9435E204
:107440000D94B4A60C94B6D10D94DB2C0D94C040D1
:107450000C94B3E10C9434D00D94B11F0D94E90B4E
:107460000D94761A0D943BAD0D94C9AC0D94505209
:107470000C9498D00C94C7730D9424A00D9458527A
:107480000C9482D40C9464D00C9497FA0C940BCE88
:107490000D946F100C942EE00C94E1730D944052F7
:1074A0000C945AD00C9496D40D940FA70D9400A070
:1074B0000C94D1760C94A0D40D948AA00D9469A05C
:1074C0000C9452F20C94BCE00C944E740D948E51BA
:1074D0000D94F6510D9432AD0C94ECCD0C9470E1FA
:1074E0000D9473170C94BBE50C94FA730C943FFB4A
:1074F0000D94BDD20D9448520C94F9CD0C94B6E184
:107500000C94FC630D94D51D0C942AF90D94561D12
:107510000D9491280C9481EA0C9460E10C94C3CDF5
:107520000C943DE20C94CECD0D947EA00D94761873
:107530000C946DEA0D9484510D94870D0C9443D0F6
:107540000C943FEA0C94F0CD0D94A3100C946ED3E0
:107550000C9406CE0D94961D0C9465EA0C9424FBB5
:107560000C9473CF0D9481510D94ED0B0C944DE25E
:107570000C949CCE0D94F72C0C9402CE0C9431D329
:107580000D9470740D94C21F0C9424E00C947ACF67
:107590000D94C2290C94F4CD0D94632A6E616E0093
:1075A000696E660000407A10F35A00A0724E180906
:1075B0000010A5D4E80000E87648170000E40B545A
:1075C000020000CA9A3B000000E1F5050000809629
:1075D0009800000040420F000000A086010000005B
:1075E000102700000000E803000000006400000015
:1075F00000000A00000000000100000000002C76DE
:10760000D888DC674F0823DFC1DFAE59E1B1B796F8
:10761000E5E3E453C63AE651997696E8E6C2842655
:10762000EB898C9B62ED407C6FFCEFBC9C9F40F231
:10763000BAA56FA5F490055A2AF75C936B6CF967AD
:107640006DC11BFCE0E40D47FEF520E6B500D0ED72
:10765000902E0300943577050080841E08000020DA
:107660004E0A000000C80C333333330F986E128378
:107670001141EF8D2114893BE65516CFFEE6DB184C
:10768000D1844B381BF77C1D901DA4BBE424203211
:1076900084725E228100C9F124ECA1E53D2722001D
:1076A000002045535000204E535000204F464600C6
:1076B000204F4E005056303100205B4D505D200071
:1076C000256920686F757273202569206D696E7554
:1076D0007465730052582074696D656F7574004D40
:1076E000333130004D313132004D3131300046758B
:1076F0006C6C205258204275666665720053657442
:1077000074696E67732053746F72656400544D3AE8
:107710002073746F7265642063616C696272617456
:10772000696F6E20696E76616C69642C2072657376
:10773000657474696E670053746F72656420736555
:107740007474696E677320726574726965766564B6
:107750000048617264636F646564204465666175A6
:107760006C742053657474696E6773204C6F616428
:10777000656400563200000000C8420000C84200A4
:1077800000C84300008C4300004843000048430009
:107790000040410000F042E8030000E8030000C898
:1077A0000000008813000000409C4400409C4400FE
:1077B00000000000000000204E00000000204100FA
:1077C000002041CDCCCC3E000090400000000000E5
:1077D00000000000000000CDCCCC3E0000C8419C61
:1077E00053493F80F946438F42FC42E65A343F4CAE
:1077F00062B045000000000040400000344200003C
:1078000000000000000000000041000000E03F0018
:1078100000C8420000C842000040410000F042C0E1
:10782000030000C0030000C800000088130000101F
:1078300010102000409C440000803F0000003F19D1
:1078400014000000437573746F6D004E796C6F6E99
:10785000504100536174696E20200054657874753E
:107860007200536D6F6F746800486F74656E6420AA
:1078700066616E207370656564206973206C6F7734
:107880006572207468616E206578706563746564E4
:10789000005072696E742066616E20737065656455
:1078A000206973206C6F776572207468616E206543
:1078B0007870656374656400312E3000312E3500B8
:1078C000554E4B4E4F574E004C413130433A204CB1
:1078D000696E65617220416476616E6365206D6FCB
:1078E00064653A20004C413130433A2041646A7566
:1078F0007374656420452D4A65726B3A20005D38CB
:107900004D6D3E0FA8AF00480069960000DF60256E
:10791000555887680427F2E0005E3403CC1960F301
:107920003C0EF88F00DB08029492003E1C079A87F9
:1079300000E524008528527E06001BE4007E7812B4
:1079400070787061F812788F884178427078706131
:10795000782570787061F850788F88D1F0252707E6
:107960008761F025278F88412C0D27AA50D1BC07AD
:1079700007871161BE788F881141785270787061E5
:10798000F852788F88412012788870632052788866
:1079900070634852788887430311179970641812EE
:1079A00078F870654412F8F8F045184278F8706578
:1079B000182578F87065185278F87065185078F8BE
:1079C00070650C078F872365A20F8F8F11450012FA
:1079D00006227069001207222749002506227069D5
:1079E00000250722274900120622276C026236A2D0
:1079F000706C40456C44704C03622222706C43886A
:107A00008888F04C7812BC88806E7852BC88806E72
:107A100038127888706F78127888874F3842788863
:107A2000706F38257888706F3A0079AC786F3D07B1
:107A30009AAC786F7850788887EF39497888706F7A
:107A40000852BC8880729852F88F98522012787031
:107A5000F07348127863875320527870F07348525D
:107A6000786387531007870F247312786387245332
:107A700060699A988BE22304E4443074104E4443C6
:107A800024747C12888960753C50888870557825EC
:107A9000288960757949088960753C128870707909
:107AA0000C12885222594412F124F07A4452F124E3
:107AB000F07A8C52F0368F5A4420F124F07A00404C
:107AC0001454CDCCCC3D0AD7233C17B7D13877CC52
:107AD0002B329595E6241FB14F0A0000204100008B
:107AE000C84200401C4620BCBE4CCA1B0E5AAEC544
:107AF0009D744E414E494E46627573793A207061CD
:107B00007573656420666F7220696E7075740062AB
:107B10007573793A2070617573656420666F7220A1
:107B20007573657200627573793A2070726F636560
:107B30007373696E670000007F4300805443000048
:107B4000524300000000000080C09A99193E0000D6
:107B50000000000080C09A99193E0000A04000007B
:107B6000A0400000004025336420737465703D25FB
:107B70003264206D73636E743D2534640A00000026
:107B80007F43008058439AD95143FFFFFF20413A79
:107B90000020503A002042403A0020403A00202F76
:107BA000002054303A00202F0020423A00202F00BD
:107BB000543A00255345786365737369766520628E
:107BC0006564206C6576656C696E6720636F7272A0
:107BD000656374696F6E3A202569206D6963726F01
:107BE0006E730A00426564206C6576656C696E6729
:107BF000206661696C65642E20546F6F206D75631B
:107C00006820766172696174696F6E2066726F6D4B
:107C100020656570726F6D206D65736800426564E4
:107C2000206C6576656C696E67206661696C656459
:107C30002E2053656E736F72207472696767657268
:107C4000656420746F6F20736F6F6E002020004D8D
:107C50006561737572656420706F696E74733A0044
:107C60005A20736561726368206865696768743A51
:107C700020352E3066004E756D20582C593A20372D
:107C80002C37004D65736820626564206C657665ED
:107C90006C696E67206E6F74206163746976652EFF
:107CA0000020453A00205A3A0020593A0020453A2F
:107CB00000205A3A0020593A00583A00202D3E2020
:107CC0000053706F6F6C4A6F696E3A20002C200071
:107CD000496E616374697669747920536875746458
:107CE0006F776E004B494C4C45442E005072696EC4
:107CF0007465722068616C7465642E206B696C6CAD
:107D000028292063616C6C656421005A206C6976B7
:107D1000652061646A757374206F7574206F6620C6
:107D200072616E67652E2053657474696E67207486
:107D30006F20302E20436C69636B20746F20636F5B
:107D40006E74696E75652E005A206C6976652061C7
:107D5000646A757374206F7574206F662072616E2B
:107D600067652E2053657474696E6720746F2030C8
:107D70000020453A3020423A00543A004731205A18
:107D8000252D2E33662046252D2E336600496E762E
:107D9000616C6964205420636F64652E00447570C3
:107DA0006C696361746520542D636F646520696735
:107DB0006E6F7265642E00416476616E6365204B60
:107DC0003D004B206F7574206F6620616C6C6F777F
:107DD00065642072616E676521004D4B33004D4B29
:107DE000334D4D5533005C762C012533642F2533FC
:107DF000640025336400200A200A200A200025534D
:107E0000537461746973746963733A0A255320204B
:107E10004D37382053256C752054256C750A002584
:107E2000534172632053657474696E67733A2050CE
:107E30003A4D6178206C656E677468286D6D2920F5
:107E4000533A4D696E206C656E67746820286D6DBD
:107E500029204E3A436F7272656374696F6E7320A6
:107E6000523A4D696E207365676D656E7473204676
:107E70003A5365676D656E74732F7365632E0A25BB
:107E80005320204D3231342050252E326620532588
:107E90002E3266204E256420522564204625640A31
:107EA00000255346696C616D656E7420736574744A
:107EB000696E67733A2044697361626C65640A0095
:107EC000255346696C616D656E74207365747469C1
:107ED0006E67733A0A25532020204D3230302044FB
:107EE000252E32660A002553526574726163743A16
:107EF00020533D4C656E67746820286D6D292046BF
:107F00003A537065656420286D6D2F6D29205A3AAB
:107F1000205A4C69667420286D6D290A255320204B
:107F2000204D3230372053252E32662046252E3202
:107F300066205A252E32660A25535265636F766590
:107F4000723A20533D4578747261206C656E677497
:107F50006820286D6D2920463A5370656564202895
:107F60006D6D2F6D290A25532020204D3230382089
:107F700053252E32662046252E32660A255341753A
:107F8000746F2D526574726163743A20533D3020D2
:107F9000746F2064697361626C652C203120746F8A
:107FA00020696E746572707265742065787472757C
:107FB00064652D6F6E6C79206D6F766573206173CB
:107FC000207265747261637473206F7220726563CE
:107FD0006F7665726965730A25532020204D323013
:107FE00039205325640A00255350494420686561AF
:107FF000746265642073657474696E67733A0A25E8
:10800000532020204D3330342050252E3266204915
:10801000252E32662044252E32660A00255350490B
:10802000442073657474696E67733A0A255320207F
:10803000204D3330312050252E32662049252E32F6
:10804000662044252E32660A0025535374657073EA
:108050002070657220756E69743A0A255320204D90
:1080600039322058252E32662059252E3266205A64
:10807000252E32662045252E32660A255355537427
:108080006570207265736F6C7574696F6E3A200A43
:108090002553204D33353020582564205925642040
:1080A0005A2564204525640A25534D6178696D750C
:1080B0006D20666565647261746573202D206E6F36
:1080C000726D616C20286D6D2F73293A0A2553203B
:1080D000204D3230332058252E32662059252E323D
:1080E00066205A252E32662045252E32660A2553F3
:1080F0004D6178696D756D20666565647261746542
:1081000073202D20737465616C746820286D6D2F49
:1081100073293A0A255320204D3230332058252E1A
:1081200032662059252E3266205A252E3266204589
:10813000252E32660A25534D6178696D756D206173
:108140006363656C65726174696F6E202D206E6F5C
:10815000726D616C20286D6D2F7332293A0A255398
:1081600020204D3230312058256C752059256C75F2
:10817000205A256C752045256C750A25534D61786C
:10818000696D756D20616363656C65726174696F9B
:108190006E202D20737465616C746820286D6D2FBE
:1081A0007332293A0A255320204D32303120582588
:1081B0006C752059256C75205A256C752045256CE9
:1081C000750A2553416363656C65726174696F6EEE
:1081D0003A20503D7072696E742C20523D72657465
:1081E000726163742C20543D74726176656C0A254B
:1081F0005320204D3230342050252E326620522517
:108200002E32662054252E32660A2553416476614B
:108210006E636564207661726961626C65733A2091
:10822000533D4D696E2066656564726174652028F2
:108230006D6D2F73292C20543D4D696E2074726131
:1082400076656C20666565647261746520286D6D65
:108250002F73292C20423D6D696E696D756D2073F9
:1082600065676D656E742074696D65202875732966
:108270002C20583D6D6178696D756D205859206AC4
:1082800065726B20286D6D2F73292C20205A3D6D4F
:108290006178696D756D205A206A65726B20286D52
:1082A0006D2F73292C2020453D6D6178696D756DAA
:1082B0002045206A65726B20286D6D2F73290A2571
:1082C0005320204D3230352053252E326620542540
:1082D0002E32662042256C752058252E3266205994
:1082E000252E3266205A252E32662045252E3266EE
:1082F0000A2553486F6D65206F6666736574202884
:108300006D6D293A0A255320204D323036205825EC
:108310002E32662059252E3266205A252E32660AC4
:1083200000544D3A20525B25755D20657374696D6C
:108330006174652E00544D3A202553205220256447
:108340004300544D3A2025532043206573742E007A
:10835000544D3A20636F6F6C20646F776E203C251C
:10836000644300726566696E6500696E697469616F
:108370006C00544D3A2063616C6962722E20666114
:10838000696C65642100544D3A2063616C696272C6
:108390006174696F6E20737461727400544D3A2079
:1083A00043616C2E204E4F542049444C450043619C
:1083B000703A25533A25630A0050525553415F4D98
:1083C0004D553200455854454E4445445F4D32307A
:1083D000004155544F5245504F52545F504F5349EE
:1083E00054494F4E004155544F5245504F52545FDF
:1083F00046414E53004155544F5245504F52545FE1
:1084000054454D500000332E31342E310044656CFC
:108410006574696F6E206661696C65642C204669BD
:108420006C653A200046696C652064656C6574650E
:10843000643A004E6F74205344207072696E746900
:108440006E67005072696E742073617665640053C4
:1084500044207072696E74207061757365640025C4
:1084600033642F253364004F4B0042414400524196
:108470004D426F2046414E200043524153485F43D6
:10848000414E43454C0043524153485F5245434F90
:108490005645520043524153485F5245434F56455B
:1084A0005200222832290025533A2025530A002C55
:1084B000204D39303720452069676E6F7265640042
:1084C0006E6F2076616C696420636F6D6D616E64A0
:1084D000007A65726F72697A656400666163746FB1
:1084E000727920726573746F72656400696E646579
:1084F000782C2074656D702C2075737465702C2039
:10850000756D0050494E44412063616C2073746165
:108510007475733A2000503A005761697420666F91
:10852000722050494E444120746172676574207412
:10853000656D70657261747572653A002041002046
:108540005000204200204C00205200205A00204EB3
:108550004F5420494E495449414C495A45440053CF
:10856000686565742000205A2056414C5545204FBF
:108570005554204F462052414E474500496E766182
:108580006C69642073686565742049442E20416CD1
:108590006C6F7765643A20302E2E004155544F00A1
:1085A0004C414E472053454C20464F5243454400D2
:1085B0004D323536204225642044256420532564FD
:1085C000205425750A0020643A0020693A00207082
:1085D0003A0020643A0020693A0020703A00256988
:1085E00025250A00256925250A0022283129002F82
:1085F0002F00002045585452554445525F434F5573
:108600004E543A3100204D414348494E455F54593C
:1086100050453A00312E3000206261736564206F4E
:108620006E204D61726C696E204649524D57415221
:10863000455F55524C3A68747470733A2F2F6769CE
:10864000746875622E636F6D2F7072757361336419
:108650002F50727573612D4669726D776172652056
:1086600050524F544F434F4C5F56455253494F4E13
:108670003A00663365306466643438005F0038322F
:108680003834002B004649524D574152455F4E4108
:108690004D453A50727573612D4669726D776172FE
:1086A0006520004D3131332053006F6B20006E2F59
:1086B00061003F546F736869626120466C61736842
:1086C000416972204765744950206661696C656430
:1086D0000A00000125311D0C4024301C0B45232FBE
:1086E0001B0A17FF0406222B1A0336373538256973
:1086F000206D696E2C2025692073656300496E76B4
:10870000616C6964204D20636F64653A2025730AAB
:108710000050494E44412070726F62652063616C65
:108720006962726174696F6E207374617274004E55
:108730006F2050494E444120746865726D697374AE
:108740006F7200736574006E6F7A7A6C65004D42CB
:108750004C004652004C7A004C616E6700315F3726
:10876000356D6D5F4D4B332D45494E53795F31303B
:10877000612D4533445245564F0052657600332EE5
:1087800031342E312D383238340046697200534E60
:1087900020696E76616C696400534E005245534502
:1087A00054004D4D555245530075766C6F0046414F
:1087B0004E0046414E50494E54535400505255536A
:1087C00041005345545F43484F505F005345545F49
:1087D000535445505F005345545F574156455F0021
:1087E000544D435F0043524153485F43414E43451C
:1087F0004C0043524153485F5245434F5645520047
:1088000043524153485F4445544543544544004313
:10881000524153485F004D31303453300047315896
:1088200031305931383046343030300047315A31E8
:10883000304631333030004D313430533000473121
:10884000452D302E3037354632313030004D323004
:108850003453313030300047315A354637323030BA
:10886000004731452D312E35463231303000473109
:108870005A302E32004731583230322E3545384684
:1088800031343030004731592D32463130303000EC
:108890004731583234304532354632323030004775
:1088A000315A302E3346313030300047315835356B
:1088B0004538463230303000473158354532394638
:1088C000313830300047315835354532394631304E
:1088D000373300473932453000473238004D3130A8
:1088E00039004D31393000473830004D3435004DB6
:1088F0003435205A00473736004D3730312050305C
:108900000057697A6172642073746174653A202536
:10891000640A004D393134004D39313500457870E5
:108920006572696D656E74616C00302E3830003090
:108930002E363000302E343000302E323500526565
:10894000736574204D4D55004D4D55004D34340028
:10895000302E383000302E363000302E343000309B
:108960002E323500473238205859004D2038340017
:10897000852E2E00593A202575202D3E202E2E2E94
:1089800000583A202575202D3E202E2E2E0025330E
:10899000642F30002533642F30002563204158496F
:1089A00053205347313D25640A00486F74656E6457
:1089B00000426564005A00590058002D2D2D2D2DC0
:1089C0002D2D2D2D2D2D2D2D2D2D2D2D2D2D2D0004
:1089D000435A5058496E76616C6964536572696197
:1089E0006C4E72009B699F693E8837882C881D8871
:1089F000376B1688A26A473159252E346645252ED5
:108A000034660047315A252E3266004731583530DA
:108A10005931353500D3889B693C6B618857884D47
:108A200088473158252E346645252E346600473157
:108A3000463130383000C588B888AB889F88D388E5
:108A40009088858875886E885425640047315A302F
:108A50002E34004731592D334631303030009F6974
:108A6000E288DD88D988D3884D38342058590047AA
:108A7000312058313235205A3230302046313030B2
:108A800030004D33313020412046310047312058ED
:108A90003132352059313035205A31204638303086
:108AA0003000496E76616C696420504944206361EE
:108AB0006C2E20726573756C74732E204E6F74204B
:108AC00073746F72656420746F20454550524F4D2A
:108AD0002E004D3330312050252E32662049252E70
:108AE00032662044252E3266004D33303320453027
:108AF00020532533750052430044455600424554E7
:108B00004100414C50484100000021002400270052
:108B10002A002D003000330001010000040107018C
:108B20000A0100002200250028002B002E00310041
:108B3000340002010000050108010B0100002000C3
:108B40002300260029002C002F0032000001000025
:108B500003010601090105050505070508080808C0
:108B6000020202020A0A08080404040401010101C5
:108B700001010101030303030303030304070707C0
:108B80000C0C0C0C0C0C0C0C020202020606060665
:108B9000060606060B0B0B0B0B0B0B0B07070A0A43
:108BA0000A0A0A0A0505050404040808010210203F
:108BB0002008081020401020408002010201080413
:108BC00002010102040810204080804020100804A7
:108BD0000201800402018040201008040201080400
:108BE0000201010204081020408001020408102044
:108BF000408010080408801020400440801020406D
:108C0000048000000A0B02090C0D0E080703040182
:108C10000000000000000000000000000000000054
:108C20000000000000000000000000000000121121
:108C30001000000000000000000000000000000024
:108C40000000000000000000000000000000000024
:108C50000000000000000000332E31342E31000AE5
:108C6000204F726967696E616C2050727573612064
:108C700069330A2020205072757361205265736534
:108C8000617263680A2532302E323053004C616EB7
:108C900067756167652075706461746500435A503B
:108CA00058003B530053706F6F6C4A6F696E2069B8
:108CB0007320006164635F696E697400200A200A92
:108CC000200A2000416C6C2044617461005365727D
:108CD00076696365207072657000536869707069A9
:108CE0006E67207072657000537461746973746983
:108CF0006373004C616E677561676500455241534F
:108D0000494E4720616C6C20646174610046616368
:108D1000746F727920524553455400505255534157
:108D20003344465700494E54340003000E000100FE
:108D30004000030002000000040073686976616D62
:108D40006D6568746132323000323032352D303822
:108D50002D31392030323A35323A35310020332E38
:108D600031342E312D383238345F663365306466E5
:108D700064343800737461727400534E20757064EB
:108D8000617465206661696C656400534E2075707E
:108D9000646174656400435A50580043524153481B
:108DA0005F44455445435445445859004352415348
:108DB000485F444554454354454459004352415348
:108DC000485F444554454354454458004D323900AA
:108DD000252D392E39535B00544D20657374696D10
:108DE0006174696F6E20646964206E6F7420636FB4
:108DF0006E766572676500544D20697465723A2518
:108E00007520763A252E326620653A252E33660A7D
:108E100000200A200A200000004842000058419A21
:108E2000998D41333353404D4D55323A004D494EA3
:108E300054454D5020424544206669786564004D94
:108E4000494E54454D5020484F54454E4420666984
:108E5000786564007265636F7665725F6D616368E3
:108E6000696E655F73746174655F61667465725F76
:108E7000706F7765725F70616E69632C20696E69CF
:108E80007469616C200050525553412075766C6FA7
:108E9000004734205330004D313130204E256C7561
:108EA000004D32362053256C75004D31303620533D
:108EB000257500473120462564004D38320047397A
:108EC000322045252D2E3366004D3230342050257A
:108ED0002D2E31662052252D2E31662054252D2E23
:108EE0003166004731205A252D2E336600505255E9
:108EF0005341204D424C2056310047312058252DFA
:108F00002E33662059252D2E3366204633303030DF
:108F1000002C20666565646D756C7469706C793AB7
:108F20000046656564726174653A004731204535D5
:108F30002046313230004D31303920532564004D08
:108F400031343020532564004D31303420532564B2
:108F50000047323820582059004731205A252E33F7
:108F600066204638303000000021104220633084F3
:108F700040A550C660E770088129914AA16BB18C69
:108F8000C1ADD1CEE1EFF13112100273325222B5F0
