:100000000C945A340C948B340C948B340C948B34A5
:100010000C948B340C948B340C948B340C948B3464
:100020000C948B340C948B340C948B340C948B3454
:100030000C9407690C948B340D942D040D9471016C
:100040000C948B340D94EF0B0C948B340C948B34F8
:100050000C948B340C948B340C948B340C94E258A9
:100060000C948B340C94EE460C948B340C948B349F
:100070000C948B340C94EE9D0C948B340C948B3438
:100080000D947B060C948B340C948B340C948B3431
:100090000C94AA460C948B340C948B340C948B34B3
:1000A0000C948B340C948B340C9466FD0C948B3430
:1000B0000C948B340C9448FD0C948B340C948B343E
:1000C0000C948B340C948B340C948B340C9408FD6E
:1000D0000C948B340C948B340C948B340C948B34A4
:1000E0000C948B34084AD73B3BCE016E84BCBFFDD9
:1000F000C12F3D6C74319ABD56833DDA3D00C77FF8
:1001000011BED9E4BB4C3E916BAAAABE0000008090
:100110003F05A84CCDB2D44EB93836A9020C50B91F
:10012000918688083CA6AAAA2ABE000000803F0744
:10013000634236B79BD8A71A39685618AEBAAB5582
:100140008C1D3CB7CC5763BD6DEDFD753EF6177247
:1001500031BF000000803F08000000BE9224491219
:100160003EABAAAA2ABECDCCCC4C3E00000080BE3D
:10017000ABAAAAAA3E00000000BF000000803F001A
:1001800000000000084178D3BB4387D1133D190E0E
:100190003CC3BD4282AD2B3E68EC8276BED98FE176
:1001A000A93E4C80EFFFBE01C4FF7F3F000000006E
:1001B00000000C94D6AF0C94C2D50C9456F70D9455
:1001C000E9160C94D7B70C94CFC20C94CE9F0C9424
:1001D000AAA10C9498AB0C9477EA0C941E9F0C94F3
:1001E000C7A40C94F29E0C9461A50D9499170C94DD
:1001F00062FC0C946AF30C94D1EA0C94E0A50C9484
:10020000B4A30D94CA170D9433170D9418180C94B9
:1002100081A10C94EEA10D9454760C94D5A60C9467
:10022000E8AF0C94A3AF0C9453590C94ACF30C941A
:10023000EAF20D94263D0C94E39E0C9446A10D9495
:1002400028180C947DA50C943DB00D94D0170D94F6
:10025000F8170C94B2E90C94189F0C94E3AA0C9430
:10026000C89F0D94D0010C9489AB0C940AA30C94F4
:10027000E9B70C9450A10C944EBB0C9423F30D944D
:1002800030170C941FB00D9469170C94DD9E0C94DC
:100290006BF70C944A590C94B0AF0C94A0A10D9438
:1002A0009F000C94B9A40C94CFB40C9412BC0C9481
:1002B000F89E0C9460AB0C948CA10C9409EA0C94FD
:1002C000069F0C94269F0C94B7A60C94EB9E0C945E
:1002D00044A10C946CAB0D9400180C94A9AA0D9435
:1002E000514C0C94E0AA0C94899E0D94E1000C945E
:1002F00036580C9439F70C9488590C9429B00C9406
:100300007EAB0C9426590D947A700C94B4A10D9484
:10031000F0170C940BB00C9429B60C94DAB70C942B
:1003200016DD0D945C000C94DEAF0C9474AA0C9452
:10033000E2A10D9480760C94C3A40D94D8170D946B
:10034000FB6F0C947CF10C94ABAF0C94229F0C943B
:100350009AAB0C940FDC0D9470760C9473EA0D94A8
:10036000C73E0C94EEA90D94E0170C9474E70D941D
:1003700026170D9493170C9425DD0C94FEDC0C9439
:10038000AFA40C9435F20D94D2000C943FD90C9488
:10039000A5A20C9477F10C94E9AA0D9429170C945A
:1003A0009AF50C94A1B70D9408180D9473760C94DB
:1003B0001DE90C9404FB0C94A9FB0D94E9230C9407
:1003C00076590C9415B00C947EAA0D9414700C946C
:1003D000E7BB0C94C4AF0D9449000C945AF70C94ED
:1003E000C8EB0C949DAB0C94BEA40C946FA50C941C
:1003F00062C20C940A9F0C9497F50D9476700C943D
:10040000CEB70C9434590C94FC9E0C94A5A40D9476
:1004100020180C9421E90C94BAAF0C9473A20C949C
:10042000BAFC0C94FCB20C94F2AA0D94BE3E0C944F
:10043000CCEC0C9481A80C94DDAA0C942AF40C94B6
:10044000A0A40C941B590C9403A20C94AAA40C9481
:100450001AA20C944DDD0D9455080C94E6AA0D9447
:1004600056700C947AE70C94B3F20C94B7FD0C948C
:1004700096A10C9446F20C942BDD0C941AB50C94B6
:1004800063DD0C945AF50C94CEAF0C9476A50C94C5
:1004900072AB0C941F580C9473DD0C9460BB0C94DD
:1004A00078C20C947BB50C9433B00C94B4A40C9427
:1004B0001D9F0C9466AB0D94CD170C94FCAF0D945E
:1004C00001170C94EEFE0C94FBA40C949ADC0D9492
:1004D00077760C9460F50D94B53E0D94C7170C9487
:1004E000B0E80C94EE5C0D9473700C9468A50C94B9
:1004F000DAAA0C945B470C94D95A0D94FA000C9428
:10050000029F0C94B4EC0C94E79E0C942FDD0C9499
:10051000149F0C9450BF0C942A9F0C94EAA30C9443
:1005200076A70C948FA20D9485760C94B3B70C9497
:10053000F2AF0C9429F20C9466A10C94F8A10D94DE
:100540000E760C9452F20C9498B70C94C4DC0C9474
:10055000DDB70C9434BB0C946AEC0C9483F20C94CD
:10056000BADC0C94109F0C94E0B70C94EF9E0D94A1
:10057000E8170D9496170C942ED90C9475A10D9430
:1005800010180C9401590C94CCDC0C945AA10C94C6
:10059000F9A50C9498A36E616E00696E6600004028
:1005A0007A10F35A00A0724E18090010A5D4E80082
:1005B00000E87648170000E40B54020000CA9A3B9A
:1005C000000000E1F5050000809698000000404220
:1005D0000F000000A08601000000102700000000AE
:1005E000E803000000006400000000000A000000B2
:1005F00000000100000000002C76D888DC674F085E
:1006000023DFC1DFAE59E1B1B796E5E3E453C63A63
:10061000E651997696E8E6C28426EB898C9B62EDDA
:10062000407C6FFCEFBC9C9F40F2BAA56FA5F49094
:10063000055A2AF75C936B6CF9676DC11BFCE0E40B
:100640000D47FEF520E6B500D0ED902E0300943561
:1006500077050080841E080000204E0A000000C8B4
:100660000C333333330F986E12831141EF8D211405
:10067000893BE65516CFFEE6DB18D1844B381BF7D5
:100680007C1D901DA4BBE424203284725E22810074
:10069000C9F124ECA1E53D272200656E71756569FD
:1006A0006E67202200446F6E65207072696E7469F7
:1006B0006E672066696C65004E6F204C696E652020
:1006C0004E756D6265722077697468206368656332
:1006D0006B73756D2C204C617374204C696E653A98
:1006E00020004E6F20436865636B73756D207769DA
:1006F0007468206C696E65206E756D6265722C2061
:100700004C617374204C696E653A200063686563C0
:100710006B73756D206D69736D617463682C204C0B
:10072000617374204C696E653A20004C696E6520D7
:100730004E756D626572206973206E6F74204C6116
:100740007374204C696E65204E756D6265722B3135
:100750002C204C617374204C696E653A200025751D
:10076000206279746573207772697474656E207481
:100770006F20255320617420616464726573732057
:100780003078253038780A00442564202D205265C1
:1007900061642F57726974652025530A0020436FE6
:1007A000756E7420583A200045303A256420525026
:1007B0004D2050524E313A25642052504D20453044
:1007C000403A25752050524E31403A25750A005264
:1007D0006573656E640025533A20256C640A2553C1
:1007E0000A002F2F616374696F6E3A6E6F746966C9
:1007F00069636174696F6E2025530A0046696C61F4
:100800006D656E742072756E6F75742064657465A5
:1008100063746564210064697361626C656400657A
:100820006E61626C656400454550524F4D005352F5
:10083000414D00442D31202D20456E646C6573734D
:10084000206C6F6F700A004163746976652045788B
:100850007472756465723A203000496E76616C6915
:1008600064206578747275646572004D3232302090
:10087000532564005344207072696E74696E67205A
:10088000627974652000257500556E6B6E6F776E0A
:1008900020636F6D6D616E643A2022004D323030FE
:1008A00020496E76616C6964206578747275646540
:1008B0007220007A5F6D61783A20007A5F6D696E10
:1008C0003A2000795F6D696E3A20005452494747DB
:1008D00045524544006F70656E00785F6D696E3AF1
:1008E00020005265706F7274696E6720656E647364
:1008F000746F7020737461747573004D31313220E0
:1009000063616C6C65642E20456D657267656E630E
:10091000792053746F702E002F2F616374696F6E8E
:100920003A75766C6F5F7265636F766572795F7228
:10093000656164790025533A256C7520636D0A253D
:10094000533A256C75206D696E0A0053494C454E2B
:1009500054004E4F524D414C002553204D4F4445BD
:100960003A2050657263656E7420646F6E653A203C
:10097000256868643B207072696E742074696D65C7
:100980002072656D61696E696E6720696E206D69A0
:100990006E733A2025643B204368616E6765206969
:1009A0006E206D696E733A2025640A005072696E7C
:1009B00074657253746174653A2025640A00456E4B
:1009C000642066696C65206C6973740042656769B0
:1009D0006E2066696C65206C69737400556E6B6E71
:1009E0006F776E20256320636F64653A2025730A54
:1009F000000A50494E44412074656D7065726174FF
:100A00007572653A20252E3166205A207368696612
:100A10007420286D6D293A20252E3366000A537400
:100A200065703A2025642F360A000A537465703ABF
:100A30002025642F362028736B6970706564290A3D
:100A400050494E44412074656D70657261747572D1
:100A5000653A202564205A20736869667420286DE1
:100A60006D293A300A000A5A45524F3A20252E3352
:100A7000660A0073746172742074656D70657261CA
:100A8000747572653A20252E31660A00256420208F
:100A9000252E326600255320583A20252E35662013
:100AA000593A20252E3566205A3A20252E35660AD9
:100AB00000536C6565702E2E2E0045303A2564205B
:100AC00052504D0A50524E303A25642052504D0A31
:100AD00000312F3900002045535000204E53500064
:100AE000204F464600204F4E005056303100205BCC
:100AF0004D505D2000256920686F7572732025694F
:100B0000206D696E757465730052582074696D6547
:100B10006F7574004D333130004D313132004D313D
:100B200031300046756C6C205258204275666665FF
:100B3000720053657474696E67732053746F7265C5
:100B4000640053746F7265642073657474696E67B2
:100B500073207265747269657665640048617264B9
:100B6000636F6465642044656661756C74205365C9
:100B70007474696E6773204C6F61646564005632EB
:100B800000000000C8420000C8420000C843000046
:100B90000543000048430000484300004041000076
:100BA000F042E8030000E8030000C80000008813DA
:100BB000000000409C4400409C44000000000000F5
:100BC0000000204E00000000204100002041CDCC5C
:100BD000CC3E00009040000000000000000000003B
:100BE0000000CDCCCC3E3D0A8141FF08433EB09988
:100BF000AB438F42FC42E65A343F4C62B0450000A2
:100C000000000040400000344200000000000000EE
:100C10000000000041000000E03F00002C43000005
:100C20002C43000040410000F042C0030000C0031C
:100C30000000C800000088130000101010100040D1
:100C40009C440000803F0000003F19140000002079
:100C5000307800203078006572726F723A2000445C
:100C60003233202D20656D657267656E6379207360
:100C7000657269616C2064756D7000437573746F83
:100C80006D004E796C6F6E504100536174696E2037
:100C9000200054657874757200536D6F6F7468002E
:100CA000312E3000312E3500554E4B4E4F574E00F1
:100CB0004C413130433A204C696E65617220416489
:100CC00076616E6365206D6F64653A20004C41313A
:100CD00030433A2041646A757374656420452D4A37
:100CE00065726B3A20003E0FA8AF0048006996007D
:100CF00000DF6025555887680427F2E0005E340362
:100D0000CC1960F33C0EF88F00DB08029492003E91
:100D10001C079A8700E524008528527E06001BE404
:100D2000007E781270787061F812788F884178426E
:100D300070787061782570787061F850788F88D1FC
:100D4000F02527078761F025278F88412C0D27AADA
:100D500050D1BC0707871161BE788F881141785246
:100D600070787061F852788F8841201278887063AB
:100D70002052788870634852788887430311179906
:100D80007064181278F870654412F8F8F04518424B
:100D900078F87065182578F87065185278F87065DD
:100DA000185078F870650C078F872365A20F8F8F16
:100DB00011450012062270690012072227490025FA
:100DC0000622706900250722274900120622276C97
:100DD000026236A2706C40456C44704C0362222261
:100DE000706C43888888F04C7812BC88806E78528A
:100DF000BC88806E38127888706F78127888874F38
:100E000038427888706F38257888706F3A0079ACEE
:100E1000786F3D079AAC786F7850788887EF3949BA
:100E20007888706F0852BC8880729852F88F9852F8
:100E300020127870F07348127863875320527870CC
:100E4000F0734852786387531007870F2473127822
:100E50006387245360699A988BE22304E4443074D6
:100E6000104E444324747C12888960753C508888F5
:100E700070557825288960757949088960753C1214
:100E8000887070790C12885222594412F124F07A39
:100E90004452F124F07A8C52F0368F5A4420F124D7
:100EA000F07A00401454CDCCCC3D0AD7233C17B780
:100EB000D13877CC2B329595E6241FB14F0A00002C
:100EC00020410000C84200401C4620BCBE4CCA1B4A
:100ED0000E5AAEC59D744E414E494E4600007A43AF
:100EE000000052430000524300000000000080C098
:100EF0009A99193E00000000000080C09A99193E9E
:100F000020503A002042403A0020403A00202F0072
:100F10002054303A00202F0020423A00202F005465
:100F20003A00255345786365737369766520626579
:100F300064206C6576656C696E6720636F7272659C
:100F40006374696F6E3A202569206D6963726F6EF4
:100F5000730A00536F6D652070726F626C656D204F
:100F6000656E636F756E74657265642C205A2D6CA6
:100F70006576656C696E6720656E666F7263656421
:100F8000202E2E2E004D65736820626564206C65EE
:100F900076656C696E67206661696C65642E2050A9
:100FA00072696E742063616E63656C65642E0048BF
:100FB000656174696E672064697361626C65642041
:100FC0006279207361666574792074696D65722E2B
:100FD00000472D636F646520736C696365642066E8
:100FE0006F72206120646966666572656E74206C3C
:100FF0006576656C2E20506C656173652072652D79
:10100000736C69636520746865206D6F64656C201E
:10101000616761696E2E00472D636F646520736C94
:101020006963656420666F72206120646966666525
:1010300072656E74206C6576656C2E00472D636F4B
:10104000646520736C6963656420666F722061203B
:101050006E65776572206669726D776172652E20A4
:10106000506C656173652075706461746520746887
:1010700065206669726D776172652E00472D636F1A
:10108000646520736C6963656420666F72206120FB
:101090006E65776572206669726D776172652E0084
:1010A000472D636F646520736C6963656420666FA8
:1010B00072206120646966666572656E7420707264
:1010C000696E74657220747970652E20506C65614C
:1010D00073652072652D736C696365207468652083
:1010E0006D6F64656C20616761696E2E00472D63CA
:1010F0006F646520736C6963656420666F7220613C
:1011000020646966666572656E74207072696E74BB
:10111000657220747970652E005072657373207447
:101120006865206B6E6F6220746F207072656865F1
:101130006174206E6F7A7A6C6520616E6420636FD3
:101140006E74696E75652E00506C656173652070F4
:101150007265737320746865206B6E6F6220746FA4
:1011600020756E6C6F61642066696C616D656E746C
:1011700000616E6420707265737320746865206B03
:101180006E6F6200496E736572742066696C616D82
:10119000656E7400436F6C6F72206E6F7420636FA6
:1011A00072726563740046696C616D656E74206E61
:1011B0006F74206C6F61646564004368616E67657D
:1011C0006420636F72726563746C79004C6F616444
:1011D000696E6720636F6C6F72004368616E67654C
:1011E00020737563636573732100506C656173656B
:1011F000206F70656E2069646C657220616E64207A
:1012000072656D6F76652066696C616D656E7420C0
:101210006D616E75616C6C792E0057617320666923
:101220006C616D656E7420756E6C6F616420737592
:10123000636365737366756C3F00506C65617365BD
:1012400020757067726164652E004E65772066694F
:10125000726D776172652076657273696F6E206159
:101260007661696C61626C653A0057616974696E98
:101270006720666F722050494E44412070726F6241
:101280006520636F6F6C696E6700506C6561736594
:101290002077616974004E6F206D6F76652E005760
:1012A00061697420666F7220757365722E2E2E0030
:1012B000537461626C6520616D6269656E7420743F
:1012C000656D70657261747572652032312D3236CC
:1012D00043206973206E65656465642061207269CE
:1012E000676964207374616E64206973207265712C
:1012F00075697265642E00506C6561736520727546
:101300006E2058595A2063616C6962726174696F0A
:101310006E2066697273742E00426564206C657677
:10132000656C696E67206661696C65642E20536523
:101330006E736F72206469646E27742074726967BB
:101340006765722E20446562726973206F6E206E2D
:101350006F7A7A6C653F2057616974696E672066A1
:101360006F722072657365742E00426564206C652F
:1013700076656C696E67206661696C65642E2054C1
:101380006F6F206D75636820766172696174696F33
:101390006E2066726F6D20656570726F6D206D6571
:1013A000736800426564206C6576656C696E6720C1
:1013B0006661696C65642E2053656E736F7220746C
:1013C000726967676572656420746F6F20736F6FF1
:1013D0006E002020004D6561737572656420706F2A
:1013E000696E74733A005A2073656172636820688D
:1013F00065696768743A20352E3066004E756D2039
:10140000582C593A20372C37004D65736820626597
:1014100064206C6576656C696E67206E6F74206100
:1014200063746976652E0020453A00205A3A002000
:10143000593A0020453A00205A3A0020593A0058BB
:101440003A00202D3E200053706F6F6C4A6F696E1A
:101450003A20002C2000496E6163746976697479C2
:101460002053687574646F776E004B494C4C45444B
:101470002E005072696E7465722068616C746564C8
:101480002E206B696C6C28292063616C6C6564216B
:10149000005A206C6976652061646A757374206FE8
:1014A0007574206F662072616E67652E20536574B7
:1014B00074696E6720746F20302E20436C69636BF3
:1014C00020746F20636F6E74696E75652E005A20EC
:1014D0006C6976652061646A757374206F75742019
:1014E0006F662072616E67652E2053657474696E35
:1014F0006720746F20300020453A3020423A005473
:101500003A00627573793A2070617573656420667C
:101510006F7220696E70757400627573793A20700D
:10152000617573656420666F722075736572006201
:101530007573793A2070726F63657373696E6700B3
:1015400073657269616C2064756D702000496E76F8
:10155000616C6964205420636F64652E004475706B
:101560006C696361746520542D636F6465206967DD
:101570006E6F7265642E00416476616E6365204B08
:101580003D004B206F7574206F6620616C6C6F7727
:1015900065642072616E676521004D4B322E3553B4
:1015A000004D4B322E35534D4D553253001C4FFCE0
:1015B000002533642F2533640025336400200A207E
:1015C0000A200A2000255353746174697374696397
:1015D000733A0A255320204D37382053256C752047
:1015E00054256C750A002553417263205365747449
:1015F000696E67733A20503A4D6178206C656E676A
:101600007468286D6D2920533A4D696E206C656EA3
:1016100067746820286D6D29204E3A436F72726599
:101620006374696F6E7320523A4D696E20736567FB
:101630006D656E747320463A5365676D656E74739D
:101640002F7365632E0A255320204D3231342050EC
:10165000252E32662053252E3266204E25642052D8
:101660002564204625640A00255346696C616D6532
:101670006E742073657474696E67733A204469737D
:1016800061626C65640A00255346696C616D656E24
:10169000742073657474696E67733A0A2553202049
:1016A000204D3230302044252E32660A0025535218
:1016B0006574726163743A20533D4C656E6774685B
:1016C00020286D6D2920463A537065656420286D89
:1016D0006D2F6D29205A3A205A4C69667420286D66
:1016E0006D290A25532020204D3230372053252ED6
:1016F00032662046252E3266205A252E32660A256D
:10170000535265636F7665723A20533D4578747223
:1017100061206C656E67746820286D6D2920463ADB
:10172000537065656420286D6D2F6D290A2553203F
:1017300020204D3230382053252E32662046252E6B
:1017400032660A25534175746F2D52657472616358
:10175000743A20533D3020746F2064697361626C69
:10176000652C203120746F20696E7465727072650B
:101770007420657874727564652D6F6E6C79206D58
:101780006F76657320617320726574726163747320
:10179000206F72207265636F7665726965730A25C2
:1017A000532020204D323039205325640A00255320
:1017B000504944206865617462656420736574747F
:1017C000696E67733A0A25532020204D3330342048
:1017D00050252E32662049252E32662044252E3291
:1017E000660A0025535049442073657474696E6716
:1017F000733A0A25532020204D3330312050252EB6
:1018000032662049252E32662044252E32660A0093
:10181000255353746570732070657220756E6974FA
:101820003A0A255320204D39322058252E32662081
:1018300059252E3266205A252E32662045252E3215
:10184000660A25534D6178696D756D20666565641E
:10185000726174657320286D6D2F73293A0A2553C0
:1018600020204D3230332058252E32662059252E27
:101870003266205A252E32662045252E32660A25EC
:10188000534D6178696D756D20616363656C657238
:101890006174696F6E20286D6D2F7332293A0A25A5
:1018A0005320204D3230312058256C752059256C3D
:1018B00075205A256C752045256C750A25534163A2
:1018C00063656C65726174696F6E3A20503D707229
:1018D000696E742C20523D726574726163742C20A1
:1018E000543D74726176656C0A255320204D323068
:1018F000342050252E32662052252E326620542563
:101900002E32660A2553416476616E6365642076E3
:1019100061726961626C65733A20533D4D696E2056
:10192000666565647261746520286D6D2F73292C5E
:1019300020543D4D696E2074726176656C20666539
:1019400065647261746520286D6D2F73292C2042A7
:101950003D6D696E696D756D207365676D656E743B
:101960002074696D6520287573292C20583D6D61A0
:1019700078696D756D205859206A65726B20286DE5
:101980006D2F73292C20205A3D6D6178696D756D1E
:10199000205A206A65726B20286D6D2F73292C20C8
:1019A00020453D6D6178696D756D2045206A6572D1
:1019B0006B20286D6D2F73290A255320204D32305E
:1019C000352053252E32662054252E32662042259E
:1019D0006C752058252E32662059252E3266205AE5
:1019E000252E32662045252E32660A2553486F6D16
:1019F00065206F666673657420286D6D293A0A2527
:101A00005320204D3230362058252E32662059255D
:101A10002E3266205A252E32660A004361703A251E
:101A2000533A25630A0050525553415F4D4D55328C
:101A300000455854454E4445445F4D3230004155B1
:101A4000544F5245504F52545F504F534954494F91
:101A50004E004155544F5245504F52545F46414EEF
:101A600053004155544F5245504F52545F54454DC9
:101A700050000044656C6574696F6E206661696C26
:101A800065642C2046696C653A200046696C6520C7
:101A900064656C657465643A004E6F74205344202D
:101AA0007072696E74696E67005072696E7420732B
:101AB00061766564005344207072696E74207061B1
:101AC00075736564002533642F25336400667600E2
:101AD0007468780050524E0022283229006E6F2020
:101AE00076616C696420636F6D6D616E64007A6508
:101AF000726F72697A656400666163746F727920CF
:101B0000726573746F72656400696E6465782C2009
:101B100074656D702C2075737465702C20756D0064
:101B200050494E44412063616C2073746174757335
:101B30003A2000503A005761697420666F72205055
:101B4000494E4441207461726765742074656D70FC
:101B5000657261747572653A002041002050002062
:101B60004200204C00205200205A00204E4F5420AA
:101B7000494E495449414C495A45440053686565AA
:101B8000742000205A2056414C5545204F55542072
:101B90004F462052414E474500496E76616C69645C
:101BA0002073686565742049442E20416C6C6F7702
:101BB00065643A20302E2E004155544F004C414E62
:101BC000472053454C20464F524345440020643A39
:101BD0000020693A0020703A0020643A0020693AF7
:101BE0000020703A00256925250A00256925250A67
:101BF0000022283129002F2F00002045585452552B
:101C00004445525F434F554E543A3100204D4143B5
:101C100048494E455F545950453A00312E30002016
:101C20006261736564206F6E204D61726C696E2015
:101C30004649524D574152455F55524C3A6874746B
:101C400070733A2F2F6769746875622E636F6D2FFA
:101C5000707275736133642F50727573612D4669AC
:101C6000726D776172652050524F544F434F4C5FF5
:101C700056455253494F4E3A0066336530646664A8
:101C80003438005F0038323834002B004649524D5A
:101C9000574152455F4E414D453A50727573612D23
:101CA0004669726D7761726520004D313133205382
:101CB000006F6B20006E2F61003F546F7368696284
:101CC0006120466C617368416972204765744950B0
:101CD000206661696C65640A00000125301D0CFFF7
:101CE00024311C0BFF232F1B0A17FF0406222B1A7B
:101CF00003363535382569206D696E2C202569201D
:101D000073656300496E76616C6964204D20636F72
:101D100064653A2025730A0050494E444120707290
:101D20006F62652063616C6962726174696F6E20B5
:101D30007374617274004E6F2050494E4441207498
:101D40006865726D6973746F7200736574006E6F8D
:101D50007A7A6C65004D424C004652004C7A004C39
:101D6000616E6700315F37356D6D5F4D4B323553B6
:101D70002D52414D426F3133612D453344763666E5
:101D8000756C6C0052657600332E31342E312D384F
:101D90003238340046697200534E20696E76616CA9
:101DA000696400534E005245534554004D4D555201
:101DB00045530075766C6F0046414E0046414E50CB
:101DC000494E54535400505255534100252E313042
:101DD00053200025346400457872656D652073706A
:101DE000616E206F6620746865205A2076616C757C
:101DF0006573210025642F39004D31303453300094
:101E0000473158313059313830463430303000475E
:101E1000315A31304631333030004D313430533067
:101E2000004731452D302E303735463231303000C5
:101E30004D32303453313030300047315A35463727
:101E4000323030004731452D312E35463231303079
:101E500000473930004D313037002020300020203D
:101E6000310046494E44410050494E4441005769B3
:101E70007A61726420656E642073746174653A20BF
:101E800025640A0053706F6F6C4A6F696E00466973
:101E9000726D7761726500537570657250494E447A
:101EA000410048426564206F6E206C6F616400469B
:101EB0006C617368416972004572723A484F5445CB
:101EC0004E442046414E204552524F52002F2F6122
:101ED0006374696F6E3A726573756D6564002F2F58
:101EE000616374696F6E3A726573756D65002F2F4B
:101EF000616374696F6E3A7265616479002F2F6156
:101F00006374696F6E3A6E6F745F726561647900B5
:101F10002F2F616374696F6E3A63616E63656C0045
:101F20004D3834004F4B004C43442073746174753A
:101F300073206368616E6765640053442063617257
:101F4000642072656C6561736564002F2F61637432
:101F5000696F6E3A737461727400473931004D379E
:101F60003032004732382057004D35303000426162
:101F70006420696E74657272757074005761746361
:101F800068646F672074696D656F75740053746160
:101F9000746963206D656D6F7279206861730A6280
:101FA00065656E206F7665727772697474656E0010
:101FB0004649524D57415245204352415348210A08
:101FC000437261736820726561736F6E3A0A002014
:101FD00020506C616E6E65724275666665724279FC
:101FE0007465733A20002046726565204D656D6FFB
:101FF00072793A2000207C20417574686F723A2013
:1020000000204C61737420557064617465643A20DB
:102010000020536F66747761726520526573657432
:1020200000205761746368646F672052657365743C
:10203000002042726F776E206F7574205265736551
:1020400074002045787465726E616C20526573650A
:102050007400506F7765725570006572726F7220F0
:1020600077726974696E6720746F2066696C6500A9
:10207000446F6E6520736176696E672066696C6572
:102080002E006F6B0046696C616D656E74004D6566
:1020900061737572656420736B6577733A2025668A
:1020A0002025660A0046697474696E672066616956
:1020B0006C6564203D3E2063616C69627261746985
:1020C0006F6E206661696C65642E0A0043616C69FD
:1020D00062726174696F6E20737563636573732ECA
:1020E0000A00416C6C20342063616C696272617417
:1020F000696F6E20706F696E747320666F756E64A1
:102100002E0A00312F3400312F3400312F3900478F
:10211000315A302E32004731583230322E35453860
:102120004631343030004731592D3246313030306D
:102130000047315832343045323546323230300083
:1021400047315A302E334631303030004731583520
:102150003545384632303030004731583545323910
:1021600046313830300047315835354532394631FF
:1021700030373300473932453000473238004D316F
:102180003039004D313930001000C90210012C01E6
:102190004001220170011801B0010E01F00104019B
:1021A0005002FA00B002F0003003E600D003DC0079
:1021B0009004D2007005C800A006BE000008B4005C
:1021C000B009AA00D00BA000600E960060118C0030
:1021D0000015820020197800C01D6E00A022640046
:1021E000B0275A00902C500000314600E0343C00EB
:1021F00010383200903A2800603C1E00A03D1400C8
:10220000803E0A00203F000058595A2063616C69E3
:1022100062726174696F6E20616C6C2072696768AC
:10222000742E20536B65772077696C6C2062652073
:10223000636F72726563746564206175746F6D613C
:10224000746963616C6C792E0058595A2063616C13
:102250006962726174696F6E20616C6C207269676B
:1022600068742E20582F592061786573206172653B
:1022700020736C696768746C7920736B657765642B
:102280002E20476F6F64206A6F62210058595A20D0
:1022900063616C6962726174696F6E206F6B2E206E
:1022A000582F5920617865732061726520706572BE
:1022B00070656E646963756C61722E20436F6E6722
:1022C000726174756C6174696F6E73210050494E50
:1022D00044412063616C6962726174696F6E20664B
:1022E00061696C65640050494E44412063616C69CA
:1022F00062726174696F6E2069732066696E6973BA
:1023000068656420616E64206163746976652E205F
:1023100049742063616E2062652064697361626C38
:10232000656420696E206D656E75205365747469EF
:102330006E67732D3E50494E44412063616C2E0000
:102340004578747275646572004D6F7665205A0029
:102350004D6F76652059004D6F76652058005368A3
:1023600065657420252E37730A5A206F666673657B
:10237000743A20252B312E33666D6D0A2563436F29
:102380006E74696E75650A256352657365740050D5
:102390006C65617365206C6F61642066696C616D4A
:1023A000656E742066697273742E0052756E6E6964
:1023B0006E672057697A6172642077696C6C20645B
:1023C000656C6574652063757272656E74206361F7
:1023D0006C6962726174696F6E20726573756C747A
:1023E0007320616E642073746172742066726F6D05
:1023F0002074686520626567696E6E696E672E007D
:1024000050726568656174696E67206E6F7A7A6C68
:10241000652E20506C6561736520776169742E00AC
:10242000506C6561736520696E73657274206669AE
:102430006C616D656E7420696E746F2074686520C0
:1024400065787472756465722C207468656E20708E
:102450007265737320746865206B6E6F6220746F91
:10246000206C6F61642069742E00506C6561736527
:1024700020696E736572742066696C616D656E7437
:1024800020696E746F2074686520666972737420A9
:1024900074756265206F6620746865204D4D552CFB
:1024A000207468656E20707265737320746865208F
:1024B0006B6E6F6220746F206C6F61642069742E84
:1024C000005A2063616C6962726174696F6E207278
:1024D00065636F6D6D656E6465642E2052756E2048
:1024E0006974206E6F773F00546865207072696E62
:1024F0007465722077696C6C2073746172742070DB
:1025000072696E74696E672061207A69672D7A61DD
:1025100067206C696E652E20526F7461746520743B
:102520006865206B6E6F6220756E74696C20796FC0
:102530007520726561636820746865206F707469C6
:102540006D616C206865696768742E2043686563F7
:102550006B20746865207069637475726573206997
:102560006E207468652068616E64626F6F6B2028EE
:1025700043616C6962726174696F6E206368617037
:10258000746572292E0053656C6563742074656DE3
:102590007065726174757265207768696368206D13
:1025A00061746368657320796F7572206D617465FD
:1025B0007269616C2E0053656C65637420612066DE
:1025C000696C616D656E7420666F72207468652039
:1025D0004669727374204C617965722043616C693D
:1025E00062726174696F6E20616E642073656C65E0
:1025F000637420697420696E20746865206F6E2D85
:1026000073637265656E206D656E752E004E6F7713
:1026100020492077696C6C2063616C696272617417
:10262000652064697374616E6365206265747765A3
:10263000656E20746970206F6620746865206E6F07
:102640007A7A6C6520616E64206865617462656485
:1026500020737572666163652E00506C65617365E9
:1026600020636865636B206F75722068616E6462B9
:102670006F6F6B20616E64206669782074686520D6
:1026800070726F626C656D2E205468656E20726585
:1026900073756D65207468652057697A617264206E
:1026A0006279207265626F6F74696E672074686505
:1026B000207072696E7465722E00416C6C206973B3
:1026C00020646F6E652E2048617070792070726989
:1026D0006E74696E672100596F752063616E2061A9
:1026E0006C7761797320726573756D6520746865A8
:1026F0002057697A6172642066726F6D2043616C45
:102700006962726174696F6E202D3E2057697A612B
:1027100072642E00496620796F75206861766520A5
:102720006164646974696F6E616C20737465656C53
:10273000207368656574732C2063616C69627261D3
:10274000746520746865697220707265736574734E
:1027500020696E2053657474696E6773202D20485C
:1027600057205365747570202D20537465656C2057
:102770007368656574732E00506C656173652063C2
:102780006C65616E206865617462656420616E6469
:10279000207468656E20707265737320746865209C
:1027A0006B6E6F622E00446F20796F752077616EBB
:1027B0007420746F20726570656174206C6173742D
:1027C000207374657020746F20726561646A75731C
:1027D000742064697374616E6365206265747765E3
:1027E000656E206E6F7A7A6C6520616E6420686514
:1027F00061746265643F0053656C656374206E6F3D
:102800007A7A6C6520707265686561742074656D94
:102810007065726174757265207768696368206D90
:1028200061746368657320796F7572206D6174657A
:102830007269616C2E0049732066696C616D656E0A
:1028400074206C6F616465643F004E6F772049208F
:1028500077696C6C2070726568656174206E6F7A40
:102860007A6C6520666F7220504C412E00492077AB
:10287000696C6C2072756E207A2063616C6962727B
:102880006174696F6E206E6F772E004E6F772072C5
:10289000656D6F766520746865207465737420704B
:1028A00072696E742066726F6D20737465656C203A
:1028B00073686565742E00506C6561736520726580
:1028C0006D6F7665207368697070696E67206865E2
:1028D0006C706572732066697273742E004920777C
:1028E000696C6C2072756E2078797A2063616C69EE
:1028F00062726174696F6E206E6F772E204974204A
:1029000077696C6C2074616B6520757020746F2022
:102910003234206D696E732E0046697273742C20F8
:10292000492077696C6C2072756E2074686520731D
:10293000656C667465737420746F20636865636B7F
:10294000206D6F737420636F6D6D6F6E2061737394
:10295000656D626C792070726F626C656D732E00AC
:1029600048692C204920616D20796F7572204F7263
:102970006967696E616C20507275736120693320DC
:102980007072696E7465722E20576F756C64207951
:102990006F75206C696B65206D6520746F2067759D
:1029A00069646520796F75207468726F7567682037
:1029B0007468652073657475702070726F636573D9
:1029C000733F0048692C204920616D20796F757232
:1029D000204F726967696E616C2050727573612057
:1029E0006933207072696E7465722E204920776990
:1029F0006C6C20677569646520796F7520746872E6
:102A00006F75676820612073686F727420736574D6
:102A100075702070726F636573732C20696E2077F8
:102A20006869636820746865205A2D61786973202D
:102A300077696C6C2062652063616C696272617495
:102A400065642E205468656E2C20796F7520776937
:102A50006C6C20626520726561647920746F2070EF
:102A600072696E742E005061757365004653204183
:102A70006374696F6E00462E206175746F6C6F61B0
:102A80006400462E2072756E6F7574004375747401
:102A90006572004175746F20706F776572004869C8
:102AA000676820706F776572004D6F6465004661DE
:102AB0006E207370656564004265640046616E73E4
:102AC00020636865636B004D6F64656C004E6F7AC0
:102AD0007A6C6500506C6561736520756E6C6F6112
:102AE00064207468652066696C616D656E7420662B
:102AF000697273742C207468656E207265706561EC
:102B000074207468697320616374696F6E2E00436A
:102B10006865636B73004E6F7A7A6C6520642E0073
:102B2000416C7068616265740054696D6500536F33
:102B30007274004E6F726D616C0053442063617259
:102B400064004E6F7A7A6C65206368616E67650019
:102B50004857205365747570004C6F6164696E67E7
:102B600020546573740044697361626C65207374EA
:102B7000657070657273004D6F766520617869735A
:102B80000054656D70657261747572650050494ED0
:102B900044412063616C2E0052657365742058595E
:102BA0005A2063616C6962722E0053686F772065EA
:102BB0006E642073746F7073005049442063616CBD
:102BC0006962726174696F6E00426564206C65763B
:102BD000656C20636F7272656374004D6573682065
:102BE000426564204C6576656C696E670043616C74
:102BF000696272617465205A0043616C6962726136
:102C000074652058595A0053656C66746573740076
:102C100057697A617264004C6F616420416C6C008A
:102C2000506C656173652070756C6C206F757420D5
:102C300066696C616D656E7420696D6D656469614E
:102C400074656C790052657365740052656E616DD0
:102C500065004669727374206C61796572206361E6
:102C60006C2E0053656C65637400537465656C204D
:102C700073686565747300537570706F7274004685
:102C800061696C207374617473204D4D5500466109
:102C9000696C207374617473005374617469737424
:102CA0006963730043616C6962726174696F6E007D
:102CB0004175746F4C6F61642066696C616D656EFF
:102CC00074004C6F61642066696C616D656E7400A0
:102CD000556E6C6F61642066696C616D656E740021
:102CE0004C6F616420746F206E6F7A7A6C6500504F
:102CF00072656C6F616420746F204D4D55004E6F8E
:102D00002053442063617264005072696E742066BF
:102D1000726F6D20534400526573756D652070723B
:102D2000696E74005061757365207072696E74000D
:102D300053657420526561647900536574206E6F29
:102D40007420526561647900507265686561740031
:102D500054756E65004C6976652061646A7573749C
:102D6000205A0052657072696E7400496E666F2059
:102D700073637265656E00417373697374005369A0
:102D80006C656E74004F6E6365004C6F7564005324
:102D90006F756E640046696C2E2073656E736F727A
:102DA000004368616E67652066696C616D656E746D
:102DB00000466C6F77005370656564004E2F4100CC
:102DC0004D61676E65747320636F6D702E005A2DB0
:102DD00070726F6265206E722E004D6573680053CD
:102DE000657474696E677300596573004E6F0053A4
:102DF000746F70207072696E7400436865636B69EC
:102E00006E672066696C650046696C6520696E6353
:102E10006F6D706C6574652E0084526566726573A3
:102E200068004D61696E0057616974696E6720665C
:102E30006F72206E6F7A7A6C6520616E64206265B5
:102E40006420636F6F6C696E670053656C667465B0
:102E50007374204F4B0053656C66746573742073F4
:102E60007461727400537761707065640046726FAC
:102E70006E742F6C6566742066616E7300417869AC
:102E8000730041786973206C656E677468004C6FDD
:102E90006F73652070756C6C657900456E64737432
:102EA0006F70206E6F742068697400456E6473746F
:102EB0006F70004D6F746F7200456E6473746F7045
:102EC0007300576972696E67206572726F72004293
:102ED00065642F486561746572004E6F7420636F7E
:102EE0006E6E6563746564004865617465722F5425
:102EF0006865726D6973746F7200506C656173659B
:102F000020636865636B3A0053656C66746573741F
:102F1000206572726F72210046696C616D656E7416
:102F20002073656E736F72005072696E74206661F3
:102F30006E3A00486F74656E642066616E3A0043B5
:102F4000616C6962726174696E6720686F6D65009B
:102F500053656C6674657374206661696C656400A2
:102F6000416C6C20636F72726563740043686563C3
:102F70006B696E672073656E736F7273004368656B
:102F8000636B696E6720686F74656E640043686583
:102F9000636B696E672062656400436865636B6993
:102FA0006E67205A206178697300436865636B69B6
:102FB0006E672059206178697300436865636B69A7
:102FC0006E672058206178697300436865636B6998
:102FD0006E6720656E6473746F7073004361726412
:102FE0002072656D6F766564004261636B00537497
:102FF00072696374005761726E004E6F6E650048AF
:103000006F74656E64206174203238304321204E25
:103010006F7A7A6C65206368616E67656420616EA3
:1030200064207469676874656E656420746F2073CA
:10303000706563733F00466F722061204E6F7A7A2D
:103040006C65206368616E676520706C656173658F
:1030500020726561640A70727573612E696F2F6EDC
:103060006F7A7A6C652D6D6B337300504944206321
:10307000616C2E2066696E6973686564005049440E
:103080002063616C2E005072696E742070617573DC
:103090006564005072696E742061626F7274656459
:1030A0000043616E63656C00436F6E742E004E6F5B
:1030B0007A7A6C65206469616D65746572206469F3
:1030C00066666572732066726F6D2074686520474E
:1030D0002D636F64652E20506C6561736520636895
:1030E00065636B207468652076616C756520696E18
:1030F0002073657474696E67732E004E6F7A7A6CF4
:1031000065206469616D65746572206469666665D1
:1031100072732066726F6D2074686520472D636F2F
:1031200064652E005468657265206973206E6F2097
:1031300066696C616D656E74206C6F616465642E88
:10314000005468657265206973207374696C6C2023
:1031500061206E65656420746F206D616B65205A17
:103160002063616C6962726174696F6E2E20506CAD
:103170006561736520666F6C6C6F7720746865207D
:103180006D616E75616C2C2063686170746572206E
:1031900046697273742073746570732C2073656351
:1031A00074696F6E2043616C6962726174696F6EDD
:1031B00020666C6F772E005072696E74657220689D
:1031C0006173206E6F74206265656E2063616C6947
:1031D000627261746564207965742E20506C65613B
:1031E000736520666F6C6C6F7720746865206D6105
:1031F0006E75616C2C20636861707465722046691D
:103200007273742073746570732C207365637469B2
:103210006F6E2043616C6962726174696F6E2066C3
:103220006C6F772E0053656C6674657374207769D4
:103230006C6C2062652072756E20746F2063616C07
:10324000696272617465206163637572617465207F
:1032500073656E736F726C657373207265686F6DE2
:10326000696E672E004F6C642073657474696E67B5
:103270007320666F756E642E2044656661756C748C
:10328000205049442C204573746570732065746325
:103290002E2077696C6C206265207365742E005750
:1032A00061726E696E673A20626F7468207072692D
:1032B0006E746572207479706520616E64206D6F24
:1032C00074686572626F61726420747970652063DE
:1032D00068616E6765642E005761726E696E673A49
:1032E000207072696E7465722074797065206368ED
:1032F000616E6765642E005761726E696E673A2071
:103300006D6F74686572626F617264207479706544
:10331000206368616E6765642E0054657374696E1E
:10332000672066696C616D656E74005368656574CD
:10333000004E6F74207370696E6E696E6700537013
:10334000696E6E696E67004C65667420686F74659F
:103350006E642066616E3F0046726F6E74207072FC
:10336000696E742066616E3F0046616E20746573FD
:10337000740053656C6563742066696C616D656E7D
:10338000743A0058595A2063616C696272617469B9
:103390006F6E206661696C65642E2052696768747F
:1033A0002066726F6E742063616C69627261746909
:1033B0006F6E20706F696E74206E6F74207265611D
:1033C000636861626C652E0058595A2063616C69AC
:1033D00062726174696F6E206661696C65642E202B
:1033E00046726F6E742063616C6962726174696F9A
:1033F0006E20706F696E7473206E6F7420726561D9
:10340000636861626C652E0058595A2063616C696B
:1034100062726174696F6E206661696C65642E20EA
:10342000506C6561736520636F6E73756C74207486
:103430006865206D616E75616C2E0058595A206365
:10344000616C6962726174696F6E20636F6D707216
:103450006F6D697365642E205269676874206672A7
:103460006F6E742063616C6962726174696F6E2043
:10347000706F696E74206E6F74207265616368612D
:10348000626C652E0058595A2063616C69627261E2
:1034900074696F6E20636F6D70726F6D69736564B0
:1034A0002E2046726F6E742063616C696272617463
:1034B000696F6E20706F696E7473206E6F74207206
:1034C0006561636861626C652E0058595A206361BA
:1034D0006C6962726174696F6E206661696C6564A3
:1034E0002E204265642063616C6962726174696F49
:1034F0006E20706F696E7420776173206E6F742018
:10350000666F756E642E00506C6561736520726520
:103510006D6F766520737465656C2073686565747E
:103520002066726F6D20686561746265642E00505C
:103530006C6561736520706C61636520737465658B
:103540006C207368656574206F6E206865617462B5
:1035500065642E00497320737465656C207368651B
:103560006574206F6E20686561746265643F004415
:10357000697374616E6365206265747765656E203A
:10358000746970206F6620746865206E6F7A7A6C3B
:103590006520616E642074686520626564207375BF
:1035A000726661636520686173206E6F7420626566
:1035B000656E20736574207965742E20506C65618A
:1035C000736520666F6C6C6F7720746865206D6121
:1035D0006E75616C2C206368617074657220466939
:1035E0007273742073746570732C207365637469CF
:1035F0006F6E204669727374206C61796572206306
:10360000616C6962726174696F6E2E00506C6163E7
:10361000652061207368656574206F662070617035
:10362000657220756E64657220746865206E6F7AAD
:103630007A6C6520647572696E67207468652063B2
:10364000616C6962726174696F6E206F6620666971
:10365000727374203420706F696E74732E20496603
:1036600020746865206E6F7A7A6C6520636174637C
:10367000686573207468652070617065722C2070B5
:103680006F776572206F6666207468652070726956
:103690006E74657220696D6D6564696174656C79BD
:1036A0002E00536561726368696E672062656420ED
:1036B00063616C6962726174696F6E20706F696EAC
:1036C00074004D6561737572696E67207265666519
:1036D00072656E636520686569676874206F66202F
:1036E00063616C6962726174696F6E20706F696E7C
:1036F0007400506C6561736520636C65616E207445
:103700006865206E6F7A7A6C6520666F72206361DF
:103710006C6962726174696F6E2E20436C69636BB1
:10372000207768656E20646F6E652E004175746F3A
:1037300020686F6D650050494E44412063616C699B
:1037400062726174696F6E206661696C65642E20B7
:10375000436F6E74696E7565207769746820707246
:10376000657373696E6720746865206B6E6F622E77
:103770000050494E44412063616C69627261746912
:103780006F6E20646F6E652E20436F6E74696E7568
:10379000652077697468207072657373696E67203D
:1037A000746865206B6E6F622E005A30005A3100CB
:1037B000593000593100583000583100456E6420AE
:1037C00073746F7073206469616700473830004D0F
:1037D0003435004D3435205A00473736004D3730E8
:1037E000312050300057697A6172642073746174BB
:1037F000653A2025640A004578706572696D656ECA
:1038000074616C00302E383000302E363000302E8F
:10381000343000302E32350044697361626C6520AB
:103820006661726D206D6F6465005265736574200A
:103830004D4D55004D4D55004D343400473939003C
:1038400044697361626C65206661726D206D6F649E
:10385000653F00473238205859004D2038340085E4
:103860002E2E002533642F30002533642F30006C5A
:1038700063645F73656C66636865636B5F617869D9
:10388000732025642C2025640A00486F74656E64DB
:1038900000426564005A00590058002D2D2D2D2D31
:1038A0002D2D2D2D2D2D2D2D2D2D2D2D2D2D2D0075
:1038B000537570657250494E44413A00511E551E71
:1038C000211E1A1E0F1E001E5E1FF91D201F4731EC
:1038D00059252E346645252E34660047315A252E4B
:1038E0003266004731583530593135350074215131
:1038F0001E2864441E3A1E301E473158252E346659
:1039000045252E3466004731463130383000662177
:1039100059214C21402174213121262116210F21CA
:103920005425640047315A302E34004731592D3325
:10393000463130303000551E83217E217A2174219A
:103940004D3834205859004D3130392053323830F9
:103950000047312058313235205A3230302046313C
:1039600030303000496E76616C69642050494420E3
:1039700063616C2E20726573756C74732E204E6FAC
:10398000742073746F72656420746F2045455052C3
:103990004F4D2E004D3330312050252E32662049B8
:1039A000252E32662044252E3266004D33303320DA
:1039B000453020532533750052430044455600429C
:1039C00045544100414C5048410000002100240072
:1039D00027002A002D0030003300010100000401FF
:1039E00007010A0100002200250028002B002E00FC
:1039F0003100340002010000050108010B01000044
:103A000020002300260029002C002F003200000196
:103A10000000030106010901050505050705080861
:103A20000808020202020A0A080804040404010148
:103A3000010101010101030303030303030304075D
:103A400007070C0C0C0C0C0C0C0C020202020606F4
:103A50000606060606060B0B0B0B0B0B0B0B0707DC
:103A60000A0A0A0A0A0A05050504040408080102EC
:103A70001020200808102040102040800201020180
:103A80000804020101020408102040808040201038
:103A90000804020180040201804020100804020191
:103AA00008040201010204081020408001020408F9
:103AB000102040801008040880102040044080102E
:103AC0002040048000000A0B02090C0D0E080703B9
:103AD00004010000000000000000000000000000E1
:103AE00000000000000000000000000000000000D6
:103AF0001211100000000000000000000000000093
:103B000000000000000000000000000000000000B5
:103B100000000000000000000000332E31342E3180
:103B2000000A204F726967696E616C20507275736C
:103B3000612069330A20202050727573612052651C
:103B40007365617263680A2532302E323053005338
:103B5000706F6F6C4A6F696E2069732000616463D7
:103B60005F696E697400200A200A200A2000416CF7
:103B70006C204461746100536572766963652070DE
:103B8000726570005368697070696E672070726545
:103B9000700053746174697374696373004C616E6F
:103BA00067756167650045524153494E4720616C16
:103BB0006C206461746100466163746F7279205295
:103BC0004553455400505255534133444657000322
:103BD000000E00010040000300020000000400731A
:103BE000686976616D6D65687461323230003230BB
:103BF00032352D30382D31392030323A35323A35A0
:103C0000310020332E31342E312D383238345F6676
:103C10003365306466643438007374617274004DC7
:103C2000323900252D392E39535B003333294200B8
:103C30000058419A998D4133335340200A200A207D
:103C4000004D4D55323A004D6561737572652063C4
:103C5000656E74657220200078797A63616C5F6D9F
:103C60006561737572655F656E7465720A00787957
:103C70007A63616C5F73706972616C382063783D40
:103C800025642063793D2564207A303D25642064D5
:103C90007A3D2564207261646975733D25642061F5
:103CA000643D25640A0078797A63616C5F736561AD
:103CB0007263685A206E6F207369676E616C0A20A8
:103CC000783D256C6420793D256C64207A3D256C17
:103CD000640A00204F4E2D5349474E414C206174D9
:103CE00020783D256420793D2564207A3D25642097
:103CF00061643D25640A0078797A63616C5F73655D
:103D0000617263685A20783D256C6420793D256C8A
:103D100064207A3D256C640A002530327800205BEF
:103D200025662025665D206D6D2070617474657256
:103D30006E2063656E7465720A00205B256620251F
:103D4000665D5B25665D206D6D20646976657267D2
:103D5000656E63650A000000F000F801FC03FE07D1
:103D6000FE07FE07FE07FC03F801F000000000005C
:103D70000000F000F801FC03FC03FC03FC03F80165
:103D8000F0000000000078797A63616C5F6D656116
:103D9000737572655F6C656176650A00203C200072
:103DA0005741524E494E473A2046726F6E7420700A
:103DB0006F696E74206E6F742072656163686162F2
:103DC0006C652E205920636F6F7264696E61746533
:103DD0003A0000000040410000804000005C4300C9
:103DE00000804000005C430000444300004041006C
:103DF00000444325642F3400497465726174696F0F
:103E00006E3A200043616C6962726174696F6E2062
:103E10006661696C65642120436865636B20746822
:103E200065206178657320616E642072756E206113
:103E30006761696E2E00556E6578706563746564A0
:103E4000206572726F72206F636375727265642E83
:103E5000004D3630302046696C616D656E742043CC
:103E600068616E67652E204C6F61642061206E650D
:103E7000772066696C616D656E74206F7220656A6B
:103E800065637420746865206F6C64206F6E652EA6
:103E90000052656D6F76652074686520656A65639C
:103EA0007465642066696C616D656E742066726FFE
:103EB0006D207468652066726F6E74206F66207462
:103EC0006865204D4D552E0046696C616D656E74B8
:103ED00020646574656374656420756E65787065CB
:103EE000637465646C792E20456E73757265206EFF
:103EF0006F2066696C616D656E74206973206C6FEC
:103F0000616465642E20436865636B207468652076
:103F100073656E736F727320616E64207769726966
:103F20006E672E00496E7465726E616C2072756EDC
:103F300074696D65206572726F722E2054727920DB
:103F4000726573657474696E6720746865204D4D81
:103F500055206F72207570646174696E6720746893
:103F600065206669726D776172652E004D4D552032
:103F700046572076657273696F6E20697320696E8B
:103F8000636F6D70617469626C6520776974682015
:103F90007072696E7465722046572E557064617434
:103FA0006520746F2076657273696F6E20332E30D2
:103FB0002E332E004D4D55204669726D7761726526
:103FC00020696E7465726E616C206572726F722CFE
:103FD00020706C6561736520726573657420746808
:103FE00065204D4D552E005265717565737465647D
:103FF0002066696C616D656E7420746F6F6C2069EA
:1040000073206E6F7420617661696C61626C6520EB
:104010006F6E20746869732068617264776172657D
:104020002E20436865636B2074686520472D636F9D
:10403000646520666F7220746F6F6C20696E6465B2
:1040400078206F7574206F662072616E6765202816
:1040500054302D5434292E0043616E6E6F742070DD
:104060006572666F726D2074686520616374696F34
:104070006E2C2066696C616D656E742069732061B9
:104080006C7265616479206C6F616465642E205583
:104090006E6C6F61642069742066697273742E009F
:1040A0004D4D55206E6F7420726573706F6E64692C
:1040B0006E6720636F72726563746C792E2043683B
:1040C00065636B2074686520776972696E6720612B
:1040D0006E6420636F6E6E6563746F72732E004D35
:1040E0004D55206E6F7420726573706F6E64696ECB
:1040F000672E20436865636B20746865207769725A
:10410000696E6720616E6420636F6E6E6563746FA5
:1041100072732E004D6F72652064657461696C73F3
:10412000206F6E6C696E652E005468652049646C62
:1041300065722063616E6E6F7420686F6D652070AC
:10414000726F7065726C792E20436865636B2066B0
:104150006F7220616E797468696E6720626C6F633C
:104160006B696E6720697473206D6F76656D656E1F
:10417000742E0043616E2774206D6F766520536541
:104180006C6563746F72206F722049646C65722E67
:10419000005468652053656C6563746F72206361B9
:1041A0006E6E6F7420686F6D652070726F706572CF
:1041B0006C792E20436865636B20666F7220616E98
:1041C000797468696E6720626C6F636B696E6720D3
:1041D000697473206D6F76656D656E742E004C6F1B
:1041E0006164696E6720746F2065787472756465A8
:1041F00072206661696C65642E20496E7370656318
:1042000074207468652066696C616D656E742074D5
:1042100069702073686170652E20526566696E65ED
:10422000207468652073656E736F722063616C69BA
:1042300062726174696F6E2C206966206E656564B8
:1042400065642E0053656C6563746F722063616EE4
:104250002774206D6F76652064756520746F204625
:10426000494E444120646574656374696E672061DA
:104270002066696C616D656E742E204D616B6520E2
:1042800073757265206E6F2066696C616D656E7402
:1042900020697320696E2053656C6563746F7220AA
:1042A000616E642046494E444120776F726B7320E3
:1042B00070726F7065726C792E0046696C616D6505
:1042C0006E742073656E736F7220747269676765B0
:1042D00072656420746F6F206561726C79207768F5
:1042E000696C65206C6F6164696E6720746F20650E
:1042F000787472756465722E20436865636B2074F0
:10430000686572652069736E277420616E797468C0
:10431000696E6720737475636B20696E2050544614
:104320004520747562652E20436865636B20746850
:1043300061742073656E736F72207265616473209F
:1043400070726F7065726C792E0050756C6C657947
:10435000206D6F746F72207374616C6C65642E20B5
:10436000456E73757265207468652070756C6C6538
:10437000792063616E206D6F766520616E642063C5
:104380006865636B2074686520776972696E672E53
:104390000046696C616D656E742073656E736F7233
:1043A000206469646E277420737769746368206F72
:1043B0006666207768696C6520756E6C6F616469EC
:1043C0006E672066696C616D656E742E20456E7334
:1043D0007572652066696C616D656E742063616ECF
:1043E000206D6F766520616E64207468652073654A
:1043F0006E736F7220776F726B732E0046696C61FB
:104400006D656E742073656E736F72206469646E7F
:1044100027742074726967676572207768696C65B4
:10442000206C6F6164696E67207468652066696CD2
:10443000616D656E742E20456E73757265207468AB
:10444000652073656E736F722069732063616C6998
:1044500062726174656420616E64207468652066B0
:10446000696C616D656E7420726561636865642056
:1044700069742E0046494E4441206469646E277475
:1044800020737769746368206F6666207768696C4B
:104490006520756E6C6F6164696E672066696C611A
:1044A0006D656E742E2054727920756E6C6F616428
:1044B000696E67206D616E75616C6C792E20456E3A
:1044C000737572652066696C616D656E74206361D9
:1044D0006E206D6F766520616E642046494E4441C2
:1044E00020776F726B732E0046494E4441206469F9
:1044F000646E2774207472696767657220776869D3
:104500006C65206C6F6164696E67207468652066F5
:10451000696C616D656E742E20456E7375726520D1
:104520007468652066696C616D656E742063616E88
:10453000206D6F766520616E642046494E444120AF
:10454000776F726B732E0044697361626C65005300
:10455000746F70004C6F616400556E6C6F61640025
:1045600052657365744D4D550052657472790053F0
:10457000656E736974697669747900446F6E65005D
:10458000526573756D696E67207072696E74005044
:10459000494E44412048656174696E670043616C0F
:1045A0006962726174696F6E20646F6E6500436149
:1045B0006C6962726174696E67205A00426564209A
:1045C000646F6E65004265642048656174696E675A
:1045D0000048656174696E6720646F6E652E0048DF
:1045E000656174696E6700546F74616C004C61732F
:1045F00074207072696E74004D4D5520706F776530
:1046000072206661696C73004D4D55206C6F61645A
:10461000206661696C73004D4D55206661696C734D
:10462000004D6174657269616C206368616E6765D5
:104630007300546F74616C206661696C7572657388
:104640000046696C2E2072756E6F757473004C6134
:104650007374207072696E74206661696C7572651E
:10466000730054656D706572617475726573005383
:10467000656E736F7220696E666F0045787472752F
:1046800064657220696E666F0058595A2063616CC8
:104690002E2064657461696C73005072696E746574
:1046A0007220495020416464723A00756E6B6E6FDF
:1046B000776E004D4D5520636F6E6E656374656453
:1046C00000446174653A00746F20756E6C6F6164AC
:1046D0002066696C616D656E7400746F206C6F612B
:1046E000642066696C616D656E74005072657373E9
:1046F00020746865206B6E6F62005072656865613A
:1047000074696E6720746F206375740050726568F9
:10471000656174696E6720746F20656A65637400F3
:1047200050726568656174696E6720746F20756E7C
:104730006C6F61640050726568656174696E6720B2
:10474000746F206C6F616400436F6F6C646F776E81
:1047500000456A6563740046696C616D656E74201E
:10476000657874727564696E67202620776974684D
:1047700020636F727265637420636F6C6F723F00A9
:104780004175746F6C6F6164696E672066696C61F6
:104790006D656E74206973206163746976652C2081
:1047A0006A75737420707265737320746865206B0A
:1047B0006E6F6220616E6420696E7365727420662C
:1047C000696C616D656E742E2E2E005072696E7468
:1047D0002074696D650046696C616D656E74207545
:1047E00073656400546F74616C207072696E74201C
:1047F00074696D6500546F74616C2066696C616DDD
:10480000656E740050726568656174207468652017
:104810006E6F7A7A6C6521004552524F523A0052BF
:1048200069676874004C6566740059206469737424
:10483000616E63652066726F6D206D696E005365F1
:104840007665726520736B657700536C6967687471
:1048500020736B6577004D656173757265642073B5
:104860006B6577005B303B305D20706F696E742044
:104870006F66667365740041646A757374696E6708
:10488000205A00526561722073696465205BE46D93
:104890005D0046726F6E7420736964655BE46D5DE4
:1048A00000526967687420736964655BE46D5D003C
:1048B0004C6566742073696465205BE46D5D00532C
:1048C00065742074656D70657261747572653A0007
:1048D000417265206C65667420616E642072696740
:1048E0006874205A2D636172726961676573206113
:1048F0006C6C2075703F0043616C69627261746911
:104900006E672058595A2E20526F74617465207456
:104910006865206B6E6F6220746F206D6F76652006
:10492000746865205A2063617272696167652075D9
:104930007020746F2074686520656E642073746FD6
:1049400070706572732E20436C69636B20776865A5
:104950006E20646F6E652E0043616C6962726174D3
:10496000696E67205A2E20526F74617465207468D6
:1049700065206B6E6F6220746F206D6F766520749A
:104980006865205A2063617272696167652075707D
:1049900020746F2074686520656E642073746F7076
:1049A000706572732E20436C69636B207768656E47
:1049B00020646F6E652E004D494E54454D50204287
:1049C0004544206669786564004D494E54454D5014
:1049D00020484F54454E44206669786564004D4D2B
:1049E00055323A002533640018010419020AE844DC
:1049F0007444FC4391434A43BA424442DE419141EC
:104A0000734129417341144114411441144114412B
:104A100014411441144114411441144114411441EE
:104A200014411441144114411441144114411441DE
:104A30001441DF40A0405840E73FB43F6C3F243F63
:104A4000C83E913E513E363E010101010101010285
:104A500071017101323232030303030303030303C1
:104A60000303030303030303030393932438039310
:104A70000301025603650066006700680069006A6A
:104A8000006B006C00730074007D007E00C900D3D1
:104A900000DD00CA00D400DE002D01370141012EE7
:104AA00001380142012F013901430130013A01442B
:104AB0000131013B014501320191019201F501F6FD
:104AC00001F701F801F901FA01FB01FC01840388F7
:104AD0000020746F6F206C6F6E672065787472753C
:104AE00073696F6E2070726576656E746564002000
:104AF000636F6C6420657874727573696F6E207073
:104B0000726576656E746564004D6F7665206162CE
:104B10006F72746564004572723A5052494E542067
:104B200046414E204552524F520025632533642F93
:104B3000256481005A25362E32662563005A2020CE
:104B4000202D2D2D2000862533642525002D2D2D8B
:104B500025250025336425250020534400202020EE
:104B60000020484F002046524D2000872D2D3A2D21
:104B70002D20200087253375682025632563008755
:104B8000253032753A2530327525632563002F2F85
:104B9000616374696F6E3A706175736564002F2F7D
:104BA000616374696F6E3A70617573650044756D09
:104BB0007020746F2073657269616C0068656C7039
:104BC0002E707275736133642E636F6D00666F7241
:104BD000756D2E707275736133642E636F6D007026
:104BE0007275736133642E636F6D004D3730310021
:104BF00025533A0A2531382E32666D200A25533A5C
:104C00000A2531306C646820253032646D202530EF
:104C10003264730025533A0A2531382E32666D20EE
:104C20000A25533A0A2531306C64642025303264F9
:104C30006820253032646D0025362E32666D6D0099
:104C400025530A25530A25533A0A25533A0025339A
:104C50002E32668100252D31342E3134533A0A2507
:104C6000530A252D31342E3134533A25332E3266F2
:104C7000810A252D31342E3134533A25332E3266B4
:104C8000810069457B456045594554455147502D44
:104C90004F454745252E3230530A70727573612E89
:104CA000696F2F3034256875007B5B4552523A009E
:104CB000332E31342E31005D5B4657523A005D5B36
:104CC00054494D3A005D5B464E4D3A005D5B4645AA
:104CD0004D3A005D5B5043443A005B5446553A0000
:104CE0005B50524E3A005B50464E3A305D005B449A
:104CF00049413A005D5B4154423A005D5B415430AA
:104D00003A005D5B5354423A005B5354303A007BA7
:104D10005B50524E3A355D007B5B50524E3A305DEF
:104D2000007B5B50524E3A395D007B5B50524E3AED
:104D3000385D007B5B5245533A305D5B46494C3AE7
:104D4000007B5B5245533A315D5B46494C3A00006B
:104D5000002110422063308440A550C660E77008EF
:104D60008129914AA16BB18CC1ADD1CEE1EFF13176
:104D700012100273325222B5529442F772D662393F
:104D80009318837BB35AA3BDD39CC3FFF3DEE362C6
:104D900024433420040114E664C774A44485546A8F
:104DA000A54BB528850995EEE5CFF5ACC58DD55356
:104DB00036722611163006D776F6669556B4465BDF
:104DC000B77AA719973887DFF7FEE79DD7BCC7C426
:104DD00048E5588668A7784008611802282338CC2F
:104DE000C9EDD98EE9AFF9488969990AA92BB9F5B6
:104DF0005AD44AB77A966A711A500A333A122AFD7F
:104E0000DBDCCBBFFB9EEB799B588B3BBB1AABA685
:104E10006C877CE44CC55C222C033C600C411CAECE
:104E2000ED8FFDECCDCDDD2AAD0BBD688D499D9795
:104E30007EB66ED55EF44E133E322E511E700E9F1E
:104E4000FFBEEFDDDFFCCF1BBF3AAF599F788F88E5
:104E500091A981CAB1EBA10CD12DC14EF16FE180B6
:104E600010A100C230E3200450254046706760B9AD
:104E7000839893FBA3DAB33DC31CD37FE35EF3B106
:104E8000029012F322D2323542145277625672EAFD
:104E9000B5CBA5A89589856EF54FE52CD50DC5E256
:104EA00034C324A01481046674476424540544DB8D
:104EB000A7FAB79987B8975FE77EF71DC73CD7D3A6
:104EC00026F2369106B01657667676154634564C5D
:104ED000D96DC90EF92FE9C899E9898AB9ABA944F6
:104EE00058654806782768C018E1088238A3287DED
:104EF000CB5CDB3FEB1EFBF98BD89BBBAB9ABB7546
:104F00004A545A376A167AF10AD01AB32A923A2EBC
:104F1000FD0FED6CDD4DCDAABD8BADE89DC98D2695
:104F20007C076C645C454CA23C832CE01CC10C1FCC
:104F3000EF3EFF5DCF7CDF9BAFBABFD98FF89F17E5
:104F40006E367E554E745E932EB23ED10EF01E7CB0
:104F50003C3E3F2F2A225C0024F4D43050C38E20E4
:104F6000C2A24017828B7011127A910D816CD90AFE
:104F7000A861E108C7586607615143061E4B5D05ED
:104F8000C145A7041A411104093D98037139310341
:104F90004036DB0265339102D4305402802E1D026C
:104FA000632CEE01752AC501B028A00110278101EC
:104FB0008F2564012B244B01E0223401AC211F0119
:104FC0008D200D01801FFC00841EED00971DDF0069
:104FD000B81CD200E61BC600201BBC00641AB2003D
:104FE000B219A8000A19A0006A189900D1179100F7
:104FF00040178B00B516840031167E00B31579007A
:105000003A157300C7146F0058146A00EE13660057
:105010008813630025135E00C7125B006C125700F3
:1050200015125400C111510070114F0021114B0095
:10503000D61049008D10470046104400021042006F
:10504000C00F4000800F3E00420F3C00060F3B00A7
:10505000CB0E3800930E37005C0E3500270E34005F
:10506000F30D3200C10D3100900D3000600D2E00A7
:10507000320D2D00050D2C00D90C2B00AE0C290093
:10508000850C29005C0C2700350C27000E0C26002F
:10509000E80B2400C40B2400A00B23007D0B23008D
:1050A0005A0B2100390B2100180B2000F80A1F00B1
:1050B000D90A1E00BB0A1E009D0A1D00800A1D00A1
:1050C000630A1C00470A1B002C0A1B00110A1A0065
:1050D000F7091A00DD091900C4091900AB09190004
:1050E000920917007B091800630917004C09160084
:1050F00036091600200916000A091500F5081500E2
:10510000E0081400CC081400B8081400A408140027
:10511000900813007D0812006B0813005808120055
:10512000460812003408110023081100120811006B
:1051300001081100F0071000E0071000D007100070
:10514000C0071000B0070F00A107100091070E0064
:1051500083070F0074070F0065070E0057070E0046
:1051600049070E003B070D002E070E0020070D001B
:1051700013070D0006070D00F9060C00ED060D00E3
:10518000E0060C00D4060C00C8060C00BC060C009F
:10519000B0060C00A4060B0099060C008D060B004F
:1051A00082060B0077060B006C060B0061060A00F6
:1051B00057060B004C060A0042060A0038060A0091
:1051C0002E060A0024060A001A060A001006090024
:1051D00007060A00FD050900F4050900EB050900B2
:1051E000E2050900D9050900D0050900C705090035
:1051F000BE050900B5050800AD050800A5050900B4
:105200009C050800940508008C050800840508002A
:105210007C050800740508006C050700650508009A
:105220005D050700560508004E0507004705070005
:105230004005080038050700310507002A0507006A
:10524000230507001C050600160507000F050700CB
:105250000805060002050700FB040600F504070028
:10526000EE040600E8040600E2040700DB04060082
:10527000D5040600CF040600C9040600C3040600D6
:10528000BD040600B7040600B1040500AC04060026
:10529000A6040600A00405009B0406009504050072
:1052A000900406008A0405008504050080040600B9
:1052B0007A04050075040500700405006B04050000
:1052C00066040500610405005C0405005704050040
:1052D000520405004D040500480405004304050080
:1052E0003E0404003A0405003504050030040400BF
:1052F0002C04050027040400230405001E040400F8
:105300001A04040016040500110404000D0404002E
:10531000090405000404040000040400FC03040064
:10532000F8030400F4030400F0030400EC03040099
:10533000E8030400E4030400E0030400DC030400C9
:10534000D8030400D4030400D0030400CC030400F9
:10535000C8030300C503030024F404D9201BC40CB4
:105360005C0E9804C4095F0265077101F405F90039
:10537000FB04B30048048700C103690058035500CB
:1053800003034500BE023A008402310053022A00A2
:105390002902250004022000E4011C00C8011900B4
:1053A000AF0117009801140084011300710110006F
:1053B0006101100051010E0043010D0036010B0088
:1053C0002B010B0020010B00150109000C01090045
:1053D00003010800FB000800F3000800EB000700D1
:1053E000E4000600DE000600D8000600D200060039
:1053F000CC000500C7000500C2000500BD00040088
:10540000B9000400B5000400B1000400AD000400C0
:10541000A9000400A5000300A20003009F000400EF
:105420009B00030098000300950002009300030016
:10543000900003008D0002008B0003008800020032
:105440008600020084000300810002007F00020049
:105450007D0002007B00020079000200770001005D
:105460007600020074000200720001007100020068
:105470006F0002006D0001006C0002006A00010074
:10548000690002006700010066000100650001007C
:105490006400020062000100610001006000010080
:1054A0005F0002005D0001005C0001005B00010084
:1054B0005A00010059000100580001005700010086
:1054C0005600010055000100540001005300000087
:1054D0005300010052000100510001005000010082
:1054E0004F0001004E0000004E0001004D00010081
:1054F0004C0001004B0000004B0001004A0001007D
:105500004900010048000000480001004700010078
:105510004600000046000100450000004500010073
:10552000440001004300000043000100420000006D
:105530004200010041000000410001004000010064
:105540003F0000003F0001003E0000003E0001005F
:105550003D0000003D0001003C0000003C00000058
:105560003C0001003B0000003B0001003A0000004D
:105570003A00010039000000390001003800000045
:10558000380000003800010037000000370001003B
:105590003600000036000000360001003500000033
:1055A0003500000035000100340000003400000028
:1055B000340001003300000033000000330001001C
:1055C0003200000032000000320001003100000013
:1055D0003100000031000100300000003000000008
:1055E000300001002F0000002F0000002F000000FD
:1055F0002F0001002E0000002E0000002E000100F0
:105600002D0000002D0000002D0000002D000100E5
:105610002C0000002C0000002C0000002C000100D9
:105620002B0000002B0000002B0000002B000100CD
:105630002A0000002A0000002A0000002A000100C1
:1056400029000000290000002900000029000000B6
:1056500029000100280000002800000028000000A8
:10566000280000002800010027000000270000009B
:10567000270000002700000027000100260000008E
:105680002600000026000000260000002600010081
:105690002500000025000000250000002500000076
:1056A0002500000025000100240000002400000067
:1056B000240000002400000024000100230000005A
:1056C000230000002300000023000000230000004E
:1056D000230000002300010022000000220000003F
:1056E0002200000022000000220000002200010031
:1056F0002100000021000000210000002100000026
:105700002100000021000000210001002000000015
:105710002000000020000000200000002000000009
:105720002000000020000000200001001F000000F9
:105730001F0000001F0000001F0000001F000000ED
:105740001F0000001F0001001E0000001E000000DE
:105750001E0000001E00000045303A20005A3A208A
:1057600000593A2000583A20004D53312C4D533205
:105770002050696E7300504944204175746F7475F0
:105780006E652066696E6973686564212050757462
:1057900020746865206C617374204B702C204B69F9
:1057A00020616E64204B6420636F6E7374616E744D
:1057B000732066726F6D2061626F766520696E740A
:1057C0006F20436F6E66696775726174696F6E2EC4
:1057D0006800504944204175746F74756E65206689
:1057E00061696C6564212074696D656F7574002052
:1057F000403A00543A00423A0050494420417574FE
:105800006F74756E65206661696C656421205465EE
:105810006D706572617475726520746F6F20686950
:10582000676800204B643A2000204B693A20002032
:105830004B703A200020436C6173736963205049B8
:105840004420002054753A2000204B753A20002057
:105850006D61783A2000206D696E3A200020643A2C
:10586000200020626961733A20005049442041754C
:10587000746F74756E65207374617274005049445E
:10588000204175746F74756E65206661696C65641E
:105890002E20426164206578747275646572206E92
:1058A000756D6265722E00486F74656E6420666166
:1058B0006E207370656564206973206C6F77657204
:1058C000207468616E20657870656374656400504B
:1058D00072696E742066616E2073706565642069FC
:1058E00073206C6F776572207468616E20657870C4
:1058F0006563746564004D494E54454D50204245E2
:1059000044004D494E54454D50004D415854454D6D
:1059100050004D415854454D5020424544007001BF
:105920002C0190012701B0012201C0011D01F001ED
:1059300018011002130130020E01600209019002E9
:105940000401C002FF000003FA004003F5008003D9
:10595000F000D003EB002004E6007004E100E00456
:10596000DC004005D700C005D2004006CD00D006BF
:10597000C8008007C3003008BE00F008B900C009A5
:10598000B400B00AAF00B00BAA00D00CA500000E06
:10599000A000500F9B00C010960050129100001400
:1059A0008C00C0158700B0178200B0197D00D01B95
:1059B0007800001E730040206E0090226900F024E1
:1059C000640040275F0090295A00E02B5500102EFC
:1059D000500020304B0010324600E033410090353B
:1059E0003C001037370070383200A0392D00B03A33
:1059F0002800A03B2300603C1E00103D1900903D94
:105A00001400103E0F00703E0A00C03E0500003F2B
:105A1000000020484F54454E4420544845524D41C3
:105A20004C2052554E41574159002048454154425F
:105A3000454420544845524D414C2052554E415703
:105A4000415900544845524D414C2052554E415702
:105A500041590042454420544845524D414C205242
:105A6000554E415741590020544845524D414C2014
:105A700052554E41574159202850524548454154AE
:105A800020484F54454E44290020544845524D412A
:105A90004C2052554E4157415920285052454845B7
:105AA00041542048454154424544290050524548FC
:105AB000454154204552524F5200424544205052D5
:105AC0004548454154204552524F52002074726956
:105AD000676765726564210048656174657273204B
