:100000000C94353A0C94663A0C94663A0C94663A21
:100010000C94663A0D9401680C94663A0C94663A16
:100020000C946F6B0C94663A0C94663A0C94663A96
:100030000C94F6560C94663A0D94032B0D94902470
:100040000C94663A0D9405320C94663A0C94663A18
:100050000C94663A0C94663A0C94663A0C94A36A33
:100060000C94663A0C9473530C94663A0C94663A6A
:100070000C94663A0C946E8C0C94663A0C94663A26
:100080000C94663A0C94663A0C94663A0C94663A70
:100090000C942F530C94663A0C94663A0C94663A7E
:1000A0000C94663A0C94663A0D94821C0C94663A51
:1000B0000C94663A0D94641C0C94663A0D944D3081
:1000C0000C94663A0C94663A0C94663A0D94241C8F
:1000D0000C94663A0C94663A0C94663A0C94663A20
:1000E0000C94663A084AD73B3BCE016E84BCBFFDF8
:1000F000C12F3D6C74319ABD56833DDA3D00C77FF8
:1001000011BED9E4BB4C3E916BAAAABE0000008090
:100110003F05A84CCDB2D44EB93836A9020C50B91F
:10012000918688083CA6AAAA2ABE000000803F0744
:10013000634236B79BD8A71A39685618AEBAAB5582
:100140008C1D3CB7CC5763BD6DEDFD753EF6177247
:1001500031BF000000803F08000000BE9224491219
:100160003EABAAAA2ABECDCCCC4C3E00000080BE3D
:10017000ABAAAAAA3E00000000BF000000803F001A
:1001800000000000084178D3BB4387D1133D190E0E
:100190003CC3BD4282AD2B3E68EC8276BED98FE176
:1001A000A93E4C80EFFFBE01C4FF7F3F000000006E
:1001B00000000C94CCFB0D947B230C94D1CA0C94BE
:1001C0004DDD0C94376B0D94873E0D949A190C9469
:1001D000E3C70C9407DC0C94C8D00C94FAC70C94B9
:1001E00025DD0D941EB40D9436170C948DCB0C9414
:1001F0003CDD0D94BEAD0C94C2F50C949FFB0C94A9
:10020000EEFB0C9428DB0C942EE60C9494CB0C940F
:10021000FEC70C94BFD40D9468230C94E3E50C94B2
:1002200004FC0C9451FB0C94D1E50C940CC80C9478
:1002300008C80C94F0C70C9438CE0C94DBC70C940F
:10024000BAC90C949BEA0C9453DB0D946F3E0C944A
:1002500068DF0D94773E0C944CCE0C9434EF0D94E3
:100260000F170C94FEC90C940ACA0D94573E0D94B6
:1002700014150C9406E60C94FBDB0C9463FB0D94B4
:10028000941A0D9400AE0C940B6B0D948F3E0D944C
:1002900020AE0C949DCA0C941EDB0C94ACC90C943B
:1002A000C6FB0C94AFCA0D94D61B0C945FCA0C9479
:1002B0000DDC0D94BE230D9488100D94300B0C941E
:1002C000D5C70C9431DD0C94EAC70C94CE6E0D9416
:1002D00016A70D941FA70C94B7FB0D94D8160D9478
:1002E000763D0D94A5AD0C941EC80C942FCA0D94A8
:1002F00019240C9404DC0D9427B40C9456CE0D9460
:100300005F3E0C94B3C90C94EC6C0C9422C80C9412
:1003100095FB0C94D0FB0C9410F00C941AE60C9402
:1003200002CD0C94E3530D9492A70C94D0D00C946E
:100330004ACA0D9496190C944D680C94ABE50D9433
:100340001DAE0D94D7090D94263E0D94D2170C9432
:1003500047CE0C94A0E00C9469CA0C9416DC0D9462
:10036000203E0C9479FA0C9461EF0D949A0B0C9446
:1003700042CE0D94EC140C9413DD0C9489CA0C94A9
:100380009ADD0C94346A0C94FCEA0D945A270D946F
:10039000BD3D0D94D7140D94233E0C94C9D60D94F5
:1003A000370F0C94F9D50C9401DC0D94490D0D9484
:1003B0004D1B0C94B8C80C9427F10C9415C80C94E0
:1003C00033CD0C944BDD0C94F7E50C94E1DD0C94EB
:1003D000C9E50C94B5D20C9455CA0C940ADC0D9462
:1003E000480A0D94C03D0D94C50F0C94BACA0C94E4
:1003F00042F90D9490160C9419DD0C94B0CB0C942A
:10040000DC6A0C9482ED0D9483080C94FEDB0D9451
:100410009F3E0D947AA70D944B150C94BFE50C9458
:10042000CFF30C94DFC70D94A5150C94A5DC0C94A8
:1004300073CA0D948E3D0C945FCE0D947DA70C94E1
:1004400069CD0C9471DF0C94F56A0C9431D20D9443
:1004500057150D94973E0D9497210C94F4C90D9463
:10046000B5B30C9438E60D94A73E0C94E4CA0C94F2
:10047000A6E50D9400240C94C1C90C94CFCE0D9424
:10048000B40F0C941DCA0C941FDD0C94F7CB0C9484
:1004900078EE0C94B7DB0C94EDE50C94B5E50D9477
:1004A000F63D0C94F4C70C9427C80C9428D20D94F4
:1004B00089A70C94D9E50D94B63D0D9468150D945B
:1004C000AF3E0C9451CE0D948B170D94673E0D9456
:1004D000B33D0C94D4F80C94EAF80C94D9C80C945D
:1004E00076D70C943DCE0C9402C80C94C7DB0D94C7
:1004F000440A0C949EE50D949E0B0C947DCA0C94BA
:10050000E76A0D9474150D9480A70D9423AE0C9496
:1005100027EC0D94B73E0C9486CC0D9479190D946C
:1005200070100C941AC80D94FBB30D945F7B0D945E
:100530001AB40C945BCE0C94C8C90C94F8DB0C94E0
:10054000E4EE0D9431A70C9410C80C94C26A0D947B
:10055000D90A0C9493CE0D944F0C0C9416C80D949C
:1005600077A70C9414FC0C9488690C9435CF0C94E8
:10057000146B0C94ABD60D9452160D9417B40C94C6
:10058000DFC80C9410E60D942CB40C9400D20C949B
:10059000D5EC0C942BFB0D946EA70C94E7C70C9430
:1005A0009FDD0D94E50F0D9489080C94496B0C9414
:1005B00093CA0C94EEFA0C945BFB0C9442D00C940E
:1005C0007ADF0C945FDF0C9424E60D94F1230D94F4
:1005D000764A0D947F3E0D94543E0C943ECA6E6153
:1005E0006E00696E660000407A10F35A00A0724EE9
:1005F00018090010A5D4E80000E87648170000E4C8
:100600000B54020000CA9A3B000000E1F50500000F
:1006100080969800000040420F000000A086010074
:100620000000102700000000E80300000000640044
:10063000000000000A0000000000010000000000AF
:100640002C76D888DC674F0823DFC1DFAE59E1B1D3
:10065000B796E5E3E453C63AE651997696E8E6C2E2
:100660008426EB898C9B62ED407C6FFCEFBC9C9FE9
:1006700040F2BAA56FA5F490055A2AF75C936B6C0B
:10068000F9676DC11BFCE0E40D47FEF520E6B500FF
:10069000D0ED902E0300943577050080841E08006D
:1006A00000204E0A000000C80C333333330F986E1D
:1006B00012831141EF8D2114893BE65516CFFEE6DA
:1006C000DB18D1844B381BF77C1D901DA4BBE424A0
:1006D000203284725E228100C9F124ECA1E53D271D
:1006E000556E6578706563746564206572726F72AB
:1006F000206F636375727265642E004D3630302052
:1007000046696C616D656E74204368616E67652E25
:10071000204C6F61642061206E65772066696C6192
:100720006D656E74206F7220656A656374207468ED
:1007300065206F6C64206F6E652E0052656D6F765C
:10074000652074686520656A656374656420666900
:100750006C616D656E742066726F6D2074686520C3
:1007600066726F6E74206F6620746865204D4D55FB
:100770002E0046696C616D656E74206465746563F6
:1007800074656420756E65787065637465646C79F2
:100790002E20456E73757265206E6F2066696C61E0
:1007A0006D656E74206973206C6F616465642E20C2
:1007B000436865636B207468652073656E736F7240
:1007C0007320616E6420776972696E672E00496ECE
:1007D0007465726E616C2072756E74696D652065EA
:1007E00072726F722E205472792072657365747400
:1007F000696E6720746865204D4D55206F722075B5
:1008000070646174696E6720746865206669726DD2
:10081000776172652E004D4D5520465720766572E2
:1008200073696F6E20697320696E636F6D70617498
:1008300069626C652077697468207072696E74658E
:10084000722046572E55706461746520746F20764F
:10085000657273696F6E20332E302E332E004D4D2E
:1008600055204669726D7761726520696E74657294
:100870006E616C206572726F722C20706C65617392
:100880006520726573657420746865204D4D552E22
:10089000005265717565737465642066696C616D7D
:1008A000656E7420746F6F6C206973206E6F742096
:1008B000617661696C61626C65206F6E2074686935
:1008C000732068617264776172652E204368656386
:1008D0006B2074686520472D636F646520666F72B6
:1008E00020746F6F6C20696E646578206F7574205A
:1008F0006F662072616E6765202854302D5434294C
:100900002E0043616E6E6F7420706572666F726D3B
:100910002074686520616374696F6E2C2066696C51
:10092000616D656E7420697320616C7265616479B4
:10093000206C6F616465642E20556E6C6F6164205D
:1009400069742066697273742E004D4D55206E6F68
:100950007420726573706F6E64696E6720636F7266
:10096000726563746C792E20436865636B207468CC
:100970006520776972696E6720616E6420636F6EAF
:100980006E6563746F72732E004D4D55206E6F74DB
:1009900020726573706F6E64696E672E20436865A0
:1009A000636B2074686520776972696E6720616E79
:1009B0006420636F6E6E6563746F72732E004D6F8B
:1009C00072652064657461696C73206F6E6C696E0A
:1009D000652E005468652049646C65722063616E01
:1009E0006E6F7420686F6D652070726F7065726CC9
:1009F000792E20436865636B20666F7220616E7983
:100A00007468696E6720626C6F636B696E672069DA
:100A10007473206D6F76656D656E742E0043616E24
:100A20002774206D6F76652053656C6563746F72F3
:100A3000206F722049646C65722E005468652053E3
:100A4000656C6563746F722063616E6E6F7420688D
:100A50006F6D652070726F7065726C792E204368BF
:100A600065636B20666F7220616E797468696E676A
:100A700020626C6F636B696E6720697473206D6FA1
:100A800076656D656E742E004C6F6164696E6720CB
:100A9000746F206578747275646572206661696C24
:100AA00065642E20496E73706563742074686520D8
:100AB00066696C616D656E7420746970207368611D
:100AC00070652E20526566696E65207468652073B6
:100AD000656E736F722063616C6962726174696FB5
:100AE0006E2C206966206E65656465642E00536512
:100AF0006C6563746F722063616E2774206D6F760E
:100B0000652064756520746F2046494E4441206419
:100B10006574656374696E6720612066696C616DD8
:100B2000656E742E204D616B652073757265206E45
:100B30006F2066696C616D656E7420697320696EE3
:100B40002053656C6563746F7220616E6420464942
:100B50004E444120776F726B732070726F706572B4
:100B60006C792E0046696C616D656E742073656EDC
:100B7000736F722074726967676572656420746F41
:100B80006F206561726C79207768696C65206C6F85
:100B90006164696E6720746F20657874727564652E
:100BA000722E20436865636B2074686572652069E6
:100BB000736E277420616E797468696E6720737430
:100BC00075636B20696E20505446452074756265CC
:100BD0002E20436865636B20746861742073656EB2
:100BE000736F722072656164732070726F706572CA
:100BF0006C792E0050756C6C6579206D6F746F7216
:100C0000207374616C6C65642E20456E737572651B
:100C1000207468652070756C6C65792063616E2046
:100C20006D6F766520616E6420636865636B207408
:100C3000686520776972696E672E0046696C616D20
:100C4000656E742073656E736F72206469646E27BD
:100C50007420737769746368206F666620776869AB
:100C60006C6520756E6C6F6164696E672066696C77
:100C7000616D656E742E20456E73757265206669B0
:100C80006C616D656E742063616E206D6F7665209A
:100C9000616E64207468652073656E736F7220776F
:100CA0006F726B732E0046696C616D656E74207394
:100CB000656E736F72206469646E27742074726944
:100CC00067676572207768696C65206C6F6164691D
:100CD0006E67207468652066696C616D656E742E40
:100CE00020456E73757265207468652073656E7338
:100CF0006F722069732063616C69627261746564EC
:100D000020616E64207468652066696C616D656E33
:100D10007420726561636865642069742E004649B9
:100D20004E4441206469646E27742073776974634C
:100D300068206F6666207768696C6520756E6C6FD9
:100D40006164696E672066696C616D656E742E20E2
:100D500054727920756E6C6F6164696E67206D6185
:100D60006E75616C6C792E20456E737572652066A8
:100D7000696C616D656E742063616E206D6F766560
:100D800020616E642046494E444120776F726B7338
:100D90002E0046494E4441206469646E27742074D5
:100DA000726967676572207768696C65206C6F612E
:100DB00064696E67207468652066696C616D656E34
:100DC000742E20456E73757265207468652066699F
:100DD0006C616D656E742063616E206D6F76652049
:100DE000616E642046494E444120776F726B732ECA
:100DF0000044697361626C650053746F70004C6FDE
:100E0000616400556E6C6F61640052657365744D6A
:100E10004D550052657472790043726173682064A5
:100E2000657465637465642E00536F6D6520707220
:100E30006F626C656D20656E636F756E746572654B
:100E4000642C205A2D6C6576656C696E6720656E22
:100E5000666F72636564202E2E2E004D65736820C8
:100E6000626564206C6576656C696E672066616991
:100E70006C65642E205072696E742063616E6365C8
:100E80006C65642E0048656174696E6720646973DF
:100E900061626C6564206279207361666574792093
:100EA00074696D65722E0053544F505045442E00A6
:100EB00050415553454420544845524D414C2045DE
:100EC00052524F5200472D636F646520736C696303
:100ED000656420666F72206120646966666572656C
:100EE0006E74206C6576656C2E20506C6561736540
:100EF0002072652D736C69636520746865206D6F61
:100F000064656C20616761696E2E00472D636F64B4
:100F10006520736C6963656420666F72206120646C
:100F20006966666572656E74206C6576656C2E0008
:100F3000472D636F646520736C6963656420666F19
:100F4000722061206E65776572206669726D7761C7
:100F500072652E20506C65617365207570646174D4
:100F60006520746865206669726D776172652E0010
:100F7000472D636F646520736C6963656420666FD9
:100F8000722061206E65776572206669726D776187
:100F900072652E00472D636F646520736C6963650D
:100FA0006420666F72206120646966666572656E92
:100FB00074207072696E74657220747970652E2069
:100FC000506C656173652072652D736C6963652073
:100FD000746865206D6F64656C20616761696E2E51
:100FE00000472D636F646520736C696365642066D8
:100FF0006F72206120646966666572656E74207028
:1010000072696E74657220747970652E0050726515
:10101000737320746865206B6E6F6220746F20702C
:10102000726568656174206E6F7A7A6C6520616E96
:101030006420636F6E74696E75652E00506C656117
:10104000736520707265737320746865206B6E6FB2
:101050006220746F20756E6C6F61642066696C61CC
:101060006D656E7400616E642070726573732074B8
:101070006865206B6E6F6200496E736572742066DE
:10108000696C616D656E7400436F6C6F72206E6F7A
:101090007420636F72726563740046696C616D657C
:1010A0006E74206E6F74206C6F61646564004368B9
:1010B000616E67656420636F72726563746C79003A
:1010C0004C6F6164696E6720636F6C6F7200436878
:1010D000616E676520737563636573732100506C7F
:1010E00065617365206F70656E2069646C65722040
:1010F000616E642072656D6F76652066696C616DE6
:10110000656E74206D616E75616C6C792E0057612F
:10111000732066696C616D656E7420756E6C6F61AD
:1011200064207375636365737366756C3F00506C00
:101130006561736520757067726164652E004E6528
:1011400077206669726D7761726520766572736962
:101150006F6E20617661696C61626C653A005761FF
:101160006974696E6720666F722050494E44412051
:1011700070726F626520636F6F6C696E6700506C90
:10118000656173652077616974004E6F206D6F76BD
:10119000652E005761697420666F722075736572E1
:1011A0002E2E2E00537461626C6520616D6269653C
:1011B0006E742074656D706572617475726520322D
:1011C000312D323643206973206E65656465642075
:1011D00061207269676964207374616E6420697349
:1011E0002072657175697265642E00506C6561735B
:1011F000652072756E2058595A2063616C6962725D
:101200006174696F6E2066697273742E0042656442
:10121000206C6576656C696E67206661696C6564D3
:101220002E2053656E736F72206469646E2774207C
:10123000747269676765722E2044656272697320F3
:101240006F6E206E6F7A7A6C653F205761697469A2
:101250006E6720666F722072657365742E00536529
:101260006E736974697669747900446F6E650022E3
:1012700000656E717565696E67202200446F6E654A
:10128000207072696E74696E672066696C65004EC5
:101290006F204C696E65204E756D626572207769AE
:1012A000746820636865636B73756D2C204C617383
:1012B00074204C696E653A20004E6F204368656368
:1012C0006B73756D2077697468206C696E65206E2C
:1012D000756D6265722C204C617374204C696E656B
:1012E0003A2000636865636B73756D206D69736D7B
:1012F000617463682C204C617374204C696E653A8C
:1013000020004C696E65204E756D626572206973B0
:10131000206E6F74204C617374204C696E65204E92
:10132000756D6265722B312C204C617374204C6991
:101330006E653A2000256C7520627974657320779C
:1013400072697474656E20746F2025532061742057
:10135000616464726573732030782530346C780A68
:1013600000442564202D20526561642F57726974F2
:10137000652025530A0020436F756E7420583A206B
:101380000045303A25642052504D2050524E313A9B
:1013900025642052504D204530403A25752050524A
:1013A0004E31403A25750A00526573656E6400251A
:1013B000533A20256C640A25530A002F2F61637469
:1013C000696F6E3A6E6F74696669636174696F6E96
:1013D0002025530A0046696C616D656E7420727534
:1013E0006E6F757420646574656374656421005064
:1013F00072696E7465722073746F707065642064B6
:10140000756520746F206572726F72732E2053752C
:10141000706572766973696F6E2072657175697235
:1014200065642E0064756D7020636C65617265641F
:101430000A006E6F2064756D7020617661696C6161
:10144000626C650A00443231202D2072656164208F
:1014500063726173682064756D700A006E6F20643A
:10146000756D7020617661696C61626C650A0064FB
:10147000756D7020636F6D706C6574656420696E46
:1014800020256C756D730A0058464C415348004541
:101490004550524F4D005352414D00442D31202DA7
:1014A00020456E646C657373206C6F6F700A004129
:1014B00063746976652045787472756465723A2044
:1014C0003000496E76616C69642065787472756469
:1014D000657200746D63323133305F7072696E749F
:1014E0005F63757272656E747328290A0948095220
:1014F0000A580925640925640A59092564092564DF
:101500000A5A0925640925640A45092564092564E0
:101510000A005344207072696E74696E67206279A4
:1015200074652000257500556E6B6E6F776E2063B5
:101530006F6D6D616E643A2022004D32303020496B
:101540006E76616C6964206578747275646572206A
:10155000007A5F6D61783A20007A5F6D696E3A209B
:1015600000795F6D61783A2000795F6D696E3A208D
:1015700000785F6D61783A200054524947474552E0
:101580004544006F70656E00785F6D696E3A2000AB
:101590005265706F7274696E6720656E6473746FE4
:1015A0007020737461747573004D31313220636142
:1015B0006C6C65642E20456D657267656E6379207D
:1015C00053746F702E002F2F616374696F6E3A75BC
:1015D000766C6F5F7265636F766572795F72656155
:1015E0006479002F2F616374696F6E3A75766C6F42
:1015F0005F6175746F5F7265636F766572795F7234
:10160000656164790025533A256C7520636D0A2560
:10161000533A256C75206D696E0A0053494C454E4E
:1016200054004E4F524D414C002553204D4F4445E0
:101630003A2050657263656E7420646F6E653A205F
:10164000256868643B207072696E742074696D65EA
:101650002072656D61696E696E6720696E206D69C3
:101660006E733A2025643B204368616E676520698C
:101670006E206D696E733A2025640A005072696E9F
:1016800074657253746174653A2025640A00456E6E
:10169000642066696C65206C6973740042656769D3
:1016A0006E2066696C65206C69737400556E6B6E94
:1016B0006F776E20256320636F64653A2025730A77
:1016C000000A50494E44412074656D706572617422
:1016D0007572653A20252E3166205A207368696636
:1016E0007420286D6D293A20252E3366000A537424
:1016F00065703A2025642F360A000A537465703AE3
:101700002025642F362028736B6970706564290A60
:1017100050494E44412074656D70657261747572F4
:10172000653A202564205A20736869667420286D04
:101730006D293A300A000A5A45524F3A20252E3375
:10174000660A0073746172742074656D70657261ED
:10175000747572653A20252E31660A0025642020B2
:10176000252E326600255320583A20252E35662036
:10177000593A20252E3566205A3A20252E35660AFC
:1017800000536C6565702E2E2E0045303A2564207E
:1017900052504D0A50524E303A25642052504D0A54
:1017A00000312F39008800002045535000204E534F
:1017B0005000204F464600204F4E0050563031001A
:1017C000205B4D505D2000256920686F7572732085
:1017D0002569206D696E75746573005258207469AF
:1017E0006D656F7574004D333130004D313132000D
:1017F0004D3131300046756C6C2052582042756670
:101800006665720053657474696E67732053746FF4
:1018100072656400544D3A2073746F72656420637E
:10182000616C6962726174696F6E20696E76616C59
:1018300069642C20726573657474696E67005374F3
:101840006F7265642073657474696E677320726566
:10185000747269657665640048617264636F64657B
:10186000642044656661756C742053657474696E98
:101870006773204C6F61646564005632000000009D
:10188000C8420000C8420000C84300008C4300006A
:10189000484300004843000040410000F042E80394
:1018A0000000E8030000C8000000881300000040AA
:1018B0009C4400409C440000000000000000204EBA
:1018C00000000000204100002041CDCCCC3E0000B3
:1018D0009040000000000000000000000000CDCC9F
:1018E000CC3E000070410745F33E0160EA428F4262
:1018F000FC42E65A343F4C62B04500000000004014
:101900004000003442000000000000000000000021
:1019100041000000E03F0000C8420000C842000053
:1019200040410000F042C0030000C0030000C800B6
:101930000000881300001010102000409C4400009C
:10194000803F0000003F1914000000437573746F5E
:101950006D004E796C6F6E504100536174696E205A
:10196000200054657874757200536D6F6F74680051
:10197000486F74656E642066616E2073706565647F
:10198000206973206C6F776572207468616E2065C2
:1019900078706563746564005072696E7420666166
:1019A0006E207370656564206973206C6F77657253
:1019B000207468616E2065787065637465640031B9
:1019C0002E3000312E3500554E4B4E4F574E004CA9
:1019D000413130433A204C696E6561722041647632
:1019E000616E6365206D6F64653A20004C41313053
:1019F000433A2041646A757374656420452D4A65D5
:101A0000726B3A20003E0FA8AF00480069960000B4
:101A1000DF6025555887680427F2E0005E3403CC68
:101A20001960F33C0EF88F00DB08029492003E1C14
:101A3000079A8700E524008528527E06001BE400F3
:101A40007E781270787061F812788F8841784270D1
:101A5000787061782570787061F850788F88D1F04F
:101A60002527078761F025278F88412C0D27AA504D
:101A7000D1BC0707871161BE788F881141785270F9
:101A8000787061F852788F884120127888706320CE
:101A90005278887063485278888743031117997089
:101AA00064181278F870654412F8F8F04518427816
:101AB000F87065182578F87065185278F870651810
:101AC0005078F870650C078F872365A20F8F8F11F0
:101AD00045001206227069001207222749002506D8
:101AE00022706900250722274900120622276C026E
:101AF0006236A2706C40456C44704C0362222270C6
:101B00006C43888888F04C7812BC88806E7852BC10
:101B100088806E38127888706F78127888874F388E
:101B2000427888706F38257888706F3A0079AC7881
:101B30006F3D079AAC786F7850788887EF3949788D
:101B400088706F0852BC8880729852F88F98522023
:101B5000127870F07348127863875320527870F0CF
:101B6000734852786387531007870F247312786382
:101B700087245360699A988BE22304E444307410FC
:101B80004E444324747C12888960753C5088887068
:101B9000557825288960757949088960753C1288CF
:101BA0007070790C12885222594412F124F07A4450
:101BB00052F124F07A8C52F0368F5A4420F124F0FE
:101BC0007A00401454CDCCCC3D0AD7233C17B7D172
:101BD0003877CC2B329595E6241FB14F0A000020B0
:101BE000410000C84200401C4620BCBE4CCA1B0E2F
:101BF0005AAEC59D744E414E494E46627573793A50
:101C00002070617573656420666F7220696E7075EF
:101C10007400627573793A2070617573656420662B
:101C20006F72207573657200627573793A207072F5
:101C30006F63657373696E670000007F43008054B3
:101C4000430000524300000000000080C09A991930
:101C50003E00000000000080C09A99193E0000A0DC
:101C6000400000A0400000004025336420737465EC
:101C7000703D253264206D73636E743D2534640AB3
:101C80000000007F43008058439AD95143FFFFFF73
:101C900020413A0020503A002042403A0020403A89
:101CA00000202F002054303A00202F0020423A001C
:101CB000202F00543A002553457863657373697685
:101CC0006520626564206C6576656C696E6720636B
:101CD0006F7272656374696F6E3A202569206D6951
:101CE00063726F6E730A00426564206C6576656C82
:101CF000696E67206661696C65642E20546F6F2081
:101D00006D75636820766172696174696F6E2066B3
:101D1000726F6D20656570726F6D206D6573680000
:101D2000426564206C6576656C696E6720666169E2
:101D30006C65642E2053656E736F722074726967D0
:101D4000676572656420746F6F20736F6F6E00201B
:101D500020004D6561737572656420706F696E74E3
:101D6000733A005A20736561726368206865696719
:101D700068743A20352E3066004E756D20582C5907
:101D80003A20372C37004D65736820626564206CFB
:101D90006576656C696E67206E6F74206163746927
:101DA00076652E0020453A00205A3A0020593A0024
:101DB00020453A00205A3A0020593A00583A00206B
:101DC0002D3E200053706F6F6C4A6F696E3A200091
:101DD0002C2000496E6163746976697479205368B8
:101DE0007574646F776E004B494C4C45442E00501F
:101DF00072696E7465722068616C7465642E206B04
:101E0000696C6C28292063616C6C656421005A2020
:101E10006C6976652061646A757374206F757420CF
:101E20006F662072616E67652E2053657474696EEB
:101E30006720746F20302E20436C69636B20746FB1
:101E400020636F6E74696E75652E005A206C69761A
:101E5000652061646A757374206F7574206F6620E5
:101E600072616E67652E2053657474696E672074A5
:101E70006F20300020453A3020423A00543A004763
:101E800031205A252D2E33662046252D2E3366000F
:101E9000496E76616C6964205420636F64652E001E
:101EA0004475706C696361746520542D636F64655B
:101EB0002069676E6F7265642E00416476616E639F
:101EC00065204B3D004B206F7574206F6620616C60
:101ED0006C6F7765642072616E676521004D4B33CE
:101EE000004D4B334D4D5533005C762C012533644A
:101EF0002F2533640025336400200A200A200A209D
:101F0000002553537461746973746963733A0A25C5
:101F10005320204D37382053256C752054256C757F
:101F20000A0025534172632053657474696E6773A8
:101F30003A20503A4D6178206C656E677468286D60
:101F40006D2920533A4D696E206C656E6774682068
:101F5000286D6D29204E3A436F7272656374696F04
:101F60006E7320523A4D696E207365676D656E74AD
:101F70007320463A5365676D656E74732F7365639E
:101F80002E0A255320204D3231342050252E326622
:101F90002053252E3266204E25642052256420468B
:101FA00025640A00255346696C616D656E74207363
:101FB000657474696E67733A2044697361626C6515
:101FC000640A00255346696C616D656E7420736503
:101FD0007474696E67733A0A25532020204D32309D
:101FE000302044252E32660A0025535265747261F2
:101FF00063743A20533D4C656E67746820286D6D9C
:102000002920463A537065656420286D6D2F6D292F
:10201000205A3A205A4C69667420286D6D290A2589
:10202000532020204D3230372053252E3266204653
:10203000252E3266205A252E32660A2553526563B4
:102040006F7665723A20533D4578747261206C65F5
:102050006E67746820286D6D2920463A5370656557
:102060006420286D6D2F6D290A25532020204D32C4
:1020700030382053252E32662046252E32660A251A
:10208000534175746F2D526574726163743A2053B5
:102090003D3020746F2064697361626C652C20315F
:1020A00020746F20696E7465727072657420657833
:1020B00074727564652D6F6E6C79206D6F766573C3
:1020C000206173207265747261637473206F722073
:1020D0007265636F7665726965730A2553202020E7
:1020E0004D323039205325640A002553504944208D
:1020F000686561746265642073657474696E677382
:102100003A0A25532020204D3330342050252E32DA
:10211000662049252E32662044252E32660A002587
:10212000535049442073657474696E67733A0A2585
:10213000532020204D3330312050252E3266204947
:10214000252E32662044252E32660A00255353740C
:102150006570732070657220756E69743A0A255334
:1021600020204D39322058252E32662059252E3216
:1021700066205A252E32662045252E32660A2553C2
:102180005553746570207265736F6C7574696F6EEA
:102190003A200A2553204D333530205825642059E4
:1021A0002564205A2564204525640A25534D61780D
:1021B000696D756D20666565647261746573202D47
:1021C000206E6F726D616C20286D6D2F73293A0A35
:1021D000255320204D3230332058252E3266205989
:1021E000252E3266205A252E32662045252E32664F
:1021F0000A25534D6178696D756D20666565647259
:1022000061746573202D20737465616C7468202877
:102210006D6D2F73293A0A255320204D323033201B
:1022200058252E32662059252E3266205A252E3208
:10223000662045252E32660A25534D6178696D75F5
:102240006D20616363656C65726174696F6E202DCA
:10225000206E6F726D616C20286D6D2F7332293A7C
:102260000A255320204D3230312058256C752059D5
:10227000256C75205A256C752045256C750A2553EB
:102280004D6178696D756D20616363656C65726120
:1022900074696F6E202D20737465616C74682028DA
:1022A0006D6D2F7332293A0A255320204D3230317B
:1022B0002058256C752059256C75205A256C752081
:1022C00045256C750A2553416363656C65726174BD
:1022D000696F6E3A20503D7072696E742C20523DC9
:1022E000726574726163742C20543D7472617665FA
:1022F0006C0A255320204D3230342050252E326672
:102300002052252E32662054252E32660A2553414E
:102310006476616E636564207661726961626C6582
:10232000733A20533D4D696E206665656472617431
:102330006520286D6D2F73292C20543D4D696E202A
:1023400074726176656C206665656472617465207F
:10235000286D6D2F73292C20423D6D696E696D7556
:102360006D207365676D656E742074696D652028D6
:102370007573292C20583D6D6178696D756D2058F5
:1023800059206A65726B20286D6D2F73292C2020CF
:102390005A3D6D6178696D756D205A206A65726B62
:1023A00020286D6D2F73292C2020453D6D617869A3
:1023B0006D756D2045206A65726B20286D6D2F73D9
:1023C000290A255320204D3230352053252E3266E0
:1023D0002054252E32662042256C752058252E3239
:1023E000662059252E3266205A252E326620452534
:1023F0002E32660A2553486F6D65206F66667365D9
:102400007420286D6D293A0A255320204D3230362C
:102410002058252E32662059252E3266205A252E28
:1024200032660A00544D3A20525B25755D20657373
:1024300074696D6174652E00544D3A202553205205
:102440002025644300544D3A2025532043206573D2
:10245000742E00544D3A20636F6F6C20646F776E5A
:10246000203C25644300726566696E6500696E698B
:102470007469616C00544D3A2063616C6962722E1C
:10248000206661696C65642100544D3A2063616C7B
:102490006962726174696F6E207374617274005442
:1024A0004D3A2043616C2E204E4F542049444C45F8
:1024B000004361703A25533A25630A005052555340
:1024C000415F4D4D553200455854454E4445445F9B
:1024D0004D3230004155544F5245504F52545F5089
:1024E0004F534954494F4E004155544F5245504F58
:1024F00052545F46414E53004155544F5245504F40
:1025000052545F54454D50000044656C6574696FCA
:102510006E206661696C65642C2046696C653A20A2
:102520000046696C652064656C657465643A004EAC
:102530006F74205344207072696E74696E67005026
:1025400072696E7420736176656400534420707202
:10255000696E7420706175736564002533642F257E
:102560003364004F4B004241440052414D426F20C2
:1025700046414E20006676007468780050524E0046
:1025800043524153485F43414E43454C00435241FF
:1025900053485F5245434F564552004352415348BA
:1025A0005F5245434F564552002228322900255399
:1025B0003A2025530A002C204D3930372045206918
:1025C000676E6F726564006E6F2076616C6964205F
:1025D000636F6D6D616E64007A65726F72697A65A2
:1025E0006400666163746F727920726573746F72D0
:1025F000656400696E6465782C2074656D702C20AC
:1026000075737465702C20756D0050494E444120DF
:1026100063616C207374617475733A2000503A00E2
:102620005761697420666F722050494E444120748E
:1026300061726765742074656D706572617475721E
:10264000653A00204100205000204200204C00202C
:102650005200205A00204E4F5420494E49544941BF
:102660004C495A45440053686565742000205A203F
:1026700056414C5545204F5554204F462052414E0F
:10268000474500496E76616C6964207368656574BE
:102690002049442E20416C6C6F7765643A20302EBF
:1026A0002E004155544F004C414E472053454C207D
:1026B000464F52434544004D323536204225642072
:1026C00044256420532564205425750A0020643A6B
:1026D0000020693A0020703A0020643A0020693AEC
:1026E0000020703A00256925250A00256925250A5C
:1026F0000022283129002F2F000020455854525520
:102700004445525F434F554E543A3100204D4143AA
:1027100048494E455F545950453A00312E3000200B
:102720006261736564206F6E204D61726C696E200A
:102730004649524D574152455F55524C3A68747460
:1027400070733A2F2F6769746875622E636F6D2FEF
:10275000707275736133642F50727573612D4669A1
:10276000726D776172652050524F544F434F4C5FEA
:1027700056455253494F4E3A00663365306466649D
:102780003438005F0038323834002B004649524D4F
:10279000574152455F4E414D453A50727573612D18
:1027A0004669726D7761726520004D313133205377
:1027B000006F6B20006E2F61003F546F7368696279
:1027C0006120466C617368416972204765744950A5
:1027D000206661696C65640A00000125311D0C40AA
:1027E00024301C0B45232F1B0A17FF0406222B1A2B
:1027F00003363735382569206D696E2C2025692010
:1028000073656300496E76616C6964204D20636F67
:1028100064653A2025730A0050494E444120707285
:102820006F62652063616C6962726174696F6E20AA
:102830007374617274004E6F2050494E444120748D
:102840006865726D6973746F7200736574006E6F82
:102850007A7A6C65004D424C004652004C7A004C2E
:10286000616E6700315F37356D6D5F4D4B332D45C0
:10287000494E53795F3130612D4533445245564FAF
:102880005F48465F3630570052657600332E31344C
:102890002E312D383238340046697200534E20698B
:1028A0006E76616C696400534E0052455345540086
:1028B0004D4D555245530075766C6F0046414E00A4
:1028C00046414E50494E54535400505255534100C6
:1028D0005345545F43484F505F005345545F535432
:1028E00045505F005345545F574156455F00544D76
:1028F000435F0043524153485F43414E43454C00C0
:1029000043524153485F5245434F5645520043524C
:102910004153485F44455445435445440043524164
:1029200053485F00252E3130532000253464004584
:102930007872656D65207370616E206F66207468B3
:1029400065205A2076616C756573210025642F39E6
:10295000004D4D55323A0025336400180104190228
:102960000A920D1E0DA60C3B0CF40B640BEE0A88AC
:102970000A3B0A1D0AD3091D0ABE09BE09BE09BECB
:1029800009BE09BE09BE09BE09BE09BE09BE09BE0F
:1029900009BE09BE09BE09BE09BE09BE09BE09BEFF
:1029A00009BE09BE0989094A09020991085E08168B
:1029B00008CE0772073B07FB06E006010101010193
:1029C0000101027101710132323203030303030377
:1029D0000303030303030303030303030393932486
:1029E0003803930301025603650066006700680020
:1029F00069006A006B006C00730074007D007E004B
:102A0000C900D300DD00CA00D400DE002D0137016B
:102A100041012E01380142012F01390143013001EA
:102A20003A01440131013B0145013201910192011A
:102A3000F501F601F701F801F901FA01FB01FC01CA
:102A40008403130E6A120A0E030EFE0D294D2F3C4D
:102A5000F90DF10D252E3230530A70727573612E07
:102A6000696F2F3034256875002055706772616476
:102A7000696E672078666C6173680A20446F206E07
:102A80006F7420646973636F6E6E65637421007781
:102A90003235783230636C5F63666D0A00773235A9
:102AA000783230636C5F656E7465720A00737461AE
:102AB00072740A004D313034533000473158313090
:102AC0005931383046343030300047315A31304691
:102AD00031333030004D3134305330004731452DE3
:102AE000302E3037354632313030004D32303453AD
:102AF000313030300047315A3546373230300047B8
:102B000031452D312E3546323130300047393000D5
:102B10004D3130370025533A0A2531382E32666D53
:102B2000200A25533A0A2531306C6468202530325A
:102B3000646D2025303264730025533A0A253138FC
:102B40002E32666D200A25533A0A2531306C6464B2
:102B500020253032646820253032646D0025362E01
:102B600032666D6D0025530A25530A25533A0A250E
:102B7000533A0025332E32668100252D31342E3113
:102B800034533A0A25530A252D31342E3134533A21
:102B900025332E3266810A252D31342E3134533AB5
:102BA00025332E3266810020203000202031004263
:102BB0003A20253364202020202058643A253664AA
:102BC0000A533A20253364202020202059643A25D6
:102BD00036640046494E44410050494E4441005736
:102BE000697A61726420656E642073746174653AF9
:102BF0002025640A0053706F6F6C4A6F696E00463F
:102C000069726D776172650048426564206F6E205D
:102C10006C6F616400466C6173684169720054684E
:102C200065726D616C204D6F64656C2063616C2E04
:102C3000004572723A5052494E542046414E20454A
:102C400052524F52004572723A484F54454E4420FA
:102C500046414E204552524F52002F2F61637469F6
:102C60006F6E3A726573756D6564002F2F616374C2
:102C7000696F6E3A726573756D65002F2F616374AD
:102C8000696F6E3A7265616479002F2F61637469B0
:102C90006F6E3A6E6F745F7265616479002F2F6199
:102CA0006374696F6E3A63616E63656C004D3834AE
:102CB0000041786973206C656E677468206469668A
:102CC000666572656E63653A252E33660A004D654A
:102CD0006173757265642061786973206C656E67D5
:102CE00074683A252E33660A004F4B004C4344204B
:102CF000737461747573206368616E6765640053F3
:102D00004420636172642072656C65617365640060
:102D100046616B652073657269616C206E756D62CA
:102D2000657200452D636F6F6C206D6F6465002FB9
:102D30002F616374696F6E3A7374617274004739FE
:102D400031004D373032004D38330047323820578C
:102D5000004D3530300045787465726E616C2053DB
:102D6000504920666C6173680A58464C41534820AC
:102D70006973206E6F74207265732D0A706F6E64B4
:102D8000696E672E204C616E67756167650A73779F
:102D90006974636820756E617661696C61626C65E7
:102DA0002E0058464C415348206E6F742072657354
:102DB000706F6E64696E672E004657206372617390
:102DC000682064657465637465642120596F75209B
:102DD00063616E20636F6E74696E756520707269D1
:102DE0006E74696E672E2044656275672064617435
:102DF0006120617661696C61626C6520666F72202A
:102E0000616E616C797369732E20436F6E746163B8
:102E10007420737570706F727420746F2073756294
:102E20006D69742064657461696C732E002F2F6165
:102E30006374696F6E3A64756D705F617661696C19
:102E400061626C65004372617368446574656374A4
:102E50002044495341424C454400437261736844E5
:102E6000657465637420454E41424C454421002001
:102E700020506C616E6E657242756666657242794D
:102E80007465733A20002046726565204D656D6F4C
:102E900072793A2000207C20417574686F723A2064
:102EA00000204C61737420557064617465643A202D
:102EB0000020536F66747761726520526573657484
:102EC00000205761746368646F672052657365748E
:102ED000002042726F776E206F75742052657365A3
:102EE00074002045787465726E616C20526573655C
:102EF0007400506F7765725570006572726F722042
:102F000077726974696E6720746F2066696C6500FA
:102F1000446F6E6520736176696E672066696C65C3
:102F20002E006F6B0046696C616D656E74004731F1
:102F30005A302E32004731583230322E354538461D
:102F400031343030004731592D3246313030300085
:102F5000473158323430453235463232303000470E
:102F6000315A302E33463130303000473158353504
:102F700045384632303030004731583545323946D1
:102F800031383030004731583535453239463130E7
:102F9000373300473932453000473238004D313041
:102FA00039004D313930005072696E742074696D8A
:102FB000650046696C616D656E74207573656400AB
:102FC000546F74616C207072696E742074696D65E1
:102FD00000546F74616C2066696C616D656E74007D
:102FE0005072656865617420746865206E6F7A7AC6
:102FF0006C6521004552524F523A0052696768741D
:10300000004C65667400592064697374616E636571
:103010002066726F6D206D696E005365766572650E
:1030200020736B657700536C6967687420736B65F8
:1030300077004D6561737572656420736B65770009
:103040005B303B305D20706F696E74206F66667315
:1030500065740041646A757374696E67205A005222
:103060006561722073696465205BE46D5D00467282
:103070006F6E7420736964655BE46D5D005269670F
:10308000687420736964655BE46D5D004C6566740B
:103090002073696465205BE46D5D00536574207482
:1030A000656D70657261747572653A0050494E4481
:1030B000412063616C6962726174696F6E20666140
:1030C000696C65640050494E44412063616C6962DB
:1030D000726174696F6E2069732066696E697368C6
:1030E000656420616E64206163746976652E204991
:1030F000742063616E2062652064697361626C652F
:103100006420696E206D656E752053657474696EF8
:1031100067732D3E50494E44412063616C2E00453B
:1031200078747275646572004D6F7665205A004D33
:103130006F76652059004D6F7665205800437261A7
:10314000736820646574656374696F6E2063616E73
:103150000A6265207475726E6564206F6E206F6EF2
:103160006C7920696E0A4E6F726D616C206D6F64B0
:1031700065005741524E494E473A0A43726173689F
:1031800020646574656374696F6E0A646973616253
:103190006C656420696E0A537465616C7468206D97
:1031A0006F6465004D6F6465206368616E676520BC
:1031B000696E2070726F67726573732E2E2E0053C6
:1031C0006865657420252E37730A5A206F6666730A
:1031D00065743A20252B312E33666D6D0A256343C5
:1031E0006F6E74696E75650A256352657365740048
:1031F000506C65617365206C6F61642066696C61F9
:103200006D656E742066697273742E0052756E6EF1
:10321000696E672057697A6172642077696C6C20E7
:1032200064656C6574652063757272656E74206385
:10323000616C6962726174696F6E20726573756C1E
:10324000747320616E642073746172742066726F8F
:103250006D2074686520626567696E6E696E672EA1
:103260000050726568656174696E67206E6F7A7A66
:103270006C652E20506C6561736520776169742ED2
:1032800000506C6561736520696E736572742066A9
:10329000696C616D656E7420696E746F2074686509
:1032A0002065787472756465722C207468656E2070
:1032B000707265737320746865206B6E6F62207422
:1032C0006F206C6F61642069742E00506C656173AF
:1032D0006520696E736572742066696C616D656ED8
:1032E0007420696E746F20746865206669727374E7
:1032F0002074756265206F6620746865204D4D5599
:103300002C207468656E2070726573732074686514
:10331000206B6E6F6220746F206C6F616420697423
:103320002E005A2063616C6962726174696F6E204D
:103330007265636F6D6D656E6465642E2052756E87
:10334000206974206E6F773F005468652070726941
:103350006E7465722077696C6C207374617274206E
:103360007072696E74696E672061207A69672D7A60
:103370006167206C696E652E20526F7461746520E0
:10338000746865206B6E6F6220756E74696C20794D
:103390006F7520726561636820746865206F707452
:1033A000696D616C206865696768742E2043686583
:1033B000636B20746865207069637475726573202F
:1033C000696E207468652068616E64626F6F6B203F
:1033D0002843616C6962726174696F6E2063686111
:1033E00070746572292E0053656C65637420746572
:1033F0006D706572617475726520776869636820A5
:103400006D61746368657320796F7572206D617486
:10341000657269616C2E0053656C65637420612070
:1034200066696C616D656E7420666F722074686584
:10343000204669727374204C617965722043616C17
:103440006962726174696F6E20616E642073656C6D
:1034500065637420697420696E20746865206F6EDE
:103460002D73637265656E206D656E752E004E6FEF
:103470007720492077696C6C2063616C69627261A6
:1034800074652064697374616E6365206265747726
:1034900065656E20746970206F6620746865206EA3
:1034A0006F7A7A6C6520616E64206865617462650C
:1034B0006420737572666163652E00506C6561737C
:1034C0006520636865636B206F75722068616E6448
:1034D000626F6F6B20616E64206669782074686526
:1034E0002070726F626C656D2E205468656E20725C
:1034F0006573756D65207468652057697A617264BB
:10350000206279207265626F6F74696E67207468DB
:1035100065207072696E7465722E00416C6C206952
:103520007320646F6E652E20486170707920707210
:10353000696E74696E672100596F752063616E2032
:10354000616C7761797320726573756D652074683D
:10355000652057697A6172642066726F6D204361DD
:103560006C6962726174696F6E202D3E2057697AB2
:103570006172642E00496620796F752068617665F6
:10358000206164646974696F6E616C207374656531
:103590006C207368656574732C2063616C6962725A
:1035A00061746520746865697220707265736574F2
:1035B0007320696E2053657474696E6773202D20C3
:1035C0004857205365747570202D20537465656CC1
:1035D000207368656574732E00506C656173652097
:1035E000636C65616E206865617462656420616EFC
:1035F00064207468656E20707265737320746865EA
:10360000206B6E6F622E00446F20796F752077619A
:103610006E7420746F20726570656174206C6173C4
:1036200074207374657020746F20726561646A75AC
:1036300073742064697374616E6365206265747766
:1036400065656E206E6F7A7A6C6520616E642068A5
:103650006561746265643F0053656C656374206ED8
:103660006F7A7A6C65207072656865617420746524
:103670006D70657261747572652077686963682022
:103680006D61746368657320796F7572206D617404
:10369000657269616C2E0049732066696C616D65A5
:1036A0006E74206C6F616465643F00546865726D70
:1036B000616C206D6F64656C2063616C2E20746199
:1036C0006B657320617070726F782E203132206DBF
:1036D000696E732E205365650A70727573612E6969
:1036E0006F2F746D2D63616C004E6F7720492077CA
:1036F000696C6C2070726568656174206E6F7A7A8F
:103700006C6520666F7220504C412E00492077690D
:103710006C6C2072756E207A2063616C69627261D4
:1037200074696F6E206E6F772E004E6F7720726512
:103730006D6F76652074686520746573742070728F
:10374000696E742066726F6D20737465656C20738A
:10375000686565742E00506C656173652072656DD7
:103760006F7665207368697070696E672068656C34
:10377000706572732066697273742E0049207769D0
:103780006C6C2072756E2078797A2063616C696246
:10379000726174696F6E206E6F772E204974207786
:1037A000696C6C2074616B6520757020746F2032B9
:1037B00034206D696E732E0046697273742C204933
:1037C0002077696C6C2072756E2074686520736553
:1037D0006C667465737420746F20636865636B2016
:1037E0006D6F737420636F6D6D6F6E2061737365A1
:1037F0006D626C792070726F626C656D732E00481B
:10380000692C204920616D20796F7572204F726993
:1038100067696E616C205072757361206933207026
:1038200072696E7465722E20576F756C6420796FA3
:1038300075206C696B65206D6520746F20677569F4
:10384000646520796F75207468726F75676820747D
:1038500068652073657475702070726F636573732B
:103860003F0048692C204920616D20796F757220D6
:103870004F726967696E616C20507275736120695F
:1038800033207072696E7465722E20492077696CDE
:103890006C20677569646520796F75207468726F34
:1038A00075676820612073686F7274207365747522
:1038B000702070726F636573732C20696E20776857
:1038C00069636820746865205A2D61786973207770
:1038D000696C6C2062652063616C696272617465F9
:1038E000642E205468656E2C20796F752077696C82
:1038F0006C20626520726561647920746F2070723B
:10390000696E742E00452D636F7272656374005A80
:103910002D636F727265637400592D636F727265E7
:10392000637400582D636F72726563740050617523
:10393000736500465320416374696F6E00462E2004
:103940006A616D2064657465637400462E2061753C
:10395000746F6C6F616400462E2072756E6F7574A3
:10396000004D4D55204D6F6465004375747465724C
:103970000046616E207370656564004265640046B0
:10398000616E7320636865636B004D6F64656C00E6
:103990004E6F7A7A6C6500506C6561736520756E48
:1039A0006C6F6164207468652066696C616D656E1A
:1039B000742066697273742C207468656E20726559
:1039C00070656174207468697320616374696F6ED7
:1039D0002E00436865636B7300416C7068616265BB
:1039E000740054696D6500536F7274005344206312
:1039F0006172640052506920706F7274004C696E7D
:103A00002E20636F7272656374696F6E004E6F7AF9
:103A10007A6C65206368616E67650048572053655E
:103A2000747570004C6F6164696E672054657374BF
:103A30000044697361626C652073746570706572AF
:103A400073004D6F766520617869730054656D7001
:103A5000657261747572650050494E44412063611E
:103A60006C2E0052657365742058595A2063616C3E
:103A70006962722E005049442063616C6962726110
:103A800074696F6E00426564206C6576656C2063B6
:103A90006F7272656374004D6573682042656420BF
:103AA0004C6576656C696E670043616C6962726132
:103AB0007465205A0043616C6962726174652058B4
:103AC000595A0053656C66746573740042656C7472
:103AD00020746573740057697A617264004C6F6179
:103AE0006420416C6C00506C656173652070756C6E
:103AF0006C206F75742066696C616D656E742069E9
:103B00006D6D6564696174656C7900526573657487
:103B10000052656E616D65004669727374206C6158
:103B20007965722063616C2E0053656C6563740067
:103B3000537465656C2073686565747300537570A4
:103B4000706F7274004661696C20737461747320C5
:103B50004D4D55004661696C207374617473005358
:103B60007461746973746963730043616C69627230
:103B70006174696F6E004175746F4C6F616420668B
:103B8000696C616D656E74004C6F61642066696C70
:103B9000616D656E7400556E6C6F61642066696C52
:103BA000616D656E74004C6F616420746F206E6F80
:103BB0007A7A6C65005072656C6F616420746F2056
:103BC0004D4D55004E6F7A7A6C6520642E004E6F15
:103BD0002053442063617264005072696E742066E1
:103BE000726F6D20534400436C65617220544D2008
:103BF0006572726F7200526573756D6520707269BF
:103C00006E74005061757365207072696E74005334
:103C1000657420526561647900536574206E6F7419
:103C20002052656164790050726568656174005462
:103C3000756E65004C6976652061646A75737420E1
:103C40005A0052657072696E7400496E666F207317
:103C5000637265656E004272696768746E6573733E
:103C6000004173736973740053696C656E74004F1F
:103C70006E6365004C6F756400536F756E6400462B
:103C8000696C2E2073656E736F72004368616E6796
:103C9000652066696C616D656E7400466C6F7700B7
:103CA0005370656564004E2F41004D61676E657409
:103CB0007320636F6D702E005A2D70726F626520D5
:103CC0006E722E004D6573680044696D0042726922
:103CD000676874004175746F0054696D656F757421
:103CE000004C6576656C2044696D6D6564004C65BB
:103CF00076656C20427269676874005365747469F4
:103D00006E677300596573004E6F0053746F7020B7
:103D10007072696E7400436865636B696E672066D4
:103D2000696C650046696C6520696E636F6D706CC7
:103D30006574652E008452656672657368004D6116
:103D4000696E0057616974696E6720666F72206ED4
:103D50006F7A7A6C6520616E642062656420636F9F
:103D60006F6C696E670053656C6674657374204F81
:103D70004B0053656C667465737420737461727460
:103D8000005072696E742066616E3A00486F746507
:103D90006E642066616E3A0043616C6962726174A0
:103DA000696E6720686F6D6500416C6C20636F728F
:103DB0007265637400436865636B696E6720736541
:103DC0006E736F727300436865636B696E6720681A
:103DD0006F74656E6400436865636B696E6720622B
:103DE000656400436865636B696E67205A2061787B
:103DF000697300436865636B696E67205920617859
:103E0000697300436865636B696E67205820617849
:103E1000697300436865636B696E6720656E6473E0
:103E2000746F707300436172642072656D6F7665A4
:103E300064004261636B00537465616C7468004395
:103E400072617368206465742E004E6F726D616CD0
:103E5000004D6F646500537472696374005761723A
:103E60006E004E6F6E65004E6F7A7A6C65206368E7
:103E7000616E6765643F004E6F7A7A6C6520697386
:103E800020686F7421205761697420666F72206307
:103E90006F6F6C646F776E2E005049442063616CC5
:103EA0002E2066696E69736865640050494420631A
:103EB000616C2E005072696E742070617573656458
:103EC000005072696E742061626F727465640043A1
:103ED000616E63656C00436F6E742E004E6F7A7A6C
:103EE0006C65206469616D657465722064696666DD
:103EF0006572732066726F6D2074686520472D634C
:103F00006F64652E20506C6561736520636865631E
:103F10006B207468652076616C756520696E20730E
:103F2000657474696E67732E004E6F7A7A6C6520C3
:103F30006469616D65746572206469666665727333
:103F40002066726F6D2074686520472D636F64650D
:103F50002E005468657265206973206E6F20666953
:103F60006C616D656E74206C6F616465642E004DCC
:103F70004B33206669726D77617265206465746584
:103F800063746564206F6E204D4B335320707269EB
:103F90006E74657200426C61636B6F7574206F6341
:103FA0006375727265642E205265636F7665722048
:103FB0007072696E743F00546865726D616C206D3B
:103FC0006F64656C206E6F742063616C69627261EE
:103FD000746564207965742E005468657265206983
:103FE00073207374696C6C2061206E656564207445
:103FF0006F206D616B65205A2063616C696272612C
:1040000074696F6E2E20506C6561736520666F6CED
:104010006C6F7720746865206D616E75616C2C2003
:10402000636861707465722046697273742073747A
:104030006570732C2073656374696F6E2043616CC7
:104040006962726174696F6E20666C6F772E0050C2
:1040500072696E74657220686173206E6F7420627D
:1040600065656E2063616C69627261746564207954
:1040700065742E20506C6561736520666F6C6C6F83
:104080007720746865206D616E75616C2C206368A3
:104090006170746572204669727374207374657000
:1040A000732C2073656374696F6E2043616C696261
:1040B000726174696F6E20666C6F772E0053656C49
:1040C00066746573742077696C6C20626520727504
:1040D0006E20746F2063616C696272617465206127
:1040E000636375726174652073656E736F726C655E
:1040F0007373207265686F6D696E672E004F6C6414
:104100002073657474696E677320666F756E642EB4
:104110002044656661756C74205049442C204573B9
:1041200074657073206574632E2077696C6C2062EF
:1041300065207365742E005761726E696E673A2050
:10414000626F7468207072696E7465722074797021
:104150006520616E64206D6F74686572626F617254
:10416000642074797065206368616E6765642E00F1
:104170005761726E696E673A207072696E7465720B
:104180002074797065206368616E6765642E0057DE
:1041900061726E696E673A206D6F74686572626FE6
:1041A0006172642074797065206368616E6765640C
:1041B0002E0054657374696E672066696C616D6565
:1041C0006E740053686565740053656C6563742094
:1041D00066696C616D656E743A00252D31322E3141
:1041E0003253252B382E316600457874727564651C
:1041F000723A0025632531372E32666D6D00583ACC
:1042000000593A005A3A002563252D31332E3133B7
:1042100053252B352E3366002533750050494E4407
:10422000412063616C6962726174696F6E206661BE
:10423000696C65642E20436F6E74696E75652077B6
:10424000697468207072657373696E67207468653D
:10425000206B6E6F622E0050494E44412063616CAA
:104260006962726174696F6E20646F6E652E20439F
:104270006F6E74696E7565207769746820707265F9
:104280007373696E6720746865206B6E6F622E00B1
:10429000473830004D3435004D3435205A0047370B
:1042A00036004D3730312050300057697A617264E2
:1042B0002073746174653A2025640A00457870653E
:1042C00072696D656E74616C00302E383000302E6E
:1042D000363000302E343000302E323500446973D1
:1042E00061626C65206661726D206D6F646500525D
:1042F00065736574204D4D55004D4D55004D34345A
:10430000004739390044697361626C6520666172E7
:104310006D206D6F64653F00302E383000302E36D2
:104320003000302E343000302E3235004732382005
:104330005859004D20383400852E2E00593A20253A
:1043400075202D3E202E2E2E00583A202575202D2A
:104350003E202E2E2E002533642F30002533642F6F
:10436000300025632041584953205347313D25648F
:104370000A00486F74656E6400426564005A005913
:104380000058002D2D2D2D2D2D2D2D2D2D2D2D2D8C
:104390002D2D2D2D2D2D2D00435A5058496E76610F
:1043A0006C696453657269616C4E72004D393134C9
:1043B000004D393135000C2B102BDC2AD52ACA2AA6
:1043C000BB2A422DB42AAD2C473159252E346645DF
:1043D000252E34660047315A252E32660047315863
:1043E00035305931353500932F0C2B472DFF2AF5E9
:1043F0002AEB2A473158252E346645252E3466008F
:104400004731463130383000852F782F6B2F5F2FA2
:10441000932F502F452F352F2E2F542564004731D1
:104420005A302E34004731592D3346313030300068
:10443000102BA22F9D2F992F932F4D383420585990
:104440000047312058313235205A32303020463141
:10445000303030004D33313020412046310047317B
:1044600020583132352059313035205A31204638E4
:1044700030303000496E76616C69642050494420C8
:1044800063616C2E20726573756C74732E204E6F91
:10449000742073746F72656420746F2045455052A8
:1044A0004F4D2E004D3330312050252E326620499D
:1044B000252E32662044252E3266004D33303320BF
:1044C0004530205325337500524300444556004281
:1044D00045544100414C5048410000002100240057
:1044E00027002A002D0030003300010100000401E4
:1044F00007010A0100002200250028002B002E00E1
:104500003100340002010000050108010B01000028
:1045100020002300260029002C002F00320000017B
:104520000000030106010901050505050705080846
:104530000808020202020A0A08080404040401012D
:104540000101010101010303030303030303040742
:1045500007070C0C0C0C0C0C0C0C020202020606D9
:104560000606060606060B0B0B0B0B0B0B0B0707C1
:104570000A0A0A0A0A0A05050504040408080102D1
:104580001020200808102040102040800201020165
:10459000080402010102040810204080804020101D
:1045A0000804020180040201804020100804020176
:1045B00008040201010204081020408001020408DE
:1045C0001020408010080408801020400440801013
:1045D0002040048000000A0B02090C0D0E0807039E
:1045E00004010000000000000000000000000000C6
:1045F00000000000000000000000000000000000BB
:104600001211100000000000000000000000000077
:10461000000000000000000000000000000000009A
:1046200000000000000000000000332E31342E3165
:10463000000A204F726967696E616C205072757351
:10464000612069330A202020507275736120526501
:104650007365617263680A2532302E32305300432D
:104660005A5058003B530053706F6F6C4A6F696E1D
:1046700020697320006164635F696E697400200AB9
:10468000200A200A2000416C6C20446174610053B0
:104690006572766963652070726570005368697031
:1046A00070696E672070726570005374617469730D
:1046B00074696373004C616E67756167650045528C
:1046C0004153494E4720616C6C206461746100461F
:1046D0006163746F727920524553455400505255AE
:1046E00053413344465700494E54340003000E00F2
:1046F00001004000030002000000040073686976B6
:10470000616D6D6568746132323000323032352D42
:1047100030382D31392030323A35323A35310020B7
:10472000332E31342E312D383238345F66336530D4
:10473000646664343800737461727400534E20757B
:104740007064617465206661696C656400534E2015
:104750007570646174656400435A50580043524157
:1047600053485F44455445435445445859004352C7
:104770004153485F444554454354454459004352CE
:104780004153485F444554454354454458004D32D5
:104790003900252D392E39535B00544D2065737433
:1047A000696D6174696F6E20646964206E6F742036
:1047B000636F6E766572676500544D20697465722B
:1047C0003A257520763A252E326620653A252E3315
:1047D000660A00200A200A20000000484200005813
:1047E000419A998D41333353404D4D55323A004DE6
:1047F000494E54454D5020424544206669786564D1
:10480000004D494E54454D5020484F54454E44208C
:1048100066697865640020746F6F206C6F6E672026
:10482000657874727573696F6E2070726576656EE7
:104830007465640020636F6C6420657874727573AE
:10484000696F6E2070726576656E746564004D6F79
:1048500076652061626F7274656400504F574552EF
:104860002050414E4943204445544543544544005B
:1048700055564C4F202D20656E642025640A005546
:10488000564C4F5F54494E59202D20656E642025AB
:10489000640A00776F726C6420636F6F7264696E74
:1048A000617465733A2028252E33662C20252E331B
:1048B000662C20252E3366290A004D3232302053D3
:1048C000256400446F6E652072656164696E6720BF
:1048D000454550524F4D0A0054656D7065726174C4
:1048E00075726520526573746F7265640A00473192
:1048F0002045252D2E336620463237303000544D6A
:104900004320445249564552204F56455254454D36
:104910005000486F6C642063757272656E74207409
:1049200072756E636174656420746F2052756E20B9
:1049300063757272656E740025632533642F256478
:1049400081005A25362E32662563005A2020202DFC
:104950002D2D2000862533642525002D2D2D252580
:10496000002533642525002053440020202000200A
:10497000484F002046524D2000872533756820257A
:104980006325630087253032753A253032752563FB
:104990002563002F2F616374696F6E3A70617573C0
:1049A0006564002F2F616374696F6E3A706175736F
:1049B000650044756D70206D656D6F727900686576
:1049C0006C702E707275736133642E636F6D006648
:1049D0006F72756D2E707275736133642E636F6DB7
:1049E00000707275736133642E636F6D004D3730E4
:1049F00031007265636F7665725F6D616368696EC1
:104A0000655F73746174655F61667465725F706F12
:104A10007765725F70616E69632C20696E69746975
:104A2000616C200050525553412075766C6F0047E1
:104A300034205330004D313130204E256C75004DFF
:104A400032362053256C75004D3130362053257594
:104A500000473120462564004D3832004739322066
:104A600045252D2E3366004D3230342050252D2E15
:104A700031662052252D2E31662054252D2E31668B
:104A8000004731205A252D2E336600505255534190
:104A9000204D424C2056310047312058252D2E33D1
:104AA000662059252D2E3366204633303030002CB9
:104AB00020666565646D756C7469706C793A004642
:104AC000656564726174653A00473120453520465A
:104AD000313230004D31303920532564004D3134AE
:104AE0003020532564004D31303420532564004775
:104AF000323820582059004731205A252E3366205D
:104B000046383030005265636F766572696E672093
:104B10007072696E7400544845524D414C20414EAC
:104B20004F4D414C5900526573756D696E67207029
:104B300072696E740050494E444120486561746941
:104B40006E670043616C6962726174696F6E2064A4
:104B50006F6E650043616C6962726174696E672093
:104B60005A0042656420646F6E65004265642048A7
:104B7000656174696E670048656174696E67206479
:104B80006F6E652E0048656174696E67004D4D5506
:104B900020706F776572206661696C73004D4D55AA
:104BA000206C6F6164206661696C73004D4D552007
:104BB0006661696C73004D6174657269616C206334
:104BC00068616E67657300546F74616C206661691B
:104BD0006C757265730043726173680046696C2E70
:104BE0002072756E6F75747300506F7765722066F2
:104BF00061696C75726573004C61737420707269C1
:104C00006E74206661696C7572657300546F7461AF
:104C10006C004C617374207072696E7400416D6237
:104C200069656E7400566F6C7461676573005465D6
:104C30006D7065726174757265730042656C742085
:104C40007374617475730053656E736F7220696E4F
:104C5000666F00457874727564657220696E666F60
:104C60000058595A2063616C2E2064657461696C28
:104C700073005072696E74657220495020416464FB
:104C8000723A00756E6B6E6F776E004D4D552063F6
:104C90006F6E6E656374656400446174653A007498
:104CA0006F20756E6C6F61642066696C616D656EF6
:104CB0007400746F206C6F61642066696C616D654F
:104CC0006E7400507265737320746865206B6E6F2C
:104CD000620050726568656174696E6720746F2048
:104CE0006375740050726568656174696E672074DD
:104CF0006F20656A656374005072656865617469E8
:104D00006E6720746F20756E6C6F61640050726501
:104D100068656174696E6720746F206C6F616400F0
:104D2000436F6F6C646F776E00456A65637400460D
:104D3000696C616D656E7420657874727564696EF6
:104D4000672026207769746820636F7272656374C8
:104D500020636F6C6F723F004175746F6C6F61649C
:104D6000696E672066696C616D656E742069732079
:104D70006163746976652C206A757374207072653E
:104D8000737320746865206B6E6F6220616E64209F
:104D9000696E736572742066696C616D656E742EE0
:104DA0002E2E007B5B4552523A00332E31342E3189
:104DB000005D5B4657523A005D5B54494D3A005DD9
:104DC0005B464E4D3A005D5B46454D3A005D5B509B
:104DD00043443A005B5446553A005B50524E3A0009
:104DE0005B50464E3A305D005B4449413A005D5BA2
:104DF0004154423A005D5B4154303A005D5B53548C
:104E0000423A005B5354303A007B5B50524E3A3585
:104E10005D007B5B50524E3A305D007B5B50524EE2
:104E20003A395D007B5B50524E3A385D007B5B52F5
:104E300045533A305D5B46494C3A007B5B524553E3
:104E40003A315D5B46494C3A000000211042206334
:104E5000308440A550C660E770088129914AA16B53
:104E6000B18CC1ADD1CEE1EFF131121002733252EB
:104E700022B5529442F772D662399318837BB35AA3
:104E8000A3BDD39CC3FFF3DEE362244334200401BB
:104E900014E664C774A44485546AA54BB5288509F3
:104EA00095EEE5CFF5ACC58DD5533672261116308B
:104EB00006D776F6669556B4465BB77AA719973843
:104EC00087DFF7FEE79DD7BCC7C448E5588668A7CB
:104ED000784008611802282338CCC9EDD98EE9AF93
:104EE000F9488969990AA92BB9F55AD44AB77A962B
:104EF0006A711A500A333A122AFDDBDCCBBFFB9EE3
:104F0000EB799B588B3BBB1AABA66C877CE44CC5FA
:104F10005C222C033C600C411CAEED8FFDECCDCD32
:104F2000DD2AAD0BBD688D499D977EB66ED55EF4CA
:104F30004E133E322E511E700E9FFFBEEFDDDFFC82
:104F4000CF1BBF3AAF599F788F8891A981CAB1EB27
:104F5000A10CD12DC14EF16FE18010A100C230E350
:104F6000200450254046706760B9839893FBA3DA0C
:104F7000B33DC31CD37FE35EF3B1029012F322D2A0
:104F8000323542145277625672EAB5CBA5A895899C
:104F9000856EF54FE52CD50DC5E234C324A01481F0
:104FA000046674476424540544DBA7FAB79987B8AC
:104FB000975FE77EF71DC73CD7D326F2369106B040
:104FC0001657667676154634564CD96DC90EF92FAC
:104FD000E9C899E9898AB9ABA94458654806782790
:104FE00068C018E1088238A3287DCB5CDB3FEB1E4C
:104FF000FBF98BD89BBBAB9ABB754A545A376A16E0
:105000007AF10AD01AB32A923A2EFD0FED6CDD4DDB
:10501000CDAABD8BADE89DC98D267C076C645C452F
:105020004CA23C832CE01CC10C1FEF3EFF5DCF7CEB
:10503000DF9BAFBABFD98FF89F176E367E554E747F
:105040005E932EB23ED10EF01E7C3C3E3F2F2A22B4
:105050005C0024F4D43050C38E20C2A24017828B4F
:105060007011127A910D816CD90AA861E108C758B4
:105070006607615143061E4B5D05C145A7041A41F1
:105080001104093D9803713931034036DB02653361
:105090009102D4305402802E1D02632CEE01752A39
:1050A000C501B028A001102781018F2564012B24A0
:1050B0004B01E0223401AC211F018D200D01801F26
:1050C000FC00841EED00971DDF00B81CD200E61B1B
:1050D000C600201BBC00641AB200B219A8000A194D
:1050E000A0006A189900D117910040178B00B516DF
:1050F000840031167E00B31579003A157300C71489
:105100006F0058146A00EE136600881363002513BD
:105110005E00C7125B006C12570015125400C111DB
:10512000510070114F0021114B00D61049008D1015
:1051300047004610440002104200C00F4000800F9C
:105140003E00420F3C00060F3B00CB0E3800930E92
:1051500037005C0E3500270E3400F30D3200C10D10
:105160003100900D3000600D2E00320D2D00050D28
:105170002C00D90C2B00AE0C2900850C29005C0CEE
:105180002700350C27000E0C2600E80B2400C40B6A
:105190002400A00B23007D0B23005A0B2100390BA8
:1051A0002100180B2000F80A1F00D90A1E00BB0AB4
:1051B0001E009D0A1D00800A1D00630A1C00470A8C
:1051C0001B002C0A1B00110A1A00F7091A00DD093E
:1051D0001900C4091900AB091900920917007B09CD
:1051E0001800630917004C0916003609160020093B
:1051F00016000A091500F5081500E0081400CC088F
:105200001400B8081400A4081400900813007D08C6
:1052100012006B08130058081200460812003408E8
:105220001100230811001208110001081100F007F5
:105230001000E0071000D0071000C0071000B007F2
:105240000F00A107100091070E0083070F007407DD
:105250000F0065070E0057070E0049070E003B07B9
:105260000D002E070E0020070D0013070D00060786
:105270000D00F9060C00ED060D00E0060C00D4064A
:105280000C00C8060C00BC060C00B0060C00A406FE
:105290000B0099060C008D060B0082060B007706AA
:1052A0000B006C060B0061060A0057060B004C064B
:1052B0000A0042060A0038060A002E060A002406E2
:1052C0000A001A060A001006090007060A00FD0572
:1052D0000900F4050900EB050900E2050900D905FC
:1052E0000900D0050900C7050900BE050900B5057C
:1052F0000800AD050800A50509009C0508009405F7
:1053000008008C050800840508007C050800740569
:1053100008006C050700650508005D0507005605D7
:1053200008004E050700470507004005080038053E
:105330000700310507002A050700230507001C05A3
:105340000600160507000F05070008050600020500
:105350000700FB040600F5040700EE040600E8045D
:105360000600E2040700DB040600D5040600CF04B3
:105370000600C9040600C3040600BD040600B70405
:105380000600B1040500AC040600A6040600A00453
:1053900005009B04060095040500900406008A049D
:1053A000050085040500800406007A0405007504E4
:1053B0000500700405006B04050066040500610427
:1053C00005005C04050057040500520405004D0467
:1053D000050048040500430405003E0404003A04A7
:1053E000050035040500300404002C0405002704E2
:1053F0000400230405001E0404001A04040016041B
:105400000500110404000D0404000904050004044F
:10541000040000040400FC030400F8030400F40387
:105420000400F0030400EC030400E8030400E403B8
:105430000400E0030400DC030400D8030400D403E8
:105440000400D0030400CC030400C8030300C50318
:10545000030024F404D9201BC40C5C0E9804C40976
:105460005F0265077101F405F900FB04B30048040D
:105470008700C10369005803550003034500BE02BD
:105480003A008402310053022A0029022500040256
:105490002000E4011C00C8011900AF0117009801A9
:1054A000140084011300710110006101100051010A
:1054B0000E0043010D0036010B002B010B002001F3
:1054C0000B00150109000C01090003010800FB0095
:1054D0000800F3000800EB000700E4000600DE000F
:1054E0000600D8000600D2000600CC000500C70068
:1054F0000500C2000500BD000400B9000400B500AD
:105500000400B1000400AD000400A9000400A500DF
:105510000300A20003009F0004009B00030098000A
:1055200003009500020093000300900003008D002B
:1055300002008B0003008800020086000200840045
:105540000300810002007F0002007D0002007B005A
:10555000020079000200770001007600020074006A
:10556000020072000100710002006F0002006D0075
:1055700001006C0002006A0001006900020067007F
:105580000100660001006500010064000200620085
:10559000010061000100600001005F0002005D0089
:1055A00001005C0001005B0001005A00010059008D
:1055B000010058000100570001005600010055008D
:1055C000010054000100530000005300010052008C
:1055D000010051000100500001004F0001004E0089
:1055E00000004E0001004D0001004C0001004B0086
:1055F00000004B0001004A00010049000100480082
:10560000000048000100470001004600000046007D
:105610000100450000004500010044000100430076
:105620000000430001004200000042000100410070
:10563000000041000100400001003F0000003F0069
:1056400001003E0000003E0001003D0000003D0062
:1056500001003C0000003C0000003C0001003B0059
:1056600000003B0001003A0000003A000100390050
:105670000000390001003800000038000000380048
:10568000010037000000370001003600000036003E
:105690000000360001003500000035000000350034
:1056A0000100340000003400000034000100330029
:1056B000000033000000330001003200000032001F
:1056C0000000320001003100000031000000310014
:1056D00001003000000030000000300001002F0009
:1056E00000002F0000002F0000002F0001002E00FE
:1056F00000002E0000002E0001002D0000002D00F3
:1057000000002D0000002D0001002C0000002C00E6
:1057100000002C0000002C0001002B0000002B00DA
:1057200000002B0000002B0001002A0000002A00CE
:1057300000002A0000002A000100290000002900C2
:1057400000002900000029000000290001002800B5
:1057500000002800000028000000280000002800A9
:10576000010027000000270000002700000027009C
:10577000000027000100260000002600000026008F
:105780000000260000002600010025000000250082
:105790000000250000002500000025000000250075
:1057A0000100240000002400000024000000240068
:1057B000000024000100230000002300000023005B
:1057C000000023000000230000002300000023004D
:1057D0000100220000002200000022000000220040
:1057E0000000220000002200010021000000210032
:1057F0000000210000002100000021000000210025
:105800000000210001002000000020000000200016
:105810000000200000002000000020000000200008
:105820000000200001001F0000001F0000001F00FA
:1058300000001F0000001F0000001F0000001F00EC
:1058400001001E0000001E0000001E0000001E00DF
:105850000000504944204175746F74756E65206670
:10586000696E697368656421205075742074686579
:10587000206C617374204B702C204B6920616E6426
:10588000204B6420636F6E7374616E747320667254
:105890006F6D2061626F766520696E746F20436F53
:1058A0006E66696775726174696F6E2E6800504923
:1058B00044204175746F74756E65206661696C650E
:1058C00064212074696D656F75740020403A00543E
:1058D0003A00423A00504944204175746F74756E25
:1058E00065206661696C6564212054656D70657220
:1058F000617475726520746F6F2068696768002035
:105900004B643A2000204B693A2000204B703A202B
:105910000020436C61737369632050494420002068
:1059200054753A2000204B753A2000206D61783A7A
:105930002000206D696E3A200020643A2000206229
:105940006961733A2000504944204175746F747541
:105950006E652073746172740050494420417574FF
:105960006F74756E65206661696C65642E20426196
:1059700064206578747275646572206E756D6265F9
:10598000722E00544D4C202564202564202578205B
:10599000256C7820256C780A004D494E54454D50B1
:1059A000004D494E54454D5020424544004D494E0E
:1059B00054454D5020414D42004D415854454D50A5
:1059C000004D415854454D5020424544004D4158EA
:1059D00054454D5020414D4200544D3A206572725D
:1059E0006F7220636C656172656400544D3A206586
:1059F00072726F72207472696767657265642100E4
:105A0000544D3A206572726F72207C25667C3E256B
:105A1000660A0070012C0190012701B0012201C02B
:105A2000011D01F00118011002130130020E016086
:105A300002090190020401C002FF000003FA0040C5
:105A400003F5008003F000D003EB002004E60070B3
:105A500004E100E004DC004005D700C005D20040AE
:105A600006CD00D006C8008007C3003008BE00F095
:105A700008B900C009B400B00AAF00B00BAA00D04A
:105A80000CA500000EA000500F9B00C01096005007
:105A900012910000148C00C0158700B0178200B06E
:105AA000197D00D01B7800001E730040206E00900E
:105AB000226900F024640040275F0090295A00E02A
:105AC0002B5500102E500020304B0010324600E0C5
:105AD00033410090353C001037370070383200A059
