:100000000C941C570C944D570C944D570C944D5711
:100010000C944D570D9410BC0C944D570C948F7547
:100020000C94AC750C944D570C944D570C944D5743
:100030000C94E8670C944D570D94D2480D945A4295
:100040000C944D570D949E590C944D570C944D574C
:100050000C944D570C944D570C944D570C9496742A
:100060000C944D570D94C9D60C944D570C944D5784
:100070000C944D570C9452940C944D570C944D572E
:100080000C944D570C944D570C944D570C944D5760
:100090000D9485D60C944D570C944D570C944D5798
:1000A0000C944D570C944D570D94F0370C944D57BC
:1000B0000C944D570D94D2370C944D570D941C4E03
:1000C0000C944D570C944D570C944D570D949237FA
:1000D0000C944D570C944D570C944D570C944D5710
:1000E0000C944D57000000000000000000000000CC
:1000F0000000000000000000000000000000000000
:100100005F5345435F4C414E470000000000000034
:1001100000000000000000000000000000000000DF
:1001200000000000000000000000000000000000CF
:1001300000000000000000000000000000000000BF
:1001400000000000000000000000000000000000AF
:103600000000437261736820646574656374656467
:103610002E000100536F6D652070726F626C656DD6
:1036200020656E636F756E74657265642C205A2D0B
:103630006C6576656C696E6720656E666F72636532
:1036400064202E2E2E0002004D6573682062656492
:10365000206C6576656C696E67206661696C65646F
:103660002E205072696E742063616E63656C6564B0
:103670002E00030048656174696E67206469736198
:10368000626C656420627920736166657479207468
:10369000696D65722E00040053544F505045442EFE
:1036A00000050050415553454420544845524D4172
:1036B0004C204552524F52000600472D636F6465FF
:1036C00020736C6963656420666F72206120646991
:1036D00066666572656E74206C6576656C2E000793
:1036E00000472D636F646520736C696365642066B1
:1036F0006F72206120646966666572656E74206C05
:103700006576656C2E20506C656173652072652D41
:10371000736C69636520746865206D6F64656C20E7
:10372000616761696E2E000800472D636F64652034
:10373000736C6963656420666F722061206E6577C3
:103740006572206669726D776172652E00090047A7
:103750002D636F646520736C6963656420666F72A6
:103760002061206E65776572206669726D7761727F
:10377000652E20506C656173652075706461746599
:1037800020746865206669726D776172652E000A23
:1037900000472D636F646520736C69636564206600
:1037A0006F72206120646966666572656E74207050
:1037B00072696E74657220747970652E000B004713
:1037C0002D636F646520736C6963656420666F7236
:1037D000206120646966666572656E742070726926
:1037E0006E74657220747970652E20506C656173FB
:1037F000652072652D736C69636520746865206D42
:103800006F64656C20616761696E2E000C005072F8
:1038100065737320746865206B6E6F6220746F200F
:1038200070726568656174206E6F7A7A6C6520616C
:103830006E6420636F6E74696E75652E000D0050A6
:103840006C656173652070726573732074686520A0
:103850006B6E6F6220746F20756E6C6F6164206692
:10386000696C616D656E74000E00616E642070722B
:1038700065737320746865206B6E6F62000F00497A
:103880006E736572742066696C616D656E7400108C
:1038900000436F6C6F72206E6F7420636F7272657D
:1038A000637400110046696C616D656E74206E6F03
:1038B00074206C6F616465640012004368616E6718
:1038C000656420636F72726563746C790013004CD9
:1038D0006F6164696E6720636F6C6F7200140043E0
:1038E00068616E6765207375636365737321001586
:1038F00000506C65617365206F70656E2069646C43
:10390000657220616E642072656D6F7665206669F0
:103910006C616D656E74206D616E75616C6C792E75
:103920000016005761732066696C616D656E7420C6
:10393000756E6C6F61642073756363657373667510
:103940006C3F001700506C6561736520757067727D
:103950006164652E0018004E6577206669726D7788
:103960006172652076657273696F6E206176616938
:103970006C61626C653A00190057616974696E6721
:1039800020666F722050494E44412070726F62650C
:1039900020636F6F6C696E67001A00506C6561730D
:1039A000652077616974001B004E6F206D6F76652E
:1039B0002E001C005761697420666F722075736554
:1039C000722E2E2E001D00537461626C6520616D95
:1039D0006269656E742074656D706572617475726C
:1039E000652032312D323643206973206E6565645F
:1039F00065642061207269676964207374616E6414
:103A00002069732072657175697265642E001E00ED
:103A1000506C656173652072756E2058595A206329
:103A2000616C6962726174696F6E20666972737429
:103A30002E001F0050494E44412063616C2E00202F
:103A40000052657365742058595A2063616C69622D
:103A5000722E0021005049442063616C69627261DA
:103A600074696F6E002200426564206C6576656C37
:103A700020636F72726563740023004D6573682064
:103A8000426564204C6576656C696E67002400436E
:103A9000616C696272617465205A00250043616C33
:103AA0006962726174652058595A00260053656C2A
:103AB000667465737400270042656C7420746573C6
:103AC0007400280057697A61726400290054657394
:103AD00074696E672066696C616D656E74002A009A
:103AE0004C6F616420416C6C002B00506C656173FD
:103AF000652070756C6C206F75742066696C616DE3
:103B0000656E7420696D6D6564696174656C7900BA
:103B10002C005265736574002D0052656E616D65F1
:103B2000002E004669727374206C6179657220639F
:103B3000616C2E002F0053656C6563740030005378
:103B40007465656C20736865657473003100537526
:103B500070706F72740032004661696C207374611A
:103B60007473204D4D550033004661696C207374A9
:103B7000617473003400537461746973746963739E
:103B800000350043616C6962726174696F6E003662
:103B9000004175746F4C6F61642066696C616D657E
:103BA0006E740037004C6F61642066696C616D65EE
:103BB0006E74003800556E6C6F61642066696C61CC
:103BC0006D656E740039004C6F616420746F206EF7
:103BD0006F7A7A6C65003A005072656C6F61642090
:103BE000746F204D4D55003B004E6F7A7A6C652006
:103BF000642E003C004E6F205344206361726400C9
:103C00003D005072696E742066726F6D20534400DF
:103C10003E00436C65617220544D206572726F7274
:103C2000003F00526573756D65207072696E740097
:103C300040005061757365207072696E74004100B8
:103C400053657420526561647900420053657420A5
:103C50006E6F74205265616479004300507265682C
:103C600065617400440054756E650045004C6976CA
:103C7000652061646A757374205A0046005265704D
:103C800072696E74004700496E666F2073637265D7
:103C9000656E0048004272696768746E65737300F0
:103CA0004900417373697374004A0053696C656E0F
:103CB00074004B004F6E6365004C00536F756E646B
:103CC000004D004C6F7564004E0046696C2E2073E9
:103CD000656E736F72004F004368616E67652066A2
:103CE000696C616D656E74005000466C6F770051B1
:103CF0000053706565640052004D61676E657473B2
:103D000020636F6D702E0053004E2F410054005AF7
:103D10002D70726F6265206E722E0055004D6573B6
:103D20006800560054696D656F75740057004D6FDB
:103D300064650058004175746F00590044696D0056
:103D40005A00427269676874005B004C6576656C66
:103D50002044696D6D6564005C004C6576656C207F
:103D6000427269676874005D0053657474696E67B8
:103D700073005E00596573005F004E6F0060005372
:103D8000746F70207072696E7400610043686563BF
:103D90006B696E672066696C6500620046696C65D8
:103DA00020696E636F6D706C6574652E00630084AE
:103DB000526566726573680064004D61696E0065E6
:103DC00000496E73657274207468652066696C6161
:103DD0006D656E742028646F206E6F74206C6F6147
:103DE000642069742920696E746F20746865206589
:103DF0007874727564657220616E64207468656E93
:103E000020707265737320746865206B6E6F622E0C
:103E100000660053656E736F72207665726966691D
:103E200065642C2072656D6F766520746865206608
:103E3000696C616D656E74206E6F772E0067005639
:103E40006572696669636174696F6E206661696C29
:103E500065642C2072656D6F7665207468652066D8
:103E6000696C616D656E7420616E64207472792076
:103E7000616761696E2E006800506C656173652032
:103E8000636865636B207468652049522073656EB2
:103E9000736F7220636F6E6E656374696F6E2C2032
:103EA000756E6C6F61642066696C616D656E7420FF
:103EB00069662070726573656E742E006900506CBF
:103EC0006561736520756E6C6F6164207468652030
:103ED00066696C616D656E742066697273742C20FE
:103EE0007468656E207265706561742074686973AA
:103EF00020616374696F6E2E006A0057616974698E
:103F00006E6720666F72206E6F7A7A6C6520616EC4
:103F1000642062656420636F6F6C696E67006B007C
:103F200053656C6563742066696C616D656E743A87
:103F3000006C0053656C6674657374204F4B006DA4
:103F40000053656C667465737420737461727400D9
:103F50006E005072696E742066616E3A006F0048A0
:103F60006F74656E642066616E3A00700043616C28
:103F70006962726174696E6720686F6D65007100B7
:103F8000416C6C20636F72726563740072004368E9
:103F900065636B696E672073656E736F7273007310
:103FA00000436865636B696E6720686F74656E6453
:103FB000007400436865636B696E67206265640026
:103FC0007500436865636B696E67205A2061786984
:103FD00073007600436865636B696E6720592061E2
:103FE000786973007700436865636B696E67205872
:103FF0002061786973007800436865636B696E6758
:1040000020656E6473746F7073007900436172642D
:104010002072656D6F766564007A004261636B00A3
:104020007B00537472696374007C005761726E0088
:104030007D004E6F6E65007E004E6F7A7A6C652053
:104040006368616E6765643F007F004E6F7A7A6CCB
:104050006520697320686F74212057616974206638
:104060006F7220636F6F6C646F776E2E00800050EC
:1040700049442063616C2E2066696E6973686564CB
:104080000081005049442063616C2E008200507210
:10409000696E742070617573656400830050726985
:1040A0006E742061626F727465640084004E6F7A72
:1040B0007A6C65206469616D6574657220646966F7
:1040C000666572732066726F6D2074686520472D77
:1040D000636F64652E0085004E6F7A7A6C6520648C
:1040E00069616D65746572206469666665727320C6
:1040F00066726F6D2074686520472D636F64652E4E
:1041000020506C6561736520636865636B2074681B
:10411000652076616C756520696E207365747469BD
:104120006E67732E0086005468657265206973207F
:104130006E6F2066696C616D656E74206C6F616472
:1041400065642E0087004D4B3353206669726D778E
:10415000617265206465746563746564206F6E20A8
:104160004D4B33207072696E746572008800426C2A
:1041700061636B6F7574206F636375727265642E13
:10418000205265636F766572207072696E743F00AD
:104190008900546865726D616C206D6F64656C2078
:1041A0006E6F742063616C696272617465642079FA
:1041B00065742E008A0054686572652069732073E7
:1041C00074696C6C2061206E65656420746F206D6D
:1041D000616B65205A2063616C6962726174696FFA
:1041E0006E2E20506C6561736520666F6C6C6F7706
:1041F00020746865206D616E75616C2C2063686148
:10420000707465722046697273742073746570737C
:104210002C2073656374696F6E2043616C696272F0
:104220006174696F6E20666C6F772E008B00507220
:10423000696E74657220686173206E6F74206265A8
:10424000656E2063616C6962726174656420796572
:10425000742E20506C6561736520666F6C6C6F778F
:1042600020746865206D616E75616C2C20636861D7
:10427000707465722046697273742073746570730C
:104280002C2073656374696F6E2043616C69627280
:104290006174696F6E20666C6F772E008C005365B9
:1042A0006C66746573742077696C6C20626520722B
:1042B000756E20746F2063616C6962726174652031
:1042C00061636375726174652073656E736F726C80
:1042D000657373207265686F6D696E672E008D005F
:1042E0004F6C642073657474696E677320666F75B4
:1042F0006E642E2044656661756C74205049442CB0
:1043000020457374657073206574632E2077696C23
:104310006C206265207365742E008E005761726E8A
:10432000696E673A20626F7468207072696E746596
:1043300072207479706520616E64206D6F74686599
:1043400072626F6172642074797065206368616E57
:104350006765642E008F005761726E696E673A2040
:104360007072696E7465722074797065206368611B
:104370006E6765642E0090005761726E696E673AD1
:10438000206D6F74686572626F61726420747970F9
:1043900065206368616E6765642E009100536865EF
:1043A00065740092004E6F74207370696E6E696E52
:1043B000670093005370696E6E696E6700940046E3
:1043C000616E207465737400950053656C66746546
:1043D0007374206661696C65640096002573206CB7
:1043E0006576656C20657870656374656400970018
:1043F00046616C73652074726967676572696E6780
:1044000000980046696C616D656E742073656E730B
:104410006F7200990053776170706564009A00466E
:10442000726F6E742F6C6566742066616E73009B8C
:104430000041786973009C0041786973206C656E57
:10444000677468009D004C6F6F73652070756C6CAD
:104450006579009E004C65667420686F74656E64B3
:104460002066616E3F009F0046726F6E742070720E
:10447000696E742066616E3F00A000456E647374BF
:104480006F70206E6F742068697400A100456E64BF
:1044900073746F7000A2004D6F746F7200A30045BB
:1044A0006E6473746F707300A400576972696E67ED
:1044B000206572726F7200A5004265642F486561C5
:1044C00074657200A6004E6F7420636F6E6E656334
:1044D00074656400A7004865617465722F5468654F
:1044E000726D6973746F7200A800506C65617365BA
:1044F00020636865636B3A00A90053656C66746558
:104500007374206572726F722100AA0058595A2084
:1045100063616C6962726174696F6E20616C6C209A
:1045200072696768742E20536B65772077696C6CAD
:1045300020626520636F72726563746564206175C3
:10454000746F6D61746963616C6C792E00AB005897
:10455000595A2063616C6962726174696F6E20617F
:104560006C6C2072696768742E20582F592061780E
:1045700065732061726520736C696768746C79205B
:10458000736B657765642E20476F6F64206A6F6276
:104590002100AC0058595A2063616C6962726174E1
:1045A000696F6E206F6B2E20582F592061786573CC
:1045B000206172652070657270656E646963756CE8
:1045C00061722E20436F6E67726174756C617469DD
:1045D0006F6E732100AD0058595A2063616C696297
:1045E000726174696F6E20636F6D70726F6D697345
:1045F00065642E2052696768742066726F6E74203D
:1046000063616C6962726174696F6E20706F696E4C
:1046100074206E6F7420726561636861626C652ED0
:1046200000AE0058595A2063616C69627261746906
:104630006F6E20636F6D70726F6D697365642E208D
:1046400046726F6E742063616C6962726174696F27
:104650006E20706F696E7473206E6F742072656166
:10466000636861626C652E00AF0058595A2063611F
:104670006C6962726174696F6E206661696C6564F1
:104680002E2052696768742066726F6E74206361B1
:104690006C6962726174696F6E20706F696E7420EC
:1046A0006E6F7420726561636861626C652E00B024
:1046B0000058595A2063616C6962726174696F6E47
:1046C000206661696C65642E2046726F6E7420638B
:1046D000616C6962726174696F6E20706F696E746B
:1046E00073206E6F7420726561636861626C652E01
:1046F00000B10058595A2063616C69627261746933
:104700006F6E206661696C65642E20506C65617304
:104710006520636F6E73756C7420746865206D61BD
:104720006E75616C2E00B20058595A2063616C6935
:1047300062726174696F6E206661696C65642E20B7
:104740004265642063616C6962726174696F6E2096
:10475000706F696E7420776173206E6F7420666F5E
:10476000756E642E00B300506C6561736520706CCB
:1047700061636520737465656C207368656574207A
:104780006F6E20686561746265642E00B4004469D0
:104790007374616E6365206265747765656E2074FD
:1047A0006970206F6620746865206E6F7A7A6C6518
:1047B00020616E6420746865206265642073757280
:1047C0006661636520686173206E6F742062656541
:1047D0006E20736574207965742E20506C6561734A
:1047E0006520666F6C6C6F7720746865206D616EF4
:1047F00075616C2C20636861707465722046697203
:1048000073742073746570732C2073656374696F9F
:104810006E204669727374206C61796572206361E1
:104820006C6962726174696F6E2E00B500506C61C4
:1048300063652061207368656574206F6620706110
:1048400070657220756E64657220746865206E6F85
:104850007A7A6C6520647572696E67207468652069
:1048600063616C6962726174696F6E206F66206645
:1048700069727374203420706F696E74732E2049CE
:104880006620746865206E6F7A7A6C652063617447
:1048900063686573207468652070617065722C2090
:1048A000706F776572206F6666207468652070721D
:1048B000696E74657220696D6D6564696174656C9B
:1048C000792E00B600536561726368696E67206275
:1048D00065642063616C6962726174696F6E2070D7
:1048E0006F696E7400B7004D6561737572696E67AC
:1048F000207265666572656E6365206865696768C4
:1049000074206F662063616C6962726174696F6E96
:1049100020706F696E7400B800506C65617365201B
:10492000636C65616E20746865206E6F7A7A6C6561
:1049300020666F722063616C6962726174696F6E68
:104940002E20436C69636B207768656E20646F6E00
:10495000652E00B9004175746F20686F6D6500BAEF
:1049600000544845524D414C20414E4F4D414C5909
:1049700000BB00526573756D696E67207072696E59
:104980007400BC0050494E44412048656174696E12
:104990006700BD0043616C6962726174696F6E206B
:1049A000646F6E6500BE0043616C69627261746918
:1049B0006E67205A00BF0042656420646F6E650018
:1049C000C0004265642048656174696E6700C1007B
:1049D00048656174696E6720646F6E652E00C20061
:1049E00048656174696E6700C3004D4D552066616E
:1049F000696C7300C4004D4D55206C6F6164206676
:104A000061696C7300C5004D4D5520706F776572FC
:104A1000206661696C7300C6004D617465726961DE
:104A20006C206368616E67657300C700546F7461C2
:104A30006C206661696C7572657300C8004C6173A7
:104A400074207072696E74206661696C757265732A
:104A500000C900506F776572206661696C75726578
:104A60007300CA0046696C2E2072756E6F75747380
:104A700000CB00437261736800CC00546F74616CAA
:104A800000CD004C617374207072696E7400CE00AA
:104A9000416D6269656E7400CF00566F6C7461671A
:104AA000657300D00054656D7065726174757265D0
:104AB0007300D10042656C74207374617475730067
:104AC000D20053656E736F7220696E666F00D300FB
:104AD000457874727564657220696E666F00D400E3
:104AE00058595A2063616C2E2064657461696C7337
:104AF00000D5005072696E7465722049502041647F
:104B000064723A00D600756E6B6E6F776E00D700D8
:104B10004D4D5520636F6E6E656374656400D800FB
:104B2000446174653A00D900746F20756E6C6F61D2
:104B3000642066696C616D656E7400DA00746F20C4
:104B40006C6F61642066696C616D656E7400DB007A
:104B5000507265737320746865206B6E6F6200DC41
:104B60000050726568656174696E6720746F2063B8
:104B7000757400DD0050726568656174696E672048
:104B8000746F20656A65637400DE00507265686545
:104B90006174696E6720746F20756E6C6F6164005C
:104BA000DF0050726568656174696E6720746F20FC
:104BB0006C6F616400E000436F6F6C646F776E0030
:104BC000E10046696C616D656E742065787472757C
:104BD00064696E672026207769746820636F72723B
:104BE00065637420636F6C6F723F00E200456A6515
:104BF000637400E3004175746F6C6F6164696E6784
:104C00002066696C616D656E7420697320616374E0
:104C10006976652C206A75737420707265737320D1
:104C2000746865206B6E6F6220616E6420696E73BC
:104C30006572742066696C616D656E742E2E2E002F
:104C4000E400546F74616C2066696C616D656E740C
:104C500000E500546F74616C207072696E7420748A
:104C6000696D6500E60046696C616D656E7420755E
:104C700073656400E7005072696E742074696D6535
:104C800000E8005072656865617420746865206E84
:104C90006F7A7A6C652100E9004552524F523A0012
:104CA000EA00592064697374616E63652066726FEF
:104CB0006D206D696E00EB004C65667400EC00526F
:104CC0006967687400ED004D6561737572656420F5
:104CD000736B657700EE00536C6967687420736BC3
:104CE000657700EF0053657665726520736B6577B5
:104CF00000F0005B303B305D20706F696E74206F98
:104D0000666673657400F10041646A757374696E58
:104D100067205A00F2005265617220736964652051
:104D20005BE46D5D00F30046726F6E74207369641E
:104D3000655BE46D5D00F400526967687420736917
:104D400064655BE46D5D00F5004C65667420736915
:104D50006465205BE46D5D00F60053657420746546
:104D60006D70657261747572653A00F70050494E56
:104D700044412063616C6962726174696F6E206680
:104D800061696C656400F80050494E4441206361DC
:104D90006C6962726174696F6E2069732066696EF6
:104DA000697368656420616E642061637469766507
:104DB0002E2049742063616E2062652064697361EE
:104DC000626C656420696E206D656E752053657434
:104DD00074696E67732D3E50494E44412063616C87
:104DE0002E00F900457874727564657200FA004D02
:104DF0006F7665205A00FB004D6F7665205900FCE8
:104E0000004D6F7665205800FD0043726173682085
:104E1000646574656374696F6E2063616E0A6265B0
:104E2000207475726E6564206F6E206F6E6C7920D1
:104E3000696E0A4E6F726D616C206D6F646500FE65
:104E4000005741524E494E473A0A437261736820F7
:104E5000646574656374696F6E0A64697361626C1A
:104E6000656420696E0A537465616C7468206D6FA7
:104E7000646500FF004D6F6465206368616E67655F
:104E800020696E2070726F67726573732E2E2E000C
:104E90000001436F70792073656C656374656420ED
:104EA0006C616E67756167653F000101436F6D6DF1
:104EB000756E697479206D616465000201536865DF
:104EC000657420252E37730A5A206F6666736574E1
:104ED0003A20252B312E33666D6D0A2563436F6EA4
:104EE00074696E75650A2563526573657400030104
:104EF000506C65617365206C6F61642066696C61DC
:104F00006D656E742066697273742E0004014361CE
:104F10006E63656C00050152756E6E696E67205791
:104F2000697A6172642077696C6C2064656C657461
:104F3000652063757272656E742063616C6962725C
:104F40006174696F6E20726573756C747320616E25
:104F5000642073746172742066726F6D207468656A
:104F600020626567696E6E696E672E000601507279
:104F70006568656174696E67206E6F7A7A6C652EFC
:104F800020506C6561736520776169742E0007019C
:104F9000506C6561736520696E7365727420666913
:104FA0006C616D656E7420696E746F207468652025
:104FB00065787472756465722C207468656E2070F3
:104FC0007265737320746865206B6E6F6220746FF6
:104FD000206C6F61642069742E000801506C65615B
:104FE000736520696E736572742066696C616D65A6
:104FF0006E7420696E746F207468652066697273C0
:10500000742074756265206F6620746865204D4D4C
:10501000552C207468656E207072657373207468F7
:1050200065206B6E6F6220746F206C6F6164206905
:10503000742E000901546865207072696E7465727F
:105040002077696C6C207374617274207072696E61
:1050500074696E672061207A69672D7A6167206CB8
:10506000696E652E20526F746174652074686520C6
:105070006B6E6F6220756E74696C20796F7520722B
:105080006561636820746865206F7074696D616C18
:10509000206865696768742E20436865636B2074B7
:1050A000686520706963747572657320696E207419
:1050B00068652068616E64626F6F6B202843616C65
:1050C0006962726174696F6E206368617074657281
:1050D000292E000A0153656C6563742074656D7038
:1050E00065726174757265207768696368206D61A7
:1050F000746368657320796F7572206D6174657271
:1051000069616C2E000B0153656C6563742061202E
:1051100066696C616D656E7420666F722074686577
:10512000204669727374204C617965722043616C0A
:105130006962726174696F6E20616E642073656C60
:1051400065637420697420696E20746865206F6ED1
:105150002D73637265656E206D656E752E000C0192
:105160004E6F7720492077696C6C2063616C6962AF
:10517000726174652064697374616E636520626531
:10518000747765656E20746970206F662074686539
:10519000206E6F7A7A6C6520616E64206865617438
:1051A00062656420737572666163652E000D015A35
:1051B0002063616C6962726174696F6E20726563ED
:1051C0006F6D6D656E6465642E2052756E20697416
:1051D000206E6F773F000E01506C65617365207221
:1051E000656D6F766520737465656C2073686565A1
:1051F000742066726F6D20686561746265642E004C
:105200000F01497320737465656C2073686565745C
:10521000206F6E20686561746265643F0010015004
:105220006C6561736520636865636B206F757220C0
:1052300068616E64626F6F6B20616E64206669786E
:10524000207468652070726F626C656D2E205468E2
:10525000656E20726573756D652074686520576989
:105260007A617264206279207265626F6F74696E10
:105270006720746865207072696E7465722E001103
:1052800001416C6C20697320646F6E652E2048614B
:10529000707079207072696E74696E6721001201F6
:1052A000596F752063616E20616C7761797320722C
:1052B0006573756D65207468652057697A617264DD
:1052C0002066726F6D2043616C6962726174696FF0
:1052D0006E202D3E2057697A6172642E00130149B9
:1052E0006620796F752068617665206164646974F1
:1052F000696F6E616C20737465656C207368656599
:1053000074732C2063616C696272617465207468C7
:10531000656972207072657365747320696E2053BD
:10532000657474696E6773202D2048572053657427
:105330007570202D20537465656C207368656574E5
:10534000732E001401506C6561736520636C656198
:105350006E206865617462656420616E64207468A3
:10536000656E20707265737320746865206B6E6F54
:10537000622E001501446F20796F752077616E747D
:1053800020746F20726570656174206C6173742085
:105390007374657020746F20726561646A757374CC
:1053A0002064697374616E636520626574776565F6
:1053B0006E206E6F7A7A6C6520616E64206865611C
:1053C000746265643F00160153656C656374206EFA
:1053D0006F7A7A6C65207072656865617420746597
:1053E0006D70657261747572652077686963682095
:1053F0006D61746368657320796F7572206D617477
:10540000657269616C2E00170149732066696C61D1
:105410006D656E74206C6F616465643F00180154A3
:105420006865726D616C206D6F64656C2063616C82
:105430002E2074616B657320617070726F782E20FE
:105440003132206D696E732E205365650A70727556
:1054500073612E696F2F746D2D63616C0019014E9D
:105460006F7720492077696C6C2070726568656180
:1054700074206E6F7A7A6C6520666F7220504C4192
:105480002E001A01492077696C6C2072756E207AA3
:105490002063616C6962726174696F6E206E6F77F0
:1054A0002E001B014E6F772072656D6F766520743C
:1054B00068652074657374207072696E74206672FA
:1054C0006F6D20737465656C2073686565742E005C
:1054D0001C01506C656173652072656D6F76652087
:1054E0007368697070696E672068656C7065727347
:1054F0002066697273742E001D01492077696C6CF7
:105500002072756E2078797A2063616C69627261AD
:1055100074696F6E206E6F772E2049742077696CE6
:105520006C2074616B6520757020746F203234209C
:105530006D696E732E001E0146697273742C2049CA
:105540002077696C6C2072756E20746865207365B5
:105550006C667465737420746F20636865636B2078
:105560006D6F737420636F6D6D6F6E206173736503
:105570006D626C792070726F626C656D732E001FA6
:105580000148692C204920616D20796F7572204F88
:10559000726967696E616C2050727573612069333E
:1055A000207072696E7465722E20576F756C64205E
:1055B000796F75206C696B65206D6520746F20674D
:1055C0007569646520796F75207468726F75676896
:1055D000207468652073657475702070726F6365E0
:1055E00073733F00200148692C204920616D2079A8
:1055F0006F7572204F726967696E616C20507275A9
:105600007361206933207072696E7465722E20494F
:105610002077696C6C20677569646520796F7520E7
:105620007468726F75676820612073686F72742088
:1056300073657475702070726F636573732C206965
:105640006E20776869636820746865205A2D6178D8
:1056500069732077696C6C2062652063616C696294
:1056600072617465642E205468656E2C20796F75A4
:105670002077696C6C2062652072656164792074A2
:105680006F207072696E742E002101452D636F7258
:10569000726563740022015A2D636F7272656374C0
:1056A000002301592D636F727265637400240158E1
:1056B0002D636F72726563740025015061757365A7
:1056C000002601465320416374696F6E0027014331
:1056D0006F6E742E002801462E206175746F6C6FFA
:1056E0006164002901462E2072756E6F7574002A60
:1056F000014D4D55204D6F6465002B014375747449
:105700006572002C01537465616C7468002D01434F
:1057100072617368206465742E002E0146616E20EC
:105720007370656564002F01426564003001466155
:105730006E7320636865636B0031014D6F64656C47
:105740000032014E6F7A7A6C6500330143686563FD
:105750006B730034014E6F7A7A6C65206368616EFA
:105760006765003501416C706861626574003601DF
:10577000536F727400370154696D650038014E6FC4
:10578000726D616C00390153442063617264003AA8
:105790000153656C656374206C616E677561676544
:1057A000003B0152506920706F7274003C014C69DB
:1057B0006E2E20636F7272656374696F6E003D01B7
:1057C0004857205365747570003E014C6F616469E1
:1057D0006E672054657374003F0144697361626CA5
:1057E000652073746570706572730040014D6F764B
:1057F00065206178697300410154656D706572615F
:105800007475726500420146656564696E6720744F
:105810006F204653656E736F720043014D6F76695A
:105820006E672073656C6563746F72004401486F26
:105830006D696E670045015265747261637420661C
:10584000726F6D2046494E4441004601456A6563CA
:1058500074696E672066696C616D656E74004701DE
:105860005061726B696E672073656C6563746F72EB
:1058700000480152657475726E696E672073656CBD
:105880006563746F72004901506572666F726D696D
:105890006E6720637574004A0150757368696E679E
:1058A0002066696C616D656E74004B0150726570A5
:1058B0006172696E6720626C616465004C015365BA
:1058C0006C656374696E672066696C2E20736C6FFB
:1058D00074004D01556E6C6F6164696E6720666976
:1058E0006C616D656E74004E0145525220544D43FB
:1058F000206661696C6564004F014552522048651D
:105900006C702066696C616D656E74005001455263
:105910005220496E7465726E616C0051014552529D
:10592000205761697420666F72205573657200524A
:105930000146696E697368696E67206D6F76656D83
:10594000656E747300530141766F6964696E6720F8
:105950006772696E6400540146656564696E67200C
:10596000746F206E6F7A7A6C6500550146656564C8
:10597000696E6720746F2065787472756465720053
:10598000560146656564696E6720746F2046494E0E
:105990004441005701556E6C6F6164696E672074F5
:1059A0006F2070756C6C6579005801556E6C6F6175
:1059B00064696E6720746F2046494E444100590166
:1059C000446973656E676167696E672069646C65B9
:1059D00072005A01456E676167696E672069646C81
:1059E0006572005B014F4B005C01554E4B4E4F57AB
:1059F0004E204552524F52005D0146494C414D45A3
:105A00004E54204348414E4745005E0146494C41B3
:105A10004D454E5420454A4543544544005F015589
:105A20004E4C4F4144204D414E55414C4C59006025
:105A30000146572052554E54494D45204552524F2C
:105A4000520061014D4D5520465720555044415458
:105A500045204E4545444544006201515545554554
:105A60002046554C4C006301494E56414C49442058
:105A7000544F4F4C00640146494C2E20414C524536
:105A8000414459204C4F41444544006501434F4D2A
:105A90004D554E49434154494F4E204552524F5265
:105AA0000066014D4D55204E4F5420524553504FE6
:105AB0004E44494E470067014D4D55204D435520FA
:105AC0004552524F520068014D4D552053454C46AA
:105AD00054455354204641494C4544006901544DB6
:105AE00043204452495645522053484F525445444E
:105AF000006A01544D4320554E444552564F4C5474
:105B000041474520455252006B01544D43204452B9
:105B100049564552205245534554006C01544D435B
:105B200020445249564552204552524F52006D0171
:105B3000544D43204F5645524845415420455252FA
:105B40004F52006E015741524E494E4720544D432B
:105B500020544F4F20484F54006F0149444C455248
:105B60002043414E4E4F54204D4F56450070014941
:105B7000444C45522043414E4E4F5420484F4D45D2
:105B800000710153454C4543544F522043414E4E02
:105B90004F54204D4F564500720153454C454354D8
:105BA0004F522043414E4E4F5420484F4D450073B5
:105BB000014C4F414420544F20455854522E20460A
:105BC00041494C4544007401494E535045435420CB
:105BD00046494E44410075014653454E534F5220AD
:105BE000544F4F204541524C5900760150554C4C72
:105BF00045592043414E4E4F54204D4F5645007756
:105C0000014653454E534F522046494C2E20535483
:105C100055434B0078014653454E534F522044495B
:105C2000444E542054524947472E00790146494E6C
:105C300044412046494C414D2E20535455434B007E
:105C40007A0146494E4441204449444E542054521E
:105C50004947474552007B014375742066696C6172
:105C60006D656E74007C01456A6563742066726FB1
:105C70006D204D4D55007D014C6F6164696E67204C
:105C800066696C616D656E74007E014D4D552052E4
:105C9000657472793A20526573746F72696E672009
:105CA00074656D70657261747572652E2E2E007F3D
:105CB00001536F7274696E672066696C657300804A
:105CC00001536F6D652066696C65732077696C6C34
:105CD000206E6F7420626520736F727465642E206D
:105CE0004D61782E204E6F2E206F662066696C65A0
:105CF0007320696E203120666F6C64657220666F58
:105D00007220736F7274696E67206973203130304E
:105D10002E008101756E6B6E6F776E2073746174E7
:105D20006500820120302E34206F72206E65776509
:105D30007200830120302E33206F72206F6C6465F7
:105D4000720084014F66660085014F6E0086015522
:105D50006E6578706563746564206572726F722019
:105D60006F636375727265642E0087014D36303043
:105D70002046696C616D656E74204368616E67656D
:105D80002E204C6F61642061206E65772066696CFF
:105D9000616D656E74206F7220656A65637420742E
:105DA0006865206F6C64206F6E652E0088015265F7
:105DB0006D6F76652074686520656A6563746564D7
:105DC0002066696C616D656E742066726F6D2074FB
:105DD00068652066726F6E74206F66207468652037
:105DE0004D4D552E00890146696C616D656E7420BC
:105DF000646574656374656420756E657870656349
:105E00007465646C792E20456E73757265206E6FB3
:105E10002066696C616D656E74206973206C6F61BA
:105E20006465642E20436865636B20746865207325
:105E3000656E736F727320616E6420776972696E2C
:105E4000672E008A01496E7465726E616C207275EE
:105E50006E74696D65206572726F722E205472794E
:105E600020726573657474696E6720746865204D6F
:105E70004D55206F72207570646174696E6720746F
:105E80006865206669726D776172652E008B014DC1
:105E90004D552046572076657273696F6E20697381
:105EA00020696E636F6D70617469626C65207769DB
:105EB0007468207072696E7465722046572E557032
:105EC0006461746520746F2076657273696F6E20EB
:105ED000332E302E332E008C014D4D5520466972E5
:105EE0006D7761726520696E7465726E616C206594
:105EF00072726F722C20706C6561736520726573AD
:105F0000657420746865204D4D552E008D015265D5
:105F1000717565737465642066696C616D656E7416
:105F200020746F6F6C206973206E6F7420617661CE
:105F3000696C61626C65206F6E207468697320689B
:105F4000617264776172652E20436865636B2074AB
:105F5000686520472D636F646520666F7220746FDB
:105F60006F6C20696E646578206F7574206F662091
:105F700072616E6765202854302D5434292E008EAE
:105F80000143616E6E6F7420706572666F726D2072
:105F900074686520616374696F6E2C2066696C613A
:105FA0006D656E7420697320616C7265616479201F
:105FB0006C6F616465642E20556E6C6F616420693E
:105FC000742066697273742E008F014D4D55206EDA
:105FD0006F7420726573706F6E64696E6720636F93
:105FE00072726563746C792E20436865636B2074EC
:105FF000686520776972696E6720616E6420636FDF
:106000006E6E6563746F72732E0090014D4D552056
:106010006E6F7420726573706F6E64696E672E2088
:10602000436865636B2074686520776972696E6781
:1060300020616E6420636F6E6E6563746F72732E81
:106040000091014D6F72652064657461696C732005
:106050006F6E6C696E652E0092015468652049640C
:106060006C65722063616E6E6F7420686F6D652061
:1060700070726F7065726C792E20436865636B2057
:10608000666F7220616E797468696E6720626C6FEA
:10609000636B696E6720697473206D6F76656D65DB
:1060A0006E742E00930143616E2774206D6F7665C8
:1060B0002053656C6563746F72206F722049646C45
:1060C00065722E0094015468652053656C65637495
:1060D0006F722063616E6E6F7420686F6D652070E3
:1060E000726F7065726C792E20436865636B2066F1
:1060F0006F7220616E797468696E6720626C6F637D
:106100006B696E6720697473206D6F76656D656E5F
:10611000742E0095014C6F6164696E6720746F2066
:106120006578747275646572206661696C65642E49
:1061300020496E7370656374207468652066696CAD
:10614000616D656E74207469702073686170652E6E
:1061500020526566696E65207468652073656E738C
:106160006F722063616C6962726174696F6E2C205A
:106170006966206E65656465642E00960153656CE2
:106180006563746F722063616E2774206D6F76652E
:106190002064756520746F2046494E444120646533
:1061A00074656374696E6720612066696C616D65F2
:1061B0006E742E204D616B652073757265206E6F55
:1061C0002066696C616D656E7420697320696E204C
:1061D00053656C6563746F7220616E642046494E2E
:1061E000444120776F726B732070726F7065726CB0
:1061F000792E00970146696C616D656E7420736538
:106200006E736F722074726967676572656420745B
:106210006F6F206561726C79207768696C65206C9E
:106220006F6164696E6720746F206578747275643D
:1062300065722E20436865636B2074686572652003
:1062400069736E277420616E797468696E67207354
:106250007475636B20696E205054464520747562D6
:10626000652E20436865636B2074686174207365D4
:106270006E736F722072656164732070726F7065E7
:10628000726C792E00980150756C6C6579206D6F79
:10629000746F72207374616C6C65642E20456E732C
:1062A000757265207468652070756C6C6579206303
:1062B000616E206D6F766520616E64206368656332
:1062C0006B2074686520776972696E672E0099018A
:1062D00046696C616D656E742073656E736F7220B4
:1062E0006469646E277420737769746368206F66CD
:1062F00066207768696C6520756E6C6F6164696E85
:10630000672066696C616D656E742E20456E7375CD
:1063100072652066696C616D656E742063616E20C4
:106320006D6F766520616E64207468652073656E9C
:10633000736F7220776F726B732E009A0146696CCF
:10634000616D656E742073656E736F72206469642D
:106350006E27742074726967676572207768696C4C
:1063600065206C6F6164696E67207468652066697A
:106370006C616D656E742E20456E73757265207448
:1063800068652073656E736F722069732063616C3A
:106390006962726174656420616E6420746865204E
:1063A00066696C616D656E742072656163686564B1
:1063B0002069742E009B0146494E44412064696463
:1063C0006E277420737769746368206F6666207720
:1063D00068696C6520756E6C6F6164696E672066B4
:1063E000696C616D656E742E2054727920756E6CC7
:1063F0006F6164696E67206D616E75616C6C792E7A
:1064000020456E737572652066696C616D656E748A
:106410002063616E206D6F766520616E6420464951
:106420004E444120776F726B732E009C0146494E9B
:106430004441206469646E277420747269676765DB
:1064400072207768696C65206C6F6164696E672083
:106450007468652066696C616D656E742E20456E8A
:1064600073757265207468652066696C616D656E10
:10647000742063616E206D6F766520616E642046C6
:10648000494E444120776F726B732E009D01446921
:106490007361626C65009E0153746F70009F014CC4
:1064A0006F616400A001556E6C6F616400A10152C0
:1064B000657365744D4D5500A20152657472790083
:1064C000A301426564206C6576656C696E67206621
:1064D00061696C65642E2053656E736F7220646908
:1064E000646E277420747269676765722E20446534
:1064F00062726973206F6E206E6F7A7A6C653F20CE
:1065000057616974696E6720666F72207265736582
:10651000742E00A40153656E736974697669747989
:1065200000A501446F6E6500A6015265636F766534
:1065300072696E67207072696E7400656E71756540
:10654000696E67202200446F6E65207072696E74F8
:10655000696E672066696C65004E6F204C696E65D8
:10656000204E756D62657220776974682063686576
:10657000636B73756D2C204C617374204C696E6570
:106580003A20004E6F20436865636B73756D20770A
:10659000697468206C696E65206E756D6265722C19
:1065A000204C617374204C696E653A200063686505
:1065B000636B73756D206D69736D617463682C20F6
:1065C0004C617374204C696E653A20004C696E65AD
:1065D000204E756D626572206973206E6F74204C59
:1065E000617374204C696E65204E756D6265722B07
:1065F000312C204C617374204C696E653A20002563
:106600006C75206279746573207772697474656E35
:1066100020746F2025532061742061646472657357
:10662000732030782530346C780A00442564202D9E
:1066300020526561642F57726974652025530A00E2
:106640003F3F00526F6D616E6100487276617473F6
:106650006B69004D616779617200536C6F76656E8E
:1066600063696E61004E6F72736B005376656E7373
:106670006B61004E656465726C616E647300506F8F
:106680006C736B69004974616C69616E6F0046726E
:10669000616E6361697300457370616E6F6C004475
:1066A0006575747363680043657374696E61004552
:1066B0006E676C6973680020436F756E7420583A7A
:1066C000200045303A25642052504D2050524E3122
:1066D0003A25642052504D204530403A25752050CF
:1066E000524E31403A25750A00526573656E64005A
:1066F00025533A20256C640A25530A002F2F616325
:1067000074696F6E3A6E6F74696669636174696FFC
:106710006E2025530A0046696C616D656E742072A7
:10672000756E6F75742064657465637465642100AB
:106730005072696E7465722073746F707065642036
:1067400064756520746F206572726F72732E2053AA
:1067500075706572766973696F6E2072657175699F
:106760007265642E0064756D7020636C656172657E
:10677000640A006E6F2064756D7020617661696CCB
:1067800061626C650A00443231202D2072656164BB
:106790002063726173682064756D700A006E6F20EB
:1067A00064756D7020617661696C61626C650A0068
:1067B00064756D7020636F6D706C657465642069BD
:1067C0006E20256C756D730A0058464C4153480085
:1067D000454550524F4D005352414D00442D3120FC
:1067E0002D20456E646C657373206C6F6F700A00AA
:1067F0004163746976652045787472756465723A90
:10680000203000496E76616C696420657874727519
:1068100064657200746D63323133305F7072696E1B
:10682000745F63757272656E747328290A0948096A
:10683000520A580925640925640A5909256409255D
:10684000640A5A0925640925640A4509256409254D
:10685000640A005344207072696E74696E67206226
:106860007974652000556E6B6E6F776E20636F6D67
:106870006D616E643A2022004D32303020496E76D0
:10688000616C696420657874727564657220007A41
:106890005F6D61783A20007A5F6D696E3A20007909
:1068A0005F6D61783A2000795F6D696E3A200078FB
:1068B0005F6D61783A20005452494747455245443C
:1068C000006F70656E00785F6D696E3A20005265EA
:1068D000706F7274696E6720656E6473746F702078
:1068E000737461747573004D3131322063616C6C67
:1068F00065642E20456D657267656E6379205374FB
:106900006F702E002F2F616374696F6E3A75766C0D
:106910006F5F7265636F766572795F7265616479C6
:10692000002F2F616374696F6E3A75766C6F5F61CB
:1069300075746F5F7265636F766572795F7265619A
:1069400064790025533A256C7520636D0A25533A06
:10695000256C75206D696E0A0053494C454E5400F4
:106960004E4F524D414C002553204D4F44453A2047
:1069700050657263656E7420646F6E653A20256899
:1069800068643B207072696E742074696D65207252
:10699000656D61696E696E6720696E206D696E73E1
:1069A0003A2025643B204368616E676520696E204C
:1069B0006D696E733A2025640A005072696E7465C1
:1069C0007253746174653A2025640A00456E642030
:1069D00066696C65206C69737400426567696E2036
:1069E00066696C65206C69737400556E6B6E6F77A9
:1069F0006E20256320636F64653A2025730A000AC0
:106A000050494E44412074656D70657261747572B1
:106A1000653A20252E3166205A20736869667420F5
:106A2000286D6D293A20252E3366000A537465704F
:106A30003A2025642F360A000A537465703A2025DF
:106A4000642F362028736B6970706564290A504979
:106A50004E44412074656D70657261747572653A5B
:106A6000202564205A20736869667420286D6D297A
:106A70003A300A000A5A45524F3A20252E33660A08
:106A80000073746172742074656D706572617475E1
:106A900072653A20252E31660A0025642020252EB5
:106AA000326600255320583A20252E356620593A63
:106AB00020252E3566205A3A20252E35660A0053A9
:106AC0006C6565702E2E2E0045303A25642052509C
:106AD0004D0A50524E303A25642052504D0A00471C
:106AE0003930004D31303700546865726D616C206B
:106AF0004D6F64656C2063616C2E004572723A5074
:106B000052494E542046414E204552524F52004564
:106B100072723A484F54454E442046414E204552E9
:106B2000524F52002F2F616374696F6E3A72657312
:106B3000756D6564002F2F616374696F6E3A7265BD
:106B400073756D65002F2F616374696F6E3A72659E
:106B5000616479002F2F616374696F6E3A6E6F7490
:106B60005F7265616479002F2F616374696F6E3A9B
:106B700063616E63656C004D383400417869732041
:106B80006C656E67746820646966666572656E63BD
:106B9000653A252E33660A004D656173757265642A
:106BA0002061786973206C656E6774683A252E33AE
:106BB000660A004F4B004C43442073746174757334
:106BC000206368616E67656400534420636172648A
:106BD0002072656C65617365640046616B65207346
:106BE000657269616C206E756D62657200452D631A
:106BF0006F6F6C206D6F646500414C5446414E20B0
:106C00006465742E002F2F616374696F6E3A73741C
:106C100061727400473931004D373032004D3833DE
:106C2000004732382057004D3530300045787465C4
:106C3000726E616C2053504920666C6173680A580B
:106C4000464C415348206973206E6F7420726573FF
:106C50002D0A706F6E64696E672E204C616E6775C9
:106C60006167650A73776974636820756E61766120
:106C7000696C61626C652E0058464C415348206E29
:106C80006F7420726573706F6E64696E672E004654
:106C9000572063726173682064657465637465640A
:106CA0002120596F752063616E20636F6E74696E69
:106CB0007565207072696E74696E672E2044656216
:106CC0007567206461746120617661696C61626CD2
:106CD0006520666F7220616E616C797369732E2016
:106CE000436F6E7461637420737570706F7274207B
:106CF000746F207375626D69742064657461696C6A
:106D0000732E002F2F616374696F6E3A64756D7016
:106D10005F617661696C61626C6500437261736882
:106D20004465746563742044495341424C454400B2
:106D3000437261736844657465637420454E4142D3
:106D40004C45442100486F74656E642066616E2076
:106D5000747970653A20002020506C616E6E657207
:106D600042756666657242797465733A2000204602
:106D7000726565204D656D6F72793A2000207C2028
:106D8000417574686F723A2000204C61737420550D
:106D90007064617465643A200020536F6674776193
:106DA000726520526573657400205761746368646E
:106DB0006F67205265736574002042726F776E2092
:106DC0006F75742052657365740020457874657220
:106DD0006E616C20526573657400506F77657255F3
:106DE00070006572726F722077726974696E6720C5
:106DF000746F2066696C6500446F6E652073617600
:106E0000696E672066696C652E006F6B0046696C61
:106E1000616D656E74004D65617375726564207394
:106E20006B6577733A2025662025660A00466974EB
:106E300074696E67206661696C6564203D3E2063FD
:106E4000616C6962726174696F6E206661696C65FC
:106E5000642E0A0043616C6962726174696F6E200E
:106E6000737563636573732E0A00416C6C20342064
:106E700063616C6962726174696F6E20706F696EB4
:106E8000747320666F756E642E0A00312F340031E2
:106E90002F3400312F3900544D4320445249564578
:106EA00052204F56455254454D5000486F6C642057
:106EB00063757272656E74207472756E6361746549
:106EC0006420746F2052756E2063757272656E74E3
:106ED0000025632533642F256481005A25362E3220
:106EE000662563005A2020202D2D2D200086253375
:106EF000642525002D2D2D2525002533642525000D
:106F0000205344002020200020484F00872533755F
:106F10006820256325630087253032753A25303295
:106F20007525632563002F2F616374696F6E3A7056
:106F30006175736564002F2F616374696F6E3A70B9
:106F4000617573650044756D70206D656D6F727944
:106F50000068656C702E707275736133642E636F98
:106F60006D00666F72756D2E707275736133642E6D
:106F7000636F6D00707275736133642E636F6D00A3
:106F80004D3730310025533A0A2531382E32666D9F
:106F9000200A25533A0A2531306C646420253032AA
:106FA000646820253032646D0025533A0A25313853
:106FB0002E32666D200A25533A0A2531306C6468FA
:106FC00020253032646D2025303264730025362E42
:106FD00032666D6D0025530A25530A25533A0A255A
:106FE000533A0025332E32668100252D31342E315F
:106FF00034533A0A25530A252D31342E3134533A6D
:1070000025332E3266810A252D31342E3134533A00
:1070100025332E32668100202030002020310046AA
:10702000494E44410050494E44410057697A6172CB
:107030006420656E642073746174653A2025640A67
:107040000053706F6F6C4A6F696E004669726D779E
:107050006172650048426564206F6E206C6F6164E8
:1070600000466C61736841697200507275736120EB
:107070006933204D4B33532B5853204F4B2E004D2B
:107080003630300053442063617264206F6B006FB0
:1070900070656E526F6F74206661696C656400760E
:1070A0006F6C756D652E696E6974206661696C65BB
:1070B0006400534420696E6974206661696C006FD6
:1070C00070656E206661696C65642C2046696C652C
:1070D0003A200043616E6E6F7420656E7465722095
:1070E0007375626469723A20004D3234004D323358
:1070F00020257300312F3900880020746F6F206CB9
:107100006F6E6720657874727573696F6E20707228
:107110006576656E7465640020636F6C64206578C5
:1071200074727573696F6E2070726576656E7465C2
:1071300064004D6F76652061626F72746564005003
:107140004F5745522050414E4943204445544543F2
:107150005445440055564C4F202D20656E64202523
:10716000640A0055564C4F5F54494E59202D2065F6
:107170006E642025640A00776F726C6420636F6F01
:107180007264696E617465733A2028252E33662C0B
:1071900020252E33662C20252E3366290A004D32F9
:1071A00032302053256400446F6E6520726561643F
:1071B000696E6720454550524F4D0A0054656D7009
:1071C0006572617475726520526573746F7265645F
:1071D0000A0047312045252D2E33662046323730B0
:1071E0003000084AD73B3BCE016E84BCBFFDC12FA7
:1071F0003D6C74319ABD56833DDA3D00C77F11BEA8
:10720000D9E4BB4C3E916BAAAABE000000803F05AA
:10721000A84CCDB2D44EB93836A9020C50B99186DB
:1072200088083CA6AAAA2ABE000000803F07634245
:1072300036B79BD8A71A39685618AEBAAB558C1D0D
:107240003CB7CC5763BD6DEDFD753EF6177231BF8F
:10725000000000803F08000000BE922449123EABAF
:10726000AAAA2ABECDCCCC4C3E00000080BEABAA60
:10727000AAAA3E00000000BF000000803F000000FE
:107280000000084178D3BB4387D1133D190E3CC39E
:10729000BD4282AD2B3E68EC8276BED98FE1A93E1D
:1072A0004C80EFFFBE01C4FF7F3F000000000000E4
:1072B0000C9419D20C9425D20D944A6A0C94EA6469
:1072C0000D9404660D94D5250D94D2990C947FCF1E
:1072D0000D94DC0F0C9468CF0D9444160D94860821
:1072E0000D9416290D94B1550D9486660D94491090
:1072F0000C948DCF0C943AD90C942A750C9453D2DB
:107300000C945ACF0C9483D40D94AA220D94CC24BF
:107310000D94AE3E0D9483410C944DE80C9464CFD3
:107320000C94A4D80D9499690C94A6770D94130924
:107330000D94FC690C941ED70D94F5080D943667D6
:107340000C94FE740C9438D20D944C230D94C024EC
:107350000D943A6A0D94D19F0D9416230D945C37C9
:107360000D942D2F0D94D1540C94DCD30D940A6AF6
:107370000C9479CF0C94CCD70D9410090D941C2744
:107380000D94526A0C9426E10D9446270D94402CDE
:107390000D94212D0C948E780D9467070C9495E133
:1073A0000D9454270C9475CF0C9495CF0C94A7D8BA
:1073B0000D9457670D9458160D94C2250D94C7412E
:1073C0000D9498240D94D49F0D94D6660D948B291A
:1073D0000D947A660C9477E10D9416690D94B62E8F
:1073E0000C943C750D94802F0C94D7D30D940B679F
:1073F0000D9479330D94D72C0D94AC270D94351141
:107400000D9463280C944AE10D944D270C94CDD330
:107410000C9460CF0D945A990D9456690C9440E1E8
:107420000D9465230D94C11C0D94126A0D94702562
:107430000C9437CF0C949ACF0D94C8CF0C94F2D201
:107440000D94226A0C942EE10D941F090C94A3D480
:107450000D945A590C94E6D30D949F110C9453D764
:107460000D9408750D9484250C9461D90C9487CFE4
:107470000D94FF690D94E69F0D94B2070C94E1D32F
:107480000C9456D90C94EAD30D94AC240C94AAD83D
:107490000D9402240C94CF740C9428D70D94326A66
:1074A0000D9453690C949BCF0C94E8740D940927A8
:1074B0000D94F2080D94CFD10D9450230D94F22722
:1074C0000C9443D00D94F0660D9402270C94A3CF36
:1074D0000C94ADD80D94C5690D945B270C94B0D86D
:1074E0000D94B5990D942E690C9463E10C94FBE016
:1074F0000D9454240D9498170C94DA740D94A025CF
:107500000D94D33B0D9407670C9476D60C9491CFD1
:107510000D94B6240C9438D00D94D8990C946771BE
:107520000C94B5740D94B7260D94E8220D9458125E
:107530000D9419670D94FE0C0C943DD00D94FD6EC6
:107540000D94F9690C946DE10D94FE2A0D94622757
:107550000C94C3D30C9407750D94D81C0C9470D95B
:107560000D9422670D9427410D94340C0C94EFE593
:107570000D943D130D94E3080D947D3D0D94412A27
:107580000D94B5280D94AF360C946FCF0D94906682
:107590000D94BF2E0C949FCF0D94A3110D943768BA
:1075A0000D944F3F0C946DD80D94E5260D94341E28
:1075B0000D94C82E0D94D89F0D94D5990D947A25CD
:1075C0000C94A7CF0C94B5D20D94CB690D94B59FB4
:1075D0000D948F3C0C94BCD80D9401670C94C8D3C7
:1075E0000C94A85C0D9460690C94D2D30D944D104A
:1075F0000D94A4160C9432D90D94CF2C0D94EF0851
:107600000D94F2290C944AD90D94C31C0C9408E1F2
:107610000D9405240D947A080D94E19F0D94B641C4
:107620000C9481E10D94AB260D94840E0D94546658
:107630000C9403E10D9404090D94AB250D94F80806
:107640000C9436E10D946F9F0D9408300D94E16712
:107650000D949A260D9473990C9442D90D941A6A3C
:107660000C9447D20D94621D0D94116F0D945D69B9
:107670000D94A2240C946CCF0D949E080C9483CF8F
:107680000D940B270D94C8690D94DC2C0D94DE101D
:107690000D94CA660D9424450D942A6A0D944C1ECF
:1076A0000C948BE10C9412E10D948E260C94DCD793
:1076B0000D943A410D946C6F0D948E250D94E34119
:1076C0000C9454E10C945ED20D94EF260D948A0E26
:1076D0000C94B3D80D94426A0D94026A0C941CE188
:1076E0000D94D1310C94ACD26E616E00696E66005F
:1076F00000407A10F35A00A0724E18090010A5D469
:10770000E80000E87648170000E40B54020000CAC5
:107710009A3B000000E1F50500008096980000000B
:1077200040420F000000A08601000000102700006A
:107730000000E803000000006400000000000A00F0
:10774000000000000100000000002C76D888DC67F3
:107750004F0823DFC1DFAE59E1B1B796E5E3E4534B
:10776000C63AE651997696E8E6C28426EB898C9B68
:1077700062ED407C6FFCEFBC9C9F40F2BAA56FA508
:10778000F490055A2AF75C936B6CF9676DC11BFC8A
:10779000E0E40D47FEF520E6B500D0ED902E0300A5
:1077A000943577050080841E080000204E0A0000F2
:1077B00000C80C333333330F986E12831141EF8DB1
:1077C0002114893BE65516CFFEE6DB18D1844B38F1
:1077D0001BF77C1D901DA4BBE424203284725E2222
:1077E0008100C9F124ECA1E53D272200002045538A
:1077F0005000204E535000204F464600204F4E0070
:107800005056303100205B4D505D200025692068C6
:107810006F757273202569206D696E7574657300CC
:1078200052582074696D656F7574004D33313000A6
:107830004D313132004D3131300046756C6C205283
:1078400058204275666665720053657474696E6788
:10785000732053746F72656400544D3A2073746FD3
:107860007265642063616C6962726174696F6E2015
:10787000696E76616C69642C2072657365747469D5
:107880006E670053746F7265642073657474696EFB
:107890006773207265747269657665640048617209
:1078A00064636F6465642044656661756C7420531D
:1078B000657474696E6773204C6F6164656400560B
:1078C0003200000000C8420000C8420000C8430067
:1078D00080C6430000484300004843000040410088
:1078E00000F042E8030000E8030000C80000008840
:1078F00013000000409C4400409C44000000000035
:10790000000000204E00000000204100002041CD7A
:10791000CCCC3E00009040000000000000000000C1
:10792000000000CDCCCC3E0000C8419C53493F80B4
:10793000F946438F42FC42E65A343F4C62B0450060
:107940000000000040400000344200000000000041
:10795000000000000041000000E03F0000C84200BD
:1079600000C842000040410000F042C0030000C0D7
:10797000030000C800000088130000101010200051
:10798000409C440000803F0000003F1914000000AC
:10799000437573746F6D004E796C6F6E5041005378
:1079A0006174696E20200054657874757200536D9F
:1079B0006F6F746800486F74656E642066616E2036
:1079C0007370656564206973206C6F7765722074CD
:1079D00068616E20657870656374656400507269D3
:1079E0006E742066616E2073706565642069732013
:1079F0006C6F776572207468616E2065787065635E
:107A000074656400312E3000312E3500554E4B4EDA
:107A10004F574E004C413130433A204C696E6561FE
:107A20007220416476616E6365206D6F64653A20F3
:107A3000004C413130433A2041646A757374656487
:107A400020452D4A65726B3A2000D16949303E0FBE
:107A5000A8AF00480069960000DF60255558876888
:107A60000427F2E0005E3403CC1960F33C0EF88F7B
:107A700000DB08029492003E1C079A8700E5240070
:107A80008528527E06001BE4007E781270787061B3
:107A9000F812788F88417842707870617825707814
:107AA0007061F850788F88D1F02527078761F0251D
:107AB000278F88412C0D27AA50D1BC070787116159
:107AC000BE788F881141785270787061F852788F43
:107AD00088412012788870632052788870634852F9
:107AE00078888743031117997064181278F87065C5
:107AF0004412F8F8F045184278F87065182578F8BF
:107B00007065185278F87065185078F870650C0731
:107B10008F872365A20F8F8F11450012062270698F
:107B20000012072227490025062270690025072236
:107B3000274900120622276C026236A2706C40456B
:107B40006C44704C03622222706C43888888F04C2D
:107B50007812BC88806E7852BC88806E3812788823
:107B6000706F78127888874F38427888706F382520
:107B70007888706F3A0079AC786F3D079AAC786F6F
:107B80007850788887EF39497888706F0852BC88B8
:107B900080729852F88F985220127870F0734812C1
:107BA0007863875320527870F07348527863875314
:107BB0001007870F247312786387245360699A989B
:107BC0008BE22304E4443074104E444324747C124A
:107BD000888960753C50888870557825288960753B
:107BE0007949088960753C12887070790C12885246
:107BF00022594412F124F07A4452F124F07A8C5242
:107C0000F0368F5A4420F124F07A00401454CDCC41
:107C1000CC3D0AD7233C17B7D13877CC2B3295957A
:107C2000E6241FB14F0A000020410000C842004076
:107C30001C4620BCBE4CCA1B0E5AAEC59D744E419C
:107C40004E494E46627573793A207061757365646A
:107C500020666F7220696E70757400627573793A70
:107C60002070617573656420666F7220757365722C
:107C700000627573793A2070726F63657373696E11
:107C8000670000007F43008054430000524300001F
:107C90000000000080C09A99193E0000000000001A
:107CA00080C09A99193E0000A0400000A04000004A
:107CB000004025336420737465703D253264206D67
:107CC00073636E743D2534640A0000007F430080B6
:107CD00058439AD95143FFFFFF20413A0020503AC0
:107CE000002042403A0020403A00202F002054302B
:107CF0003A00202F0020423A00202F00543A00255D
:107D00005345786365737369766520626564206C9A
:107D10006576656C696E6720636F727265637469FE
:107D20006F6E3A202569206D6963726F6E730A0069
:107D3000426564206C6576656C696E672066616972
:107D40006C65642E20546F6F206D756368207661BA
:107D500072696174696F6E2066726F6D20656570FF
:107D6000726F6D206D65736800426564206C657686
:107D7000656C696E67206661696C65642E20536569
:107D80006E736F72207472696767657265642074C0
:107D90006F6F20736F6F6E002020004D65617375EB
:107DA00072656420706F696E74733A005A2073654F
:107DB00061726368206865696768743A20352E309F
:107DC00066004E756D20582C593A20372C37004DDF
:107DD00065736820626564206C6576656C696E67A2
:107DE000206E6F74206163746976652E0020453AB9
:107DF00000205A3A0020593A0020453A00205A3AC9
:107E00000020593A00583A00202D3E200053706F50
:107E10006F6C4A6F696E3A20002C20006673656EA5
:107E2000736F722076302E3420696E206661756C17
:107E3000742072616E676520342E362D3556202DE4
:107E400020756E636F6E6E6563746564006673653E
:107E50006E736F7220696E20666F7262696464650A
:107E60006E2072616E676520312E352D3356202DC0
:107E700020636865636B2073656E736F7200496E73
:107E800061637469766974792053687574646F7777
:107E90006E004B494C4C45442E005072696E74651F
:107EA000722068616C7465642E206B696C6C282983
:107EB0002063616C6C656421005A206C69766520D2
:107EC00061646A757374206F7574206F66207261C7
:107ED0006E67652E2053657474696E6720746F2019
:107EE000302E20436C69636B20746F20636F6E7457
:107EF000696E75652E005A206C6976652061646A2A
:107F0000757374206F7574206F662072616E67657B
:107F10002E2053657474696E6720746F20300020C2
:107F2000453A3020423A00543A004731205A252D34
:107F30002E33662046252D2E336600496E76616C01
:107F40006964205420636F64652E004475706C6909
:107F50006361746520542D636F64652069676E6F7B
:107F60007265642E00416476616E6365204B3D004E
:107F70004B206F7574206F6620616C6C6F77656441
:107F80002072616E676521004D4B3353004D4B33BA
:107F9000534D4D5533005E762E012533642F253326
:107FA000640025336400200A200A200A200025539B
:107FB000537461746973746963733A0A255320209A
:107FC0004D37382053256C752054256C750A0025D3
:107FD000534172632053657474696E67733A20501D
:107FE0003A4D6178206C656E677468286D6D292044
:107FF000533A4D696E206C656E67746820286D6D0C
:1080000029204E3A436F7272656374696F6E7320F4
:10801000523A4D696E207365676D656E74732046C4
:108020003A5365676D656E74732F7365632E0A2509
:108030005320204D3231342050252E3266205325D6
:108040002E3266204E256420522564204625640A7F
:1080500000255346696C616D656E74207365747498
:10806000696E67733A2044697361626C65640A00E3
:10807000255346696C616D656E742073657474690F
:108080006E67733A0A25532020204D323030204449
:10809000252E32660A002553526574726163743A64
:1080A00020533D4C656E67746820286D6D2920460D
:1080B0003A537065656420286D6D2F6D29205A3AFA
:1080C000205A4C69667420286D6D290A255320209A
:1080D000204D3230372053252E32662046252E3251
:1080E00066205A252E32660A25535265636F7665DF
:1080F000723A20533D4578747261206C656E6774E6
:108100006820286D6D2920463A53706565642028E3
:108110006D6D2F6D290A25532020204D32303820D7
:1081200053252E32662046252E32660A2553417588
:10813000746F2D526574726163743A20533D302020
:10814000746F2064697361626C652C203120746FD8
:1081500020696E74657270726574206578747275CA
:1081600064652D6F6E6C79206D6F76657320617319
:10817000207265747261637473206F72207265631C
:108180006F7665726965730A25532020204D323061
:1081900039205325640A00255350494420686561FD
:1081A000746265642073657474696E67733A0A2536
:1081B000532020204D3330342050252E3266204964
:1081C000252E32662044252E32660A00255350495A
:1081D000442073657474696E67733A0A25532020CE
:1081E000204D3330312050252E32662049252E3245
:1081F000662044252E32660A002553537465707339
:108200002070657220756E69743A0A255320204DDE
:1082100039322058252E32662059252E3266205AB2
:10822000252E32662045252E32660A255355537475
:108230006570207265736F6C7574696F6E3A200A91
:108240002553204D3335302058256420592564208E
:108250005A2564204525640A25534D6178696D755A
:108260006D20666565647261746573202D206E6F84
:10827000726D616C20286D6D2F73293A0A25532089
:10828000204D3230332058252E32662059252E328B
:1082900066205A252E32662045252E32660A255341
:1082A0004D6178696D756D20666565647261746590
:1082B00073202D20737465616C746820286D6D2F98
:1082C00073293A0A255320204D3230332058252E69
:1082D00032662059252E3266205A252E32662045D8
:1082E000252E32660A25534D6178696D756D2061C2
:1082F0006363656C65726174696F6E202D206E6FAB
:10830000726D616C20286D6D2F7332293A0A2553E6
:1083100020204D3230312058256C752059256C7540
:10832000205A256C752045256C750A25534D6178BA
:10833000696D756D20616363656C65726174696FE9
:108340006E202D20737465616C746820286D6D2F0C
:108350007332293A0A255320204D323031205825D6
:108360006C752059256C75205A256C752045256C37
:10837000750A2553416363656C65726174696F6E3C
:108380003A20503D7072696E742C20523D726574B3
:10839000726163742C20543D74726176656C0A2599
:1083A0005320204D3230342050252E326620522565
:1083B0002E32662054252E32660A2553416476619A
:1083C0006E636564207661726961626C65733A20E0
:1083D000533D4D696E206665656472617465202841
:1083E0006D6D2F73292C20543D4D696E2074726180
:1083F00076656C20666565647261746520286D6DB4
:108400002F73292C20423D6D696E696D756D207347
:1084100065676D656E742074696D652028757329B4
:108420002C20583D6D6178696D756D205859206A12
:1084300065726B20286D6D2F73292C20205A3D6D9D
:108440006178696D756D205A206A65726B20286DA0
:108450006D2F73292C2020453D6D6178696D756DF8
:108460002045206A65726B20286D6D2F73290A25BF
:108470005320204D3230352053252E32662054258E
:108480002E32662042256C752058252E32662059E2
:10849000252E3266205A252E32662045252E32663C
:1084A0000A2553486F6D65206F66667365742028D2
:1084B0006D6D293A0A255320204D3230362058253B
:1084C0002E32662059252E3266205A252E32660A13
:1084D00000544D3A20525B25755D20657374696DBB
:1084E0006174652E00544D3A202553205220256496
:1084F0004300544D3A2025532043206573742E00C9
:10850000544D3A20636F6F6C20646F776E203C256A
:10851000644300726566696E6500696E69746961BD
:108520006C00544D3A2063616C6962722E20666162
:10853000696C65642100544D3A2063616C69627214
:108540006174696F6E20737461727400544D3A20C7
:1085500043616C2E204E4F542049444C45004361EA
:10856000703A25533A25630A0050525553415F4DE6
:108570004D553200455854454E4445445F4D3230C8
:10858000004155544F5245504F52545F504F53493C
:1085900054494F4E004155544F5245504F52545F2D
:1085A00046414E53004155544F5245504F52545F2F
:1085B00054454D500000332E31342E310044656C4B
:1085C0006574696F6E206661696C65642C2046690C
:1085D0006C653A200046696C652064656C6574655D
:1085E000643A004E6F74205344207072696E74694F
:1085F0006E67005072696E74207361766564005313
:1086000044207072696E7420706175736564002512
:1086100033642F253364004F4B00424144005241E4
:108620004D426F2046414E200043524153485F4324
:10863000414E43454C0043524153485F5245434FDE
:108640005645520043524153485F5245434F5645A9
:108650005200222832290025533A2025530A002CA3
:10866000204D39303720452069676E6F7265640090
:108670006E6F2076616C696420636F6D6D616E64EE
:10868000007A65726F72697A656400666163746FFF
:10869000727920726573746F72656400696E6465C7
:1086A000782C2074656D702C2075737465702C2087
:1086B000756D0050494E44412063616C20737461B4
:1086C0007475733A2000503A005761697420666FE0
:1086D000722050494E444120746172676574207461
:1086E000656D70657261747572653A002041002095
:1086F0005000204200204C00205200205A00204E02
:108700004F5420494E495449414C495A454400531D
:10871000686565742000205A2056414C5545204F0D
:108720005554204F462052414E474500496E7661D0
:108730006C69642073686565742049442E20416C1F
:108740006C6F7765643A20302E2E004155544F00EF
:108750004C414E472053454C20464F524345440020
:108760004D3235362042256420442564205325644B
:10877000205425750A0020643A0020693A002070D0
:108780003A0020643A0020693A0020703A002569D6
:1087900025250A00256925250A0022283129002FD0
:1087A0002F00002045585452554445525F434F55C1
:1087B0004E543A3100204D414348494E455F54598B
:1087C00050453A00312E3000206261736564206F9D
:1087D0006E204D61726C696E204649524D57415270
:1087E000455F55524C3A68747470733A2F2F67691D
:1087F000746875622E636F6D2F7072757361336468
:108800002F50727573612D4669726D7761726520A4
:1088100050524F544F434F4C5F56455253494F4E61
:108820003A00663365306466643438005F0038327D
:108830003834002B004649524D574152455F4E4156
:108840004D453A50727573612D4669726D7761724C
:108850006520004D3131332053006F6B20006E2FA7
:1088600061003F546F736869626120466C61736890
:10887000416972204765744950206661696C65647E
:108880000A00000125311D0C4024301C0B45232F0C
:108890001B0A17FF0406222B1A03363735382569C1
:1088A000206D696E2C2025692073656300496E7602
:1088B000616C6964204D20636F64653A2025730AFA
:1088C0000050494E44412070726F62652063616CB4
:1088D0006962726174696F6E207374617274004EA4
:1088E0006F2050494E444120746865726D697374FD
:1088F0006F7200736574006E6F7A7A6C65004D421A
:108900004C004652004C7A004C616E6700315F3774
:10891000356D6D5F4D4B33532D45494E53795F3166
:1089200030612D4533445245564F00526576003331
:108930002E31342E312D38323834004669720053CE
:108940004E20696E76616C696400534E0052455347
:108950004554004D4D555245530075766C6F004699
:10896000414E0046414E50494E54535400505255CA
:108970005341005345545F43484F505F00534554A3
:108980005F535445505F005345545F574156455F10
:1089900000544D435F0043524153485F43414E43AF
:1089A000454C0043524153485F5245434F56455250
:1089B0000043524153485F444554454354454400A5
:1089C00043524153485F004D3130345330004731FA
:1089D0005831305931383046343030300047315A10
:1089E00031304631333030004D3134305330004770
:1089F00031452D302E3037354632313030004D3252
:108A0000303453313030300047315A354637323008
:108A100030004731452D312E354632313030004758
:108A2000315A302E32004731583230322E354538E7
:108A30004631343030004731592D324631303030F4
:108A4000004731583234304532354632323030000A
:108A500047315A302E3346313030300047315835A7
:108A60003545384632303030004731583545323997
:108A70004631383030004731583535453239463186
:108A800030373300473932453000473238004D31F6
:108A90003039004D3139300070012C01900127012F
:108AA000B0012201C0011D01F001180110021301E3
:108AB00030020E016002090190020401C002FF00B1
:108AC0000003FA004003F5008003F000D003EB0040
:108AD0002004E6007004E100E004DC004005D7005B
:108AE000C005D2004006CD00D006C8008007C300F4
:108AF0003008BE00F008B900C009B400B00AAF00E9
:108B0000B00BAA00D00CA500000EA000500F9B00D7
:108B1000C01096005012910000148C00C015870000
:108B2000B0178200B0197D00D01B7800001E7300C2
:108B300040206E0090226900F024640040275F000E
:108B400090295A00E02B5500102E500020304B0089
:108B500010324600E033410090353C0010373700BA
:108B600070383200A0392D00B03A2800A03B230015
:108B7000603C1E00103D1900903D1400103E0F0097
:108B8000703E0A00C03E0500003F00004D34340036
:108B9000302E383000302E363000302E3430003059
:108BA0002E323500473238205859004D20383400D5
:108BB000852E2E00593A202575202D3E202E2E2E52
:108BC00000583A202575202D3E202E2E2E00466975
:108BD0006C616D656E742073656E736F7220626F69
:108BE000617264206368616E6765206465746563A3
:108BF0007465643A207265766973696F6E25530AED
:108C0000004D656173757265642066696C616D65A0
:108C10006E742073656E736F72206C6F77206C6555
:108C200076656C3A2025342E3266560A004D656111
:108C300073757265642066696C616D656E7420730E
:108C4000656E736F722068696768206C6576656C05
:108C50003A2025342E3266560A002533642F300020
:108C60002533642F30002563204158495320534752
:108C7000313D25640A00486F74656E640042656486
:108C8000005A00590058002D2D2D2D2D2D2D2D2D44
:108C90002D2D2D2D2D2D2D2D2D2D2D00435A5058A0
:108CA000496E76616C696453657269616C4E7200DD
:108CB000DF6AE36AEF89E889DD89CE89186CC789A4
:108CC000776B473159252E346645252E346600478B
:108CD000315A252E326600473158353059313535F5
:108CE00000848ADF6A1D6C128A088AFE894731581F
:108CF000252E346645252E346600473146313038FE
:108D00003000768A698A5C8A508A848A418A368AE7
:108D1000268A1F8A5425640047315A302E34004772
:108D200031592D33463130303000E36A938A8E8AD0
:108D30008A8A848A4D383420585900473120583166
:108D40003235205A323030204631303030004D3309
:108D50003130204120463100473120583132352012
:108D600059313035205A3120463830303000496E84
:108D700076616C6964205049442063616C2E2072D6
:108D80006573756C74732E204E6F742073746F72DC
:108D9000656420746F20454550524F4D2E004D3371
:108DA00030312050252E32662049252E326620444F
:108DB000252E3266004D3330332045302053253385
:108DC0007500524300444556004245544100414C11
:108DD0005048410000002100240027002A002D00F7
:108DE0003000330001010000040107010A01000006
:108DF0002200250028002B002E0031003400020143
:108E00000000050108010B010000200023002600DE
:108E100029002C002F003200000100000301060190
:108E200009010505050507050808080802020202F0
:108E30000A0A0808040404040101010101010101F6
:108E40000303030303030303040707070C0C0C0CC1
:108E50000C0C0C0C020202020606060606060606AA
:108E60000B0B0B0B0B0B0B0B07070A0A0A0A0A0A60
:108E70000505050404040808010210202008081054
:108E8000204010204080020102010804020101027A
:108E90000408102040808040201008040201800453
:108EA00002018040201008040201080402010102AE
:108EB000040810204080010204081020408010089F
:108EC00004088010204004408010204004800000EE
:108ED0000A0B02090C0D0E08070304010000000034
:108EE0000000000000000000000000000000000082
:108EF000000000000000000000001211100000003F
:108F00000000000000000000000000000000000061
:108F10000000000000000000000000000000000051
:108F200000000000332E31342E31000A204F7269C8
:108F300067696E616C2050727573612069330A2015
:108F40002020507275736120526573656172636889
:108F50000A2532302E323053004C616E67756167DE
:108F6000652075706461746500435A5058003B5326
:108F70000053706F6F6C4A6F696E206973200061D7
:108F800064635F696E697400200A200A200A200069
