:100000000C945A340C948B340C948B340C948B34A5
:100010000C948B340C948B340C948B340C948B3464
:100020000C948B340C948B340C948B340C948B3454
:100030000C940A690C948B340D946B040D94AF01ED
:100040000C948B340D94290C0C948B340C948B34BD
:100050000C948B340C948B340C948B340C94EC589F
:100060000C948B340C94F8460C948B340C948B3495
:100070000C948B340C94F19D0C948B340C948B3435
:100080000D94B5060C948B340C948B340C948B34F7
:100090000C94B4460C948B340C948B340C948B34A9
:1000A0000C948B340C948B340C94B7FD0C948B34DF
:1000B0000C948B340C94ACFD0C948B340C948B34DA
:1000C0000C948B340C948B340C948B340C946CFD0A
:1000D0000C948B340C948B340C948B340C948B34A4
:1000E0000C948B34084AD73B3BCE016E84BCBFFDD9
:1000F000C12F3D6C74319ABD56833DDA3D00C77FF8
:1001000011BED9E4BB4C3E916BAAAABE0000008090
:100110003F05A84CCDB2D44EB93836A9020C50B91F
:10012000918688083CA6AAAA2ABE000000803F0744
:10013000634236B79BD8A71A39685618AEBAAB5582
:100140008C1D3CB7CC5763BD6DEDFD753EF6177247
:1001500031BF000000803F08000000BE9224491219
:100160003EABAAAA2ABECDCCCC4C3E00000080BE3D
:10017000ABAAAAAA3E00000000BF000000803F001A
:1001800000000000084178D3BB4387D1133D190E0E
:100190003CC3BD4282AD2B3E68EC8276BED98FE176
:1001A000A93E4C80EFFFBE01C4FF7F3F000000006E
:1001B00000000C94F29E0C94B4E90C9429580C9411
:1001C00016F60C94B4F20C94F9BB0C94A9F40C94AC
:1001D000BBAA0C94EEDD0C94DFF50C9490AB0C9460
:1001E000AAA30D94E9170D943C6F0D9405170C9478
:1001F000D9F70C94E69E0C94B7A40C94F4A10C943B
:10020000D6DD0D94E3170C94CBA40C94EE9E0D94C4
:10021000BB6F0D948F080D941F010D9487000C94F3
:1002200054590C9445B00C943E590C94B2A40C94BF
:10023000259F0C9493A10D94F7230C94F85C0C94D7
:10024000E7DC0C94179F0C9406EB0C94F2A50C942D
:100250003BB60C9490AA0C9417DA0C94BCA10C94A5
:1002600080590D941C180C9472DD0C94299F0C94E9
:10027000AAAB0D94994B0C94D1F20C9440580C9469
:10028000E09F0C94B7A20C94D9F50C94A4DD0C94C7
:10029000ACAB0D9424180D94B8750C94B0E90C9483
:1002A00088A70D94556F0C940D9F0D94B5170C9461
:1002B00064EB0C94C6A40D9410010C9460BB0C94D8
:1002C0000AA20D94C33E0C940B590C9492590C94B1
:1002D0007AA50C94F2B70C948FA50D94B2170D94D7
:1002E00042170C94A8F20C9425590C94F5AA0C947E
:1002F000E8AF0C9430590C94E9B70C94F0AF0C941F
:1003000086AA0C9462BF0D944F170D94E6170C94B7
:10031000F8AA0C9474C20C9446BB0C949EA10C9445
:100320001EFD0C94E1C20C941DB00D9438010C9488
:100330009BAB0D9495750C940EB30C9407E80C943C
:1003400002F30D9434180C94E1B40C941CA30C9497
:1003500084AB0C9431B00C94ECAA0C9404AB0C94C8
:10036000EA9E0C94A2F30D941D170C9419F60C94AC
:100370000DA50C94F59E0C94ECB70C94E7A60D9487
:100380004F750C9485A20C944FED0C943BDE0C94AD
:1003900087A10C94F5FD0C94099F0C94FBF10D942E
:1003A0002C180C940EB00C94FBAA0D9444180C94C9
:1003B000D5F70C94B3B70C9463EC0C944BDE0C940F
:1003C000FDDD0D9485170D949A000C9473A50C9483
:1003D000FBB70D94343D0C94C5F20C94EFAA0D9428
:1003E000EC170C94FCA30C9472BB0D940C180C9499
:1003F000E9F30D94CC3E0C94F6F10C94E09E0C9431
:1004000005ED0D94D53E0C94209F0C94AAB70C9446
:100410009CDD0C94A8A10C942CA20C9432F30C94A7
:1004200065470C946CA10C9477FB0C94BDAF0C94B5
:10043000C9A60D9404180C94FAAF0C94FB9E0D946D
:10044000B4750D940E020C942BF40C94D5A40C945A
:10045000EFB70C9488A50C9415A20C94C5B70C9416
:1004600056A10C940AEB0D944C170C945D590C9406
:1004700058A10C9445EA0C9443E90C940BA60C94F7
:10048000B5AF0D94B1750C943BB00C9478AB0C9453
:10049000D6AF0C94C6FC0C94DA9F0D94F4170D940F
:1004A000FC170C9467ED0C9404B00D9445170C9454
:1004B000E0B70C9400AA0C949CEA0C9406DA0D9414
:1004C000B76F0D94976F0C9469F30C94A1A20C94E0
:1004D00003DE0C9425DE0C94E0AF0C94F2AA0C948D
:1004E00093A80D94C1750C940DFC0D94AF170C944A
:1004F000E35A0C94C6A30C9481A50C94B2A10C945D
:100500007EAB0C9418C40D94B46F0C94219F0C9482
:1005100027B00C94CCAF0C94059F0C9407DE0C9480
:10052000D0A40C9400A20D94DD000C9478A10C943E
:100530001B9F0C9462A10C9472AB0C942CFF0C9436
:100540002D9F0C944FB00C94C1A40C9492DD0D948B
:10055000C6750C948DB50C94AFAB0C94C2AF0D94D2
:1005600014180C9424BC0D943C180C94B8F70C94FB
:100570008C9E0C942CB50C948AC20C94FF9E0C9407
:10058000EAF70C940DE80C94139F0C94BCA40C9403
:10059000D9A40C94C6A16E616E00696E660000401D
:1005A0007A10F35A00A0724E18090010A5D4E80082
:1005B00000E87648170000E40B54020000CA9A3B9A
:1005C000000000E1F5050000809698000000404220
:1005D0000F000000A08601000000102700000000AE
:1005E000E803000000006400000000000A000000B2
:1005F00000000100000000002C76D888DC674F085E
:1006000023DFC1DFAE59E1B1B796E5E3E453C63A63
:10061000E651997696E8E6C28426EB898C9B62EDDA
:10062000407C6FFCEFBC9C9F40F2BAA56FA5F49094
:10063000055A2AF75C936B6CF9676DC11BFCE0E40B
:100640000D47FEF520E6B500D0ED902E0300943561
:1006500077050080841E080000204E0A000000C8B4
:100660000C333333330F986E12831141EF8D211405
:10067000893BE65516CFFEE6DB18D1844B381BF7D5
:100680007C1D901DA4BBE424203284725E22810074
:10069000C9F124ECA1E53D272200656E71756569FD
:1006A0006E67202200446F6E65207072696E7469F7
:1006B0006E672066696C65004E6F204C696E652020
:1006C0004E756D6265722077697468206368656332
:1006D0006B73756D2C204C617374204C696E653A98
:1006E00020004E6F20436865636B73756D207769DA
:1006F0007468206C696E65206E756D6265722C2061
:100700004C617374204C696E653A200063686563C0
:100710006B73756D206D69736D617463682C204C0B
:10072000617374204C696E653A20004C696E6520D7
:100730004E756D626572206973206E6F74204C6116
:100740007374204C696E65204E756D6265722B3135
:100750002C204C617374204C696E653A200025751D
:10076000206279746573207772697474656E207481
:100770006F20255320617420616464726573732057
:100780003078253038780A00442564202D205265C1
:1007900061642F57726974652025530A0020436FE6
:1007A000756E7420583A200045303A256420525026
:1007B0004D2050524E313A25642052504D20453044
:1007C000403A25752050524E31403A25750A005264
:1007D0006573656E640025533A20256C640A2553C1
:1007E0000A002F2F616374696F6E3A6E6F746966C9
:1007F00069636174696F6E2025530A0046696C61F4
:100800006D656E742072756E6F75742064657465A5
:1008100063746564210064697361626C656400657A
:100820006E61626C656400454550524F4D005352F5
:10083000414D00442D31202D20456E646C6573734D
:10084000206C6F6F700A004163746976652045788B
:100850007472756465723A203000496E76616C6915
:1008600064206578747275646572004D3232302090
:10087000532564005344207072696E74696E67205A
:10088000627974652000257500556E6B6E6F776E0A
:1008900020636F6D6D616E643A2022004D323030FE
:1008A00020496E76616C6964206578747275646540
:1008B0007220007A5F6D61783A20007A5F6D696E10
:1008C0003A2000795F6D696E3A20005452494747DB
:1008D00045524544006F70656E00785F6D696E3AF1
:1008E00020005265706F7274696E6720656E647364
:1008F000746F7020737461747573004D31313220E0
:1009000063616C6C65642E20456D657267656E630E
:10091000792053746F702E002F2F616374696F6E8E
:100920003A75766C6F5F7265636F766572795F7228
:10093000656164790025533A256C7520636D0A253D
:10094000533A256C75206D696E0A0053494C454E2B
:1009500054004E4F524D414C002553204D4F4445BD
:100960003A2050657263656E7420646F6E653A203C
:10097000256868643B207072696E742074696D65C7
:100980002072656D61696E696E6720696E206D69A0
:100990006E733A2025643B204368616E6765206969
:1009A0006E206D696E733A2025640A005072696E7C
:1009B00074657253746174653A2025640A00456E4B
:1009C000642066696C65206C6973740042656769B0
:1009D0006E2066696C65206C69737400556E6B6E71
:1009E0006F776E20256320636F64653A2025730A54
:1009F000000A50494E44412074656D7065726174FF
:100A00007572653A20252E3166205A207368696612
:100A10007420286D6D293A20252E3366000A537400
:100A200065703A2025642F360A000A537465703ABF
:100A30002025642F362028736B6970706564290A3D
:100A400050494E44412074656D70657261747572D1
:100A5000653A202564205A20736869667420286DE1
:100A60006D293A300A000A5A45524F3A20252E3352
:100A7000660A0073746172742074656D70657261CA
:100A8000747572653A20252E31660A00256420208F
:100A9000252E326600255320583A20252E35662013
:100AA000593A20252E3566205A3A20252E35660AD9
:100AB00000536C6565702E2E2E0045303A2564205B
:100AC00052504D0A50524E303A25642052504D0A31
:100AD00000312F3900002045535000204E53500064
:100AE000204F464600204F4E005056303100205BCC
:100AF0004D505D2000256920686F7572732025694F
:100B0000206D696E757465730052582074696D6547
:100B10006F7574004D333130004D313132004D313D
:100B200031300046756C6C205258204275666665FF
:100B3000720053657474696E67732053746F7265C5
:100B4000640053746F7265642073657474696E67B2
:100B500073207265747269657665640048617264B9
:100B6000636F6465642044656661756C74205365C9
:100B70007474696E6773204C6F61646564005632EB
:100B800000000000C8420000C8420000C843000046
:100B90000543000048430000484300004041000076
:100BA000F042E8030000E8030000C80000008813DA
:100BB000000000409C4400409C44000000000000F5
:100BC0000000204E00000000204100002041CDCC5C
:100BD000CC3E00009040000000000000000000003B
:100BE0000000CDCCCC3E3D0A8141FF08433EB09988
:100BF000AB438F42FC42E65A343F4C62B0450000A2
:100C000000000040400000344200000000000000EE
:100C10000000000041000000E03F00002C43000005
:100C20002C43000040410000F042C0030000C0031C
:100C30000000C800000088130000101010100040D1
:100C40009C440000803F0000003F19140000002079
:100C5000307800203078006572726F723A2000445C
:100C60003233202D20656D657267656E6379207360
:100C7000657269616C2064756D7000437573746F83
:100C80006D004E796C6F6E504100536174696E2037
:100C9000200054657874757200536D6F6F7468002E
:100CA000312E3000312E3500554E4B4E4F574E00F1
:100CB0004C413130433A204C696E65617220416489
:100CC00076616E6365206D6F64653A20004C41313A
:100CD00030433A2041646A757374656420452D4A37
:100CE00065726B3A20003E0FA8AF0048006996007D
:100CF00000DF6025555887680427F2E0005E340362
:100D0000CC1960F33C0EF88F00DB08029492003E91
:100D10001C079A8700E524008528527E06001BE404
:100D2000007E781270787061F812788F884178426E
:100D300070787061782570787061F850788F88D1FC
:100D4000F02527078761F025278F88412C0D27AADA
:100D500050D1BC0707871161BE788F881141785246
:100D600070787061F852788F8841201278887063AB
:100D70002052788870634852788887430311179906
:100D80007064181278F870654412F8F8F04518424B
:100D900078F87065182578F87065185278F87065DD
:100DA000185078F870650C078F872365A20F8F8F16
:100DB00011450012062270690012072227490025FA
:100DC0000622706900250722274900120622276C97
:100DD000026236A2706C40456C44704C0362222261
:100DE000706C43888888F04C7812BC88806E78528A
:100DF000BC88806E38127888706F78127888874F38
:100E000038427888706F38257888706F3A0079ACEE
:100E1000786F3D079AAC786F7850788887EF3949BA
:100E20007888706F0852BC8880729852F88F9852F8
:100E300020127870F07348127863875320527870CC
:100E4000F0734852786387531007870F2473127822
:100E50006387245360699A988BE22304E4443074D6
:100E6000104E444324747C12888960753C508888F5
:100E700070557825288960757949088960753C1214
:100E8000887070790C12885222594412F124F07A39
:100E90004452F124F07A8C52F0368F5A4420F124D7
:100EA000F07A00401454CDCCCC3D0AD7233C17B780
:100EB000D13877CC2B329595E6241FB14F0A00002C
:100EC00020410000C84200401C4620BCBE4CCA1B4A
:100ED0000E5AAEC59D744E414E494E4600007A43AF
:100EE000000052430000524300000000000080C098
:100EF0009A99193E00000000000080C09A99193E9E
:100F000020503A002042403A0020403A00202F0072
:100F10002054303A00202F0020423A00202F005465
:100F20003A00255345786365737369766520626579
:100F300064206C6576656C696E6720636F7272659C
:100F40006374696F6E3A202569206D6963726F6EF4
:100F5000730A00536F6D652070726F626C656D204F
:100F6000656E636F756E74657265642C205A2D6CA6
:100F70006576656C696E6720656E666F7263656421
:100F8000202E2E2E004D65736820626564206C65EE
:100F900076656C696E67206661696C65642E2050A9
:100FA00072696E742063616E63656C65642E0048BF
:100FB000656174696E672064697361626C65642041
:100FC0006279207361666574792074696D65722E2B
:100FD00000472D636F646520736C696365642066E8
:100FE0006F72206120646966666572656E74206C3C
:100FF0006576656C2E20506C656173652072652D79
:10100000736C69636520746865206D6F64656C201E
:10101000616761696E2E00472D636F646520736C94
:101020006963656420666F72206120646966666525
:1010300072656E74206C6576656C2E00472D636F4B
:10104000646520736C6963656420666F722061203B
:101050006E65776572206669726D776172652E20A4
:10106000506C656173652075706461746520746887
:1010700065206669726D776172652E00472D636F1A
:10108000646520736C6963656420666F72206120FB
:101090006E65776572206669726D776172652E0084
:1010A000472D636F646520736C6963656420666FA8
:1010B00072206120646966666572656E7420707264
:1010C000696E74657220747970652E20506C65614C
:1010D00073652072652D736C696365207468652083
:1010E0006D6F64656C20616761696E2E00472D63CA
:1010F0006F646520736C6963656420666F7220613C
:1011000020646966666572656E74207072696E74BB
:10111000657220747970652E005072657373207447
:101120006865206B6E6F6220746F207072656865F1
:101130006174206E6F7A7A6C6520616E6420636FD3
:101140006E74696E75652E00506C656173652070F4
:101150007265737320746865206B6E6F6220746FA4
:1011600020756E6C6F61642066696C616D656E746C
:1011700000616E6420707265737320746865206B03
:101180006E6F6200496E736572742066696C616D82
:10119000656E7400436F6C6F72206E6F7420636FA6
:1011A00072726563740046696C616D656E74206E61
:1011B0006F74206C6F61646564004368616E67657D
:1011C0006420636F72726563746C79004C6F616444
:1011D000696E6720636F6C6F72004368616E67654C
:1011E00020737563636573732100506C656173656B
:1011F000206F70656E2069646C657220616E64207A
:1012000072656D6F76652066696C616D656E7420C0
:101210006D616E75616C6C792E0057617320666923
:101220006C616D656E7420756E6C6F616420737592
:10123000636365737366756C3F00506C65617365BD
:1012400020757067726164652E004E65772066694F
:10125000726D776172652076657273696F6E206159
:101260007661696C61626C653A0057616974696E98
:101270006720666F722050494E44412070726F6241
:101280006520636F6F6C696E6700506C6561736594
:101290002077616974004E6F206D6F76652E005760
:1012A00061697420666F7220757365722E2E2E0030
:1012B000537461626C6520616D6269656E7420743F
:1012C000656D70657261747572652032312D3236CC
:1012D00043206973206E65656465642061207269CE
:1012E000676964207374616E64206973207265712C
:1012F00075697265642E00506C6561736520727546
:101300006E2058595A2063616C6962726174696F0A
:101310006E2066697273742E00426564206C657677
:10132000656C696E67206661696C65642E20536523
:101330006E736F72206469646E27742074726967BB
:101340006765722E20446562726973206F6E206E2D
:101350006F7A7A6C653F2057616974696E672066A1
:101360006F722072657365742E00426564206C652F
:1013700076656C696E67206661696C65642E2054C1
:101380006F6F206D75636820766172696174696F33
:101390006E2066726F6D20656570726F6D206D6571
:1013A000736800426564206C6576656C696E6720C1
:1013B0006661696C65642E2053656E736F7220746C
:1013C000726967676572656420746F6F20736F6FF1
:1013D0006E002020004D6561737572656420706F2A
:1013E000696E74733A005A2073656172636820688D
:1013F00065696768743A20352E3066004E756D2039
:10140000582C593A20372C37004D65736820626597
:1014100064206C6576656C696E67206E6F74206100
:1014200063746976652E0020453A00205A3A002000
:10143000593A0020453A00205A3A0020593A0058BB
:101440003A00202D3E200053706F6F6C4A6F696E1A
:101450003A20002C2000496E6163746976697479C2
:101460002053687574646F776E004B494C4C45444B
:101470002E005072696E7465722068616C746564C8
:101480002E206B696C6C28292063616C6C6564216B
:10149000005A206C6976652061646A757374206FE8
:1014A0007574206F662072616E67652E20536574B7
:1014B00074696E6720746F20302E20436C69636BF3
:1014C00020746F20636F6E74696E75652E005A20EC
:1014D0006C6976652061646A757374206F75742019
:1014E0006F662072616E67652E2053657474696E35
:1014F0006720746F20300020453A3020423A005473
:101500003A00627573793A2070617573656420667C
:101510006F7220696E70757400627573793A20700D
:10152000617573656420666F722075736572006201
:101530007573793A2070726F63657373696E6700B3
:1015400073657269616C2064756D702000496E76F8
:10155000616C6964205420636F64652E004475706B
:101560006C696361746520542D636F6465206967DD
:101570006E6F7265642E00416476616E6365204B08
:101580003D004B206F7574206F6620616C6C6F7727
:1015900065642072616E676521004D4B322E3553B4
:1015A000004D4B322E35534D4D553253001C4FFCE0
:1015B000002533642F2533640025336400200A207E
:1015C0000A200A2000255353746174697374696397
:1015D000733A0A255320204D37382053256C752047
:1015E00054256C750A002553417263205365747449
:1015F000696E67733A20503A4D6178206C656E676A
:101600007468286D6D2920533A4D696E206C656EA3
:1016100067746820286D6D29204E3A436F72726599
:101620006374696F6E7320523A4D696E20736567FB
:101630006D656E747320463A5365676D656E74739D
:101640002F7365632E0A255320204D3231342050EC
:10165000252E32662053252E3266204E25642052D8
:101660002564204625640A00255346696C616D6532
:101670006E742073657474696E67733A204469737D
:1016800061626C65640A00255346696C616D656E24
:10169000742073657474696E67733A0A2553202049
:1016A000204D3230302044252E32660A0025535218
:1016B0006574726163743A20533D4C656E6774685B
:1016C00020286D6D2920463A537065656420286D89
:1016D0006D2F6D29205A3A205A4C69667420286D66
:1016E0006D290A25532020204D3230372053252ED6
:1016F00032662046252E3266205A252E32660A256D
:10170000535265636F7665723A20533D4578747223
:1017100061206C656E67746820286D6D2920463ADB
:10172000537065656420286D6D2F6D290A2553203F
:1017300020204D3230382053252E32662046252E6B
:1017400032660A25534175746F2D52657472616358
:10175000743A20533D3020746F2064697361626C69
:10176000652C203120746F20696E7465727072650B
:101770007420657874727564652D6F6E6C79206D58
:101780006F76657320617320726574726163747320
:10179000206F72207265636F7665726965730A25C2
:1017A000532020204D323039205325640A00255320
:1017B000504944206865617462656420736574747F
:1017C000696E67733A0A25532020204D3330342048
:1017D00050252E32662049252E32662044252E3291
:1017E000660A0025535049442073657474696E6716
:1017F000733A0A25532020204D3330312050252EB6
:1018000032662049252E32662044252E32660A0093
:10181000255353746570732070657220756E6974FA
:101820003A0A255320204D39322058252E32662081
:1018300059252E3266205A252E32662045252E3215
:10184000660A25534D6178696D756D20666565641E
:10185000726174657320286D6D2F73293A0A2553C0
:1018600020204D3230332058252E32662059252E27
:101870003266205A252E32662045252E32660A25EC
:10188000534D6178696D756D20616363656C657238
:101890006174696F6E20286D6D2F7332293A0A25A5
:1018A0005320204D3230312058256C752059256C3D
:1018B00075205A256C752045256C750A25534163A2
:1018C00063656C65726174696F6E3A20503D707229
:1018D000696E742C20523D726574726163742C20A1
:1018E000543D74726176656C0A255320204D323068
:1018F000342050252E32662052252E326620542563
:101900002E32660A2553416476616E6365642076E3
:1019100061726961626C65733A20533D4D696E2056
:10192000666565647261746520286D6D2F73292C5E
:1019300020543D4D696E2074726176656C20666539
:1019400065647261746520286D6D2F73292C2042A7
:101950003D6D696E696D756D207365676D656E743B
:101960002074696D6520287573292C20583D6D61A0
:1019700078696D756D205859206A65726B20286DE5
:101980006D2F73292C20205A3D6D6178696D756D1E
:10199000205A206A65726B20286D6D2F73292C20C8
:1019A00020453D6D6178696D756D2045206A6572D1
:1019B0006B20286D6D2F73290A255320204D32305E
:1019C000352053252E32662054252E32662042259E
:1019D0006C752058252E32662059252E3266205AE5
:1019E000252E32662045252E32660A2553486F6D16
:1019F00065206F666673657420286D6D293A0A2527
:101A00005320204D3230362058252E32662059255D
:101A10002E3266205A252E32660A004361703A251E
:101A2000533A25630A0050525553415F4D4D55328C
:101A300000455854454E4445445F4D3230004155B1
:101A4000544F5245504F52545F504F534954494F91
:101A50004E004155544F5245504F52545F46414EEF
:101A600053004155544F5245504F52545F54454DC9
:101A700050000044656C6574696F6E206661696C26
:101A800065642C2046696C653A200046696C6520C7
:101A900064656C657465643A004E6F74205344202D
:101AA0007072696E74696E67005072696E7420732B
:101AB00061766564005344207072696E74207061B1
:101AC00075736564002533642F25336400667600E2
:101AD0007468780050524E0022283229006E6F2020
:101AE00076616C696420636F6D6D616E64007A6508
:101AF000726F72697A656400666163746F727920CF
:101B0000726573746F72656400696E6465782C2009
:101B100074656D702C2075737465702C20756D0064
:101B200050494E44412063616C2073746174757335
:101B30003A2000503A005761697420666F72205055
:101B4000494E4441207461726765742074656D70FC
:101B5000657261747572653A002041002050002062
:101B60004200204C00205200205A00204E4F5420AA
:101B7000494E495449414C495A45440053686565AA
:101B8000742000205A2056414C5545204F55542072
:101B90004F462052414E474500496E76616C69645C
:101BA0002073686565742049442E20416C6C6F7702
:101BB00065643A20302E2E004155544F004C414E62
:101BC000472053454C20464F524345440020643A39
:101BD0000020693A0020703A0020643A0020693AF7
:101BE0000020703A00256925250A00256925250A67
:101BF0000022283129002F2F00002045585452552B
:101C00004445525F434F554E543A3100204D4143B5
:101C100048494E455F545950453A00312E30002016
:101C20006261736564206F6E204D61726C696E2015
:101C30004649524D574152455F55524C3A6874746B
:101C400070733A2F2F6769746875622E636F6D2FFA
:101C5000707275736133642F50727573612D4669AC
:101C6000726D776172652050524F544F434F4C5FF5
:101C700056455253494F4E3A0066336530646664A8
:101C80003438005F0038323834002B004649524D5A
:101C9000574152455F4E414D453A50727573612D23
:101CA0004669726D7761726520004D313133205382
:101CB000006F6B20006E2F61003F546F7368696284
:101CC0006120466C617368416972204765744950B0
:101CD000206661696C65640A00000125301D0CFFF7
:101CE00024311C0BFF232F1B0A17FF0406222B1A7B
:101CF00003363535382569206D696E2C202569201D
:101D000073656300496E76616C6964204D20636F72
:101D100064653A2025730A0050494E444120707290
:101D20006F62652063616C6962726174696F6E20B5
:101D30007374617274004E6F2050494E4441207498
:101D40006865726D6973746F7200736574006E6F8D
:101D50007A7A6C65004D424C004652004C7A004C39
:101D6000616E6700315F37356D6D5F4D4B323553B6
:101D70002D52414D426F3130612D453344763666E8
:101D8000756C6C0052657600332E31342E312D384F
:101D90003238340046697200534E20696E76616CA9
:101DA000696400534E005245534554004D4D555201
:101DB00045530075766C6F0046414E0046414E50CB
:101DC000494E54535400505255534100252E313042
:101DD00053200025346400457872656D652073706A
:101DE000616E206F6620746865205A2076616C757C
:101DF0006573210025642F39004D31303453300094
:101E0000473158313059313830463430303000475E
:101E1000315A31304631333030004D313430533067
:101E2000004731452D302E303735463231303000C5
:101E30004D32303453313030300047315A35463727
:101E4000323030004731452D312E35463231303079
:101E500000473930004D313037002020300020203D
:101E6000310046494E44410050494E4441005769B3
:101E70007A61726420656E642073746174653A20BF
:101E800025640A0053706F6F6C4A6F696E00466973
:101E9000726D7761726500537570657250494E447A
:101EA000410048426564206F6E206C6F616400469B
:101EB0006C617368416972004572723A484F5445CB
:101EC0004E442046414E204552524F52002F2F6122
:101ED0006374696F6E3A726573756D6564002F2F58
:101EE000616374696F6E3A726573756D65002F2F4B
:101EF000616374696F6E3A7265616479002F2F6156
:101F00006374696F6E3A6E6F745F726561647900B5
:101F10002F2F616374696F6E3A63616E63656C0045
:101F20004D3834004F4B004C43442073746174753A
:101F300073206368616E6765640053442063617257
:101F4000642072656C6561736564002F2F61637432
:101F5000696F6E3A737461727400473931004D379E
:101F60003032004732382057004D35303000426162
:101F70006420696E74657272757074005761746361
:101F800068646F672074696D656F75740053746160
:101F9000746963206D656D6F7279206861730A6280
:101FA00065656E206F7665727772697474656E0010
:101FB0004649524D57415245204352415348210A08
:101FC000437261736820726561736F6E3A0A002014
:101FD00020506C616E6E65724275666665724279FC
:101FE0007465733A20002046726565204D656D6FFB
:101FF00072793A2000207C20417574686F723A2013
:1020000000204C61737420557064617465643A20DB
:102010000020536F66747761726520526573657432
:1020200000205761746368646F672052657365743C
:10203000002042726F776E206F7574205265736551
:1020400074002045787465726E616C20526573650A
:102050007400506F7765725570006572726F7220F0
:1020600077726974696E6720746F2066696C6500A9
:10207000446F6E6520736176696E672066696C6572
:102080002E006F6B0046696C616D656E74004D6566
:1020900061737572656420736B6577733A2025668A
:1020A0002025660A0046697474696E672066616956
:1020B0006C6564203D3E2063616C69627261746985
:1020C0006F6E206661696C65642E0A0043616C69FD
:1020D00062726174696F6E20737563636573732ECA
:1020E0000A00416C6C20342063616C696272617417
:1020F000696F6E20706F696E747320666F756E64A1
:102100002E0A00312F3400312F3400312F3900478F
:10211000315A302E32004731583230322E35453860
:102120004631343030004731592D3246313030306D
:102130000047315832343045323546323230300083
:1021400047315A302E334631303030004731583520
:102150003545384632303030004731583545323910
:1021600046313830300047315835354532394631FF
:1021700030373300473932453000473238004D316F
:102180003039004D313930001000C90210012C01E6
:102190004001220170011801B0010E01F00104019B
:1021A0005002FA00B002F0003003E600D003DC0079
:1021B0009004D2007005C800A006BE000008B4005C
:1021C000B009AA00D00BA000600E960060118C0030
:1021D0000015820020197800C01D6E00A022640046
:1021E000B0275A00902C500000314600E0343C00EB
:1021F00010383200903A2800603C1E00A03D1400C8
:10220000803E0A00203F000058595A2063616C69E3
:1022100062726174696F6E20616C6C2072696768AC
:10222000742E20536B65772077696C6C2062652073
:10223000636F72726563746564206175746F6D613C
:10224000746963616C6C792E0058595A2063616C13
:102250006962726174696F6E20616C6C207269676B
:1022600068742E20582F592061786573206172653B
:1022700020736C696768746C7920736B657765642B
:102280002E20476F6F64206A6F62210058595A20D0
:1022900063616C6962726174696F6E206F6B2E206E
:1022A000582F5920617865732061726520706572BE
:1022B00070656E646963756C61722E20436F6E6722
:1022C000726174756C6174696F6E7321004172651F
:1022D000206C65667420616E642072696768742082
:1022E0005A2D63617272696167657320616C6C203D
:1022F00075703F0043616C6962726174696E67203A
:1023000058595A2E20526F74617465207468652084
:102310006B6E6F6220746F206D6F766520746865D8
:10232000205A20636172726961676520757020743C
:102330006F2074686520656E642073746F707065BB
:1023400072732E20436C69636B207768656E20641E
:102350006F6E652E0043616C6962726174696E67AD
:10236000205A2E20526F7461746520746865206B4A
:102370006E6F6220746F206D6F76652074686520C3
:102380005A20636172726961676520757020746F8D
:102390002074686520656E642073746F7070657258
:1023A000732E20436C69636B207768656E20646FC1
:1023B0006E652E0050494E44412063616C69627223
:1023C0006174696F6E206661696C65640050494E86
:1023D00044412063616C6962726174696F6E206947
:1023E000732066696E697368656420616E6420613C
:1023F00063746976652E2049742063616E2062657E
:102400002064697361626C656420696E206D656E1D
:10241000752053657474696E67732D3E50494E4440
:10242000412063616C2E004578747275646572009A
:102430004D6F7665205A004D6F76652059004D6FBF
:102440007665205800536865657420252E37730A19
:102450005A206F66667365743A20252B312E3366D9
:102460006D6D0A2563436F6E74696E75650A256329
:10247000526573657400506C65617365206C6F61A3
:10248000642066696C616D656E7420666972737430
:102490002E0052756E6E696E672057697A6172649C
:1024A0002077696C6C2064656C6574652063757257
:1024B00072656E742063616C6962726174696F6EBB
:1024C00020726573756C747320616E64207374611F
:1024D00072742066726F6D2074686520626567692A
:1024E0006E6E696E672E0050726568656174696E04
:1024F00067206E6F7A7A6C652E20506C656173650B
:1025000020776169742E00506C6561736520696E77
:10251000736572742066696C616D656E7420696E96
:10252000746F207468652065787472756465722CA8
:10253000207468656E2070726573732074686520FE
:102540006B6E6F6220746F206C6F61642069742EF3
:1025500000506C6561736520696E736572742066E6
:10256000696C616D656E7420696E746F2074686546
:102570002066697273742074756265206F662074BA
:102580006865204D4D552C207468656E207072650D
:10259000737320746865206B6E6F6220746F206C9B
:1025A0006F61642069742E005A2063616C696272E5
:1025B0006174696F6E207265636F6D6D656E6465C1
:1025C000642E2052756E206974206E6F773F005420
:1025D0006865207072696E7465722077696C6C2012
:1025E0007374617274207072696E74696E672061B1
:1025F000207A69672D7A6167206C696E652E20529A
:102600006F7461746520746865206B6E6F622075ED
:102610006E74696C20796F752072656163682074CF
:102620006865206F7074696D616C206865696768A2
:10263000742E20436865636B20746865207069633D
:10264000747572657320696E207468652068616EA8
:1026500064626F6F6B202843616C69627261746998
:102660006F6E2063686170746572292E0053656C0B
:102670006563742074656D70657261747572652030
:102680007768696368206D61746368657320796F2A
:102690007572206D6174657269616C2E0053656C92
:1026A00065637420612066696C616D656E74206677
:1026B0006F7220746865204669727374204C61796A
:1026C00065722043616C6962726174696F6E20612A
:1026D0006E642073656C65637420697420696E2074
:1026E000746865206F6E2D73637265656E206D650D
:1026F0006E752E004E6F7720492077696C6C2063D1
:10270000616C6962726174652064697374616E637F
:1027100065206265747765656E20746970206F66E8
:1027200020746865206E6F7A7A6C6520616E642013
:102730006865617462656420737572666163652E95
:1027400000506C6561736520636865636B206F750D
:10275000722068616E64626F6F6B20616E642066C8
:102760006978207468652070726F626C656D2E20C8
:102770005468656E20726573756D65207468652098
:1027800057697A617264206279207265626F6F7432
:10279000696E6720746865207072696E7465722E48
:1027A00000416C6C20697320646F6E652E20486157
:1027B000707079207072696E74696E672100596F4C
:1027C000752063616E20616C776179732072657327
:1027D000756D65207468652057697A61726420663A
:1027E000726F6D2043616C6962726174696F6E20F3
:1027F0002D3E2057697A6172642E00496620796FF8
:10280000752068617665206164646974696F6E61C2
:102810006C20737465656C207368656574732C2017
:1028200063616C69627261746520746865697220A5
:102830007072657365747320696E20536574746972
:102840006E6773202D204857205365747570202DB6
:1028500020537465656C207368656574732E005031
:102860006C6561736520636C65616E206865617479
:1028700062656420616E64207468656E20707265A4
:10288000737320746865206B6E6F622E00446F2036
:10289000796F752077616E7420746F207265706532
:1028A0006174206C617374207374657020746F2080
:1028B000726561646A7573742064697374616E63B0
:1028C00065206265747765656E206E6F7A7A6C65D7
:1028D00020616E6420686561746265643F005365C1
:1028E0006C656374206E6F7A7A6C652070726568AF
:1028F0006561742074656D706572617475726520B0
:102900007768696368206D61746368657320796FA7
:102910007572206D6174657269616C2E0049732057
:1029200066696C616D656E74206C6F616465643F8F
:10293000004E6F7720492077696C6C207072656853
:10294000656174206E6F7A7A6C6520666F722050B4
:102950004C412E00492077696C6C2072756E207A8C
:102960002063616C6962726174696F6E206E6F774B
:102970002E004E6F772072656D6F766520746865E6
:102980002074657374207072696E742066726F6D46
:1029900020737465656C2073686565742E00506CD7
:1029A000656173652072656D6F7665207368697007
:1029B00070696E672068656C7065727320666972F5
:1029C00073742E00492077696C6C2072756E2078C4
:1029D000797A2063616C6962726174696F6E206ECE
:1029E0006F772E2049742077696C6C2074616B6559
:1029F00020757020746F203234206D696E732E0044
:102A000046697273742C20492077696C6C2072754A
:102A10006E207468652073656C66746573742074C9
:102A20006F20636865636B206D6F737420636F6DD7
:102A30006D6F6E20617373656D626C792070726F5B
:102A4000626C656D732E0048692C204920616D20F1
:102A5000796F7572204F726967696E616C20507270
:102A6000757361206933207072696E7465722E20EF
:102A7000576F756C6420796F75206C696B65206D7C
:102A80006520746F20677569646520796F7520749F
:102A900068726F75676820746865207365747570F7
:102AA0002070726F636573733F0048692C20492062
:102AB000616D20796F7572204F726967696E616C04
:102AC000205072757361206933207072696E74656D
:102AD000722E20492077696C6C20677569646520C7
:102AE000796F75207468726F7567682061207368EC
:102AF0006F72742073657475702070726F63657384
:102B0000732C20696E20776869636820746865207B
:102B10005A2D617869732077696C6C206265206337
:102B2000616C696272617465642E205468656E2CF4
:102B300020796F752077696C6C2062652072656101
:102B4000647920746F207072696E742E0050617504
:102B5000736500465320416374696F6E00462E20F2
:102B60006175746F6C6F616400462E2072756E6FB4
:102B7000757400437574746572004175746F2070CC
:102B80006F776572004869676820706F77657200BB
:102B90004D6F64650046616E207370656564004228
:102BA00065640046616E7320636865636B004D6FFA
:102BB00064656C004E6F7A7A6C6500506C65617369
:102BC0006520756E6C6F6164207468652066696C41
:102BD000616D656E742066697273742C207468650B
:102BE0006E2072657065617420746869732061631A
:102BF00074696F6E2E00436865636B73004E6F7A65
:102C00007A6C6520642E00416C70686162657400A6
:102C100054696D6500536F7274004E6F726D616C14
:102C20000053442063617264004E6F7A7A6C6520B1
:102C30006368616E6765004857205365747570005E
:102C40004C6F6164696E67205465737400446973E6
:102C500061626C65207374657070657273004D6F8E
:102C6000766520617869730054656D706572617472
:102C70007572650050494E44412063616C2E0052CC
:102C8000657365742058595A2063616C6962722EAD
:102C90000053686F7720656E642073746F707300E3
:102CA0005049442063616C6962726174696F6E009F
:102CB000426564206C6576656C20636F7272656333
:102CC00074004D65736820426564204C6576656CC0
:102CD000696E670043616C696272617465205A00B5
:102CE00043616C6962726174652058595A0053657A
:102CF0006C66746573740057697A617264004C6F16
:102D0000616420416C6C00506C6561736520707566
:102D10006C6C206F75742066696C616D656E7420D3
:102D2000696D6D6564696174656C79005265736580
:102D3000740052656E616D65004669727374206C33
:102D4000617965722063616C2E0053656C656374F4
:102D500000537465656C2073686565747300537502
:102D600070706F7274004661696C20737461747363
:102D7000204D4D55004661696C2073746174730079
:102D8000537461746973746963730043616C69623D
:102D9000726174696F6E004175746F4C6F6164206D
:102DA00066696C616D656E74004C6F616420666964
:102DB0006C616D656E7400556E6C6F616420666940
:102DC0006C616D656E74004C6F616420746F206E71
:102DD0006F7A7A6C65005072656C6F616420746FF5
:102DE000204D4D55004E6F205344206361726400A6
:102DF0005072696E742066726F6D20534400526584
:102E000073756D65207072696E74005061757365BD
:102E1000207072696E740053657420526561647924
:102E200000536574206E6F742052656164790050A0
:102E30007265686561740054756E65004C697665ED
:102E40002061646A757374205A0052657072696EED
:102E50007400496E666F2073637265656E0041731E
:102E6000736973740053696C656E74004F6E6365AB
:102E7000004C6F756400536F756E640046696C2E6C
:102E80002073656E736F72004368616E67652066BC
:102E9000696C616D656E7400466C6F770053706588
:102EA0006564004E2F41004D61676E657473206349
:102EB0006F6D702E005A2D70726F6265206E722ECB
:102EC000004D6573680053657474696E67730059CB
:102ED0006573004E6F0053746F70207072696E746A
:102EE00000436865636B696E672066696C650046C0
:102EF000696C6520696E636F6D706C6574652E001A
:102F00008452656672657368004D61696E00576131
:102F10006974696E6720666F72206E6F7A7A6C656D
:102F200020616E642062656420636F6F6C696E67F8
:102F30000053656C6674657374204F4B0053656C69
:102F40006674657374207374617274005377617072
:102F50007065640046726F6E742F6C6566742066CF
:102F6000616E7300417869730041786973206C6504
:102F70006E677468004C6F6F73652070756C6C655C
:102F80007900456E6473746F70206E6F7420686989
:102F90007400456E6473746F70004D6F746F7200CF
:102FA000456E6473746F707300576972696E672041
:102FB0006572726F72004265642F48656174657254
:102FC000004E6F7420636F6E6E65637465640048B5
:102FD00065617465722F546865726D6973746F7280
:102FE00000506C6561736520636865636B3A0053DC
:102FF000656C6674657374206572726F7221004629
:10300000696C616D656E742073656E736F720050CC
:1030100072696E742066616E3A00486F74656E6402
:103020002066616E3A0043616C6962726174696E18
:103030006720686F6D650053656C667465737420F6
:103040006661696C656400416C6C20636F727265C7
:10305000637400436865636B696E672073656E73A4
:103060006F727300436865636B696E6720686F7485
:10307000656E6400436865636B696E6720626564B2
:1030800000436865636B696E67205A2061786973D5
:1030900000436865636B696E6720592061786973C6
:1030A00000436865636B696E6720582061786973B7
:1030B00000436865636B696E6720656E6473746F47
:1030C000707300436172642072656D6F7665640091
:1030D0004261636B00537472696374005761726E6E
:1030E000004E6F6E6500486F74656E6420617420D9
:1030F0003238304321204E6F7A7A6C6520636861E4
:103100006E67656420616E64207469676874656EBB
:10311000656420746F2073706563733F00466F723F
:103120002061204E6F7A7A6C65206368616E6765F6
:1031300020706C6561736520726561640A707275D8
:1031400073612E696F2F6E6F7A7A6C652D6D6B339C
:1031500073005049442063616C2E2066696E697368
:10316000686564005049442063616C2E00507269A8
:103170006E7420706175736564005072696E74209E
:1031800061626F727465640043616E63656C0043D5
:103190006F6E742E004E6F7A7A6C65206469616D73
:1031A0006574657220646966666572732066726F05
:1031B0006D2074686520472D636F64652E20506C08
:1031C0006561736520636865636B2074686520764C
:1031D000616C756520696E2073657474696E6773C0
:1031E0002E004E6F7A7A6C65206469616D65746536
:1031F0007220646966666572732066726F6D2074F2
:10320000686520472D636F64652E0054686572659C
:10321000206973206E6F2066696C616D656E742025
:103220006C6F616465642E00546865726520697313
:10323000207374696C6C2061206E65656420746F06
:10324000206D616B65205A2063616C6962726174E4
:10325000696F6E2E20506C6561736520666F6C6CB3
:103260006F7720746865206D616E75616C2C2063CA
:103270006861707465722046697273742073746536
:1032800070732C2073656374696F6E2043616C6981
:1032900062726174696F6E20666C6F772E00507277
:1032A000696E74657220686173206E6F7420626548
:1032B000656E2063616C6962726174656420796512
:1032C000742E20506C6561736520666F6C6C6F772F
:1032D00020746865206D616E75616C2C2063686177
:1032E00070746572204669727374207374657073AC
:1032F0002C2073656374696F6E2043616C69627220
:103300006174696F6E20666C6F772E0053656C6612
:10331000746573742077696C6C2062652072756EB9
:1033200020746F2063616C696272617465206163EF
:103330006375726174652073656E736F726C65730B
:1033400073207265686F6D696E672E004F6C642024
:1033500073657474696E677320666F756E642E2072
:1033600044656661756C74205049442C2045737423
:10337000657073206574632E2077696C6C206265BC
:10338000207365742E005761726E696E673A206211
:103390006F7468207072696E7465722074797065DC
:1033A00020616E64206D6F74686572626F61726413
:1033B0002074797065206368616E6765642E0057BC
:1033C00061726E696E673A207072696E7465722000
:1033D00074797065206368616E6765642E0057615B
:1033E000726E696E673A206D6F74686572626F61A4
:1033F00072642074797065206368616E6765642EFD
:103400000054657374696E672066696C616D656EE2
:1034100074005368656574004E6F74207370696E34
:103420006E696E67005370696E6E696E67004C65F9
:10343000667420686F74656E642066616E3F004636
:10344000726F6E74207072696E742066616E3F00D8
:1034500046616E20746573740053656C65637420F7
:1034600066696C616D656E743A0058595A206361E3
:103470006C6962726174696F6E206661696C656403
:103480002E2052696768742066726F6E74206361C3
:103490006C6962726174696F6E20706F696E7420FE
:1034A0006E6F7420726561636861626C652E00588E
:1034B000595A2063616C6962726174696F6E20662B
:1034C00061696C65642E2046726F6E742063616C56
:1034D0006962726174696F6E20706F696E747320B7
:1034E0006E6F7420726561636861626C652E00584E
:1034F000595A2063616C6962726174696F6E2066EB
:1035000061696C65642E20506C6561736520636F22
:103510006E73756C7420746865206D616E75616C76
:103520002E0058595A2063616C6962726174696F28
:103530006E20636F6D70726F6D697365642E2052BB
:10354000696768742066726F6E742063616C69626B
:10355000726174696F6E20706F696E74206E6F7423
:1035600020726561636861626C652E0058595A204B
:1035700063616C6962726174696F6E20636F6D70F4
:10358000726F6D697365642E2046726F6E7420636E
:10359000616C6962726174696F6E20706F696E74BC
:1035A00073206E6F7420726561636861626C652E52
:1035B0000058595A2063616C6962726174696F6E58
:1035C000206661696C65642E204265642063616CCD
:1035D0006962726174696F6E20706F696E742077B2
:1035E0006173206E6F7420666F756E642E00506C70
:1035F000656173652072656D6F76652073746565AE
:103600006C2073686565742066726F6D20686561F3
:10361000746265642E00506C6561736520706C6126
:10362000636520737465656C207368656574206FCD
:103630006E20686561746265642E0049732073743E
:1036400065656C207368656574206F6E20686561C0
:10365000746265643F0044697374616E63652062DF
:1036600065747765656E20746970206F6620746874
:1036700065206E6F7A7A6C6520616E64207468656F
:10368000206265642073757266616365206861738A
:10369000206E6F74206265656E2073657420796595
:1036A000742E20506C6561736520666F6C6C6F774B
:1036B00020746865206D616E75616C2C2063686193
:1036C00070746572204669727374207374657073C8
:1036D0002C2073656374696F6E2046697273742061
:1036E0006C617965722063616C6962726174696F83
:1036F0006E2E00506C61636520612073686565748F
:10370000206F6620706170657220756E646572202E
:10371000746865206E6F7A7A6C6520647572696E64
:1037200067207468652063616C6962726174696F97
:103730006E206F66206669727374203420706F6922
:103740006E74732E20496620746865206E6F7A7AD5
:103750006C652063617463686573207468652070AC
:10376000617065722C20706F776572206F666620BD
:10377000746865207072696E74657220696D6D651C
:1037800064696174656C792E005365617263686960
:103790006E67206265642063616C6962726174693E
:1037A0006F6E20706F696E74004D6561737572691C
:1037B0006E67207265666572656E6365206865690F
:1037C000676874206F662063616C696272617469F6
:1037D0006F6E20706F696E7400506C656173652048
:1037E000636C65616E20746865206E6F7A7A6C65B3
:1037F00020666F722063616C6962726174696F6EBA
:103800002E20436C69636B207768656E20646F6E51
:10381000652E004175746F20686F6D650050494ECC
:1038200044412063616C6962726174696F6E2066E5
:1038300061696C65642E20436F6E74696E756520D6
:1038400077697468207072657373696E6720746835
:1038500065206B6E6F622E0050494E4441206361BB
:103860006C6962726174696F6E20646F6E652E2080
:10387000436F6E74696E7565207769746820707225
:10388000657373696E6720746865206B6E6F622E56
:10389000005A30005A310059300059310058300078
:1038A000583100456E642073746F707320646961D1
:1038B0006700473830004D3435004D3435205A000C
:1038C000473736004D3730312050300057697A6124
:1038D00072642073746174653A2025640A00457827
:1038E000706572696D656E74616C00302E383000E1
:1038F000302E363000302E343000302E3235004439
:10390000697361626C65206661726D206D6F6465BC
:10391000005265736574204D4D55004D4D55004D59
:103920003434004739390044697361626C6520663C
:1039300061726D206D6F64653F00473238205859C1
:10394000004D20383400852E2E002533642F3000A2
:103950002533642F30006C63645F73656C66636845
:1039600065636B5F617869732025642C2025640A88
:1039700000486F74656E6400426564005A00590027
:1039800058002D2D2D2D2D2D2D2D2D2D2D2D2D2D69
:103990002D2D2D2D2D2D00537570657250494E44DF
:1039A000413A00511E551E211E1A1E0F1E001E5E9A
:1039B0001FF91D201F473159252E346645252E3409
:1039C000660047315A252E32660047315835305946
:1039D000313535007421511E2864441E3A1E301EB4
:1039E000473158252E346645252E3466004731462A
:1039F0003130383000662159214C21402174213169
:103A000021262116210F215425640047315A302EDA
:103A100034004731592D33463130303000551E8344
:103A2000217E217A2174214D3834205859004D319E
:103A30003039205332383000473120583132352068
:103A40005A32303020463130303000496E76616C69
:103A50006964205049442063616C2E20726573753F
:103A60006C74732E204E6F742073746F72656420B3
:103A7000746F20454550524F4D2E004D333031204C
:103A800050252E32662049252E32662044252E32BE
:103A900066004D33303320453020532533750052B6
:103AA0004300444556004245544100414C50484172
:103AB0000000002100240027002A002D00300033E0
:103AC0000001010000040107010A01000022002595
:103AD0000028002B002E00310034000201000005F8
:103AE0000108010B01000020002300260029002C02
:103AF000002F00320000010000030106010901054A
:103B0000050505070508080808020202020A0A0856
:103B1000080404040401010101010101010303037C
:103B20000303030303040707070C0C0C0C0C0C0C19
:103B30000C0202020206060606060606060B0B0B20
:103B40000B0B0B0B0B07070A0A0A0A0A0A050505E5
:103B50000404040808010210202008081020401066
:103B60002040800201020108040201010204081041
:103B7000204080804020100804020180040201805F
:103B80004020100804020108040201010204081088
:103B900020408001020408102040801008040880A2
:103BA000102040044080102040048000000A0B02D6
:103BB000090C0D0E080703040100000000000000BE
:103BC00000000000000000000000000000000000F5
:103BD00000000000000000121110000000000000B2
:103BE00000000000000000000000000000000000D5
:103BF00000000000000000000000000000000000C5
:103C000000332E31342E31000A204F726967696EFD
:103C1000616C2050727573612069330A2020205036
:103C2000727573612052657365617263680A25322B
:103C3000302E3230530053706F6F6C4A6F696E20B4
:103C4000697320006164635F696E697400200A20F3
:103C50000A200A2000416C6C2044617461005365A5
:103C60007276696365207072657000536869707060
:103C7000696E672070726570005374617469737443
:103C8000696373004C616E677561676500455241F9
:103C900053494E4720616C6C206461746100466139
:103CA00063746F72792052455345540050525553F6
:103CB00041334446570003000E000100400003005A
:103CC00002000000040073686976616D6D656874B8
:103CD0006132323000323032352D30382D313920DA
:103CE00030323A35323A35310020332E31342E31EC
:103CF0002D383238345F663365306466643438009A
:103D00007374617274004D323900252D392E395388
:103D10005B0033332942000058419A998D41333377
:103D20005340200A200A20004D4D55323A004D657F
:103D300061737572652063656E746572202000780A
:103D4000797A63616C5F6D6561737572655F656ECD
:103D50007465720A0078797A63616C5F7370697256
:103D6000616C382063783D25642063793D256420AB
:103D70007A303D256420647A3D256420726164694F
:103D800075733D25642061643D25640A0078797A65
:103D900063616C5F7365617263685A206E6F207334
:103DA00069676E616C0A20783D256C6420793D2539
:103DB0006C64207A3D256C640A00204F4E2D5349D7
:103DC000474E414C20617420783D256420793D2583
:103DD00064207A3D25642061643D25640A00787979
:103DE0007A63616C5F7365617263685A20783D2500
:103DF0006C6420793D256C64207A3D256C640A0052
:103E00002530327800205B25662025665D206D6DAB
:103E1000207061747465726E2063656E7465720AD9
:103E200000205B25662025665D5B25665D206D6D47
:103E300020646976657267656E63650A000000F04C
:103E400000F801FC03FE07FE07FE07FE07FC03F86F
:103E500001F000000000000000F000F801FC03FC8D
:103E600003FC03FC03F801F0000000000078797AFD
:103E700063616C5F6D6561737572655F6C656176BA
:103E8000650A00203C20005741524E494E473A20D7
:103E900046726F6E7420706F696E74206E6F74203E
:103EA000726561636861626C652E205920636F6F73
:103EB0007264696E6174653A000000004041000060
:103EC000804000005C430000804000005C43000034
:103ED0004443000040410000444325642F3400491E
:103EE0007465726174696F6E3A200043616C696237
:103EF000726174696F6E206661696C65642120432C
:103F00006865636B20746865206178657320616EF5
:103F1000642072756E20616761696E2E00556E6552
:103F200078706563746564206572726F72206F6368
:103F30006375727265642E004D3630302046696CB0
:103F4000616D656E74204368616E67652E204C6FED
:103F500061642061206E65772066696C616D656EB5
:103F600074206F7220656A65637420746865206FC1
:103F70006C64206F6E652E0052656D6F76652074DF
:103F8000686520656A65637465642066696C616D47
:103F9000656E742066726F6D207468652066726F3E
:103FA0006E74206F6620746865204D4D552E004656
:103FB000696C616D656E74206465746563746564B5
:103FC00020756E65787065637465646C792E204524
:103FD0006E73757265206E6F2066696C616D656EBB
:103FE00074206973206C6F616465642E204368657A
:103FF000636B207468652073656E736F72732061E4
:104000006E6420776972696E672E00496E746572FE
:104010006E616C2072756E74696D65206572726F69
:10402000722E2054727920726573657474696E679C
:1040300020746865204D4D55206F72207570646145
:1040400074696E6720746865206669726D77617245
:10405000652E004D4D552046572076657273696F69
:104060006E20697320696E636F6D70617469626C34
:10407000652077697468207072696E746572204675
:10408000572E55706461746520746F207665727365
:10409000696F6E20332E302E332E004D4D55204645
:1040A00069726D7761726520696E7465726E616C9C
:1040B000206572726F722C20706C6561736520725E
:1040C0006573657420746865204D4D552E005265EA
:1040D000717565737465642066696C616D656E7475
:1040E00020746F6F6C206973206E6F74206176612D
:1040F000696C61626C65206F6E20746869732068FA
:10410000617264776172652E20436865636B207409
:10411000686520472D636F646520666F7220746F39
:104120006F6C20696E646578206F7574206F6620EF
:1041300072616E6765202854302D5434292E004357
:10414000616E6E6F7420706572666F726D20746838
:104150006520616374696F6E2C2066696C616D65A2
:104160006E7420697320616C7265616479206C6F74
:10417000616465642E20556E6C6F616420697420E3
:1041800066697273742E004D4D55206E6F742072E7
:104190006573706F6E64696E6720636F72726563BA
:1041A000746C792E20436865636B20746865207792
:1041B0006972696E6720616E6420636F6E6E6563FD
:1041C000746F72732E004D4D55206E6F74207265A2
:1041D00073706F6E64696E672E20436865636B2031
:1041E00074686520776972696E6720616E64206308
:1041F0006F6E6E6563746F72732E004D6F72652003
:1042000064657461696C73206F6E6C696E652E00F5
:104210005468652049646C65722063616E6E6F74CA
:1042200020686F6D652070726F7065726C792E20DA
:10423000436865636B20666F7220616E797468698C
:104240006E6720626C6F636B696E672069747320A0
:104250006D6F76656D656E742E0043616E277420F8
:104260006D6F76652053656C6563746F72206F7235
:104270002049646C65722E005468652053656C6536
:1042800063746F722063616E6E6F7420686F6D650A
:104290002070726F7065726C792E20436865636B55
:1042A00020666F7220616E797468696E6720626C37
:1042B0006F636B696E6720697473206D6F76656DCF
:1042C000656E742E004C6F6164696E6720746F2098
:1042D0006578747275646572206661696C65642EB8
:1042E00020496E7370656374207468652066696C1C
:1042F000616D656E74207469702073686170652EDD
:1043000020526566696E65207468652073656E73FA
:104310006F722063616C6962726174696F6E2C20C8
:104320006966206E65656465642E0053656C65631F
:10433000746F722063616E2774206D6F76652064E0
:10434000756520746F2046494E444120646574654C
:104350006374696E6720612066696C616D656E7457
:104360002E204D616B652073757265206E6F20661F
:10437000696C616D656E7420697320696E20536588
:104380006C6563746F7220616E642046494E4441CF
:1043900020776F726B732070726F7065726C792EFC
:1043A0000046696C616D656E742073656E736F7223
:1043B0002074726967676572656420746F6F206529
:1043C00061726C79207768696C65206C6F616469D3
:1043D0006E6720746F2065787472756465722E2024
:1043E000436865636B2074686572652069736E2726
:1043F0007420616E797468696E6720737475636B7D
:1044000020696E205054464520747562652E204305
:104410006865636B20746861742073656E736F7276
:104420002072656164732070726F7065726C792E92
:104430000050756C6C6579206D6F746F72207374A9
:10444000616C6C65642E20456E73757265207468AE
:10445000652070756C6C65792063616E206D6F7678
:104460006520616E6420636865636B2074686520F5
:10447000776972696E672E0046696C616D656E744E
:104480002073656E736F72206469646E2774207385
:104490007769746368206F6666207768696C652049
:1044A000756E6C6F6164696E672066696C616D65BD
:1044B0006E742E20456E737572652066696C616D31
:1044C000656E742063616E206D6F766520616E6429
:1044D000207468652073656E736F7220776F726BDE
:1044E000732E0046696C616D656E742073656E7322
:1044F0006F72206469646E277420747269676765DF
:1045000072207768696C65206C6F6164696E6720E2
:104510007468652066696C616D656E742E20456EE9
:1045200073757265207468652073656E736F722091
:1045300069732063616C6962726174656420616E85
:1045400064207468652066696C616D656E742072A4
:104550006561636865642069742E0046494E444174
:10456000206469646E277420737769746368206FB0
:104570006666207768696C6520756E6C6F6164692A
:104580006E672066696C616D656E742E2054727959
:1045900020756E6C6F6164696E67206D616E756108
:1045A0006C6C792E20456E737572652066696C613E
:1045B0006D656E742063616E206D6F766520616E2F
:1045C000642046494E444120776F726B732E00463B
:1045D000494E4441206469646E277420747269678F
:1045E000676572207768696C65206C6F6164696EBD
:1045F00067207468652066696C616D656E742E2035
:10460000456E73757265207468652066696C616DAE
:10461000656E742063616E206D6F766520616E64D7
:104620002046494E444120776F726B732E004469D7
:104630007361626C650053746F70004C6F6164004D
:10464000556E6C6F61640052657365744D4D550015
:1046500052657472790053656E7369746976697412
:104660007900446F6E6500526573756D696E6720E1
:104670007072696E740050494E44412048656174FF
:10468000696E670043616C6962726174696F6E2064
:10469000646F6E650043616C6962726174696E6714
:1046A000205A0042656420646F6E65004265642094
:1046B00048656174696E670048656174696E67205A
:1046C000646F6E652E0048656174696E6700546F93
:1046D00074616C004C617374207072696E74004D6B
:1046E0004D5520706F776572206661696C73004D5F
:1046F0004D55206C6F6164206661696C73004D4D8F
:1047000055206661696C73004D6174657269616CF6
:10471000206368616E67657300546F74616C206616
:1047200061696C757265730046696C2E2072756ED6
:104730006F757473004C617374207072696E7420AD
:104740006661696C757265730054656D7065726140
:1047500074757265730053656E736F7220696E664F
:104760006F00457874727564657220696E666F00BB
:1047700058595A2063616C2E2064657461696C73AA
:10478000005072696E7465722049502041646472F1
:104790003A00756E6B6E6F776E004D4D5520636FEE
:1047A0006E6E656374656400446174653A00746F8D
:1047B00020756E6C6F61642066696C616D656E74E6
:1047C00000746F206C6F61642066696C616D656E4A
:1047D0007400507265737320746865206B6E6F622D
:1047E0000050726568656174696E6720746F20633C
:1047F00075740050726568656174696E6720746FC6
:1048000020656A6563740050726568656174696EDD
:104810006720746F20756E6C6F61640050726568FC
:10482000656174696E6720746F206C6F616400430A
:104830006F6F6C646F776E00456A656374004669DC
:104840006C616D656E7420657874727564696E67ED
:104850002026207769746820636F72726563742004
:10486000636F6C6F723F004175746F6C6F61646948
:104870006E672066696C616D656E74206973206176
:1048800063746976652C206A757374207072657321
:104890007320746865206B6E6F6220616E6420699E
:1048A0006E736572742066696C616D656E742E2E10
:1048B0002E005072696E742074696D650046696CD3
:1048C000616D656E74207573656400546F74616CFE
:1048D000207072696E742074696D6500546F746124
:1048E0006C2066696C616D656E74005072656865F8
:1048F000617420746865206E6F7A7A6C652100455A
:1049000052524F523A005269676874004C6566749F
:1049100000592064697374616E63652066726F6DFF
:10492000206D696E0053657665726520736B6577DF
:1049300000536C6967687420736B6577004D65611F
:10494000737572656420736B6577005B303B305D17
:1049500020706F696E74206F6666736574004164C1
:104960006A757374696E67205A00526561722073AC
:10497000696465205BE46D5D0046726F6E74207340
:104980006964655BE46D5D005269676874207369F2
:1049900064655BE46D5D004C6566742073696465F5
:1049A000205BE46D5D005365742074656D70657205
:1049B00061747572653A004D494E54454D50204220
:1049C0004544206669786564004D494E54454D5014
:1049D00020484F54454E44206669786564004D4D2B
:1049E00055323A002533640018010419020ACF45F4
:1049F0005B45E34478443144A1432B43C5427842AC
:104A00005A4210425A42FB41FB41FB41FB41FB41F0
:104A1000FB41FB41FB41FB41FB41FB41FB41FB41B6
:104A2000FB41FB41FB41FB41FB41FB41FB41FB41A6
:104A3000FB41C64187413F41CE409B4053400B4024
:104A4000AF3F783F383F1D3F0101010101010102E5
:104A500071017101323232030303030303030303C1
:104A60000303030303030303030393932438039310
:104A70000301025603650066006700680069006A6A
:104A8000006B006C00730074007D007E00C900D3D1
:104A900000DD00CA00D400DE002D01370141012EE7
:104AA00001380142012F013901430130013A01442B
:104AB0000131013B014501320191019201F501F6FD
:104AC00001F701F801F901FA01FB01FC01840388F7
:104AD0000020746F6F206C6F6E672065787472753C
:104AE00073696F6E2070726576656E746564002000
:104AF000636F6C6420657874727573696F6E207073
:104B0000726576656E746564004D6F7665206162CE
:104B10006F72746564004572723A5052494E542067
:104B200046414E204552524F520025632533642F93
:104B3000256481005A25362E32662563005A2020CE
:104B4000202D2D2D2000862533642525002D2D2D8B
:104B500025250025336425250020534400202020EE
:104B60000020484F002046524D2000872D2D3A2D21
:104B70002D20200087253375682025632563008755
:104B8000253032753A2530327525632563002F2F85
:104B9000616374696F6E3A706175736564002F2F7D
:104BA000616374696F6E3A70617573650044756D09
:104BB0007020746F2073657269616C0068656C7039
:104BC0002E707275736133642E636F6D00666F7241
:104BD000756D2E707275736133642E636F6D007026
:104BE0007275736133642E636F6D004D3730310021
:104BF00025533A0A2531382E32666D200A25533A5C
:104C00000A2531306C646820253032646D202530EF
:104C10003264730025533A0A2531382E32666D20EE
:104C20000A25533A0A2531306C64642025303264F9
:104C30006820253032646D0025362E32666D6D0099
:104C400025530A25530A25533A0A25533A0025339A
:104C50002E32668100252D31342E3134533A0A2507
:104C6000530A252D31342E3134533A25332E3266F2
:104C7000810A252D31342E3134533A25332E3266B4
:104C8000810050466246474640463B463848372EEC
:104C900036462E46252E3230530A70727573612EB9
:104CA000696F2F3034256875007B5B4552523A009E
:104CB000332E31342E31005D5B4657523A005D5B36
:104CC00054494D3A005D5B464E4D3A005D5B4645AA
:104CD0004D3A005D5B5043443A005B5446553A0000
:104CE0005B50524E3A005B50464E3A305D005B449A
:104CF00049413A005D5B4154423A005D5B415430AA
:104D00003A005D5B5354423A005B5354303A007BA7
:104D10005B50524E3A355D007B5B50524E3A305DEF
:104D2000007B5B50524E3A395D007B5B50524E3AED
:104D3000385D007B5B5245533A305D5B46494C3AE7
:104D4000007B5B5245533A315D5B46494C3A00006B
:104D5000002110422063308440A550C660E77008EF
:104D60008129914AA16BB18CC1ADD1CEE1EFF13176
:104D700012100273325222B5529442F772D662393F
:104D80009318837BB35AA3BDD39CC3FFF3DEE362C6
:104D900024433420040114E664C774A44485546A8F
:104DA000A54BB528850995EEE5CFF5ACC58DD55356
:104DB00036722611163006D776F6669556B4465BDF
:104DC000B77AA719973887DFF7FEE79DD7BCC7C426
:104DD00048E5588668A7784008611802282338CC2F
:104DE000C9EDD98EE9AFF9488969990AA92BB9F5B6
:104DF0005AD44AB77A966A711A500A333A122AFD7F
:104E0000DBDCCBBFFB9EEB799B588B3BBB1AABA685
:104E10006C877CE44CC55C222C033C600C411CAECE
:104E2000ED8FFDECCDCDDD2AAD0BBD688D499D9795
:104E30007EB66ED55EF44E133E322E511E700E9F1E
:104E4000FFBEEFDDDFFCCF1BBF3AAF599F788F88E5
:104E500091A981CAB1EBA10CD12DC14EF16FE180B6
:104E600010A100C230E3200450254046706760B9AD
:104E7000839893FBA3DAB33DC31CD37FE35EF3B106
:104E8000029012F322D2323542145277625672EAFD
:104E9000B5CBA5A89589856EF54FE52CD50DC5E256
:104EA00034C324A01481046674476424540544DB8D
:104EB000A7FAB79987B8975FE77EF71DC73CD7D3A6
:104EC00026F2369106B01657667676154634564C5D
:104ED000D96DC90EF92FE9C899E9898AB9ABA944F6
:104EE00058654806782768C018E1088238A3287DED
:104EF000CB5CDB3FEB1EFBF98BD89BBBAB9ABB7546
:104F00004A545A376A167AF10AD01AB32A923A2EBC
:104F1000FD0FED6CDD4DCDAABD8BADE89DC98D2695
:104F20007C076C645C454CA23C832CE01CC10C1FCC
:104F3000EF3EFF5DCF7CDF9BAFBABFD98FF89F17E5
:104F40006E367E554E745E932EB23ED10EF01E7CB0
:104F50003C3E3F2F2A225C0024F4D43050C38E20E4
:104F6000C2A24017828B7011127A910D816CD90AFE
:104F7000A861E108C7586607615143061E4B5D05ED
:104F8000C145A7041A411104093D98037139310341
:104F90004036DB0265339102D4305402802E1D026C
:104FA000632CEE01752AC501B028A00110278101EC
:104FB0008F2564012B244B01E0223401AC211F0119
:104FC0008D200D01801FFC00841EED00971DDF0069
:104FD000B81CD200E61BC600201BBC00641AB2003D
:104FE000B219A8000A19A0006A189900D1179100F7
:104FF00040178B00B516840031167E00B31579007A
:105000003A157300C7146F0058146A00EE13660057
:105010008813630025135E00C7125B006C125700F3
:1050200015125400C111510070114F0021114B0095
:10503000D61049008D10470046104400021042006F
:10504000C00F4000800F3E00420F3C00060F3B00A7
:10505000CB0E3800930E37005C0E3500270E34005F
:10506000F30D3200C10D3100900D3000600D2E00A7
:10507000320D2D00050D2C00D90C2B00AE0C290093
:10508000850C29005C0C2700350C27000E0C26002F
:10509000E80B2400C40B2400A00B23007D0B23008D
:1050A0005A0B2100390B2100180B2000F80A1F00B1
:1050B000D90A1E00BB0A1E009D0A1D00800A1D00A1
:1050C000630A1C00470A1B002C0A1B00110A1A0065
:1050D000F7091A00DD091900C4091900AB09190004
:1050E000920917007B091800630917004C09160084
:1050F00036091600200916000A091500F5081500E2
:10510000E0081400CC081400B8081400A408140027
:10511000900813007D0812006B0813005808120055
:10512000460812003408110023081100120811006B
:1051300001081100F0071000E0071000D007100070
:10514000C0071000B0070F00A107100091070E0064
:1051500083070F0074070F0065070E0057070E0046
:1051600049070E003B070D002E070E0020070D001B
:1051700013070D0006070D00F9060C00ED060D00E3
:10518000E0060C00D4060C00C8060C00BC060C009F
:10519000B0060C00A4060B0099060C008D060B004F
:1051A00082060B0077060B006C060B0061060A00F6
:1051B00057060B004C060A0042060A0038060A0091
:1051C0002E060A0024060A001A060A001006090024
:1051D00007060A00FD050900F4050900EB050900B2
:1051E000E2050900D9050900D0050900C705090035
:1051F000BE050900B5050800AD050800A5050900B4
:105200009C050800940508008C050800840508002A
:105210007C050800740508006C050700650508009A
:105220005D050700560508004E0507004705070005
:105230004005080038050700310507002A0507006A
:10524000230507001C050600160507000F050700CB
:105250000805060002050700FB040600F504070028
:10526000EE040600E8040600E2040700DB04060082
:10527000D5040600CF040600C9040600C3040600D6
:10528000BD040600B7040600B1040500AC04060026
:10529000A6040600A00405009B0406009504050072
:1052A000900406008A0405008504050080040600B9
:1052B0007A04050075040500700405006B04050000
:1052C00066040500610405005C0405005704050040
:1052D000520405004D040500480405004304050080
:1052E0003E0404003A0405003504050030040400BF
:1052F0002C04050027040400230405001E040400F8
:105300001A04040016040500110404000D0404002E
:10531000090405000404040000040400FC03040064
:10532000F8030400F4030400F0030400EC03040099
:10533000E8030400E4030400E0030400DC030400C9
:10534000D8030400D4030400D0030400CC030400F9
:10535000C8030300C503030024F404D9201BC40CB4
:105360005C0E9804C4095F0265077101F405F90039
:10537000FB04B30048048700C103690058035500CB
:1053800003034500BE023A008402310053022A00A2
:105390002902250004022000E4011C00C8011900B4
:1053A000AF0117009801140084011300710110006F
:1053B0006101100051010E0043010D0036010B0088
:1053C0002B010B0020010B00150109000C01090045
:1053D00003010800FB000800F3000800EB000700D1
:1053E000E4000600DE000600D8000600D200060039
:1053F000CC000500C7000500C2000500BD00040088
:10540000B9000400B5000400B1000400AD000400C0
:10541000A9000400A5000300A20003009F000400EF
:105420009B00030098000300950002009300030016
:10543000900003008D0002008B0003008800020032
:105440008600020084000300810002007F00020049
:105450007D0002007B00020079000200770001005D
:105460007600020074000200720001007100020068
:105470006F0002006D0001006C0002006A00010074
:10548000690002006700010066000100650001007C
:105490006400020062000100610001006000010080
:1054A0005F0002005D0001005C0001005B00010084
:1054B0005A00010059000100580001005700010086
:1054C0005600010055000100540001005300000087
:1054D0005300010052000100510001005000010082
:1054E0004F0001004E0000004E0001004D00010081
:1054F0004C0001004B0000004B0001004A0001007D
:105500004900010048000000480001004700010078
:105510004600000046000100450000004500010073
:10552000440001004300000043000100420000006D
:105530004200010041000000410001004000010064
:105540003F0000003F0001003E0000003E0001005F
:105550003D0000003D0001003C0000003C00000058
:105560003C0001003B0000003B0001003A0000004D
:105570003A00010039000000390001003800000045
:10558000380000003800010037000000370001003B
:105590003600000036000000360001003500000033
:1055A0003500000035000100340000003400000028
:1055B000340001003300000033000000330001001C
:1055C0003200000032000000320001003100000013
:1055D0003100000031000100300000003000000008
:1055E000300001002F0000002F0000002F000000FD
:1055F0002F0001002E0000002E0000002E000100F0
:105600002D0000002D0000002D0000002D000100E5
:105610002C0000002C0000002C0000002C000100D9
:105620002B0000002B0000002B0000002B000100CD
:105630002A0000002A0000002A0000002A000100C1
:1056400029000000290000002900000029000000B6
:1056500029000100280000002800000028000000A8
:10566000280000002800010027000000270000009B
:10567000270000002700000027000100260000008E
:105680002600000026000000260000002600010081
:105690002500000025000000250000002500000076
:1056A0002500000025000100240000002400000067
:1056B000240000002400000024000100230000005A
:1056C000230000002300000023000000230000004E
:1056D000230000002300010022000000220000003F
:1056E0002200000022000000220000002200010031
:1056F0002100000021000000210000002100000026
:105700002100000021000000210001002000000015
:105710002000000020000000200000002000000009
:105720002000000020000000200001001F000000F9
:105730001F0000001F0000001F0000001F000000ED
:105740001F0000001F0001001E0000001E000000DE
:105750001E0000001E00000045303A20005A3A208A
:1057600000593A2000583A20004D53312C4D533205
:105770002050696E7300504944204175746F7475F0
:105780006E652066696E6973686564212050757462
:1057900020746865206C617374204B702C204B69F9
:1057A00020616E64204B6420636F6E7374616E744D
:1057B000732066726F6D2061626F766520696E740A
:1057C0006F20436F6E66696775726174696F6E2EC4
:1057D0006800504944204175746F74756E65206689
:1057E00061696C6564212074696D656F7574002052
:1057F000403A00543A00423A0050494420417574FE
:105800006F74756E65206661696C656421205465EE
:105810006D706572617475726520746F6F20686950
:10582000676800204B643A2000204B693A20002032
:105830004B703A200020436C6173736963205049B8
:105840004420002054753A2000204B753A20002057
:105850006D61783A2000206D696E3A200020643A2C
:10586000200020626961733A20005049442041754C
:10587000746F74756E65207374617274005049445E
:10588000204175746F74756E65206661696C65641E
:105890002E20426164206578747275646572206E92
:1058A000756D6265722E00486F74656E6420666166
:1058B0006E207370656564206973206C6F77657204
:1058C000207468616E20657870656374656400504B
:1058D00072696E742066616E2073706565642069FC
:1058E00073206C6F776572207468616E20657870C4
:1058F0006563746564004D494E54454D50204245E2
:1059000044004D494E54454D50004D415854454D6D
:1059100050004D415854454D5020424544007001BF
:105920002C0190012701B0012201C0011D01F001ED
:1059300018011002130130020E01600209019002E9
:105940000401C002FF000003FA004003F5008003D9
:10595000F000D003EB002004E6007004E100E00456
:10596000DC004005D700C005D2004006CD00D006BF
:10597000C8008007C3003008BE00F008B900C009A5
:10598000B400B00AAF00B00BAA00D00CA500000E06
:10599000A000500F9B00C010960050129100001400
:1059A0008C00C0158700B0178200B0197D00D01B95
:1059B0007800001E730040206E0090226900F024E1
:1059C000640040275F0090295A00E02B5500102EFC
:1059D000500020304B0010324600E033410090353B
:1059E0003C001037370070383200A0392D00B03A33
:1059F0002800A03B2300603C1E00103D1900903D94
:105A00001400103E0F00703E0A00C03E0500003F2B
:105A1000000020484F54454E4420544845524D41C3
:105A20004C2052554E41574159002048454154425F
:105A3000454420544845524D414C2052554E415703
:105A4000415900544845524D414C2052554E415702
:105A500041590042454420544845524D414C205242
:105A6000554E415741590020544845524D414C2014
:105A700052554E41574159202850524548454154AE
:105A800020484F54454E44290020544845524D412A
:105A90004C2052554E4157415920285052454845B7
:105AA00041542048454154424544290050524548FC
:105AB000454154204552524F5200424544205052D5
:105AC0004548454154204552524F52002074726956
:105AD000676765726564210048656174657273204B
