:100000000C945D3B0C948E3B0C948E3B0C948E3B7D
:100010000C948E3B0D94FF980C948E3B0C94E557FA
:100020000C9402580C948E3B0C948E3B0C948E3B9B
:100030000C943D4C0C948E3B0D945C260D94E81F63
:100040000C948E3B0D9432370C948E3B0C948E3B6B
:100050000C948E3B0C948E3B0C948E3B0C94EC5683
:100060000C948E3B0D9424B50C948E3B0C948E3BDB
:100070000C948E3B0C948E700C948E3B0C948E3BA7
:100080000C948E3B0C948E3B0C948E3B0C948E3BCC
:100090000D94E0B40C948E3B0C948E3B0C948E3BF0
:1000A0000C948E3B0C948E3B0D94A6150C948E3BB9
:1000B0000C948E3B0D9488150C948E3B0D94A62BBE
:1000C0000C948E3B0C948E3B0C948E3B0D944815F7
:1000D0000C948E3B0C948E3B0C948E3B0C948E3B7C
:1000E0000C948E3B084AD73B3BCE016E84BCBFFDCF
:1000F000C12F3D6C74319ABD56833DDA3D00C77FF8
:1001000011BED9E4BB4C3E916BAAAABE0000008090
:100110003F05A84CCDB2D44EB93836A9020C50B91F
:10012000918688083CA6AAAA2ABE000000803F0744
:10013000634236B79BD8A71A39685618AEBAAB5582
:100140008C1D3CB7CC5763BD6DEDFD753EF6177247
:1001500031BF000000803F08000000BE9224491219
:100160003EABAAAA2ABECDCCCC4C3E00000080BE3D
:10017000ABAAAAAA3E00000000BF000000803F001A
:1001800000000000084178D3BB4387D1133D190E0E
:100190003CC3BD4282AD2B3E68EC8276BED98FE176
:1001A000A93E4C80EFFFBE01C4FF7F3F000000006E
:1001B00000000D9412150C9475B40D945C0C0C9405
:1001C00087B40D9481440D9471460D943B050C94B5
:1001D0008AF20D9471440C94AFBC0D946A110D9485
:1001E00013080C9432F40C94BBBC0D9489190D9433
:1001F0005B440D94541C0C94ADB40D94620C0C949F
:100200009BB60C94EEED0C9456B40C942FF70D9411
:10021000390E0D941F460C9484B10D94B2450C9484
:10022000CAC30C94E6BB0D9420760D9461320C94F5
:100230006CF80D94A5440D947B760C9496B40D94B3
:1002400055110D94F2450D9461460C94E9E90C9416
:10025000BDC30D94A90C0C948DCA0C9484B60C9457
:100260000CC40C944DBB0C949AE90D9458060D9453
:1002700079460D9464060D9469090D948C0A0D94C9
:10028000307C0D9471110D949E760C94F6BB0D94F8
:10029000D0430C94EB5A0C9438F30C9477B20C9432
:1002A000F0C30C94C5C30D9431050D94EF1C0D944F
:1002B000C1080D945C110C9488B10C94B5B10D94E7
:1002C000C01E0C9493B10D949D0A0C9425C40C94FB
:1002D000C5F10D94767C0C9463BD0C947FB60D949F
:1002E00027110D944D0A0C943F490D949A060D94D4
:1002F000A3070C9490B10D946F060C947EB10C94EE
:1003000075B60C94C3F00D9470000D9433440C94A6
:100310000DEA0C94CBB10C9447BD0C94F7B50D9439
:1003200053460C94F6B80C941FB70C94BEB10C94C1
:10033000035A0C948EB60C943E570C9404EA0D9418
:10034000A27C0D94D7040C9429ED0C9435BD0C942B
:1003500089B60C942FBD0C9416B40C9492B60C94E0
:1003600070EF0D947B070C9472BC0C94F2E90D9421
:1003700088000C94B9B10D94B2220C94D5560D940A
:10038000957C0D9460AE0C9402C40D949E0E0C945A
:10039000A5BA0C94E8C30D9459460D9437060D94F4
:1003A000711F0D94670C0C94F5E90D9447070D949B
:1003B000581F0D9433060C945CB20C94A3BC0D949E
:1003C00098510D94BB050D9491060D9429330C940E
:1003D00086F20C94A6BC0C9491E90C9454570C949E
:1003E000D4C30D94451A0D9463110D941D050C94FE
:1003F0002FC40C94D8B80D9439440C9459B80D946A
:100400003D440C948CB10D9465050C9499B10C94F9
:10041000DEC30C9416C40C94A3B10D9472450C94D5
:1004200076EF0D9489460D940C440C9430F10C94A5
:10043000A7B10D942B090D9498060D9439760C9460
:100440006BB60C948BF70C9434F10D94644B0D94B3
:1004500081460C943BBD0C94B1C80D941C460D9480
:100460005EAC0D94BC450D9422460C94A5FC0C94F6
:10047000ADCA0C9439C40D94740F0C9462B40C94EE
:1004800019EA0D948A450D9404090D94CD0B0D9431
:10049000B1090C9482BB0C9452BD0C94C9FF0C940E
:1004A000BFB10D947C050D9444110D94C8430C9478
:1004B00071B20D9402440C941CF20C94B7B50D94D7
:1004C00099460D94B04B0D94161F0C94F8E90C94BA
:1004D000FBE90C9480570D94EC0E0C944DC40D94D4
:1004E00059140C94ACBC0C9430570C94C7B10C94B8
:1004F00057C40C94E9400C9470B60D94A1460C942A
:100500007AB60C9441F70C94B2BC0D94060A0D9483
:1005100024440D9498430C9429BD0D94D3080C9455
:1005200025570D94AF450C9410EA0D94F0360D94B8
:1005300091460C9461BD0C94C3B10C949DB10D9483
:100540005B050C9494FC0D94BE430D9427050D940B
:10055000270E0D94997C0C9443C40C94ACE90D9433
:1005600051050D949B760D94B9460D945B430D9403
:1005700050460C94ABB10C94A2B40C940B570C9451
:100580009BFF0D944C060D94B9450D94840A0C9470
:100590005BB10C945D570D9456460C94B1B10D941B
:1005A00047050C9457BB0D94A9460D94291B0D9437
:1005B00013050D94491F0C9429FF0D94927C0D9402
:1005C000B1460D948D050C94A9BC0D9469460D940B
:1005D00098760D94300E0D94A77C0C94F8C30C946F
:1005E00092570C9431B50D94D31E6E616E00696EF6
:1005F000660000407A10F35A00A0724E18090010ED
:10060000A5D4E80000E87648170000E40B54020087
:1006100000CA9A3B000000E1F505000080969800B2
:10062000000040420F000000A086010000001027DB
:1006300000000000E803000000006400000000006B
:100640000A00000000000100000000002C76D8889D
:10065000DC674F0823DFC1DFAE59E1B1B796E5E3B0
:10066000E453C63AE651997696E8E6C28426EB89C9
:100670008C9B62ED407C6FFCEFBC9C9F40F2BAA566
:100680006FA5F490055A2AF75C936B6CF9676DC1FE
:100690001BFCE0E40D47FEF520E6B500D0ED902E02
:1006A0000300943577050080841E080000204E0A60
:1006B000000000C80C333333330F986E128311419E
:1006C000EF8D2114893BE65516CFFEE6DB18D18469
:1006D0004B381BF77C1D901DA4BBE4242032847290
:1006E0005E228100C9F124ECA1E53D272200656E60
:1006F000717565696E67202200446F6E65207072A7
:10070000696E74696E672066696C65004E6F204C77
:10071000696E65204E756D62657220776974682018
:10072000636865636B73756D2C204C617374204C2A
:10073000696E653A20004E6F20436865636B737580
:100740006D2077697468206C696E65206E756D62C6
:1007500065722C204C617374204C696E653A2000E0
:10076000636865636B73756D206D69736D61746328
:10077000682C204C617374204C696E653A20004CE3
:10078000696E65204E756D626572206973206E6FAB
:1007900074204C617374204C696E65204E756D62D7
:1007A00065722B312C204C617374204C696E653A54
:1007B0002000256C752062797465732077726974E6
:1007C00074656E20746F2025532061742061646409
:1007D000726573732030782530346C780A004425B4
:1007E00064202D20526561642F577269746520253D
:1007F000530A0020436F756E7420583A200045302C
:100800003A25642052504D2050524E313A256420F2
:1008100052504D204530403A25752050524E3140BF
:100820003A25750A00526573656E640025533A20B7
:10083000256C640A25530A002F2F616374696F6E5B
:100840003A6E6F74696669636174696F6E202553CF
:100850000A0046696C616D656E742072756E6F7505
:100860007420646574656374656421005072696EF8
:100870007465722073746F70706564206475652090
:10088000746F206572726F72732E2053757065726B
:10089000766973696F6E2072657175697265642E11
:1008A0000064756D7020636C65617265640A006E2A
:1008B0006F2064756D7020617661696C61626C6532
:1008C0000A00443231202D20726561642063726118
:1008D00073682064756D700A006E6F2064756D70AA
:1008E00020617661696C61626C650A0064756D7087
:1008F00020636F6D706C6574656420696E20256C73
:10090000756D730A0058464C415348004545505296
:100910004F4D005352414D00442D31202D20456E46
:10092000646C657373206C6F6F700A004163746947
:1009300076652045787472756465723A2030004996
:100940006E76616C69642065787472756465720096
:10095000746D63323133305F7072696E745F6375CA
:100960007272656E747328290A094809520A580977
:1009700025640925640A590925640925640A5A0968
:1009800025640925640A450925640925640A00537C
:1009900044207072696E74696E6720627974652094
:1009A00000257500556E6B6E6F776E20636F6D6DF1
:1009B000616E643A2022004D32303020496E7661FB
:1009C0006C696420657874727564657220007A5F62
:1009D0006D61783A20007A5F6D696E3A2000795F28
:1009E0006D61783A2000795F6D696E3A2000785F1A
:1009F0006D61783A200054524947474552454400BA
:100A00006F70656E00785F6D696E3A200052657098
:100A10006F7274696E6720656E6473746F70207393
:100A20007461747573004D3131322063616C6C6593
:100A3000642E20456D657267656E63792053746F0F
:100A4000702E002F2F616374696F6E3A75766C6F2C
:100A50005F7265636F766572795F72656164790054
:100A60002F2F616374696F6E3A75766C6F5F617575
:100A7000746F5F7265636F766572795F72656164CA
:100A8000790025533A256C7520636D0A25533A2564
:100A90006C75206D696E0A0053494C454E54004EEA
:100AA0004F524D414C002553204D4F44453A205064
:100AB000657263656E7420646F6E653A20256868A0
:100AC000643B207072696E742074696D6520726574
:100AD0006D61696E696E6720696E206D696E733A2B
:100AE0002025643B204368616E676520696E206D38
:100AF000696E733A2025640A005072696E746572DB
:100B000053746174653A2025640A00456E6420665A
:100B1000696C65206C69737400426567696E206654
:100B2000696C65206C69737400556E6B6E6F776EBF
:100B300020256320636F64653A2025730A000A50FC
:100B4000494E44412074656D7065726174757265BB
:100B50003A20252E3166205A207368696674202851
:100B60006D6D293A20252E3366000A537465703A5C
:100B70002025642F360A000A537465703A202564D4
:100B80002F362028736B6970706564290A50494EAE
:100B900044412074656D70657261747572653A20A8
:100BA0002564205A20736869667420286D6D293A7F
:100BB000300A000A5A45524F3A20252E33660A0061
:100BC00073746172742074656D706572617475728E
:100BD000653A20252E31660A0025642020252E3214
:100BE0006600255320583A20252E356620593A2094
:100BF000252E3566205A3A20252E35660A00536C7C
:100C00006565702E2E2E0045303A25642052504DD9
:100C10000A50524E303A25642052504D0A000020AE
:100C200045535000204E535000204F464600204F61
:100C30004E005056303100205B4D505D200025693C
:100C400020686F757273202569206D696E757465F3
:100C5000730052582074696D656F7574004D33319F
:100C600030004D313132004D3131300046756C6C01
:100C70002052582042756666657200536574746927
:100C80006E67732053746F72656400544D3A20731D
:100C9000746F7265642063616C6962726174696FFC
:100CA0006E20696E76616C69642C20726573657460
:100CB00074696E670053746F726564207365747431
:100CC000696E677320726574726965766564004841
:100CD000617264636F6465642044656661756C74F9
:100CE0002053657474696E6773204C6F616465642A
:100CF00000563200000000C8420000C8420000C890
:100D00004300008C4300004843000048430000407B
:100D1000410000F042E8030000E8030000C80000C2
:100D2000008813000000409C4400409C44000000E8
:100D30000000000000204E000000002041000020C4
:100D400041CDCCCC3E0000904000000000000000EF
:100D50000000000000CDCCCC3E3D0A8141FF08439D
:100D60003EB099AB438F42FC42E65A343F4C62B0EE
:100D70004500000000004040000034420000000038
:100D80000000000000000041000000E03F0000C83B
:100D9000420000C842000040410000F042C0030091
:100DA00000C0030000C800000088130000101010ED
:100DB0002000409C440000803F0000003F191400C8
:100DC0000000437573746F6D004E796C6F6E504107
:100DD00000536174696E2020005465787475720048
:100DE000536D6F6F746800486F74656E6420666140
:100DF0006E207370656564206973206C6F7765720F
:100E0000207468616E206578706563746564005055
:100E100072696E742066616E207370656564206906
:100E200073206C6F776572207468616E20657870CE
:100E3000656374656400312E3000312E3500554EE7
:100E40004B4E4F574E004C413130433A204C696E67
:100E500065617220416476616E6365206D6F6465C3
:100E60003A20004C413130433A2041646A75737432
:100E7000656420452D4A65726B3A20003E0FA8AF8D
:100E800000480069960000DF6025555887680427F0
:100E9000F2E0005E3403CC1960F33C0EF88F00DB07
:100EA00008029492003E1C079A8700E524008528DA
:100EB000527E06001BE4007E781270787061F81292
:100EC000788F884178427078706178257078706189
:100ED000F850788F88D1F02527078761F025278F74
:100EE00088412C0D27AA50D1BC0707871161BE7815
:100EF0008F881141785270787061F852788F8841EC
:100F000020127888706320527888706348527888FD
:100F10008743031117997064181278F870654412AA
:100F2000F8F8F045184278F87065182578F870657B
:100F3000185278F87065185078F870650C078F872C
:100F40002365A20F8F8F11450012062270690012CF
:100F50000722274900250622706900250722274914
:100F600000120622276C026236A2706C40456C4467
:100F7000704C03622222706C43888888F04C78128F
:100F8000BC88806E7852BC88806E38127888706F0A
:100F900078127888874F38427888706F382578883B
:100FA000706F3A0079AC786F3D079AAC786F7850E3
:100FB000788887EF39497888706F0852BC888072CA
:100FC0009852F88F985220127870F0734812786314
:100FD000875320527870F073485278638753100714
:100FE000870F247312786387245360699A988BE281
:100FF0002304E4443074104E444324747C128889E2
:1010000060753C50888870557825288960757949C5
:10101000088960753C12887070790C1288522259C8
:101020004412F124F07A4452F124F07A8C52F036D2
:101030008F5A4420F124F07A00401454CDCCCC3D9A
:101040000AD7233C17B7D13877CC2B329595E624B5
:101050001FB14F0A000020410000C84200401C465A
:1010600020BCBE4CCA1B0E5AAEC59D744E414E49A3
:101070004E46437261736820646574656374656489
:101080002E00536F6D652070726F626C656D206508
:101090006E636F756E74657265642C205A2D6C6575
:1010A00076656C696E6720656E666F726365642035
:1010B0002E2E2E004D65736820626564206C657667
:1010C000656C696E67206661696C65642E2050727C
:1010D000696E742063616E63656C65642E0048659B
:1010E0006174696E672064697361626C6564206213
:1010F00079207361666574792074696D65722E005C
:1011000053544F505045442E0050415553454420B0
:10111000544845524D414C204552524F5200472DA4
:10112000636F646520736C6963656420666F722009
:101130006120646966666572656E74206C657665AB
:101140006C2E20506C656173652072652D736C691F
:10115000636520746865206D6F64656C20616761EC
:10116000696E2E00472D636F646520736C6963653B
:101170006420666F72206120646966666572656EC0
:1011800074206C6576656C2E00472D636F64652056
:10119000736C6963656420666F722061206E657789
:1011A0006572206669726D776172652E20506C657C
:1011B000617365207570646174652074686520666C
:1011C00069726D776172652E00472D636F646520CB
:1011D000736C6963656420666F722061206E657749
:1011E0006572206669726D776172652E00472D63A6
:1011F0006F646520736C6963656420666F7220613B
:1012000020646966666572656E74207072696E74BA
:10121000657220747970652E20506C65617365204D
:1012200072652D736C69636520746865206D6F64E9
:10123000656C20616761696E2E00472D636F646580
:1012400020736C6963656420666F72206120646935
:1012500066666572656E74207072696E7465722060
:10126000747970652E005072657373207468652000
:101270006B6E6F6220746F20707265686561742098
:101280006E6F7A7A6C6520616E6420636F6E74692C
:101290006E75652E00506C656173652070726573A4
:1012A0007320746865206B6E6F6220746F20756E9A
:1012B0006C6F61642066696C616D656E7400616E4F
:1012C0006420707265737320746865206B6E6F6242
:1012D00000496E736572742066696C616D656E7429
:1012E00000436F6C6F72206E6F7420636F72726553
:1012F00063740046696C616D656E74206E6F742056
:101300006C6F61646564004368616E676564206347
:101310006F72726563746C79004C6F6164696E679B
:1013200020636F6C6F72004368616E676520737530
:1013300063636573732100506C65617365206F7022
:10134000656E2069646C657220616E642072656DE3
:101350006F76652066696C616D656E74206D616E77
:1013600075616C6C792E005761732066696C616DD4
:10137000656E7420756E6C6F616420737563636550
:10138000737366756C3F00506C6561736520757092
:1013900067726164652E004E6577206669726D77AD
:1013A0006172652076657273696F6E20617661691E
:1013B0006C61626C653A0057616974696E6720669A
:1013C0006F722050494E44412070726F62652063F5
:1013D0006F6F6C696E6700506C6561736520776133
:1013E0006974004E6F206D6F76652E0057616974C9
:1013F00020666F7220757365722E2E2E00537461F5
:10140000626C6520616D6269656E742074656D70D3
:10141000657261747572652032312D3236432069F0
:1014200073206E6565646564206120726967696414
:10143000207374616E6420697320726571756972BE
:1014400065642E00506C656173652072756E20585E
:10145000595A2063616C6962726174696F6E2066AB
:10146000697273742E00627573793A2070617573B6
:10147000656420666F7220696E70757400627573A2
:10148000793A2070617573656420666F7220757398
:10149000657200627573793A2070726F6365737359
:1014A000696E670000007F43008054430000524390
:1014B00000000000000080C09A99193E0000000062
:1014C000000080C09A99193E0000A0400000A04092
:1014D0000000004025336420737465703D2532643C
:1014E000206D73636E743D2534640A0000007F43F1
:1014F000008058439AD95143FFFFFF20413A002012
:10150000503A002042403A0020403A00202F00206C
:1015100054303A00202F0020423A00202F00543A45
:101520000025534578636573736976652062656449
:10153000206C6576656C696E6720636F7272656397
:1015400074696F6E3A202569206D6963726F6E73DE
:101550000A00426564206C6576656C696E6720667A
:1015600061696C65642E20546F6F206D756368200F
:10157000766172696174696F6E2066726F6D206545
:101580006570726F6D206D65736800426564206CD4
:101590006576656C696E67206661696C65642E208E
:1015A00053656E736F7220747269676765726564E4
:1015B00020746F6F20736F6F6E002020004D656187
:1015C000737572656420706F696E74733A005A2087
:1015D000736561726368206865696768743A20356D
:1015E0002E3066004E756D20582C593A20372C3716
:1015F000004D65736820626564206C6576656C6972
:101600006E67206E6F74206163746976652E0020AA
:10161000453A00205A3A0020593A0020453A002025
:101620005A3A0020593A00583A00202D3E200053E3
:10163000706F6F6C4A6F696E3A20002C20006673E1
:10164000656E736F722076302E3420696E2066616D
:10165000756C742072616E676520342E362D355698
:10166000202D20756E636F6E6E6563746564006611
:1016700073656E736F7220696E20666F7262696443
:1016800064656E2072616E676520312E352D33568C
:10169000202D20636865636B2073656E736F720025
:1016A000496E6163746976697479205368757464EE
:1016B0006F776E004B494C4C45442E005072696E5A
:1016C0007465722068616C7465642E206B696C6C43
:1016D00028292063616C6C656421005A206C69764E
:1016E000652061646A757374206F7574206F66205D
:1016F00072616E67652E2053657474696E6720741D
:101700006F20302E20436C69636B20746F20636FF1
:101710006E74696E75652E005A206C69766520615D
:10172000646A757374206F7574206F662072616EC1
:1017300067652E2053657474696E6720746F20305E
:101740000020453A3020423A00543A004731205AAE
:10175000252D2E33662046252D2E336600496E76C4
:10176000616C6964205420636F64652E0044757059
:101770006C696361746520542D636F6465206967CB
:101780006E6F7265642E00416476616E6365204BF6
:101790003D004B206F7574206F6620616C6C6F7715
:1017A00065642072616E676521004D4B3353004DB7
:1017B0004B33534D4D5533005E762E012533642F48
:1017C0002533640025336400200A200A200A200003
:1017D0002553537461746973746963733A0A2553AA
:1017E00020204D37382053256C752054256C750A00
:1017F0000025534172632053657474696E67733AB0
:1018000020503A4D6178206C656E677468286D6D64
:101810002920533A4D696E206C656E6774682028E4
:101820006D6D29204E3A436F7272656374696F6EF5
:101830007320523A4D696E207365676D656E7473DF
:1018400020463A5365676D656E74732F7365632E1A
:101850000A255320204D3231342050252E32662067
:1018600053252E3266204E256420522564204625BD
:10187000640A00255346696C616D656E742073655A
:101880007474696E67733A2044697361626C65644D
:101890000A00255346696C616D656E74207365742A
:1018A00074696E67733A0A25532020204D32303018
:1018B0002044252E32660A002553526574726163F6
:1018C000743A20533D4C656E67746820286D6D290D
:1018D00020463A537065656420286D6D2F6D292070
:1018E0005A3A205A4C69667420286D6D290A25538E
:1018F0002020204D3230372053252E3266204625B9
:101900002E3266205A252E32660A25535265636FA1
:101910007665723A20533D4578747261206C656E2D
:1019200067746820286D6D2920463A537065656498
:1019300020286D6D2F6D290A25532020204D32302F
:10194000382053252E32662046252E32660A25532E
:101950004175746F2D526574726163743A20533D02
:101960003020746F2064697361626C652C203120B3
:10197000746F20696E746572707265742065787416
:10198000727564652D6F6E6C79206D6F766573204E
:101990006173207265747261637473206F72207258
:1019A00065636F7665726965730A25532020204D43
:1019B000323039205325640A0025535049442068A9
:1019C0006561746265642073657474696E67733AE7
:1019D0000A25532020204D3330342050252E3266E6
:1019E0002049252E32662044252E32660A002553D2
:1019F0005049442073657474696E67733A0A2553BD
:101A00002020204D3330312050252E3266204925AC
:101A10002E32662044252E32660A00255353746503
:101A200070732070657220756E69743A0A255320B0
:101A3000204D39322058252E32662059252E326607
:101A4000205A252E32662045252E32660A2553550A
:101A500053746570207265736F6C7574696F6E3A3C
:101A6000200A2553204D3335302058256420592530
:101A700064205A2564204525640A25534D61786900
:101A80006D756D20666565647261746573202D20C7
:101A90006E6F726D616C20286D6D2F73293A0A2567
:101AA0005320204D3230332058252E3266205925C0
:101AB0002E3266205A252E32662045252E32660AA1
:101AC00025534D6178696D756D2066656564726139
:101AD000746573202D20737465616C746820286DA3
:101AE0006D2F73293A0A255320204D323033205868
:101AF000252E32662059252E3266205A252E326632
:101B00002045252E32660A25534D6178696D756D25
:101B100020616363656C65726174696F6E202D204E
:101B20006E6F726D616C20286D6D2F7332293A0AC9
:101B3000255320204D3230312058256C75205925F1
:101B40006C75205A256C752045256C750A25534DFA
:101B50006178696D756D20616363656C6572617430
:101B6000696F6E202D20737465616C746820286D18
:101B70006D2F7332293A0A255320204D32303120FF
:101B800058256C752059256C75205A256C75204593
:101B9000256C750A2553416363656C6572617469D0
:101BA0006F6E3A20503D7072696E742C20523D72F7
:101BB0006574726163742C20543D74726176656C37
:101BC0000A255320204D3230342050252E326620F5
:101BD00052252E32662054252E32660A2553416442
:101BE00076616E636564207661726961626C6573AB
:101BF0003A20533D4D696E20666565647261746577
:101C000020286D6D2F73292C20543D4D696E207452
:101C1000726176656C206665656472617465202802
:101C20006D6D2F73292C20423D6D696E696D756D48
:101C3000207365676D656E742074696D6520287505
:101C400073292C20583D6D6178696D756D20585948
:101C5000206A65726B20286D6D2F73292C20205A05
:101C60003D6D6178696D756D205A206A65726B20D3
:101C7000286D6D2F73292C2020453D6D6178696D8D
:101C8000756D2045206A65726B20286D6D2F732954
:101C90000A255320204D3230352053252E32662020
:101CA00054252E32662042256C752058252E32662A
:101CB0002059252E3266205A252E32662045252EA3
:101CC00032660A2553486F6D65206F6666736574CA
:101CD00020286D6D293A0A255320204D32303620B8
:101CE00058252E32662059252E3266205A252E324E
:101CF000660A00544D3A20525B25755D2065737469
:101D0000696D6174652E00544D3A20255320522090
:101D100025644300544D3A202553204320657374B5
:101D20002E00544D3A20636F6F6C20646F776E20E5
:101D30003C25644300726566696E6500696E69746E
:101D400069616C00544D3A2063616C6962722E20A7
:101D50006661696C65642100544D3A2063616C6969
:101D600062726174696F6E20737461727400544D95
:101D70003A2043616C2E204E4F542049444C45007C
:101D80004361703A25533A25630A00505255534136
:101D90005F4D4D553200455854454E4445445F4DC6
:101DA0003230004155544F5245504F52545F504FBE
:101DB000534954494F4E004155544F5245504F528C
:101DC000545F46414E53004155544F5245504F5277
:101DD000545F54454D50000044656C6574696F6EE6
:101DE000206661696C65642C2046696C653A200048
:101DF00046696C652064656C657465643A004E6F75
:101E000074205344207072696E74696E670050725A
:101E1000696E742073617665640053442070726942
:101E20006E7420706175736564002533642F2533EB
:101E300064004F4B004241440052414D426F2046E6
:101E4000414E20006676007468780050524E004380
:101E5000524153485F43414E43454C004352415326
:101E6000485F5245434F5645520043524153485FE5
:101E70005245434F56455200222832290025533AF5
:101E80002025530A002C204D393037204520696722
:101E90006E6F726564006E6F2076616C696420639A
:101EA0006F6D6D616E64007A65726F72697A6564D8
:101EB00000666163746F727920726573746F726506
:101EC0006400696E6465782C2074656D702C2075D3
:101ED000737465702C20756D0050494E4441206329
:101EE000616C207374617475733A2000503A005726
:101EF00061697420666F722050494E4441207461BC
:101F0000726765742074656D706572617475726551
:101F10003A00204100205000204200204C00205276
:101F200000205A00204E4F5420494E495449414CFC
:101F3000495A45440053686565742000205A20566C
:101F4000414C5545204F5554204F462052414E4755
:101F50004500496E76616C6964207368656574201C
:101F600049442E20416C6C6F7765643A20302E2EE8
:101F7000004155544F004C414E472053454C20469C
:101F80004F52434544004D323536204225642044AB
:101F9000256420532564205425750A0020643A00E6
:101FA00020693A0020703A0020643A0020693A0023
:101FB00020703A00256925250A00256925250A0093
:101FC00022283129002F2F00002045585452554413
:101FD00045525F434F554E543A3100204D414348DE
:101FE000494E455F545950453A00312E3000206229
:101FF00061736564206F6E204D61726C696E20465E
:1020000049524D574152455F55524C3A687474706D
:10201000733A2F2F6769746875622E636F6D2F7026
:102020007275736133642F50727573612D466972D6
:102030006D776172652050524F544F434F4C5F563D
:10204000455253494F4E3A006633653064666434F6
:1020500038005F0038323834002B004649524D5763
:102060004152455F4E414D453A50727573612D4660
:1020700069726D7761726520004D313133205300F4
:102080006F6B20006E2F61003F546F73686962614F
:1020900020466C617368416972204765744950201D
:1020A0006661696C65640A00000125311D0C4024DD
:1020B000301C0B45232F1B0A17FF0406222B1A0383
:1020C000363735382569206D696E2C2025692073D7
:1020D000656300496E76616C6964204D20636F64AE
:1020E000653A2025730A0050494E44412070726FB2
:1020F00062652063616C6962726174696F6E2073DE
:1021000074617274004E6F2050494E4441207468CF
:1021100065726D6973746F7200736574006E6F7AA7
:102120007A6C65004D424C004652004C7A004C617E
:102130006E6700315F37356D6D5F4D4B33532D4505
:10214000494E53795F3130612D453344763666759B
:102150006C6C0052657600332E31342E312D3832BE
:1021600038340046697200534E20696E76616C699E
:102170006400534E005245534554004D4D55524551
:10218000530075766C6F0046414E0046414E5049F3
:102190004E545354005052555341005345545F43DD
:1021A000484F505F005345545F535445505F0053B0
:1021B00045545F574156455F00544D435F004352BD
:1021C0004153485F43414E43454C004352415348BD
:1021D0005F5245434F5645520043524153485F4476
:1021E000455445435445440043524153485F004DD4
:1021F000313034533000473158313059313830465E
:10220000343030300047315A3130463133303000CD
:102210004D3134305330004731452D302E30373575
:102220004632313030004D323034533130303000AE
:1022300047315A354637323030004731452D312E3F
:1022400035463231303000473930004D31303700BB
:1022500048426564206F6E206C6F616400466C615B
:10226000736841697200546865726D616C204D6FCE
:1022700064656C2063616C2E004572723A5052495D
:102280004E542046414E204552524F5200457272E4
:102290003A484F54454E442046414E204552524FF5
:1022A00052002F2F616374696F6E3A726573756D9A
:1022B0006564002F2F616374696F6E3A7265737580
:1022C0006D65002F2F616374696F6E3A726561648A
:1022D00079002F2F616374696F6E3A6E6F745F724D
:1022E00065616479002F2F616374696F6E3A636171
:1022F0006E63656C004D38340041786973206C65FD
:102300006E67746820646966666572656E63653AB7
:10231000252E33660A004D65617375726564206110
:10232000786973206C656E6774683A252E33660A87
:10233000004F4B004C4344207374617475732063E9
:1023400068616E6765640053442063617264207243
:10235000656C65617365640046616B6520736572C9
:1023600069616C206E756D62657200452D636F6FDB
:102370006C206D6F646500414C5446414E2064658D
:10238000742E002F2F616374696F6E3A73746172DB
:102390007400473931004D373032004D3833004733
:1023A00032382057004D3530300045787465726EF4
:1023B000616C2053504920666C6173680A58464C22
:1023C000415348206973206E6F74207265732D0A23
:1023D000706F6E64696E672E204C616E6775616701
:1023E000650A73776974636820756E617661696CDC
:1023F00061626C652E0058464C415348206E6F74E4
:1024000020726573706F6E64696E672E0046572088
:102410006372617368206465746563746564212008
:10242000596F752063616E20636F6E74696E756598
:10243000207072696E74696E672E204465627567DC
:10244000206461746120617661696C61626C6520F1
:10245000666F7220616E616C797369732E20436FB1
:102460006E7461637420737570706F727420746F12
:10247000207375626D69742064657461696C732E74
:10248000002F2F616374696F6E3A64756D705F61C0
:102490007661696C61626C65004372617368446562
:1024A000746563742044495341424C45440043726F
:1024B00061736844657465637420454E41424C45C0
:1024C000442100486F74656E642066616E207479E3
:1024D00070653A20002020506C616E6E6572427506
:1024E0006666657242797465733A200020467265AB
:1024F00065204D656D6F72793A2000207C20417512
:1025000074686F723A2000204C61737420557064B7
:10251000617465643A200020536F66747761726558
:1025200020526573657400205761746368646F6737
:10253000205265736574002042726F776E206F754C
:1025400074205265736574002045787465726E61FD
:102550006C20526573657400506F7765725570001A
:102560006572726F722077726974696E6720746F1A
:102570002066696C6500446F6E6520736176696ED4
:10258000672066696C652E006F6B0046696C616D33
:10259000656E74004D6561737572656420736B655B
:1025A00077733A2025662025660A004669747469A7
:1025B0006E67206661696C6564203D3E2063616CD6
:1025C0006962726174696F6E206661696C65642E00
:1025D0000A0043616C6962726174696F6E20737581
:1025E00063636573732E0A00416C6C203420636151
:1025F0006C6962726174696F6E20706F696E74735A
:1026000020666F756E642E0A00312F3400312F342E
:1026100000312F390047315A302E320047315832BD
:1026200030322E3545384631343030004731592D5F
:10263000324631303030004731583234304532354F
:1026400046323230300047315A302E334631303046
:102650003000473158353545384632303030004744
:1026600031583545323946313830300047315835E8
:10267000354532394631303733004739324530003D
:10268000473238004D313039004D313930001000BB
:10269000C90210012C014001220170011801B00192
:1026A0000E01F00104015002FA00B002F000300304
:1026B000E600D003DC009004D2007005C800A0063C
:1026C000BE000008B400B009AA00D00BA000600E44
:1026D000960060118C000015820020197800C01D42
:1026E0006E00A0226400B0275A00902C50000031E8
:1026F0004600E0343C0010383200903A2800603C3C
:102700001E00A03D1400803E0A00203F00005859E2
:102710005A2063616C6962726174696F6E20616CCA
:102720006C2072696768742E20536B657720776917
:102730006C6C20626520636F7272656374656420DF
:102740006175746F6D61746963616C6C792E00588A
:10275000595A2063616C6962726174696F6E20619D
:102760006C6C2072696768742E20582F592061782C
:1027700065732061726520736C696768746C792079
:10278000736B657765642E20476F6F64206A6F6294
:10279000210058595A2063616C6962726174696FD3
:1027A0006E206F6B2E20582F592061786573206141
:1027B00072652070657270656E646963756C6172B4
:1027C0002E20436F6E67726174756C6174696F6EF1
:1027D000732100436865636B73004E6F7A7A6C6592
:1027E00020642E00416C7068616265740054696DEC
:1027F0006500536F72740053442063617264005229
:10280000506920706F7274004C696E2E20636F7275
:1028100072656374696F6E004E6F7A7A6C652063BF
:1028200068616E6765004857205365747570004C89
:102830006F6164696E6720546573740044697361E5
:10284000626C65207374657070657273004D6F768D
:102850006520617869730054656D70657261747587
:1028600072650050494E44412063616C2E005265F0
:102870007365742058595A2063616C6962722E0026
:102880005049442063616C6962726174696F6E00C3
:10289000426564206C6576656C20636F7272656357
:1028A00074004D65736820426564204C6576656CE4
:1028B000696E670043616C696272617465205A00D9
:1028C00043616C6962726174652058595A0053659E
:1028D0006C66746573740042656C742074657374FF
:1028E0000057697A617264004C6F616420416C6CBE
:1028F00000506C656173652070756C6C206F757429
:102900002066696C616D656E7420696D6D656469C2
:102910006174656C790052657365740052656E610F
:102920006D65004669727374206C6179657220630D
:10293000616C2E0053656C65637400537465656C3F
:102940002073686565747300537570706F727400DE
:102950004661696C207374617473204D4D55004657
:1029600061696C207374617473005374617469736A
:10297000746963730043616C6962726174696F6E3C
:10298000004175746F4C6F61642066696C616D65A0
:102990006E74004C6F61642066696C616D656E7465
:1029A00000556E6C6F61642066696C616D656E7454
:1029B000004C6F616420746F206E6F7A7A6C6500D2
:1029C0005072656C6F616420746F204D4D55004EE0
:1029D0006F2053442063617264005072696E7420EA
:1029E00066726F6D20534400436C65617220544DD4
:1029F000206572726F7200526573756D652070721A
:102A0000696E74005061757365207072696E740030
:102A100053657420526561647900536574206E6F4C
:102A20007420526561647900507265686561740054
:102A300054756E65004C6976652061646A757374BF
:102A4000205A0052657072696E7400496E666F207C
:102A500073637265656E004272696768746E657350
:102A600073004173736973740053696C656E74000D
:102A70004F6E6365004C6F756400536F756E640034
:102A800046696C2E2073656E736F72004368616EC9
:102A900067652066696C616D656E7400466C6F7762
:102AA000005370656564004E2F41004D61676E658F
:102AB000747320636F6D702E005A2D70726F626593
:102AC000206E722E004D6573680044696D0042727D
:102AD00069676874004175746F0054696D656F753E
:102AE00074004C6576656C2044696D6D6564004CBE
:102AF0006576656C2042726967687400536574740A
:102B0000696E677300596573004E6F0053746F7080
:102B1000207072696E7400436865636B696E67202C
:102B200066696C650046696C6520696E636F6D70DF
:102B30006C6574652E008452656672657368004D1D
:102B400061696E00496E73657274207468652066F1
:102B5000696C616D656E742028646F206E6F7420DF
:102B60006C6F61642069742920696E746F207468C9
:102B70006520657874727564657220616E64207476
:102B800068656E20707265737320746865206B6E63
:102B90006F622E0053656E736F7220766572696680
:102BA0006965642C2072656D6F7665207468652098
:102BB00066696C616D656E74206E6F772E00566568
:102BC00072696669636174696F6E206661696C65BC
:102BD000642C2072656D6F76652074686520666967
:102BE0006C616D656E7420616E6420747279206111
:102BF0006761696E2E00506C65617365206368655E
:102C0000636B207468652049522073656E736F7220
:102C100020636F6E6E656374696F6E2C20756E6CC9
:102C20006F61642066696C616D656E7420696620F1
:102C300070726573656E742E00506C6561736520EB
:102C4000756E6C6F6164207468652066696C616D77
:102C5000656E742066697273742C207468656E20CA
:102C6000726570656174207468697320616374694A
:102C70006F6E2E0057616974696E6720666F7220EF
:102C80006E6F7A7A6C6520616E6420626564206381
:102C90006F6F6C696E670053656C66746573742042
:102CA0004F4B0053656C6674657374207374617266
:102CB00074005072696E742066616E3A00486F74D9
:102CC000656E642066616E3A0043616C6962726190
:102CD00074696E6720686F6D6500416C6C20636F6E
:102CE000727265637400436865636B696E67207315
:102CF000656E736F727300436865636B696E6720FE
:102D0000686F74656E6400436865636B696E672005
:102D100062656400436865636B696E67205A206171
:102D200078697300436865636B696E672059206139
:102D300078697300436865636B696E67205820612A
:102D400078697300436865636B696E6720656E64BC
:102D500073746F707300436172642072656D6F7677
:102D60006564004261636B00537465616C74680054
:102D70004372617368206465742E004E6F726D61DA
:102D80006C004D6F64650053747269637400576121
:102D9000726E004E6F6E6500486F74656E642061E0
:102DA00074203238304321204E6F7A7A6C6520636C
:102DB00068616E67656420616E6420746967687419
:102DC000656E656420746F2073706563733F0046A1
:102DD0006F722061204E6F7A7A6C65206368616E35
:102DE000676520706C6561736520726561640A7047
:102DF000727573612E696F2F6E6F7A7A6C652D6DA7
:102E00006B3373005049442063616C2E2066696EF9
:102E10006973686564005049442063616C2E0050FA
:102E200072696E7420706175736564005072696EAA
:102E3000742061626F727465640043616E63656CD7
:102E400000436F6E742E004E6F7A7A6C6520646951
:102E5000616D65746572206469666665727320666B
:102E6000726F6D2074686520472D636F64652E2036
:102E7000506C6561736520636865636B2074686579
:102E80002076616C756520696E2073657474696E57
:102E900067732E004E6F7A7A6C65206469616D6588
:102EA00074657220646966666572732066726F6D00
:102EB0002074686520472D636F64652E0054686533
:102EC0007265206973206E6F2066696C616D656E36
:102ED00074206C6F616465642E004D4B3353206623
:102EE00069726D7761726520646574656374656489
:102EF000206F6E204D4B33207072696E74657200C6
:102F0000426C61636B6F7574206F63637572726579
:102F1000642E205265636F766572207072696E74DC
:102F20003F00546865726D616C206D6F64656C2044
:102F30006E6F742063616C6962726174656420797C
:102F400065742E0054686572652069732073746916
:102F50006C6C2061206E65656420746F206D616B00
:102F600065205A2063616C6962726174696F6E2EAC
:102F700020506C6561736520666F6C6C6F77207490
:102F80006865206D616E75616C2C2063686170747A
:102F900065722046697273742073746570732C2097
:102FA00073656374696F6E2043616C6962726174EA
:102FB000696F6E20666C6F772E005072696E746553
:102FC0007220686173206E6F74206265656E206385
:102FD000616C69627261746564207965742E205039
:102FE0006C6561736520666F6C6C6F7720746865C3
:102FF000206D616E75616C2C206368617074657200
:103000002046697273742073746570732C20736525
:103010006374696F6E2043616C6962726174696F79
:103020006E20666C6F772E0053656C6674657374E2
:103030002077696C6C2062652072756E20746F2039
:1030400063616C696272617465206163637572614A
:1030500074652073656E736F726C6573732072652F
:10306000686F6D696E672E004F6C642073657474B1
:10307000696E677320666F756E642E2044656661A5
:10308000756C74205049442C20457374657073200E
:103090006574632E2077696C6C206265207365749B
:1030A0002E005761726E696E673A20626F746820F5
:1030B0007072696E746572207479706520616E64D7
:1030C000206D6F74686572626F61726420747970CC
:1030D00065206368616E6765642E005761726E6972
:1030E0006E673A207072696E7465722074797065CB
:1030F000206368616E6765642E005761726E696E49
:10310000673A206D6F74686572626F6172642074D3
:10311000797065206368616E6765642E005465731D
:1031200074696E672066696C616D656E74005368C2
:10313000656574004E6F74207370696E6E696E679A
:10314000005370696E6E696E670046616E2074652B
:1031500073740053656C6674657374206661696C82
:103160006564002573206C6576656C2065787065F4
:10317000637465640046616C736520747269676787
:103180006572696E670046696C616D656E74207367
:10319000656E736F7200537761707065640046727C
:1031A0006F6E742F6C6566742066616E7300417873
:1031B00069730041786973206C656E677468004CB0
:1031C0006F6F73652070756C6C6579004C65667403
:1031D00020686F74656E642066616E3F0046726F92
:1031E0006E74207072696E742066616E3F00456E69
:1031F0006473746F70206E6F742068697400456E1C
:103200006473746F70004D6F746F7200456E6473F9
:10321000746F707300576972696E67206572726FA0
:1032200072004265642F486561746572004E6F7468
:1032300020636F6E6E6563746564004865617465D4
:10324000722F546865726D6973746F7200506C658B
:1032500061736520636865636B3A0053656C6674DF
:10326000657374206572726F72210053656C6563BB
:10327000742066696C616D656E743A0058595A2005
:1032800063616C6962726174696F6E206661696CFA
:1032900065642E2052696768742066726F6E7420B0
:1032A00063616C6962726174696F6E20706F696EC0
:1032B00074206E6F7420726561636861626C652E44
:1032C0000058595A2063616C6962726174696F6E4B
:1032D000206661696C65642E2046726F6E7420638F
:1032E000616C6962726174696F6E20706F696E746F
:1032F00073206E6F7420726561636861626C652E05
:103300000058595A2063616C6962726174696F6E0A
:10331000206661696C65642E20506C656173652060
:10332000636F6E73756C7420746865206D616E7563
:10333000616C2E0058595A2063616C696272617425
:10334000696F6E20636F6D70726F6D697365642E47
:103350002052696768742066726F6E742063616CB6
:103360006962726174696F6E20706F696E74206E2D
:103370006F7420726561636861626C652E005859D4
:103380005A2063616C6962726174696F6E20636F49
:103390006D70726F6D697365642E2046726F6E7406
:1033A0002063616C6962726174696F6E20706F690D
:1033B0006E7473206E6F7420726561636861626CF5
:1033C000652E0058595A2063616C69627261746994
:1033D0006F6E206661696C65642E204265642063AF
:1033E000616C6962726174696F6E20706F696E746E
:1033F00020776173206E6F7420666F756E642E0087
:10340000506C656173652072656D6F7665207374AD
:1034100065656C2073686565742066726F6D2068E1
:103420006561746265642E00506C6561736520701F
:103430006C61636520737465656C20736865657481
:10344000206F6E20686561746265642E0049732088
:10345000737465656C207368656574206F6E206891
:103460006561746265643F0044697374616E63658D
:10347000206265747765656E20746970206F6620C0
:10348000746865206E6F7A7A6C6520616E64207452
:103490006865206265642073757266616365206883
:1034A0006173206E6F74206265656E207365742091
:1034B0007965742E20506C6561736520666F6C6C45
:1034C0006F7720746865206D616E75616C2C206368
:1034D00068617074657220466972737420737465D4
:1034E00070732C2073656374696F6E204669727304
:1034F00074206C617965722063616C6962726174B9
:10350000696F6E2E00506C61636520612073686581
:103510006574206F6620706170657220756E6465D9
:103520007220746865206E6F7A7A6C65206475729B
:10353000696E67207468652063616C69627261748A
:10354000696F6E206F662066697273742034207014
:103550006F696E74732E20496620746865206E6FE3
:103560007A7A6C652063617463686573207468653A
:103570002070617065722C20706F776572206F66A5
:103580006620746865207072696E74657220696D5A
:103590006D6564696174656C792E00536561726351
:1035A00068696E67206265642063616C696272613C
:1035B00074696F6E20706F696E74004D656173750C
:1035C00072696E67207265666572656E63652068F4
:1035D0006569676874206F662063616C69627261F7
:1035E00074696F6E20706F696E7400506C656173E2
:1035F0006520636C65616E20746865206E6F7A7AF1
:103600006C6520666F722063616C696272617469B7
:103610006F6E2E20436C69636B207768656E206443
:103620006F6E652E004175746F20686F6D65004583
:1036300078706572696D656E74616C004673656E55
:10364000736F7220446574656374696F6E00302E09
:10365000383000302E363000302E343000302E32EC
:10366000350044697361626C65206661726D206D1E
:103670006F6465005265736574204D4D55004D4D66
:1036800055004D3434004739390044697361626C28
:1036900065206661726D206D6F64653F004732384A
:1036A000205859004D20383400852E2E00593A20DC
:1036B0002575202D3E202E2E2E00583A20257520CF
:1036C0002D3E202E2E2E0046696C616D656E742095
:1036D00073656E736F7220626F61726420636861DC
:1036E0006E67652064657465637465643A2072650D
:1036F000766973696F6E25530A004D656173757243
:1037000065642066696C616D656E742073656E73A7
:103710006F72206C6F77206C6576656C3A2025346B
:103720002E3266560A004D656173757265642066B7
:10373000696C616D656E742073656E736F7220685D
:10374000696768206C6576656C3A2025342E326690
:10375000560A002533642F30002533642F300025AE
:10376000632041584953205347313D25640A00489E
:103770006F74656E6400426564005A005900580019
:103780002D2D2D2D2D2D2D2D2D2D2D2D2D2D2D2D69
:103790002D2D2D2D00435A5058496E76616C696469
:1037A00053657269616C4E72004D393134004D3988
:1037B00031350047224B22172210220522F621968E
:1037C00023EF21F522473159252E346645252E3425
:1037D000660047315A252E32660047315835305938
:1037E000313535007A2647229B233A223022262281
:1037F000473158252E346645252E3466004731461C
:1038000031303830006C265F26522646267A26371D
:10381000262C261C2615265425640047315A302EA6
:1038200034004731592D334631303030004B228936
:1038300026842680267A264D3834205859004D316A
:10384000303920533238300047312058313235205A
:103850005A323030204631303030004D3331302054
:10386000412046310047312058313235205931301E
:1038700035205A3120463830303000496E76616C40
:103880006964205049442063616C2E207265737511
:103890006C74732E204E6F742073746F7265642085
:1038A000746F20454550524F4D2E004D333031201E
:1038B00050252E32662049252E32662044252E3290
:1038C00066004D3330332045302053253375005288
:1038D0004300444556004245544100414C50484144
:1038E0000000002100240027002A002D00300033B2
:1038F0000001010000040107010A01000022002567
:103900000028002B002E00310034000201000005C9
:103910000108010B01000020002300260029002CD3
:10392000002F00320000010000030106010901051B
:10393000050505070508080808020202020A0A0828
:10394000080404040401010101010101010303034E
:103950000303030303040707070C0C0C0C0C0C0CEB
:103960000C0202020206060606060606060B0B0BF2
:103970000B0B0B0B0B07070A0A0A0A0A0A050505B7
:103980000404040808010210202008081020401038
:103990002040800201020108040201010204081013
:1039A0002040808040201008040201800402018031
:1039B000402010080402010804020101020408105A
:1039C0002040800102040810204080100804088074
:1039D000102040044080102040048000000A0B02A8
:1039E000090C0D0E08070304010000000000000090
:1039F00000000000000000000000000000000000C7
:103A00000000000000000012111000000000000083
:103A100000000000000000000000000000000000A6
:103A20000000000000000000000000000000000096
:103A300000332E31342E31000A204F726967696ECF
:103A4000616C2050727573612069330A2020205008
:103A5000727573612052657365617263680A2532FD
:103A6000302E32305300435A5058003B53005370AD
:103A70006F6F6C4A6F696E20697320006164635FC9
:103A8000696E697400200A200A200A2000416C6CCB
:103A900020446174610053657276696365207072B9
:103AA0006570005368697070696E67207072657028
:103AB0000053746174697374696373004C616E6759
:103AC000756167650045524153494E4720616C6CF2
:103AD000206461746100466163746F72792052459D
:103AE0005345540050525553413344465700494EB4
:103AF00054340003000E00010040000300020000E7
:103B00000004004E4F4354554100414C5446414E31
:103B10000073686976616D6D65687461323230007A
:103B2000323032352D30382D31392030323A35327D
:103B30003A35310020332E31342E312D383238349D
:103B40005F66336530646664343800737461727420
:103B500000534E20757064617465206661696C6500
:103B60006400534E207570646174656400435A505C
:103B7000580043524153485F4445544543544544DB
:103B800058590043524153485F44455445435445B6
:103B900044590043524153485F44455445435445BA
:103BA0004458004D323900252D392E39535B0054CD
:103BB0004D20657374696D6174696F6E206469640A
:103BC000206E6F7420636F6E766572676500544D6A
:103BD00020697465723A257520763A252E32662062
:103BE000653A252E33660A003333294200005841D6
:103BF0009A998D4133335340200A200A20004D4DBD
:103C000055323A004D6561737572652063656E7457
:103C1000657220200078797A63616C5F6D656173ED
:103C20007572655F656E7465720A0078797A636192
:103C30006C5F73706972616C382063783D25642015
:103C400063793D2564207A303D256420647A3D25E2
:103C500064207261646975733D25642061643D254B
:103C6000640A0078797A63616C5F73656172636876
:103C70005A206E6F207369676E616C0A20783D254B
:103C80006C6420793D256C64207A3D256C640A00C3
:103C9000204F4E2D5349474E414C20617420783DB2
:103CA000256420793D2564207A3D25642061643DAA
:103CB00025640A0078797A63616C5F736561726369
:103CC000685A20783D256C6420793D256C64207A03
:103CD0003D256C640A002530327800205B25662083
:103CE00025665D206D6D207061747465726E206351
:103CF000656E7465720A00205B25662025665D5B33
:103D000025665D206D6D20646976657267656E63FA
:103D1000650A000000F000F801FC03FE07FE07FE44
:103D200007FE07FC03F801F000000000000000F0AF
:103D300000F801FC03FC03FC03FC03F801F00000A5
:103D400000000078797A63616C5F6D6561737572EC
:103D5000655F6C656176650A00203C200057415222
:103D60004E494E473A2046726F6E7420706F696EEE
:103D700074206E6F7420726561636861626C652E79
:103D8000205920636F6F7264696E6174653A000038
:103D9000000040410000C04000005C430000C04003
:103DA00000005C43000046430000404100004643E1
:103DB00025642F3400497465726174696F6E3A200E
:103DC0000043616C6962726174696F6E206661693B
:103DD0006C65642120436865636B207468652061AD
:103DE00078657320616E642072756E206167616909
:103DF0006E2E004D494E54454D502042454420669C
:103E000069786564004D494E54454D5020484F54E3
:103E1000454E442066697865640024F4D43050C36C
:103E20008E20C2A24017828B7011127A910D816C84
:103E3000D90AA861E108C7586607615143061E4BBD
:103E40005D05C145A7041A411104093D9803713964
:103E500031034036DB0265339102D4305402802EA8
:103E60001D02632CEE01752AC501B028A0011027A0
:103E700081018F2564012B244B01E0223401AC2108
:103E80001F018D200D01801FFC00841EED00971D79
:103E9000DF00B81CD200E61BC600201BBC00641A61
:103EA000B200B219A8000A19A0006A189900D11727
:103EB000910040178B00B516840031167E00B315B3
:103EC00079003A157300C7146F0058146A00EE1396
:103ED00066008813630025135E00C7125B006C1236
:103EE000570015125400C111510070114F002111DB
:103EF0004B00D61049008D104700461044000210B8
:103F00004200C00F4000800F3E00420F3C00060FF1
:103F10003B00CB0E3800930E37005C0E3500270EA9
:103F20003400F30D3200C10D3100900D3000600DF2
:103F30002E00320D2D00050D2C00D90C2B00AE0CDF
:103F40002900850C29005C0C2700350C27000E0C7D
:103F50002600E80B2400C40B2400A00B23007D0BDB
:103F600023005A0B2100390B2100180B2000F80AFE
:103F70001F00D90A1E00BB0A1E009D0A1D00800AF0
:103F80001D00630A1C00470A1B002C0A1B00110AB3
:103F90001A00F7091A00DD091900C4091900AB0954
:103FA0001900920917007B091800630917004C09D2
:103FB000160036091600200916000A091500F50832
:103FC0001500E0081400CC081400B8081400A40878
:103FD0001400900813007D0812006B0813005808A5
:103FE00012004608120034081100230811001208BC
:103FF000110001081100F0071000E0071000D007C1
:104000001000C0071000B0070F00A10710009107B3
:104010000E0083070F0074070F0065070E00570797
:104020000E0049070E003B070D002E070E0020076B
:104030000D0013070D0006070D00F9060C00ED0634
:104040000D00E0060C00D4060C00C8060C00BC06EF
:104050000C00B0060C00A4060B0099060C008D069F
:104060000B0082060B0077060B006C060B00610646
:104070000A0057060B004C060A0042060A003806E2
:104080000A002E060A0024060A001A060A00100674
:10409000090007060A00FD050900F4050900EB0503
:1040A0000900E2050900D9050900D0050900C70586
:1040B0000900BE050900B5050800AD050800A50505
:1040C00009009C050800940508008C05080084057B
:1040D00008007C050800740508006C0507006505EC
:1040E00008005D050700560508004E050700470556
:1040F00007004005080038050700310507002A05BC
:104100000700230507001C050600160507000F051C
:1041100007000805060002050700FB040600F50479
:104120000700EE040600E8040600E2040700DB04D2
:104130000600D5040600CF040600C9040600C30427
:104140000600BD040600B7040600B1040500AC0477
:104150000600A6040600A00405009B0406009504C2
:104160000500900406008A0405008504050080040B
:1041700006007A04050075040500700405006B0450
:10418000050066040500610405005C040500570491
:104190000500520405004D040500480405004304D1
:1041A00005003E0404003A0405003504050030040F
:1041B00004002C04050027040400230405001E0449
:1041C00004001A04040016040500110404000D0480
:1041D0000400090405000404040000040400FC03B6
:1041E0000400F8030400F4030400F0030400EC03EB
:1041F0000400E8030400E4030400E0030400DC031B
:104200000400D8030400D4030400D0030400CC034A
:104210000400C8030300C503030024F404D9201BD1
:10422000C40C5C0E9804C4095F0265077101F405B3
:10423000F900FB04B30048048700C1036900580378
:10424000550003034500BE023A00840231005302C8
:104250002A002902250004022000E4011C00C801F4
:104260001900AF01170098011400840113007101B7
:1042700010006101100051010E0043010D003601D4
:104280000B002B010B0020010B00150109000C0194
:10429000090003010800FB000800F3000800EB0020
:1042A0000700E4000600DE000600D8000600D20089
:1042B0000600CC000500C7000500C2000500BD00D7
:1042C0000400B9000400B5000400B1000400AD0012
:1042D0000400A9000400A5000300A20003009F0041
:1042E00004009B0003009800030095000200930067
:1042F0000300900003008D0002008B000300880083
:1043000002008600020084000300810002007F009A
:1043100002007D0002007B000200790002007700AD
:1043200001007600020074000200720001007100BA
:1043300002006F0002006D0001006C0002006A00C4
:1043400001006900020067000100660001006500CD
:1043500001006400020062000100610001006000D1
:1043600001005F0002005D0001005C0001005B00D5
:1043700001005A00010059000100580001005700D7
:1043800001005600010055000100540001005300D7
:1043900000005300010052000100510001005000D4
:1043A00001004F0001004E0000004E0001004D00D2
:1043B00001004C0001004B0000004B0001004A00CE
:1043C00001004900010048000000480001004700CA
:1043D00001004600000046000100450000004500C5
:1043E00001004400010043000000430001004200BE
:1043F00000004200010041000000410001004000B7
:1044000001003F0000003F0001003E0000003E00B0
:1044100001003D0000003D0001003C0000003C00A8
:1044200000003C0001003B0000003B0001003A009E
:1044300000003A0001003900000039000100380096
:10444000000038000000380001003700000037008D
:104450000100360000003600000036000100350083
:104460000000350000003500010034000000340079
:10447000000034000100330000003300000033006E
:104480000100320000003200000032000100310063
:104490000000310000003100010030000000300059
:1044A0000000300001002F0000002F0000002F004E
:1044B00000002F0001002E0000002E0000002E0042
:1044C00001002D0000002D0000002D0000002D0037
:1044D00001002C0000002C0000002C0000002C002B
:1044E00001002B0000002B0000002B0000002B001F
:1044F00001002A0000002A0000002A0000002A0013
:104500000100290000002900000029000000290006
:1045100000002900010028000000280000002800F9
:1045200000002800000028000100270000002700EC
:1045300000002700000027000000270001002600DF
:1045400000002600000026000000260000002600D3
:1045500001002500000025000000250000002500C6
:1045600000002500000025000100240000002400B8
:1045700000002400000024000000240001002300AB
:10458000000023000000230000002300000023009F
:104590000000230000002300010022000000220090
:1045A0000000220000002200000022000000220083
:1045B0000100210000002100000021000000210076
:1045C0000000210000002100000021000100200067
:1045D000000020000000200000002000000020005B
:1045E00000002000000020000000200001001F004B
:1045F00000001F0000001F0000001F0000001F003F
:1046000000001F0000001F0001001E0000001E002F
:1046100000001E0000001E000000504944204175AB
:10462000746F74756E652066696E69736865642160
:104630002050757420746865206C617374204B7011
:104640002C204B6920616E64204B6420636F6E7375
:1046500074616E74732066726F6D2061626F76652F
:1046600020696E746F20436F6E666967757261743E
:10467000696F6E2E6800504944204175746F7475DF
:104680006E65206661696C6564212074696D656F73
:1046900075740020403A00543A00423A00504944B0
:1046A000204175746F74756E65206661696C656410
:1046B000212054656D706572617475726520746F28
:1046C0006F206869676800204B643A2000204B69BE
:1046D0003A2000204B703A200020436C61737369CC
:1046E000632050494420002054753A2000204B7527
:1046F0003A2000206D61783A2000206D696E3A20E2
:104700000020643A200020626961733A2000504919
:1047100044204175746F74756E6520737461727492
:1047200000504944204175746F74756E6520666150
:10473000696C65642E2042616420657874727564CA
:104740006572206E756D6265722E00544D4C202589
:104750006420256420257820256C7820256C780A33
:10476000004D494E54454D50004D494E54454D5015
:1047700020424544004D494E54454D5020414D4244
:10478000004D415854454D50004D415854454D50F1
:1047900020424544004D415854454D5020414D4222
:1047A00000544D3A206572726F7220636C656172BD
:1047B000656400544D3A206572726F72207472699C
:1047C0006767657265642100544845524D414C202D
:1047D000414E4F4D414C5900526573756D696E677E
:1047E000207072696E740050494E444120486561E2
:1047F00074696E670043616C6962726174696F6E9F
:1048000020646F6E650043616C6962726174696EE9
:1048100067205A0042656420646F6E6500426564DB
:104820002048656174696E670048656174696E67E8
:1048300020646F6E652E0048656174696E67004D77
:104840004D5520706F776572206661696C73004DFD
:104850004D55206C6F6164206661696C73004D4D2D
:1048600055206661696C73004D6174657269616C95
:10487000206368616E67657300546F74616C2066B5
:1048800061696C7572657300437261736800466993
:104890006C2E2072756E6F75747300506F77657231
:1048A000206661696C75726573004C617374207069
:1048B00072696E74206661696C7572657300546FFD
:1048C00074616C004C617374207072696E74004185
:1048D0006D6269656E7400566F6C74616765730014
:1048E00054656D7065726174757265730042656CB4
:1048F00074207374617475730053656E736F7220E6
:10490000696E666F00457874727564657220696EB1
:10491000666F0058595A2063616C2E20646574617B
:10492000696C73005072696E746572204950204141
:104930006464723A00756E6B6E6F776E004D4D5504
:1049400020636F6E6E656374656400446174653ADC
:1049500000746F20756E6C6F61642066696C616DA8
:10496000656E7400746F206C6F61642066696C61A1
:104970006D656E7400507265737320746865206B8A
:104980006E6F620050726568656174696E6720744D
:104990006F206375740050726568656174696E6735
:1049A00020746F20656A6563740050726568656184
:1049B00074696E6720746F20756E6C6F616400504F
:1049C000726568656174696E6720746F206C6F61D1
:1049D0006400436F6F6C646F776E00456A65637443
:1049E0000046696C616D656E7420657874727564DB
:1049F000696E672026207769746820636F7272651C
:104A0000637420636F6C6F723F004175746F6C6FDD
:104A10006164696E672066696C616D656E7420699A
:104A200073206163746976652C206A7573742070D5
:104A30007265737320746865206B6E6F6220616E9F
:104A40006420696E736572742066696C616D656E51
:104A5000742E2E2E005072696E742074696D65007C
:104A600046696C616D656E74207573656400546F82
:104A700074616C207072696E742074696D65005485
:104A80006F74616C2066696C616D656E7400507244
:104A9000656865617420746865206E6F7A7A6C65EC
:104AA00021004552524F523A005269676874004CD7
:104AB00065667400592064697374616E636520666D
:104AC000726F6D206D696E00536576657265207337
:104AD0006B657700536C6967687420736B6577004A
:104AE0004D6561737572656420736B6577005B302B
:104AF0003B305D20706F696E74206F6666736574FD
:104B00000041646A757374696E67205A005265616A
:104B1000722073696465205BE46D5D0046726F6EA0
:104B20007420736964655BE46D5D00526967687445
:104B300020736964655BE46D5D004C656674207389
:104B4000696465205BE46D5D005365742074656D78
:104B500070657261747572653A0050494E44412027
:104B600063616C6962726174696F6E206661696C01
:104B700065640050494E44412063616C6962726112
:104B800074696F6E2069732066696E697368656405
:104B900020616E64206163746976652E20497420FB
:104BA00063616E2062652064697361626C65642074
:104BB000696E206D656E752053657474696E6773D8
:104BC0002D3E50494E44412063616C2E004578745F
:104BD0007275646572004D6F7665205A004D6F7670
:104BE000652059004D6F76652058004372617368E7
:104BF00020646574656374696F6E2063616E0A6218
:104C000065207475726E6564206F6E206F6E6C79AE
:104C100020696E0A4E6F726D616C206D6F64650065
:104C20005741524E494E473A0A43726173682064B5
:104C30006574656374696F6E0A64697361626C653B
:104C40006420696E0A537465616C7468206D6F64CA
:104C500065004D6F6465206368616E676520696EED
:104C60002070726F67726573732E2E2E0053686505
:104C7000657420252E37730A5A206F666673657433
:104C80003A20252B312E33666D6D0A2563436F6EF6
:104C900074696E75650A2563526573657400506C9E
:104CA00065617365206C6F61642066696C616D6518
:104CB0006E742066697273742E0052756E6E696E22
:104CC000672057697A6172642077696C6C2064652B
:104CD0006C6574652063757272656E742063616CB7
:104CE0006962726174696F6E20726573756C74733A
:104CF00020616E642073746172742066726F6D201F
:104D000074686520626567696E6E696E672E005013
:104D1000726568656174696E67206E6F7A7A6C651A
:104D20002E20506C6561736520776169742E005088
:104D30006C6561736520696E736572742066696C59
:104D4000616D656E7420696E746F2074686520658E
:104D5000787472756465722C207468656E20707248
:104D600065737320746865206B6E6F6220746F20AA
:104D70006C6F61642069742E00506C6561736520EE
:104D8000696E736572742066696C616D656E7420FE
:104D9000696E746F2074686520666972737420741C
:104DA000756265206F6620746865204D4D552C2016
:104DB0007468656E20707265737320746865206B0B
:104DC0006E6F6220746F206C6F61642069742E00B6
:104DD0005A2063616C6962726174696F6E207265DA
:104DE000636F6D6D656E6465642E2052756E20690B
:104DF00074206E6F773F00546865207072696E741E
:104E000065722077696C6C207374617274207072A3
:104E1000696E74696E672061207A69672D7A6167AF
:104E2000206C696E652E20526F7461746520746801
:104E300065206B6E6F6220756E74696C20796F757A
:104E400020726561636820746865206F7074696D95
:104E5000616C206865696768742E20436865636BC0
:104E60002074686520706963747572657320696E5B
:104E7000207468652068616E64626F6F6B202843E0
:104E8000616C6962726174696F6E206368617074CD
:104E90006572292E0053656C6563742074656D70AE
:104EA00065726174757265207768696368206D61E9
:104EB000746368657320796F7572206D61746572B3
:104EC00069616C2E0053656C6563742061206669AE
:104ED0006C616D656E7420666F7220746865204623
:104EE00069727374204C617965722043616C6962E8
:104EF000726174696F6E20616E642073656C6563A6
:104F00007420697420696E20746865206F6E2D733B
:104F1000637265656E206D656E752E004E6F77202D
:104F2000492077696C6C2063616C69627261746599
:104F30002064697374616E6365206265747765656A
:104F40006E20746970206F6620746865206E6F7AB9
:104F50007A6C6520616E64206865617462656420A6
:104F6000737572666163652E00506C6561736520B0
:104F7000636865636B206F75722068616E64626F31
:104F80006F6B20616E64206669782074686520709C
:104F9000726F626C656D2E205468656E2072657349
:104FA000756D65207468652057697A617264206246
:104FB00079207265626F6F74696E6720746865200E
:104FC0007072696E7465722E00416C6C206973207A
:104FD000646F6E652E204861707079207072696E02
:104FE00074696E672100596F752063616E20616C72
:104FF0007761797320726573756D652074686520BB
:1050000057697A6172642066726F6D2043616C69C2
:1050100062726174696F6E202D3E2057697A6172E9
:10502000642E00496620796F75206861766520617D
:1050300064646974696F6E616C20737465656C205B
:105040007368656574732C2063616C696272617446
:105050006520746865697220707265736574732069
:10506000696E2053657474696E6773202D204857EC
:10507000205365747570202D20537465656C207302
:1050800068656574732E00506C6561736520636C90
:1050900065616E206865617462656420616E64207C
:1050A0007468656E20707265737320746865206B18
:1050B0006E6F622E00446F20796F752077616E7479
:1050C00020746F20726570656174206C6173742048
:1050D0007374657020746F20726561646A7573748F
:1050E0002064697374616E636520626574776565B9
:1050F0006E206E6F7A7A6C6520616E6420686561DF
:10510000746265643F0053656C656374206E6F7AEA
:105110007A6C6520707265686561742074656D7065
:1051200065726174757265207768696368206D6166
:10513000746368657320796F7572206D6174657230
:1051400069616C2E0049732066696C616D656E74CF
:10515000206C6F616465643F00546865726D616CBA
:10516000206D6F64656C2063616C2E2074616B65CB
:105170007320617070726F782E203132206D696EED
:10518000732E205365650A70727573612E696F2FD7
:10519000746D2D63616C004E6F7720492077696CC8
:1051A0006C2070726568656174206E6F7A7A6C65C8
:1051B00020666F7220504C412E00492077696C6C3C
:1051C0002072756E207A2063616C69627261746905
:1051D0006F6E206E6F772E004E6F772072656D6F49
:1051E0007665207468652074657374207072696ECA
:1051F000742066726F6D20737465656C20736865CA
:1052000065742E00506C656173652072656D6F76F4
:1052100065207368697070696E672068656C706579
:1052200072732066697273742E00492077696C6C02
:105230002072756E2078797A2063616C6962726180
:1052400074696F6E206E6F772E2049742077696CB9
:105250006C2074616B6520757020746F203234206F
:105260006D696E732E0046697273742C2049207725
:10527000696C6C2072756E207468652073656C664D
:105280007465737420746F20636865636B206D6F41
:10529000737420636F6D6D6F6E20617373656D62E3
:1052A0006C792070726F626C656D732E0048692C8A
:1052B000204920616D20796F7572204F726967698E
:1052C0006E616C2050727573612069332070726951
:1052D0006E7465722E20576F756C6420796F75201F
:1052E0006C696B65206D6520746F206775696465F6
:1052F00020796F75207468726F75676820746865AF
:105300002073657475702070726F636573733F00EE
:1053100048692C204920616D20796F7572204F7289
:105320006967696E616C2050727573612069332002
:105330007072696E7465722E20492077696C6C20DA
:10534000677569646520796F75207468726F756719
:105350006820612073686F727420736574757020A3
:1053600070726F636573732C20696E207768696350
:105370006820746865205A2D617869732077696C9C
:105380006C2062652063616C696272617465642E71
:10539000205468656E2C20796F752077696C6C20BD
:1053A000626520726561647920746F207072696E25
:1053B000742E00452D636F7272656374005A2D63FD
:1053C0006F727265637400592D636F7272656374D6
:1053D00000582D636F727265637400506175736558
:1053E00000465320416374696F6E00462E2061753C
:1053F000746F6C6F616400462E2072756E6F7574E9
:10540000004D4D55204D6F64650043757474657291
:105410000046616E207370656564004265640046F5
:10542000616E7320636865636B004D6F64656C002B
:105430004E6F7A7A6C6500544D3A206572726F72C5
:10544000207C25667C3E25660A0070012C019001B7
:105450002701B0012201C0011D01F0011801100255
:10546000130130020E016002090190020401C00222
:10547000FF000003FA004003F5008003F000D003B2
:10548000EB002004E6007004E100E004DC004005CD
:10549000D700C005D2004006CD00D006C800800766
:1054A000C3003008BE00F008B900C009B400B00A5B
:1054B000AF00B00BAA00D00CA500000EA000500F4A
:1054C0009B00C01096005012910000148C00C01573
:1054D0008700B0178200B0197D00D01B7800001E35
:1054E000730040206E0090226900F0246400402781
:1054F0005F0090295A00E02B5500102E50002030FC
:105500004B0010324600E033410090353C0010372C
:10551000370070383200A0392D00B03A2800A03B87
:105520002300603C1E00103D1900903D1400103E09
:105530000F00703E0A00C03E0500003F00009013BF
:105540007D00B0157800F0177300601A6E00F01C33
:105550006900A01F640050225F0020255A00E02748
:105560005500902A5000202D4B00A02F4600F0310E
:10557000410010343C00F0353700A03732002039AC
:105580002D00603A2800703B2300603C1E00203D47
:105590001900C03D1400403E0F00A03E0A00F03E3E
:1055A0000500403F0000703FFBFF903FF6FFB03F1B
:1055B000F1FFC03FECFFD03FE7FFE03FE2FFF03FED
:1055C000DDFFF03FD8FF20484F54454E442054485B
:1055D00045524D414C2052554E41574159002048AB
:1055E00045415442454420544845524D414C205277
:1055F000554E4157415900544845524D414C205257
:10560000554E415741590042454420544845524D5A
:10561000414C2052554E4157415900205448455263
:105620004D414C2052554E4157415920285052452A
:105630004845415420484F54454E44290020544881
:1056400045524D414C2052554E415741592028500A
:10565000524548454154204845415442454429005B
:1056600050524548454154204552524F5200424500
:10567000442050524548454154204552524F520013
:10568000207472696767657265642100486561749A
:10569000657273207377697463686564206F6666EA
:1056A0002E20003A20004572723A200000FF0102CD
:1056B000010002FFFFFE0001FE01FF00506C65616A
:1056C0007365207265737461727400544D3A206979
:1056D0006E76616C696420706172616D657465726B
:1056E000732C2063616E6E6F7420656E61626C65F1
:1056F00000255320204D3331302050252E32662096
:1057000055252E34662056252E32662043252E320E
:10571000662044252E3466204C257520532575209F
:105720004225752045252E32662057252E326620CB
:1057300054252E32660A00255320204D3331302067
:105740004925752052252E32660A00546865726D0F
:10575000616C204D6F64656C2073657474696E674D
:10576000733A000000A441333393419A9985413341
:105770003373419A996141CDCC544133334B419AB3
:1057800099414133333B41CDCC344100003041CDD0
:10579000CC2C419A99294166662641333323419A9C
:1057A000992141452D6D6F746F722063757272651A
:1057B0006E74207363616C696E6720656E61626CE4
:1057C000656400010808010A0A0114140112127428
:1057D0006D63323133305F686F6D655F656E746520
:1057E0007228617865735F6D61736B3D3078253029
:1057F0003278290A00746D63323133305F686F6D1F
:10580000655F6578697420746D63323133305F731E
:10581000675F686F6D696E675F617865735F6D6103
:10582000736B3D3078253032780A00544D43204464
:105830005249564552204F56455254454D50004806
:105840006F6C642063757272656E74207472756E0D
:10585000636174656420746F2052756E2063757285
:1058600072656E740025632533642F256481005AA8
:1058700025362E32662563005A2020202D2D2D201E
:1058800000862533642525002D2D2D252500253363
:1058900064252500205344002020200020484F008C
:1058A0002046524D2000872D2D3A2D2D2020008797
:1058B0002533756820256325630087253032753AC6
:1058C0002530327525632563002F2F616374696F5E
:1058D0006E3A706175736564002F2F616374696F30
:1058E0006E3A70617573650044756D70206D656DFD
:1058F0006F72790068656C702E70727573613364B5
:105900002E636F6D00666F72756D2E7072757361A8
:1059100033642E636F6D00707275736133642E6330
:105920006F6D004D3730310025533A0A2531382E3E
:1059300032666D200A25533A0A2531306C6468209E
:10594000253032646D2025303264730025533A0AC5
:105950002531382E32666D200A25533A0A2531301A
:105960006C646420253032646820253032646D0018
:1059700025362E32666D6D0025530A25530A2553B0
:105980003A0A25533A0025332E32668100252D31FF
:10599000342E3134533A0A25530A252D31342E3111
:1059A00034533A25332E3266810A252D31342E3177
:1059B00034533A25332E32668100202030002020D7
:1059C000310046494E44410050494E444100576918
:1059D0007A61726420656E642073746174653A2024
:1059E00025640A0053706F6F6C4A6F696E004669D8
:1059F000726D7761726500726573756C7420766183
:105A00006C75653A2025640A0020693D25326420C2
:105A1000636E743D2532642076616C3D2532640AE4
:105A200000636C7573746572733A0020693D2532AA
:105A30006420737465703D2532640A00736F72745C
:105A400065642073616D706C65733A005553415203
:105A500054322072782046756C6C212121003A2046
:105A600000252D31322E313253252D642F3600255D
:105A700033642F252D336400203A20002533530052
:105A8000252D377300252D31352E313553252D35F4
:105A9000640A252D31352E313553252D35640A0004
:105AA00025530A20252D31362E313653252D3364CA
:105AB0000A20252D31362E313653252D336400250D
:105AC000530A20252D31362E313653252D33640AC5
:105AD00020252D31362E313653252D33640A2025CD
