:100000000C944C3B0C947D3B0C947D3B0C947D3BC1
:100010000C947D3B0D943D990C947D3B0C94D457EE
:100020000C94F1570C947D3B0C947D3B0C947D3BE0
:100030000C942C4C0C947D3B0D9482260D940A203C
:100040000C947D3B0D9470370C947D3B0C947D3B60
:100050000C947D3B0C947D3B0C947D3B0C94DB56C7
:100060000C947D3B0D9462B50C947D3B0C947D3BD0
:100070000C947D3B0C947D700C947D3B0C947D3BEB
:100080000C947D3B0C947D3B0C947D3B0C947D3B10
:100090000D941EB50C947D3B0C947D3B0C947D3BE4
:1000A0000C947D3B0C947D3B0D94C8150C947D3BCA
:1000B0000C947D3B0D94AA150C947D3B0D94CC2B98
:1000C0000C947D3B0C947D3B0C947D3B0D946A1508
:1000D0000C947D3B0C947D3B0C947D3B0C947D3BC0
:1000E0000C947D3B084AD73B3BCE016E84BCBFFDE0
:1000F000C12F3D6C74319ABD56833DDA3D00C77FF8
:1001000011BED9E4BB4C3E916BAAAABE0000008090
:100110003F05A84CCDB2D44EB93836A9020C50B91F
:10012000918688083CA6AAAA2ABE000000803F0744
:10013000634236B79BD8A71A39685618AEBAAB5582
:100140008C1D3CB7CC5763BD6DEDFD753EF6177247
:1001500031BF000000803F08000000BE9224491219
:100160003EABAAAA2ABECDCCCC4C3E00000080BE3D
:10017000ABAAAAAA3E00000000BF000000803F001A
:1001800000000000084178D3BB4387D1133D190E0E
:100190003CC3BD4282AD2B3E68EC8276BED98FE176
:1001A000A93E4C80EFFFBE01C4FF7F3F000000006E
:1001B00000000C9465B40D94EF0B0C9477B40D947F
:1001C0009F460D9449050D94671A0D944F330C9476
:1001D0009FBC0D947E110D94C5070C9454F40C949F
:1001E000ABBC0C949DB40D94ED450C948BB60C9463
:1001F000A9F20C940CEE0C9446B40C9451F70D94A7
:10020000490E0C9474B10D94D77C0C94BAC30C9421
:10021000D6BB0C948EF80C9486B40D9449110D94B1
:1002200094460D945B0E0C9407EA0C94ADC30D94A8
:10023000840C0C94ABCA0C9474B60D94F7450D94D1
:10024000D4220C94FCC30C943DBB0D9499440C94A3
:10025000B8E90D9459060D94D6430D94A7460D9414
:100260006E060D9426090D946F0A0D94111D0D94C0
:1002700085110D94DC760D947B140D945A460D94E3
:1002800086060D9406440C94E6BB0D944A440C94E7
:10029000DA5A0C945AF30C9467B20C94E0C30C94A1
:1002A000B5C30D943F050D94761C0D946B1F0D94F2
:1002B000931F0D9466110C9478B10C94A5B10C9415
:1002C00083B10D942E370D94AE0A0C9415C40D9481
:1002D000890C0D94F51E0C9453BD0C946FB60D94BF
:1002E0000E0F0D947B440D94D3090C942E490D945C
:1002F00087320D94B3060D9469070C9480B10D9468
:10030000F0450D947A060C946EB10C9465B60D947C
:1003100071440C942BEA0C94BBB10C9437BD0C9433
:10032000E7B50C944FF10C94E6B80D94AF440C94DF
:100330000FB70D94FC430C94AEB10C94F2590C948D
:100340007EB60C942D570D945D460C9422EA0C94C5
:1003500047ED0C9425BD0D94C8450C9479B60C94CA
:100360001FBD0C9406B40C9482B60C948EEF0D94C1
:10037000BC060C9462BC0C9410EA0C94A9B10C94C9
:10038000C4560D94F7460D94D37C0C94F2C30C9490
:1003900095BA0C94D8C30D9491460D94DD050D9437
:1003A0004B1B0D949CAC0D947E0C0C9413EA0D9495
:1003B000BA060D94AF050C944CB20C94E4F10D9474
:1003C000BF440C9493BC0D949E050D9491060D941E
:1003D00077760D9460460C9496BC0C94AFE90C941F
:1003E00043570C94C4C30D94AB190D94AA000D94FB
:1003F00077110C941FC40D94F9040C94C8B80D9493
:1004000040440C9449B80C94A5F20C943BF20C9423
:10041000E2F00C947CB10D94A60A0D9473050C9433
:1004200089B10C94CEC30C9406C40C9493B10C9473
:1004300094EF0D94B7460D9434150C9497B10D9428
:10044000F5080D94EE4B0C945BB60C94ADF70D943F
:10045000AF460C942BBD0C94A1C80D949EAE0D9488
:10046000B47C0D946E7C0D94D07C0C94C7FC0C94E1
:10047000CBCA0C9429C40D94C00E0C9452B40C94A5
:1004800037EA0D94E3080D949D070D944D090C94E3
:1004900072BB0C9442BD0C94EBFF0C94AFB10D9465
:1004A0007D050D94BF0A0D94B9760D94960F0C94AA
:1004B00061B20D9499430C94A7B50D94C7460D9461
:1004C0005E760C9416EA0C9419EA0C946F570C940F
:1004D00053F10C943DC40C949CBC0C941F570C9489
:1004E000B7B10C9447C40C94D8400D94B0450C940B
:1004F00060B60D94CF460D94A24B0D940E440C940F
:100500006AB60C9463F70C94A2BC0D948B090D94FD
:10051000E07C0C9419BD0D9435080C9414570D947F
:1005200092000D9430460C942EEA0D9493110D9484
:10053000BF460C9451BD0C94B3B10D94D9760C9474
:100540008DB10D94D6510D9469050C94B6FC0D94A3
:100550007A1F0D9435050D94CB0C0C9433C40C9478
:10056000CAE90D945D050D94FA450D94D6760D9467
:10057000E7460C949BB10C9492B40C94FA560D94EB
:10058000E21E0C94BDFF0D9455060D94280A0C94A0
:100590004BB10C944C570D948E460C94A1B10D9414
:1005A00053050C9447BB0D94EF460D94D7460D941C
:1005B00062440D94381F0C944BFF0D9477440D94B6
:1005C000DF460D94E57C0D9487050C9499BC0D9441
:1005D00097460D94E3440C94E8C30C9481570C9413
:1005E00021B50D94520E0D948C116E616E00696EE2
:1005F000660000407A10F35A00A0724E18090010ED
:10060000A5D4E80000E87648170000E40B54020087
:1006100000CA9A3B000000E1F505000080969800B2
:10062000000040420F000000A086010000001027DB
:1006300000000000E803000000006400000000006B
:100640000A00000000000100000000002C76D8889D
:10065000DC674F0823DFC1DFAE59E1B1B796E5E3B0
:10066000E453C63AE651997696E8E6C28426EB89C9
:100670008C9B62ED407C6FFCEFBC9C9F40F2BAA566
:100680006FA5F490055A2AF75C936B6CF9676DC1FE
:100690001BFCE0E40D47FEF520E6B500D0ED902E02
:1006A0000300943577050080841E080000204E0A60
:1006B000000000C80C333333330F986E128311419E
:1006C000EF8D2114893BE65516CFFEE6DB18D18469
:1006D0004B381BF77C1D901DA4BBE4242032847290
:1006E0005E228100C9F124ECA1E53D272200656E60
:1006F000717565696E67202200446F6E65207072A7
:10070000696E74696E672066696C65004E6F204C77
:10071000696E65204E756D62657220776974682018
:10072000636865636B73756D2C204C617374204C2A
:10073000696E653A20004E6F20436865636B737580
:100740006D2077697468206C696E65206E756D62C6
:1007500065722C204C617374204C696E653A2000E0
:10076000636865636B73756D206D69736D61746328
:10077000682C204C617374204C696E653A20004CE3
:10078000696E65204E756D626572206973206E6FAB
:1007900074204C617374204C696E65204E756D62D7
:1007A00065722B312C204C617374204C696E653A54
:1007B0002000256C752062797465732077726974E6
:1007C00074656E20746F2025532061742061646409
:1007D000726573732030782530346C780A004425B4
:1007E00064202D20526561642F577269746520253D
:1007F000530A0020436F756E7420583A200045302C
:100800003A25642052504D2050524E313A256420F2
:1008100052504D204530403A25752050524E3140BF
:100820003A25750A00526573656E640025533A20B7
:10083000256C640A25530A002F2F616374696F6E5B
:100840003A6E6F74696669636174696F6E202553CF
:100850000A0046696C616D656E742072756E6F7505
:100860007420646574656374656421005072696EF8
:100870007465722073746F70706564206475652090
:10088000746F206572726F72732E2053757065726B
:10089000766973696F6E2072657175697265642E11
:1008A0000064756D7020636C65617265640A006E2A
:1008B0006F2064756D7020617661696C61626C6532
:1008C0000A00443231202D20726561642063726118
:1008D00073682064756D700A006E6F2064756D70AA
:1008E00020617661696C61626C650A0064756D7087
:1008F00020636F6D706C6574656420696E20256C73
:10090000756D730A0058464C415348004545505296
:100910004F4D005352414D00442D31202D20456E46
:10092000646C657373206C6F6F700A004163746947
:1009300076652045787472756465723A2030004996
:100940006E76616C69642065787472756465720096
:10095000746D63323133305F7072696E745F6375CA
:100960007272656E747328290A094809520A580977
:1009700025640925640A590925640925640A5A0968
:1009800025640925640A450925640925640A00537C
:1009900044207072696E74696E6720627974652094
:1009A00000257500556E6B6E6F776E20636F6D6DF1
:1009B000616E643A2022004D32303020496E7661FB
:1009C0006C696420657874727564657220007A5F62
:1009D0006D61783A20007A5F6D696E3A2000795F28
:1009E0006D61783A2000795F6D696E3A2000785F1A
:1009F0006D61783A200054524947474552454400BA
:100A00006F70656E00785F6D696E3A200052657098
:100A10006F7274696E6720656E6473746F70207393
:100A20007461747573004D3131322063616C6C6593
:100A3000642E20456D657267656E63792053746F0F
:100A4000702E002F2F616374696F6E3A75766C6F2C
:100A50005F7265636F766572795F72656164790054
:100A60002F2F616374696F6E3A75766C6F5F617575
:100A7000746F5F7265636F766572795F72656164CA
:100A8000790025533A256C7520636D0A25533A2564
:100A90006C75206D696E0A0053494C454E54004EEA
:100AA0004F524D414C002553204D4F44453A205064
:100AB000657263656E7420646F6E653A20256868A0
:100AC000643B207072696E742074696D6520726574
:100AD0006D61696E696E6720696E206D696E733A2B
:100AE0002025643B204368616E676520696E206D38
:100AF000696E733A2025640A005072696E746572DB
:100B000053746174653A2025640A00456E6420665A
:100B1000696C65206C69737400426567696E206654
:100B2000696C65206C69737400556E6B6E6F776EBF
:100B300020256320636F64653A2025730A000A50FC
:100B4000494E44412074656D7065726174757265BB
:100B50003A20252E3166205A207368696674202851
:100B60006D6D293A20252E3366000A537465703A5C
:100B70002025642F360A000A537465703A202564D4
:100B80002F362028736B6970706564290A50494EAE
:100B900044412074656D70657261747572653A20A8
:100BA0002564205A20736869667420286D6D293A7F
:100BB000300A000A5A45524F3A20252E33660A0061
:100BC00073746172742074656D706572617475728E
:100BD000653A20252E31660A0025642020252E3214
:100BE0006600255320583A20252E356620593A2094
:100BF000252E3566205A3A20252E35660A00536C7C
:100C00006565702E2E2E0045303A25642052504DD9
:100C10000A50524E303A25642052504D0A000020AE
:100C200045535000204E535000204F464600204F61
:100C30004E005056303100205B4D505D200025693C
:100C400020686F757273202569206D696E757465F3
:100C5000730052582074696D656F7574004D33319F
:100C600030004D313132004D3131300046756C6C01
:100C70002052582042756666657200536574746927
:100C80006E67732053746F72656400544D3A20731D
:100C9000746F7265642063616C6962726174696FFC
:100CA0006E20696E76616C69642C20726573657460
:100CB00074696E670053746F726564207365747431
:100CC000696E677320726574726965766564004841
:100CD000617264636F6465642044656661756C74F9
:100CE0002053657474696E6773204C6F616465642A
:100CF00000563200000000C8420000C8420000C890
:100D00004300008C4300004843000048430000407B
:100D1000410000F042E8030000E8030000C80000C2
:100D2000008813000000409C4400409C44000000E8
:100D30000000000000204E000000002041000020C4
:100D400041CDCCCC3E0000904000000000000000EF
:100D50000000000000CDCCCC3E000070410745F300
:100D60003E0160EA428F42FC42E65A343F4C62B098
:100D70004500000000004040000034420000000038
:100D80000000000000000041000000E03F0000C83B
:100D9000420000C842000040410000F042C0030091
:100DA00000C0030000C800000088130000101010ED
:100DB0002000409C440000803F0000003F191400C8
:100DC0000000437573746F6D004E796C6F6E504107
:100DD00000536174696E2020005465787475720048
:100DE000536D6F6F746800486F74656E6420666140
:100DF0006E207370656564206973206C6F7765720F
:100E0000207468616E206578706563746564005055
:100E100072696E742066616E207370656564206906
:100E200073206C6F776572207468616E20657870CE
:100E3000656374656400312E3000312E3500554EE7
:100E40004B4E4F574E004C413130433A204C696E67
:100E500065617220416476616E6365206D6F6465C3
:100E60003A20004C413130433A2041646A75737432
:100E7000656420452D4A65726B3A20003E0FA8AF8D
:100E800000480069960000DF6025555887680427F0
:100E9000F2E0005E3403CC1960F33C0EF88F00DB07
:100EA00008029492003E1C079A8700E524008528DA
:100EB000527E06001BE4007E781270787061F81292
:100EC000788F884178427078706178257078706189
:100ED000F850788F88D1F02527078761F025278F74
:100EE00088412C0D27AA50D1BC0707871161BE7815
:100EF0008F881141785270787061F852788F8841EC
:100F000020127888706320527888706348527888FD
:100F10008743031117997064181278F870654412AA
:100F2000F8F8F045184278F87065182578F870657B
:100F3000185278F87065185078F870650C078F872C
:100F40002365A20F8F8F11450012062270690012CF
:100F50000722274900250622706900250722274914
:100F600000120622276C026236A2706C40456C4467
:100F7000704C03622222706C43888888F04C78128F
:100F8000BC88806E7852BC88806E38127888706F0A
:100F900078127888874F38427888706F382578883B
:100FA000706F3A0079AC786F3D079AAC786F7850E3
:100FB000788887EF39497888706F0852BC888072CA
:100FC0009852F88F985220127870F0734812786314
:100FD000875320527870F073485278638753100714
:100FE000870F247312786387245360699A988BE281
:100FF0002304E4443074104E444324747C128889E2
:1010000060753C50888870557825288960757949C5
:10101000088960753C12887070790C1288522259C8
:101020004412F124F07A4452F124F07A8C52F036D2
:101030008F5A4420F124F07A00401454CDCCCC3D9A
:101040000AD7233C17B7D13877CC2B329595E624B5
:101050001FB14F0A000020410000C84200401C465A
:1010600020BCBE4CCA1B0E5AAEC59D744E414E49A3
:101070004E46437261736820646574656374656489
:101080002E00536F6D652070726F626C656D206508
:101090006E636F756E74657265642C205A2D6C6575
:1010A00076656C696E6720656E666F726365642035
:1010B0002E2E2E004D65736820626564206C657667
:1010C000656C696E67206661696C65642E2050727C
:1010D000696E742063616E63656C65642E0048659B
:1010E0006174696E672064697361626C6564206213
:1010F00079207361666574792074696D65722E005C
:1011000053544F505045442E0050415553454420B0
:10111000544845524D414C204552524F5200472DA4
:10112000636F646520736C6963656420666F722009
:101130006120646966666572656E74206C657665AB
:101140006C2E20506C656173652072652D736C691F
:10115000636520746865206D6F64656C20616761EC
:10116000696E2E00472D636F646520736C6963653B
:101170006420666F72206120646966666572656EC0
:1011800074206C6576656C2E00472D636F64652056
:10119000736C6963656420666F722061206E657789
:1011A0006572206669726D776172652E20506C657C
:1011B000617365207570646174652074686520666C
:1011C00069726D776172652E00472D636F646520CB
:1011D000736C6963656420666F722061206E657749
:1011E0006572206669726D776172652E00472D63A6
:1011F0006F646520736C6963656420666F7220613B
:1012000020646966666572656E74207072696E74BA
:10121000657220747970652E20506C65617365204D
:1012200072652D736C69636520746865206D6F64E9
:10123000656C20616761696E2E00472D636F646580
:1012400020736C6963656420666F72206120646935
:1012500066666572656E74207072696E7465722060
:10126000747970652E005072657373207468652000
:101270006B6E6F6220746F20707265686561742098
:101280006E6F7A7A6C6520616E6420636F6E74692C
:101290006E75652E00506C656173652070726573A4
:1012A0007320746865206B6E6F6220746F20756E9A
:1012B0006C6F61642066696C616D656E7400616E4F
:1012C0006420707265737320746865206B6E6F6242
:1012D00000496E736572742066696C616D656E7429
:1012E00000436F6C6F72206E6F7420636F72726553
:1012F00063740046696C616D656E74206E6F742056
:101300006C6F61646564004368616E676564206347
:101310006F72726563746C79004C6F6164696E679B
:1013200020636F6C6F72004368616E676520737530
:1013300063636573732100506C65617365206F7022
:10134000656E2069646C657220616E642072656DE3
:101350006F76652066696C616D656E74206D616E77
:1013600075616C6C792E005761732066696C616DD4
:10137000656E7420756E6C6F616420737563636550
:10138000737366756C3F00506C6561736520757092
:1013900067726164652E004E6577206669726D77AD
:1013A0006172652076657273696F6E20617661691E
:1013B0006C61626C653A0057616974696E6720669A
:1013C0006F722050494E44412070726F62652063F5
:1013D0006F6F6C696E6700506C6561736520776133
:1013E0006974004E6F206D6F76652E0057616974C9
:1013F00020666F7220757365722E2E2E00537461F5
:10140000626C6520616D6269656E742074656D70D3
:10141000657261747572652032312D3236432069F0
:1014200073206E6565646564206120726967696414
:10143000207374616E6420697320726571756972BE
:1014400065642E00506C656173652072756E20585E
:10145000595A2063616C6962726174696F6E2066AB
:10146000697273742E00627573793A2070617573B6
:10147000656420666F7220696E70757400627573A2
:10148000793A2070617573656420666F7220757398
:10149000657200627573793A2070726F6365737359
:1014A000696E670000007F43008054430000524390
:1014B00000000000000080C09A99193E0000000062
:1014C000000080C09A99193E0000A0400000A04092
:1014D0000000004025336420737465703D2532643C
:1014E000206D73636E743D2534640A0000007F43F1
:1014F000008058439AD95143FFFFFF20413A002012
:10150000503A002042403A0020403A00202F00206C
:1015100054303A00202F0020423A00202F00543A45
:101520000025534578636573736976652062656449
:10153000206C6576656C696E6720636F7272656397
:1015400074696F6E3A202569206D6963726F6E73DE
:101550000A00426564206C6576656C696E6720667A
:1015600061696C65642E20546F6F206D756368200F
:10157000766172696174696F6E2066726F6D206545
:101580006570726F6D206D65736800426564206CD4
:101590006576656C696E67206661696C65642E208E
:1015A00053656E736F7220747269676765726564E4
:1015B00020746F6F20736F6F6E002020004D656187
:1015C000737572656420706F696E74733A005A2087
:1015D000736561726368206865696768743A20356D
:1015E0002E3066004E756D20582C593A20372C3716
:1015F000004D65736820626564206C6576656C6972
:101600006E67206E6F74206163746976652E0020AA
:10161000453A00205A3A0020593A0020453A002025
:101620005A3A0020593A00583A00202D3E200053E3
:10163000706F6F6C4A6F696E3A20002C20006673E1
:10164000656E736F722076302E3420696E2066616D
:10165000756C742072616E676520342E362D355698
:10166000202D20756E636F6E6E6563746564006611
:1016700073656E736F7220696E20666F7262696443
:1016800064656E2072616E676520312E352D33568C
:10169000202D20636865636B2073656E736F720025
:1016A000496E6163746976697479205368757464EE
:1016B0006F776E004B494C4C45442E005072696E5A
:1016C0007465722068616C7465642E206B696C6C43
:1016D00028292063616C6C656421005A206C69764E
:1016E000652061646A757374206F7574206F66205D
:1016F00072616E67652E2053657474696E6720741D
:101700006F20302E20436C69636B20746F20636FF1
:101710006E74696E75652E005A206C69766520615D
:10172000646A757374206F7574206F662072616EC1
:1017300067652E2053657474696E6720746F20305E
:101740000020453A3020423A00543A004731205AAE
:10175000252D2E33662046252D2E336600496E76C4
:10176000616C6964205420636F64652E0044757059
:101770006C696361746520542D636F6465206967CB
:101780006E6F7265642E00416476616E6365204BF6
:101790003D004B206F7574206F6620616C6C6F7715
:1017A00065642072616E676521004D4B3353004DB7
:1017B0004B33534D4D5533005E762E012533642F48
:1017C0002533640025336400200A200A200A200003
:1017D0002553537461746973746963733A0A2553AA
:1017E00020204D37382053256C752054256C750A00
:1017F0000025534172632053657474696E67733AB0
:1018000020503A4D6178206C656E677468286D6D64
:101810002920533A4D696E206C656E6774682028E4
:101820006D6D29204E3A436F7272656374696F6EF5
:101830007320523A4D696E207365676D656E7473DF
:1018400020463A5365676D656E74732F7365632E1A
:101850000A255320204D3231342050252E32662067
:1018600053252E3266204E256420522564204625BD
:10187000640A00255346696C616D656E742073655A
:101880007474696E67733A2044697361626C65644D
:101890000A00255346696C616D656E74207365742A
:1018A00074696E67733A0A25532020204D32303018
:1018B0002044252E32660A002553526574726163F6
:1018C000743A20533D4C656E67746820286D6D290D
:1018D00020463A537065656420286D6D2F6D292070
:1018E0005A3A205A4C69667420286D6D290A25538E
:1018F0002020204D3230372053252E3266204625B9
:101900002E3266205A252E32660A25535265636FA1
:101910007665723A20533D4578747261206C656E2D
:1019200067746820286D6D2920463A537065656498
:1019300020286D6D2F6D290A25532020204D32302F
:10194000382053252E32662046252E32660A25532E
:101950004175746F2D526574726163743A20533D02
:101960003020746F2064697361626C652C203120B3
:10197000746F20696E746572707265742065787416
:10198000727564652D6F6E6C79206D6F766573204E
:101990006173207265747261637473206F72207258
:1019A00065636F7665726965730A25532020204D43
:1019B000323039205325640A0025535049442068A9
:1019C0006561746265642073657474696E67733AE7
:1019D0000A25532020204D3330342050252E3266E6
:1019E0002049252E32662044252E32660A002553D2
:1019F0005049442073657474696E67733A0A2553BD
:101A00002020204D3330312050252E3266204925AC
:101A10002E32662044252E32660A00255353746503
:101A200070732070657220756E69743A0A255320B0
:101A3000204D39322058252E32662059252E326607
:101A4000205A252E32662045252E32660A2553550A
:101A500053746570207265736F6C7574696F6E3A3C
:101A6000200A2553204D3335302058256420592530
:101A700064205A2564204525640A25534D61786900
:101A80006D756D20666565647261746573202D20C7
:101A90006E6F726D616C20286D6D2F73293A0A2567
:101AA0005320204D3230332058252E3266205925C0
:101AB0002E3266205A252E32662045252E32660AA1
:101AC00025534D6178696D756D2066656564726139
:101AD000746573202D20737465616C746820286DA3
:101AE0006D2F73293A0A255320204D323033205868
:101AF000252E32662059252E3266205A252E326632
:101B00002045252E32660A25534D6178696D756D25
:101B100020616363656C65726174696F6E202D204E
:101B20006E6F726D616C20286D6D2F7332293A0AC9
:101B3000255320204D3230312058256C75205925F1
:101B40006C75205A256C752045256C750A25534DFA
:101B50006178696D756D20616363656C6572617430
:101B6000696F6E202D20737465616C746820286D18
:101B70006D2F7332293A0A255320204D32303120FF
:101B800058256C752059256C75205A256C75204593
:101B9000256C750A2553416363656C6572617469D0
:101BA0006F6E3A20503D7072696E742C20523D72F7
:101BB0006574726163742C20543D74726176656C37
:101BC0000A255320204D3230342050252E326620F5
:101BD00052252E32662054252E32660A2553416442
:101BE00076616E636564207661726961626C6573AB
:101BF0003A20533D4D696E20666565647261746577
:101C000020286D6D2F73292C20543D4D696E207452
:101C1000726176656C206665656472617465202802
:101C20006D6D2F73292C20423D6D696E696D756D48
:101C3000207365676D656E742074696D6520287505
:101C400073292C20583D6D6178696D756D20585948
:101C5000206A65726B20286D6D2F73292C20205A05
:101C60003D6D6178696D756D205A206A65726B20D3
:101C7000286D6D2F73292C2020453D6D6178696D8D
:101C8000756D2045206A65726B20286D6D2F732954
:101C90000A255320204D3230352053252E32662020
:101CA00054252E32662042256C752058252E32662A
:101CB0002059252E3266205A252E32662045252EA3
:101CC00032660A2553486F6D65206F6666736574CA
:101CD00020286D6D293A0A255320204D32303620B8
:101CE00058252E32662059252E3266205A252E324E
:101CF000660A00544D3A20525B25755D2065737469
:101D0000696D6174652E00544D3A20255320522090
:101D100025644300544D3A202553204320657374B5
:101D20002E00544D3A20636F6F6C20646F776E20E5
:101D30003C25644300726566696E6500696E69746E
:101D400069616C00544D3A2063616C6962722E20A7
:101D50006661696C65642100544D3A2063616C6969
:101D600062726174696F6E20737461727400544D95
:101D70003A2043616C2E204E4F542049444C45007C
:101D80004361703A25533A25630A00505255534136
:101D90005F4D4D553200455854454E4445445F4DC6
:101DA0003230004155544F5245504F52545F504FBE
:101DB000534954494F4E004155544F5245504F528C
:101DC000545F46414E53004155544F5245504F5277
:101DD000545F54454D50000044656C6574696F6EE6
:101DE000206661696C65642C2046696C653A200048
:101DF00046696C652064656C657465643A004E6F75
:101E000074205344207072696E74696E670050725A
:101E1000696E742073617665640053442070726942
:101E20006E7420706175736564002533642F2533EB
:101E300064004F4B004241440052414D426F2046E6
:101E4000414E20006676007468780050524E004380
:101E5000524153485F43414E43454C004352415326
:101E6000485F5245434F5645520043524153485FE5
:101E70005245434F56455200222832290025533AF5
:101E80002025530A002C204D393037204520696722
:101E90006E6F726564006E6F2076616C696420639A
:101EA0006F6D6D616E64007A65726F72697A6564D8
:101EB00000666163746F727920726573746F726506
:101EC0006400696E6465782C2074656D702C2075D3
:101ED000737465702C20756D0050494E4441206329
:101EE000616C207374617475733A2000503A005726
:101EF00061697420666F722050494E4441207461BC
:101F0000726765742074656D706572617475726551
:101F10003A00204100205000204200204C00205276
:101F200000205A00204E4F5420494E495449414CFC
:101F3000495A45440053686565742000205A20566C
:101F4000414C5545204F5554204F462052414E4755
:101F50004500496E76616C6964207368656574201C
:101F600049442E20416C6C6F7765643A20302E2EE8
:101F7000004155544F004C414E472053454C20469C
:101F80004F52434544004D323536204225642044AB
:101F9000256420532564205425750A0020643A00E6
:101FA00020693A0020703A0020643A0020693A0023
:101FB00020703A00256925250A00256925250A0093
:101FC00022283129002F2F00002045585452554413
:101FD00045525F434F554E543A3100204D414348DE
:101FE000494E455F545950453A00312E3000206229
:101FF00061736564206F6E204D61726C696E20465E
:1020000049524D574152455F55524C3A687474706D
:10201000733A2F2F6769746875622E636F6D2F7026
:102020007275736133642F50727573612D466972D6
:102030006D776172652050524F544F434F4C5F563D
:10204000455253494F4E3A006633653064666434F6
:1020500038005F0038323834002B004649524D5763
:102060004152455F4E414D453A50727573612D4660
:1020700069726D7761726520004D313133205300F4
:102080006F6B20006E2F61003F546F73686962614F
:1020900020466C617368416972204765744950201D
:1020A0006661696C65640A00000125311D0C4024DD
:1020B000301C0B45232F1B0A17FF0406222B1A0383
:1020C000363735382569206D696E2C2025692073D7
:1020D000656300496E76616C6964204D20636F64AE
:1020E000653A2025730A0050494E44412070726FB2
:1020F00062652063616C6962726174696F6E2073DE
:1021000074617274004E6F2050494E4441207468CF
:1021100065726D6973746F7200736574006E6F7AA7
:102120007A6C65004D424C004652004C7A004C617E
:102130006E6700315F37356D6D5F4D4B33532D4505
:10214000494E53795F3130612D4533445245564FE6
:102150005F48465F3630570052657600332E313483
:102160002E312D383238340046697200534E2069C2
:102170006E76616C696400534E00524553455400BD
:102180004D4D555245530075766C6F0046414E00DB
:1021900046414E50494E54535400505255534100FD
:1021A0005345545F43484F505F005345545F535469
:1021B00045505F005345545F574156455F00544DAD
:1021C000435F0043524153485F43414E43454C00F7
:1021D00043524153485F5245434F56455200435284
:1021E0004153485F4445544543544544004352419C
:1021F00053485F004D31303453300047315831304F
:102200005931383046343030300047315A31304659
:1022100031333030004D3134305330004731452DAB
:10222000302E3037354632313030004D3230345375
:10223000313030300047315A354637323030004780
:1022400031452D312E35463231303000473930009E
:102250004D3130370048426564206F6E206C6F61ED
:102260006400466C61736841697200546865726D00
:10227000616C204D6F64656C2063616C2E0045724B
:10228000723A5052494E542046414E204552524FC8
:1022900052004572723A484F54454E442046414ED2
:1022A000204552524F52002F2F616374696F6E3A6E
:1022B000726573756D6564002F2F616374696F6E4D
:1022C0003A726573756D65002F2F616374696F6E67
:1022D0003A7265616479002F2F616374696F6E3A99
:1022E0006E6F745F7265616479002F2F616374692A
:1022F0006F6E3A63616E63656C004D3834004178EF
:102300006973206C656E67746820646966666572BF
:10231000656E63653A252E33660A004D65617375F7
:102320007265642061786973206C656E6774683AC1
:10233000252E33660A004F4B004C434420737461D2
:10234000747573206368616E67656400534420632D
:102350006172642072656C65617365640046616BCF
:10236000652073657269616C206E756D62657200BF
:10237000452D636F6F6C206D6F646500414C544652
:10238000414E206465742E002F2F616374696F6E57
:102390003A737461727400473931004D373032003E
:1023A0004D3833004732382057004D353030004526
:1023B000787465726E616C2053504920666C61734D
:1023C000680A58464C415348206973206E6F742048
:1023D0007265732D0A706F6E64696E672E204C6192
:1023E0006E67756167650A73776974636820756ED7
:1023F000617661696C61626C652E0058464C415390
:1024000048206E6F7420726573706F6E64696E67BA
:102410002E0046572063726173682064657465639B
:102420007465642120596F752063616E20636F6E3F
:1024300074696E7565207072696E74696E672E209E
:102440004465627567206461746120617661696CBE
:1024500061626C6520666F7220616E616C79736970
:10246000732E20436F6E7461637420737570706F88
:10247000727420746F207375626D69742064657462
:1024800061696C732E002F2F616374696F6E3A64FB
:10249000756D705F617661696C61626C6500437235
:1024A0006173684465746563742044495341424CC8
:1024B00045440043726173684465746563742045E4
:1024C0004E41424C45442100486F74656E6420665D
:1024D000616E20747970653A20002020506C616E26
:1024E0006E657242756666657242797465733A20EC
:1024F000002046726565204D656D6F72793A200047
:10250000207C20417574686F723A2000204C617302
:102510007420557064617465643A200020536F66BE
:102520007477617265205265736574002057617419
:102530006368646F67205265736574002042726F30
:10254000776E206F7574205265736574002045782E
:102550007465726E616C20526573657400506F779C
:1025600065725570006572726F7220777269746956
:102570006E6720746F2066696C6500446F6E65201D
:10258000736176696E672066696C652E006F6B00FB
:1025900046696C616D656E74004D65617375726539
:1025A0006420736B6577733A2025662025660A00E0
:1025B00046697474696E67206661696C6564203D64
:1025C0003E2063616C6962726174696F6E2066613E
:1025D000696C65642E0A0043616C6962726174699A
:1025E0006F6E20737563636573732E0A00416C6CA4
:1025F00020342063616C6962726174696F6E20704F
:102600006F696E747320666F756E642E0A00312FC9
:102610003400312F3400312F390047315A302E32F7
:10262000004731583230322E35453846313430305B
:10263000004731592D324631303030004731583261
:10264000343045323546323230300047315A302E40
:102650003346313030300047315835354538463211
:102660003030300047315835453239463138303016
:102670000047315835354532394631303733004718
:102680003932453000473238004D313039004D3154
:102690003930001000C90210012C014001220170E4
:1026A000011801B0010E01F00104015002FA00B05E
:1026B00002F0003003E600D003DC009004D200708A
:1026C00005C800A006BE000008B400B009AA00D0EA
:1026D0000BA000600E960060118C00001582002097
:1026E000197800C01D6E00A0226400B0275A009027
:1026F0002C500000314600E0343C0010383200908D
:102700003A2800603C1E00A03D1400803E0A0020D4
:102710003F000058595A2063616C696272617469A4
:102720006F6E20616C6C2072696768742E20536B29
:1027300065772077696C6C20626520636F727265C3
:1027400063746564206175746F6D61746963616C35
:102750006C792E0058595A2063616C6962726174F9
:10276000696F6E20616C6C2072696768742E2058E6
:102770002F5920617865732061726520736C6967D9
:1027800068746C7920736B657765642E20476F6F72
:1027900064206A6F62210058595A2063616C696233
:1027A000726174696F6E206F6B2E20582F592061F3
:1027B000786573206172652070657270656E6469FA
:1027C00063756C61722E20436F6E67726174756CF5
:1027D0006174696F6E732100436865636B730041B8
:1027E0006C7068616265740054696D6500536F7246
:1027F0007400534420636172640052506920706F0A
:102800007274004C696E2E20636F72726563746916
:102810006F6E004E6F7A7A6C65206368616E6765D3
:10282000004857205365747570004C6F6164696E81
:102830006720546573740044697361626C6520732A
:1028400074657070657273004D6F7665206178698C
:10285000730054656D7065726174757265005049DE
:102860004E44412063616C2E00526573657420589C
:10287000595A2063616C6962722E0050494420638A
:10288000616C6962726174696F6E00426564206C8C
:102890006576656C20636F7272656374004D657355
:1028A0006820426564204C6576656C696E670043FC
:1028B000616C696272617465205A0043616C69627F
:1028C000726174652058595A0053656C667465735B
:1028D000740042656C7420746573740057697A6182
:1028E0007264004C6F616420416C6C00506C6561D7
:1028F00073652070756C6C206F75742066696C61EF
:102900006D656E7420696D6D6564696174656C795F
:102910000052657365740052656E616D65004669AD
:10292000727374206C617965722063616C2E005340
:10293000656C65637400537465656C2073686565C8
:10294000747300537570706F7274004661696C2007
:102950007374617473204D4D55004661696C20732A
:102960007461747300537461746973746963730080
:1029700043616C6962726174696F6E004175746F56
:102980004C6F61642066696C616D656E74004C6F9C
:1029900061642066696C616D656E7400556E6C6F64
:1029A00061642066696C616D656E74004C6F616472
:1029B00020746F206E6F7A7A6C65005072656C6F50
:1029C000616420746F204D4D55004E6F7A7A6C65AE
:1029D00020642E004E6F20534420636172640050C7
:1029E00072696E742066726F6D20534400436C658B
:1029F000617220544D206572726F7200526573755A
:102A00006D65207072696E74005061757365207019
:102A100072696E7400536574205265616479005365
:102A20006574206E6F742052656164790050726520
:102A3000686561740054756E65004C697665206147
:102A4000646A757374205A0052657072696E7400FE
:102A5000496E666F2073637265656E0042726967C6
:102A600068746E657373004173736973740053699E
:102A70006C656E74004F6E6365004C6F7564005337
:102A80006F756E640046696C2E2073656E736F728D
:102A9000004368616E67652066696C616D656E7480
:102AA00000466C6F77005370656564004E2F4100DF
:102AB0004D61676E65747320636F6D702E005A2DC3
:102AC00070726F6265206E722E004D6573680044EF
:102AD000696D00427269676874004175746F0054D3
:102AE000696D656F7574004C6576656C2044696D21
:102AF0006D6564004C6576656C2042726967687428
:102B00000053657474696E677300596573004E6F86
:102B10000053746F70207072696E7400436865634F
:102B20006B696E672066696C650046696C65206933
:102B30006E636F6D706C6574652E0084526566728D
:102B4000657368004D61696E00496E73657274202B
:102B50007468652066696C616D656E742028646FA9
:102B6000206E6F74206C6F61642069742920696E17
:102B7000746F20746865206578747275646572205E
:102B8000616E64207468656E207072657373207462
:102B90006865206B6E6F622E0053656E736F7220D6
:102BA00076657269666965642C2072656D6F7665FD
:102BB000207468652066696C616D656E74206E6F47
:102BC000772E00566572696669636174696F6E205D
:102BD0006661696C65642C2072656D6F7665207422
:102BE00068652066696C616D656E7420616E642035
:102BF00074727920616761696E2E00506C65617333
:102C00006520636865636B20746865204952207392
:102C1000656E736F7220636F6E6E656374696F6E3D
:102C20002C20756E6C6F61642066696C616D656ED9
:102C3000742069662070726573656E742E00506C26
:102C40006561736520756E6C6F61642074686520C2
:102C500066696C616D656E742066697273742C2090
:102C60007468656E2072657065617420746869733C
:102C700020616374696F6E2E0057616974696E67B5
:102C800020666F72206E6F7A7A6C6520616E6420A8
:102C900062656420636F6F6C696E670053656C6674
:102CA00074657374204F4B0053656C667465737460
:102CB000207374617274005072696E742066616E64
:102CC0003A00486F74656E642066616E3A00436135
:102CD0006C6962726174696E6720686F6D6500412E
:102CE0006C6C20636F727265637400436865636B1C
:102CF000696E672073656E736F72730043686563F6
:102D00006B696E6720686F74656E64004368656305
:102D10006B696E672062656400436865636B696E0A
:102D200067205A206178697300436865636B696E38
:102D3000672059206178697300436865636B696E29
:102D4000672058206178697300436865636B696E1A
:102D50006720656E6473746F7073004361726420E2
:102D600072656D6F766564004261636B00537465D4
:102D7000616C7468004372617368206465742E002E
:102D80004E6F726D616C004D6F64650053747269B3
:102D90006374005761726E004E6F6E65004E6F7AFD
:102DA0007A6C65206368616E6765643F004E6F7A78
:102DB0007A6C6520697320686F742120576169748B
:102DC00020666F7220636F6F6C646F776E2E005099
:102DD00049442063616C2E2066696E69736865647E
:102DE000005049442063616C2E005072696E74205B
:102DF000706175736564005072696E742061626FF2
:102E0000727465640043616E63656C00436F6E7439
:102E10002E004E6F7A7A6C65206469616D65746509
:102E20007220646966666572732066726F6D2074C5
:102E3000686520472D636F64652E20506C65617353
:102E40006520636865636B207468652076616C75C6
:102E50006520696E2073657474696E67732E004E09
:102E60006F7A7A6C65206469616D6574657220643F
:102E70006966666572732066726F6D20746865207E
:102E8000472D636F64652E00546865726520697311
:102E9000206E6F2066696C616D656E74206C6F6169
:102EA0006465642E004D4B3353206669726D776103
:102EB0007265206465746563746564206F6E204D6F
:102EC0004B33207072696E74657200426C61636B83
:102ED0006F7574206F636375727265642E2052651E
:102EE000636F766572207072696E743F0054686516
:102EF000726D616C206D6F64656C206E6F74206301
:102F0000616C69627261746564207965742E005425
:102F100068657265206973207374696C6C20612028
:102F20006E65656420746F206D616B65205A206347
:102F3000616C6962726174696F6E2E20506C65619C
:102F4000736520666F6C6C6F7720746865206D61A7
:102F50006E75616C2C2063686170746572204669BF
:102F60007273742073746570732C20736563746955
:102F70006F6E2043616C6962726174696F6E206666
:102F80006C6F772E005072696E7465722068617381
:102F9000206E6F74206265656E2063616C69627279
:102FA00061746564207965742E20506C6561736569
:102FB00020666F6C6C6F7720746865206D616E752C
:102FC000616C2C206368617074657220466972734D
:102FD000742073746570732C2073656374696F6EED
:102FE0002043616C6962726174696F6E20666C6FF8
:102FF000772E0053656C66746573742077696C6C0A
:103000002062652072756E20746F2063616C696246
:1030100072617465206163637572617465207365A4
:103020006E736F726C657373207265686F6D696E15
:10303000672E004F6C642073657474696E6773202B
:10304000666F756E642E2044656661756C742050E1
:1030500049442C20457374657073206574632E2079
:1030600077696C6C206265207365742E00576172FD
:103070006E696E673A20626F7468207072696E7450
:103080006572207479706520616E64206D6F74685C
:103090006572626F61726420747970652063686123
:1030A0006E6765642E005761726E696E673A2070B4
:1030B00072696E7465722074797065206368616EE0
:1030C0006765642E005761726E696E673A206D6F96
:1030D00074686572626F61726420747970652063D0
:1030E00068616E6765642E0054657374696E67204D
:1030F00066696C616D656E74005368656574004E39
:103100006F74207370696E6E696E67005370696EBC
:103110006E696E670046616E207465737400536556
:103120006C6674657374206661696C6564002573F0
:10313000206C6576656C20657870656374656400E5
:1031400046616C73652074726967676572696E6742
:103150000046696C616D656E742073656E736F7285
:1031600000537761707065640046726F6E742F6CE7
:103170006566742066616E730041786973004178FA
:103180006973206C656E677468004C6F6F7365209F
:1031900070756C6C6579004C65667420686F746539
:1031A0006E642066616E3F0046726F6E74207072AE
:1031B000696E742066616E3F00456E6473746F7053
:1031C000206E6F742068697400456E6473746F704C
:1031D000004D6F746F7200456E6473746F7073008E
:1031E000576972696E67206572726F72004265641A
:1031F0002F486561746572004E6F7420636F6E6E48
:103200006563746564004865617465722F54686510
:10321000726D6973746F7200506C656173652063C1
:103220006865636B3A0053656C66746573742065FA
:1032300072726F72210053656C6563742066696CED
:10324000616D656E743A0058595A2063616C696209
:10325000726174696F6E206661696C65642E2052BC
:10326000696768742066726F6E742063616C69624E
:10327000726174696F6E20706F696E74206E6F7406
:1032800020726561636861626C652E0058595A202E
:1032900063616C6962726174696F6E206661696CEA
:1032A00065642E2046726F6E742063616C69627271
:1032B0006174696F6E20706F696E7473206E6F74C5
:1032C00020726561636861626C652E0058595A20EE
:1032D00063616C6962726174696F6E206661696CAA
:1032E00065642E20506C6561736520636F6E737525
:1032F0006C7420746865206D616E75616C2E005869
:10330000595A2063616C6962726174696F6E2063DF
:103310006F6D70726F6D697365642E205269676896
:10332000742066726F6E742063616C69627261747E
:10333000696F6E20706F696E74206E6F7420726595
:1033400061636861626C652E0058595A2063616C34
:103350006962726174696F6E20636F6D70726F6DF8
:10336000697365642E2046726F6E742063616C69A8
:1033700062726174696F6E20706F696E7473206E13
:103380006F7420726561636861626C652E005859C4
:103390005A2063616C6962726174696F6E20666144
:1033A000696C65642E204265642063616C69627299
:1033B0006174696F6E20706F696E7420776173201D
:1033C0006E6F7420666F756E642E00506C6561734D
:1033D000652072656D6F766520737465656C20730A
:1033E000686565742066726F6D20686561746265DA
:1033F000642E00506C6561736520706C616365209C
:10340000737465656C207368656574206F6E2068E1
:103410006561746265642E00497320737465656C20
:10342000207368656574206F6E20686561746265DD
:10343000643F0044697374616E63652062657477EC
:1034400065656E20746970206F6620746865206EF3
:103450006F7A7A6C6520616E64207468652062659D
:1034600064207375726661636520686173206E6F96
:1034700074206265656E20736574207965742E20F2
:10348000506C6561736520666F6C6C6F7720746833
:1034900065206D616E75616C2C2063686170746568
:1034A000722046697273742073746570732C207374
:1034B000656374696F6E204669727374206C6179FC
:1034C00065722063616C6962726174696F6E2E004F
:1034D000506C6163652061207368656574206F6658
:1034E00020706170657220756E6465722074686505
:1034F000206E6F7A7A6C6520647572696E672074CD
:1035000068652063616C6962726174696F6E206FB7
:1035100066206669727374203420706F696E7473EC
:103520002E20496620746865206E6F7A7A6C65205B
:103530006361746368657320746865207061706589
:10354000722C20706F776572206F666620746865D4
:10355000207072696E74657220696D6D6564696151
:1035600074656C792E00536561726368696E6720BB
:103570006265642063616C6962726174696F6E2058
:10358000706F696E74004D6561737572696E672046
:103590007265666572656E636520686569676874E3
:1035A000206F662063616C6962726174696F6E205E
:1035B000706F696E7400506C6561736520636C6533
:1035C000616E20746865206E6F7A7A6C6520666F14
:1035D000722063616C6962726174696F6E2E204340
:1035E0006C69636B207768656E20646F6E652E0072
:1035F0004175746F20686F6D6500457870657269FC
:103600006D656E74616C004673656E736F722044F5
:103610006574656374696F6E00302E383000302E2B
:10362000363000302E343000302E3235004469738D
:1036300061626C65206661726D206D6F6465005219
:1036400065736574204D4D55004D4D55004D343416
:10365000004739390044697361626C6520666172A4
:103660006D206D6F64653F00302E383000302E368F
:103670003000302E343000302E32350047323820C2
:103680005859004D20383400852E2E00593A2025F7
:1036900075202D3E202E2E2E00583A202575202DE7
:1036A0003E202E2E2E0046696C616D656E7420736F
:1036B000656E736F7220626F617264206368616E01
:1036C00067652064657465637465643A2072657625
:1036D0006973696F6E25530A004D65617375726574
:1036E000642066696C616D656E742073656E736FBE
:1036F00072206C6F77206C6576656C3A2025342ECD
:103700003266560A004D656173757265642066699C
:103710006C616D656E742073656E736F722068697D
:103720006768206C6576656C3A2025342E326656C3
:103730000A002533642F30002533642F30002563C1
:103740002041584953205347313D25640A00486FB2
:1037500074656E6400426564005A00590058002D7B
:103760002D2D2D2D2D2D2D2D2D2D2D2D2D2D2D2D89
:103770002D2D2D00435A5058496E76616C69645363
:10378000657269616C4E72004D393134004D3931CA
:1037900035004C2250221C2215220A22FB219B2399
:1037A000F421FA22473159252E346645252E3466F8
:1037B0000047315A252E326600473158353059318D
:1037C0003535007F264C22A0233F2235222B22476D
:1037D0003158252E346645252E3466004731463152
:1037E000303830007126642657264B267F263C262B
:1037F000312621261A265425640047315A302E34AA
:10380000004731592D3346313030300050228E265A
:10381000892685267F264D38342058590047312087
:1038200058313235205A3230302046313030300075
:103830004D3331302041204631004731205831325C
:10384000352059313035205A31204638303030005B
:10385000496E76616C6964205049442063616C2E26
:1038600020726573756C74732E204E6F74207374A0
:103870006F72656420746F20454550524F4D2E0085
:103880004D3330312050252E32662049252E3266A8
:103890002044252E3266004D3330332045302053EE
:1038A00025337500524300444556004245544100BB
:1038B000414C5048410000002100240027002A000C
:1038C0002D003000330001010000040107010A014E
:1038D00000002200250028002B002E0031003400BB
:1038E00002010000050108010B0100002000230077
:1038F000260029002C002F003200000100000301E7
:103900000601090105050505070508080808020262
:1039100002020A0A08080404040401010101010169
:1039200001010303030303030303040707070C0C4C
:103930000C0C0C0C0C0C0202020206060606060613
:1039400006060B0B0B0B0B0B0B0B07070A0A0A0ADD
:103950000A0A0505050404040808010210202008CD
:1039600008102040102040800201020108040201DA
:103970000102040810204080804020100804020149
:1039800080040201804020100804020108040201A2
:103990000102040810204080010204081020408029
:1039A000100804088010204004408010204004804B
:1039B00000000A0B02090C0D0E08070304010000A9
:1039C00000000000000000000000000000000000F7
:1039D00000000000000000000000000012111000B4
:1039E00000000000000000000000000000000000D7
:1039F00000000000000000000000000000000000C7
:103A0000000000000000332E31342E31000A204F18
:103A1000726967696E616C205072757361206933D9
:103A20000A2020205072757361205265736561729F
:103A300063680A2532302E32305300435A50580002
:103A40003B530053706F6F6C4A6F696E206973202F
:103A5000006164635F696E697400200A200A200AAD
:103A60002000416C6C20446174610053657276697A
:103A700063652070726570005368697070696E6765
:103A80002070726570005374617469737469637334
:103A9000004C616E67756167650045524153494E40
:103AA0004720616C6C206461746100466163746FCF
:103AB0007279205245534554005052555341334476
:103AC000465700494E54340003000E0001004000E8
:103AD00003000200000004004E4F435455410041D2
:103AE0004C5446414E0073686976616D6D6568742B
:103AF0006132323000323032352D30382D313920BC
:103B000030323A35323A35310020332E31342E31CD
:103B10002D383238345F663365306466643438007B
:103B2000737461727400534E207570646174652003
:103B30006661696C656400534E20757064617465DC
:103B40006400435A50580043524153485F4445541F
:103B5000454354454458590043524153485F4445F6
:103B6000544543544544590043524153485F4445EA
:103B700054454354454458004D323900252D392EC3
:103B800039535B00544D20657374696D6174696FBE
:103B90006E20646964206E6F7420636F6E76657248
:103BA000676500544D20697465723A257520763A30
:103BB000252E326620653A252E33660A00333329D6
:103BC00042000058419A998D4133335340200A20D6
:103BD0000A20004D4D55323A004D6561737572658E
:103BE0002063656E74657220200078797A63616C59
:103BF0005F6D6561737572655F656E7465720A00ED
:103C000078797A63616C5F73706972616C38206374
:103C1000783D25642063793D2564207A303D256414
:103C200020647A3D2564207261646975733D256462
:103C30002061643D25640A0078797A63616C5F7362
:103C400065617263685A206E6F207369676E616C7C
:103C50000A20783D256C6420793D256C64207A3DEE
:103C6000256C640A00204F4E2D5349474E414C208D
:103C7000617420783D256420793D2564207A3D25B6
:103C8000642061643D25640A0078797A63616C5F21
:103C90007365617263685A20783D256C6420793DB4
:103CA000256C64207A3D256C640A0025303278004A
:103CB000205B25662025665D206D6D207061747423
:103CC00065726E2063656E7465720A00205B2566FE
:103CD0002025665D5B25665D206D6D2064697665D7
:103CE0007267656E63650A000000F000F801FC036E
:103CF000FE07FE07FE07FE07FC03F801F0000000C8
:103D000000000000F000F801FC03FC03FC03FC03CE
:103D1000F801F0000000000078797A63616C5F6D53
:103D20006561737572655F6C656176650A00203C3C
:103D300020005741524E494E473A2046726F6E74EA
:103D400020706F696E74206E6F7420726561636895
:103D500061626C652E205920636F6F7264696E61B9
:103D600074653A0000000040410000C04000005C63
:103D7000430000C04000005C430000464300004098
:103D8000410000464325642F340049746572617414
:103D9000696F6E3A200043616C6962726174696F89
:103DA0006E206661696C65642120436865636B20E1
:103DB000746865206178657320616E642072756E29
:103DC00020616761696E2E004D494E54454D50206B
:103DD000424544206669786564004D494E54454D1E
:103DE0005020484F54454E4420666978656400244D
:103DF000F4D43050C38E20C2A24017828B701112AF
:103E00007A910D816CD90AA861E108C758660761EB
:103E10005143061E4B5D05C145A7041A4111040913
:103E20003D9803713931034036DB0265339102D48A
:103E3000305402802E1D02632CEE01752AC501B09C
:103E400028A001102781018F2564012B244B01E05C
:103E5000223401AC211F018D200D01801FFC008444
:103E60001EED00971DDF00B81CD200E61BC6002027
:103E70001BBC00641AB200B219A8000A19A0006A9B
:103E8000189900D117910040178B00B516840031A6
:103E9000167E00B31579003A157300C7146F0058E9
:103EA000146A00EE1366008813630025135E00C7D2
:103EB000125B006C12570015125400C111510070B2
:103EC000114F0021114B00D61049008D10470046BC
:103ED00010440002104200C00F4000800F3E00421C
:103EE0000F3C00060F3B00CB0E3800930E37005CF2
:103EF0000E3500270E3400F30D3200C10D31009055
:103F00000D3000600D2E00320D2D00050D2C00D956
:103F10000C2B00AE0C2900850C29005C0C27003509
:103F20000C27000E0C2600E80B2400C40B2400A074
:103F30000B23007D0B23005A0B2100390B210018A5
:103F40000B2000F80A1F00D90A1E00BB0A1E009DA4
:103F50000A1D00800A1D00630A1C00470A1B002C72
:103F60000A1B00110A1A00F7091A00DD091900C41A
:103F7000091900AB091900920917007B09180063A1
:103F80000917004C09160036091600200916000A08
:103F9000091500F5081500E0081400CC081400B855
:103FA000081400A4081400900813007D0812006B88
:103FB00008130058081200460812003408110023A4
:103FC0000811001208110001081100F0071000E0AC
:103FD000071000D0071000C0071000B0070F00A1A5
:103FE00007100091070E0083070F0074070F00658C
:103FF000070E0057070E0049070E003B070D002E65
:10400000070E0020070D0013070D0006070D00F92D
:10401000060C00ED060D00E0060C00D4060C00C8EE
:10402000060C00BC060C00B0060C00A4060B0099A0
:10403000060C008D060B0082060B0077060B006C49
:10404000060B0061060A0057060B004C060A0042E8
:10405000060A0038060A002E060A0024060A001A7C
:10406000060A001006090007060A00FD050900F40B
:10407000050900EB050900E2050900D9050900D092
:10408000050900C7050900BE050900B5050800AD12
:10409000050800A50509009C050800940508008C8A
:1040A000050800840508007C050800740508006CFC
:1040B000050700650508005D050700560508004E68
:1040C00005070047050700400508003805070031CF
:1040D0000507002A050700230507001C0506001632
:1040E0000507000F0507000805060002050700FB8D
:1040F000040600F5040700EE040600E8040600E2EA
:10410000040700DB040600D5040600CF040600C93E
:10411000040600C3040600BD040600B7040600B18F
:10412000040500AC040600A6040600A00405009BDC
:1041300004060095040500900406008A0405008525
:10414000040500800406007A04050075040500706B
:104150000405006B04050066040500610405005CAD
:1041600004050057040500520405004D04050048ED
:10417000040500430405003E0404003A040500352C
:10418000040500300404002C040500270404002367
:104190000405001E0404001A04040016040500119E
:1041A0000404000D040400090405000404040000D4
:1041B000040400FC030400F8030400F4030400F00A
:1041C000030400EC030400E8030400E4030400E03B
:1041D000030400DC030400D8030400D4030400D06B
:1041E000030400CC030400C8030300C50303002438
:1041F000F404D9201BC40C5C0E9804C4095F02654A
:10420000077101F405F900FB04B30048048700C1FD
:104210000369005803550003034500BE023A0084B9
:1042200002310053022A002902250004022000E482
:10423000011C00C8011900AF011700980114008487
:10424000011300710110006101100051010E0043C3
:10425000010D0036010B002B010B0020010B001596
:104260000109000C01090003010800FB000800F32C
:10427000000800EB000700E4000600DE000600D89E
:10428000000600D2000600CC000500C7000500C2F1
:10429000000500BD000400B9000400B5000400B131
:1042A000000400AD000400A9000400A5000300A262
:1042B0000003009F0004009B00030098000300958A
:1042C00000020093000300900003008D0002008BA9
:1042D00000030088000200860002008400030081C1
:1042E0000002007F0002007D0002007B00020079D6
:1042F00000020077000100760002007400020072E4
:10430000000100710002006F0002006D0001006CEE
:104310000002006A000100690002006700010066F7
:1043200000010065000100640002006200010061FC
:10433000000100600001005F0002005D0001005C00
:104340000001005B0001005A000100590001005803
:104350000001005700010056000100550001005403
:104360000001005300000053000100520001005101
:10437000000100500001004F0001004E0000004EFF
:104380000001004D0001004C0001004B0000004BFB
:104390000001004A000100490001004800000048F7
:1043A00000010047000100460000004600010045F2
:1043B00000000045000100440001004300000043EC
:1043C00000010042000000420001004100000041E5
:1043D000000100400001003F0000003F0001003EDE
:1043E0000000003E0001003D0000003D0001003CD7
:1043F0000000003C0000003C0001003B0000003BCE
:104400000001003A0000003A0001003900000039C4
:1044100000010038000000380000003800010037BB
:1044200000000037000100360000003600000036B2
:1044300000010035000000350000003500010034A7
:10444000000000340000003400010033000000339D
:104450000000003300010032000000320000003292
:104460000001003100000031000000310001003087
:1044700000000030000000300001002F0000002F7D
:104480000000002F0000002F0001002E0000002E71
:104490000000002E0001002D0000002D0000002D66
:1044A0000000002D0001002C0000002C0000002C5A
:1044B0000000002C0001002B0000002B0000002B4E
:1044C0000000002B0001002A0000002A0000002A42
:1044D0000000002A00010029000000290000002936
:1044E0000000002900000029000100280000002829
:1044F000000000280000002800000028000100271C
:10450000000000270000002700000027000000270F
:104510000001002600000026000000260000002602
:1045200000000026000100250000002500000025F5
:1045300000000025000000250000002500010024E7
:1045400000000024000000240000002400000024DB
:1045500000010023000000230000002300000023CE
:1045600000000023000000230000002300010022BF
:1045700000000022000000220000002200000022B3
:1045800000000022000100210000002100000021A5
:104590000000002100000021000000210000002197
:1045A000000100200000002000000020000000208A
:1045B000000000200000002000000020000000207B
:1045C0000001001F0000001F0000001F0000001F6E
:1045D0000000001F0000001F0000001F0001001E5F
:1045E0000000001E0000001E0000001E0000005021
:1045F0004944204175746F74756E652066696E69F3
:1046000073686564212050757420746865206C613E
:104610007374204B702C204B6920616E64204B64B6
:1046200020636F6E7374616E74732066726F6D2099
:1046300061626F766520696E746F20436F6E666984
:104640006775726174696F6E2E680050494420412D
:1046500075746F74756E65206661696C6564212080
:1046600074696D656F75740020403A00543A0042D9
:104670003A00504944204175746F74756E65206628
:1046800061696C6564212054656D70657261747533
:10469000726520746F6F206869676800204B643A08
:1046A0002000204B693A2000204B703A2000204324
:1046B0006C61737369632050494420002054753A3B
:1046C0002000204B753A2000206D61783A200020B0
:1046D0006D696E3A200020643A200020626961739F
:1046E0003A2000504944204175746F74756E6520FE
:1046F000737461727400504944204175746F74750D
:104700006E65206661696C65642E20426164206577
:1047100078747275646572206E756D6265722E00B4
:10472000544D4C20256420256420257820256C7864
:1047300020256C780A004D494E54454D50004D4996
:104740004E54454D5020424544004D494E54454D30
:104750005020414D42004D415854454D50004D416F
:104760005854454D5020424544004D415854454D04
:104770005020414D4200544D3A206572726F7220B4
:10478000636C656172656400544D3A206572726FA6
:1047900072207472696767657265642100544845C8
:1047A000524D414C20414E4F4D414C590052657382
:1047B000756D696E67207072696E740050494E4461
:1047C000412048656174696E670043616C6962727B
:1047D0006174696F6E20646F6E650043616C69621D
:1047E000726174696E67205A0042656420646F6E5E
:1047F00065004265642048656174696E67004865BC
:104800006174696E6720646F6E652E00486561741F
:10481000696E67004D4D5520706F77657220666137
:10482000696C73004D4D55206C6F61642066616941
:104830006C73004D4D55206661696C73004D617459
:10484000657269616C206368616E67657300546F9F
:1048500074616C206661696C757265730043726186
:1048600073680046696C2E2072756E6F75747300E4
:10487000506F776572206661696C75726573004C64
:10488000617374207072696E74206661696C7572F0
:10489000657300546F74616C004C617374207072A6
:1048A000696E7400416D6269656E7400566F6C7458
:1048B000616765730054656D7065726174757265CA
:1048C000730042656C742073746174757300536572
:1048D0006E736F7220696E666F00457874727564CE
:1048E000657220696E666F0058595A2063616C2E9C
:1048F0002064657461696C73005072696E746572CE
:1049000020495020416464723A00756E6B6E6F7777
:104910006E004D4D5520636F6E6E65637465640067
:10492000446174653A00746F20756E6C6F61642029
:1049300066696C616D656E7400746F206C6F616484
:104940002066696C616D656E7400507265737320CA
:10495000746865206B6E6F62005072656865617483
:10496000696E6720746F20637574005072656865A6
:104970006174696E6720746F20656A6563740050A6
:10498000726568656174696E6720746F20756E6CFE
:104990006F61640050726568656174696E67207448
:1049A0006F206C6F616400436F6F6C646F776E0093
:1049B000456A6563740046696C616D656E74206557
:1049C0007874727564696E67202620776974682030
:1049D000636F727265637420636F6C6F723F004126
:1049E00075746F6C6F6164696E672066696C616D68
:1049F000656E74206973206163746976652C206A22
:104A000075737420707265737320746865206B6EA3
:104A10006F6220616E6420696E73657274206669CE
:104A20006C616D656E742E2E2E005072696E74204E
:104A300074696D650046696C616D656E742075738F
:104A4000656400546F74616C207072696E742074B8
:104A5000696D6500546F74616C2066696C616D6589
:104A60006E74005072656865617420746865206EAC
:104A70006F7A7A6C6521004552524F523A00526962
:104A8000676874004C6566740059206469737461CA
:104A90006E63652066726F6D206D696E005365767A
:104AA00065726520736B657700536C696768742065
:104AB000736B6577004D6561737572656420736B08
:104AC0006577005B303B305D20706F696E74206FDE
:104AD00066667365740041646A757374696E6720F5
:104AE0005A00526561722073696465205BE46D5DF4
:104AF0000046726F6E7420736964655BE46D5D00DF
:104B0000526967687420736964655BE46D5D004C8D
:104B10006566742073696465205BE46D5D005365B0
:104B2000742074656D70657261747572653A0050B9
:104B3000494E44412063616C6962726174696F6EB1
:104B4000206661696C65640050494E444120636190
:104B50006C6962726174696F6E2069732066696E38
:104B6000697368656420616E642061637469766549
:104B70002E2049742063616E206265206469736130
:104B8000626C656420696E206D656E752053657476
:104B900074696E67732D3E50494E44412063616CC9
:104BA0002E004578747275646572004D6F766520CD
:104BB0005A004D6F76652059004D6F76652058007C
:104BC000437261736820646574656374696F6E20F5
:104BD00063616E0A6265207475726E6564206F6E23
:104BE000206F6E6C7920696E0A4E6F726D616C2059
:104BF0006D6F6465005741524E494E473A0A437201
:104C000061736820646574656374696F6E0A6469B2
:104C10007361626C656420696E0A537465616C74BB
:104C200068206D6F6465004D6F6465206368616E18
:104C3000676520696E2070726F67726573732E2EC0
:104C40002E00536865657420252E37730A5A206F2D
:104C500066667365743A20252B312E33666D6D0AB6
:104C60002563436F6E74696E75650A2563526573BB
:104C7000657400506C65617365206C6F61642066BB
:104C8000696C616D656E742066697273742E005272
:104C9000756E6E696E672057697A617264207769F4
:104CA0006C6C2064656C6574652063757272656EEA
:104CB000742063616C6962726174696F6E207265E1
:104CC00073756C747320616E6420737461727420E8
:104CD00066726F6D2074686520626567696E6E69C3
:104CE0006E672E0050726568656174696E67206E2C
:104CF0006F7A7A6C652E20506C65617365207761E0
:104D000069742E00506C6561736520696E736572FD
:104D1000742066696C616D656E7420696E746F20B5
:104D20007468652065787472756465722C20746887
:104D3000656E20707265737320746865206B6E6F8A
:104D40006220746F206C6F61642069742E00506C57
:104D50006561736520696E736572742066696C6144
:104D60006D656E7420696E746F2074686520666965
:104D70007273742074756265206F66207468652094
:104D80004D4D552C207468656E20707265737320CC
:104D9000746865206B6E6F6220746F206C6F616445
:104DA0002069742E005A2063616C696272617469B3
:104DB0006F6E207265636F6D6D656E6465642E2025
:104DC00052756E206974206E6F773F0054686520BD
:104DD0007072696E7465722077696C6C207374618F
:104DE0007274207072696E74696E672061207A69CE
:104DF000672D7A6167206C696E652E20526F746131
:104E0000746520746865206B6E6F6220756E7469BE
:104E10006C20796F75207265616368207468652005
:104E20006F7074696D616C206865696768742E20A5
:104E3000436865636B20746865207069637475727C
:104E4000657320696E207468652068616E64626FA6
:104E50006F6B202843616C6962726174696F6E20A8
:104E600063686170746572292E0053656C656374A4
:104E70002074656D706572617475726520776869FC
:104E80006368206D61746368657320796F75722043
:104E90006D6174657269616C2E0053656C65637435
:104EA00020612066696C616D656E7420666F72208A
:104EB000746865204669727374204C61796572204C
:104EC00043616C6962726174696F6E20616E642007
:104ED00073656C65637420697420696E20746865FD
:104EE000206F6E2D73637265656E206D656E752E15
:104EF000004E6F7720492077696C6C2063616C6984
:104F000062726174652064697374616E63652062A6
:104F100065747765656E20746970206F66207468AB
:104F200065206E6F7A7A6C6520616E6420686561B9
:104F30007462656420737572666163652E00506CDF
:104F40006561736520636865636B206F75722068A7
:104F5000616E64626F6F6B20616E64206669782099
:104F60007468652070726F626C656D2E2054686580
:104F70006E20726573756D65207468652057697A57
:104F8000617264206279207265626F6F74696E6706
:104F900020746865207072696E7465722E00416CB1
:104FA0006C20697320646F6E652E20486170707983
:104FB000207072696E74696E672100596F75206385
:104FC000616E20616C7761797320726573756D65B0
:104FD000207468652057697A6172642066726F6D0B
:104FE0002043616C6962726174696F6E202D3E208E
:104FF00057697A6172642E00496620796F7520685E
:10500000617665206164646974696F6E616C207398
:105010007465656C207368656574732C2063616CBE
:105020006962726174652074686569722070726566
:105030007365747320696E2053657474696E677349
:10504000202D204857205365747570202D205374EF
:1050500065656C207368656574732E00506C6561BE
:10506000736520636C65616E206865617462656458
:1050700020616E64207468656E20707265737320A1
:10508000746865206B6E6F622E00446F20796F75B7
:105090002077616E7420746F207265706561742072
:1050A0006C617374207374657020746F2072656115
:1050B000646A7573742064697374616E63652062D9
:1050C00065747765656E206E6F7A7A6C6520616EA7
:1050D0006420686561746265643F0053656C656354
:1050E00074206E6F7A7A6C65207072656865617481
:1050F0002074656D7065726174757265207768697A
:105100006368206D61746368657320796F757220C0
:105110006D6174657269616C2E0049732066696CFB
:10512000616D656E74206C6F616465643F005468E6
:1051300065726D616C206D6F64656C2063616C2EAF
:105140002074616B657320617070726F782E2031EE
:1051500032206D696E732E205365650A7072757307
:10516000612E696F2F746D2D63616C004E6F772017
:10517000492077696C6C2070726568656174206E77
:105180006F7A7A6C6520666F7220504C412E004910
:105190002077696C6C2072756E207A2063616C696F
:1051A00062726174696F6E206E6F772E004E6F773A
:1051B0002072656D6F766520746865207465737400
:1051C000207072696E742066726F6D2073746565ED
:1051D0006C2073686565742E00506C656173652082
:1051E00072656D6F7665207368697070696E67208F
:1051F00068656C706572732066697273742E0049FD
:105200002077696C6C2072756E2078797A206361E2
:105210006C6962726174696F6E206E6F772E2049BF
:10522000742077696C6C2074616B652075702074D4
:105230006F203234206D696E732E0046697273746C
:105240002C20492077696C6C2072756E207468651B
:105250002073656C667465737420746F2063686571
:10526000636B206D6F737420636F6D6D6F6E206163
:105270007373656D626C792070726F626C656D73AB
:105280002E0048692C204920616D20796F757220AD
:105290004F726967696E616C205072757361206925
:1052A00033207072696E7465722E20576F756C644E
:1052B00020796F75206C696B65206D6520746F2097
:1052C000677569646520796F75207468726F75679A
:1052D00068207468652073657475702070726F63E0
:1052E0006573733F0048692C204920616D20796FF8
:1052F0007572204F726967696E616C2050727573A8
:1053000061206933207072696E7465722E204920A5
:1053100077696C6C20677569646520796F75207496
:1053200068726F75676820612073686F727420738C
:10533000657475702070726F636573732C20696E6D
:1053400020776869636820746865205A2D617869E0
:10535000732077696C6C2062652063616C6962728E
:10536000617465642E205468656E2C20796F7520F9
:1053700077696C6C20626520726561647920746F56
:10538000207072696E742E00452D636F72726563B2
:1053900074005A2D636F727265637400592D636FC8
:1053A000727265637400582D636F72726563740066
:1053B000506175736500465320416374696F6E00D8
:1053C000462E206175746F6C6F616400462E2072EA
:1053D000756E6F7574004D4D55204D6F64650043BB
:1053E00075747465720046616E2073706565640043
:1053F0004265640046616E7320636865636B004DAF
:105400006F64656C004E6F7A7A6C6500544D3A207B
:105410006572726F72207C25667C3E25660A00707C
:10542000012C0190012701B0012201C0011D01F0F2
:105430000118011002130130020E016002090190EF
:10544000020401C002FF000003FA004003F50080DF
:1054500003F000D003EB002004E6007004E100E05C
:1054600004DC004005D700C005D2004006CD00D0C6
:1054700006C8008007C3003008BE00F008B900C0AD
:1054800009B400B00AAF00B00BAA00D00CA5000010
:105490000EA000500F9B00C010960050129100000B
:1054A000148C00C0158700B0178200B0197D00D0A1
:1054B0001B7800001E730040206E0090226900F0EF
:1054C00024640040275F0090295A00E02B5500100B
:1054D0002E500020304B0010324600E03341009047
:1054E000353C001037370070383200A0392D00B03D
:1054F0003A2800A03B2300603C1E00103D1900909C
:105500003D1400103E0F00703E0A00C03E05000032
:105510003F000090137D00B0157800F01773006015
:105520001A6E00F01C6900A01F640050225F00206A
:10553000255A00E0275500902A5000202D4B00A04E
:105540002F4600F031410010343C00F0353700A008
:1055500037320020392D00603A2800703B2300606C
:105560003C1E00203D1900C03D1400403E0F00A02D
:105570003E0A00F03E0500403F0000703FFBFF90F8
:105580003FF6FFB03FF1FFC03FECFFD03FE7FFE049
:105590003FE2FFF03FDDFFF03FD8FF20484F54458A
:1055A0004E4420544845524D414C2052554E41578F
:1055B00041590020484541544245442054484552F1
:1055C0004D414C2052554E41574159005448455287
:1055D0004D414C2052554E415741590042454420BF
:1055E000544845524D414C2052554E415741590067
:1055F00020544845524D414C2052554E4157415937
:1056000020285052454845415420484F54454E4467
:10561000290020544845524D414C2052554E415787
:10562000415920285052454845415420484541544D
:105630004245442900505245484541542045525264
:105640004F52004245442050524548454154204560
:1056500052524F5200207472696767657265642107
:105660000048656174657273207377697463686557
:1056700064206F66662E20003A20004572723A2040
:105680000000FF0102010002FFFFFE0001FE01FF1A
:1056900000506C656173652072657374617274008B
:1056A000544D3A20696E76616C6964207061726154
:1056B0006D65746572732C2063616E6E6F74206506
:1056C0006E61626C6500255320204D3331302050CF
:1056D000252E32662055252E34662056252E32661C
:1056E0002043252E32662044252E3466204C257515
:1056F00020532575204225752045252E32662057DA
:10570000252E32662054252E32660A00255320208D
:105710004D333130204925752052252E32660A003E
:10572000546865726D616C204D6F64656C207365A3
:105730007474696E67733A00CDCCF4410000E8419F
:105740000000DC410000C4413333BB416666B24116
:105750009A99A9419A99A14166669E4133339B412A
:1057600000009841CDCC944166669241CDCC9041E9
:1057700033338F419A998D41452D6D6F746F72202F
:1057800063757272656E74207363616C696E6720F5
:10579000656E61626C656400010808010A0A011403
:1057A00014011212746D63323133305F686F6D65AE
:1057B0005F656E74657228617865735F6D61736B88
:1057C0003D307825303278290A00746D63323133E8
:1057D000305F686F6D655F6578697420746D6332E2
:1057E0003133305F73675F686F6D696E675F6178D3
:1057F00065735F6D61736B3D3078253032780A00D8
:10580000544D4320445249564552204F5645525418
:10581000454D5000486F6C642063757272656E74FC
:10582000207472756E636174656420746F205275A4
:105830006E2063757272656E740025632533642F64
:10584000256481005A25362E32662563005A2020B1
:10585000202D2D2D2000862533642525002D2D2D6E
:1058600025250025336425250020534400202020D1
:105870000020484F002046524D2000872533756890
:1058800020256325630087253032753A253032752F
:1058900025632563002F2F616374696F6E3A706111
:1058A00075736564002F2F616374696F6E3A706160
:1058B0007573650044756D70206D656D6F7279004C
:1058C00068656C702E707275736133642E636F6DD2
:1058D00000666F72756D2E707275736133642E631E
:1058E0006F6D00707275736133642E636F6D004D60
:1058F0003730310025533A0A2531382E32666D2073
:105900000A25533A0A2531306C6468202530326408
:105910006D2025303264730025533A0A2531382E24
:1059200032666D200A25533A0A2531306C646420B2
:10593000253032646820253032646D0025362E32E1
:10594000666D6D0025530A25530A25533A0A2553DF
:105950003A0025332E32668100252D31342E313424
:10596000533A0A25530A252D31342E3134533A2522
:10597000332E3266810A252D31342E3134533A25A7
:10598000332E32668100202030002020310046492D
:105990004E44410050494E44410057697A61726457
:1059A00020656E642073746174653A2025640A0072
:1059B00053706F6F6C4A6F696E004669726D7761E4
:1059C000726500726573756C742076616C75653AEA
:1059D0002025640A0020693D25326420636E743DF1
:1059E0002532642076616C3D2532640A00636C7553
:1059F00073746572733A0020693D253264207374B4
:105A000065703D2532640A00736F7274656420739B
:105A1000616D706C65733A00555341525432207277
:105A2000782046756C6C212121003A2000252D310B
:105A3000322E313253252D642F36002533642F2525
:105A40002D336400203A200025335300252D377371
:105A5000004E642025342E32662000252D31352E4F
:105A6000313553252D35640A252D31352E313553E9
:105A7000252D35640A0025530A20252D31362E3177
:105A80003653252D33640A20252D31362E313653D9
:105A9000252D33640025530A20252D31362E31362D
:105AA00053252D33640A20252D31362E31365325CA
:105AB0002D33640A20252D31362E313653252D33D2
:105AC000640025530A20252D31362E313653252DDD
:105AD00033640A20252D31362E313653252D33647B
